:100000000C9464000C948C000C948C000C948C0068
:100010000C948C000C948C000C948C000C948C0030
:100020000C948C000C948C000C948C000C948C0020
:100030000C948C000C948C000C948C000C948C0010
:100040000C94B4010C948C000C9468040C949A04E5
:100050000C948C000C948C000C948C000C948C00F0
:100060000C948C000C948C0000000008000201002D
:100070000003040700000000000000000102040863
:100080001020408001020408102001020408102002
:10009000040404040404040402020202020203032E
:1000A0000303030300000000250028002B000000CC
:1000B0000000240027002A008E00CA047A05BC092B
:1000C00007105C10DF13A20011241FBECFEFD8E091
:1000D000DEBFCDBF12E0A0E0B1E0E2EDF7E302C089
:1000E00005900D92A832B107D9F723E0A8E2B2E05B
:1000F00001C01D92A73BB207E1F710E0C3E6D0E0D4
:1001000004C02197FE010E94B11BCC35D107C9F76D
:100110000E94F8040C94F61A0C9400000F9300E06F
:1001200020E040E060E085E692E00E94530586E42E
:1001300092E00E94440967E471E088E292E00F9146
:100140000C94F30588E292E00C948505EF92FF92FF
:100150000F931F93CF93DF9300D000D000D0CDB783
:10016000DEB726E040E855E260E070E084E792E028
:100170000E94FC060CE011E0F80161918F01809172
:100180006302909164020E94CE1B80916302909161
:10019000640201969093640280936302F1E002315D
:1001A0001F0751F760911401809112019091130182
:1001B0000E94CE1B07E010E060E0C8010E94CE1B49
:1001C0000F5F1F4F011584E01807B1F700E010E042
:1001D0006CE171E084E792E00E9496036CE371E0C9
:1001E00084E792E00E947F034AE050E0B80184E790
:1001F00092E00E944D0466E471E084E792E00E9480
:100200007F0368E471E084E792E00E947F03C80105
:100210000E94C61B4AE050E0682F84E792E00E94EB
:10022000610466E471E084E792E00E947F030F5F5F
:100230001F4F0830110561F610EAE12E1FE0F12E84
:1002400000E010E020E63AEE40E050E06CE071E0C3
:100250008FE293E00E94420F892B39F46FE471E042
:1002600084E792E00E949603FFCF67E771E084E79E
:1002700092E00E9496036FE273E0CE0101960E9425
:10028000DF0FBE016F5F7F4F84E792E00E94A803FB
:1002900060910A0170910B0186E492E00E942D08A2
:1002A0006CED75E080E090E00E942F0261E084E058
:1002B0000E94D00261E084E00E940C0326960FB6F3
:1002C000F894DEBF0FBECDBFDF91CF911F910F918C
:1002D000FF90EF900895CF93DF9300D000D000D02F
:1002E000CDB7DEB786E492E00E945A08909362028E
:1002F0008093610263E871E084E792E00E949603D4
:1003000080916102909162021816190624F548E165
:1003100050E06EE272E086E492E00E94F5076EE241
:1003200072E0CE0101960E94F3056AEA71E0CE0107
:1003300001960E940806882351F060EB71E084E783
:1003400092E00E94960360E084E00E940C03CE01DC
:1003500001960E94850526960FB6F894DEBF0FBE63
:10036000CDBFDF91CF9108951F920F920FB60F92DC
:1003700011242F933F938F939F93AF93BF938091BB
:100380006C0290916D02A0916E02B0916F0230915B
:100390006B0223E0230F2D3720F40196A11DB11D20
:1003A00005C026E8230F0296A11DB11D20936B0204
:1003B00080936C0290936D02A0936E02B0936F02D3
:1003C0008091700290917102A0917202B0917302BB
:1003D0000196A11DB11D8093700290937102A093AC
:1003E0007202B0937302BF91AF919F918F913F9131
:1003F0002F910F900FBE0F901F9018952FB7F89464
:1004000060916C0270916D0280916E0290916F020A
:100410002FBF08953FB7F8948091700290917102B8
:10042000A0917202B091730226B5A89B05C02F3F20
:1004300019F00196A11DB11D3FBFBA2FA92F982F0A
:100440008827820F911DA11DB11DBC01CD0142E085
:10045000660F771F881F991F4A95D1F708958F92CD
:100460009F92AF92BF92CF92DF92EF92FF926B0179
:100470007C010E940A024B015C01C114D104E10419
:10048000F10401F10E94A6020E940A02DC01CB01E4
:1004900088199909AA09BB09883E9340A105B105AD
:1004A00060F321E0C21AD108E108F10888EE880E55
:1004B00083E0981EA11CB11CC114D104E104F10415
:1004C00019F7DBCFFF90EF90DF90CF90BF90AF9008
:1004D0009F908F900895789484B5826084BD84B590
:1004E000816084BD85B5826085BD85B5816085BD2F
:1004F000EEE6F0E0808181608083E1E8F0E0108248
:10050000808182608083808181608083E0E8F0E088
:10051000808181608083E1EBF0E080818460808372
:10052000E0EBF0E0808181608083EAE7F0E08081A9
:100530008460808380818260808380818160808309
:100540008081806880831092C1000895089583306F
:1005500081F028F4813099F08230A1F0089587303D
:10056000A9F08830B9F08430D1F4809180008F7D7B
:1005700003C0809180008F7780938000089584B5B8
:100580008F7702C084B58F7D84BD08958091B000BF
:100590008F7703C08091B0008F7D8093B000089565
:1005A000CF93DF9390E0FC01E458FF4F2491FC01CE
:1005B000E057FF4F8491882361F190E0880F991FE5
:1005C000FC01E255FF4FC591D491FC01EC55FF4F62
:1005D000A591B491611109C09FB7F89488812095C5
:1005E00082238883EC912E230BC0623061F49FB785
:1005F000F8943881822F809583238883EC912E2B69
:100600002C939FBF06C08FB7F894E8812E2B2883C8
:100610008FBFDF91CF9108951F93CF93DF93282F42
:1006200030E0F901E859FF4F8491F901E458FF4F98
:10063000D491F901E057FF4FC491CC23C9F0162F94
:1006400081110E94A702EC2FF0E0EE0FFF1FEC5586
:10065000FF4FA591B4918FB7F894111105C09C91EB
:10066000ED2FE095E92302C0EC91ED2BEC938FBFC9
:10067000DF91CF911F91089580E090E00895CF928F
:10068000DF92EF92FF920F931F93CF93DF936C0152
:100690007A018B01C0E0D0E0CE15DF0589F0D801EA
:1006A0006D918D01D601ED91FC910190F081E02DCD
:1006B000C6010995892B11F47E0102C02196ECCF69
:1006C000C701DF91CF911F910F91FF90EF90DF90C5
:1006D000CF9008956115710579F0FB01019000201C
:1006E000E9F73197AF01461B570BDC01ED91FC9107
:1006F0000280F381E02D099480E090E008950C944D
:100700006A03DC01ED91FC910190F081E02D0994E8
:10071000DB01ED91FC9111970190F081E02DBC017E
:10072000CD01099461ED71E00C946A030F931F935E
:10073000CF93DF93EC010E946A038C01CE010E94EB
:100740009203800F911FDF91CF911F910F91089518
:100750000F931F93CF93DF93EC010E9488038C01CA
:10076000CE010E949203800F911FDF91CF911F91C4
:100770000F9108954F925F926F927F92EF92FF9246
:100780000F931F93CF93DF93CDB7DEB7A1970FB62B
:10079000F894DEBF0FBECDBF7C01FA01CB0119A2D8
:1007A000223008F42AE08E010F5D1F4F422E512C9B
:1007B000612C712CBF01A30192010E941F1BF90142
:1007C000CA01015011096A3014F4605D01C0695C0E
:1007D000D8016C93232B242B252B61F7B801C7017B
:1007E0000E946A03A1960FB6F894DEBF0FBECDBF7C
:1007F000DF91CF911F910F91FF90EF907F906F90BD
:100800005F904F900895CF92DF92EF92FF920F93F7
:100810001F93CF93DF93EC016A017B012115310512
:1008200079F4E881F9810190F081E02D642FDF9166
:10083000CF911F910F91FF90EF90DF90CF9009948F
:100840002A303105E9F477FF1AC06DE20E94810376
:100850008C0144275527BA014C195D096E097F099F
:100860002AE0CE010E94BA03800F911FDF91CF9141
:100870001F910F91FF90EF90DF90CF9008952AE0A5
:10088000B701A601CE01DF91CF911F910F91FF908B
:10089000EF90DF90CF900C94BA039A01AB01770FE1
:1008A000660B770B0C9403042115310541F4DC0130
:1008B000ED91FC910190F081E02D642F09940C944E
:1008C000BA039A01462F50E060E070E00C945404A3
:1008D0001F920F920FB60F9211242F938F939F9315
:1008E000EF93FF93E0918402F09185028081E09183
:1008F0008A02F0918B0282FD12C0908180918D025C
:100900008F5F8F7320918E02821751F0E0918D02DC
:10091000F0E0EC58FD4F958F80938D0201C08081EF
:10092000FF91EF919F918F912F910F900FBE0F909C
:100930001F9018951F920F920FB60F9211242F93AC
:100940003F934F935F936F937F938F939F93AF9357
:10095000BF93EF93FF9384E792E00E947206FF91AA
:10096000EF91BF91AF919F918F917F916F915F9127
:100970004F913F912F910F900FBE0F901F901895A0
:1009800084E792E00E94270621E0892B09F420E009
:10099000822F0895E4E7F2E01382128288EE93E05A
:1009A000A0E0B0E084839583A683B7838AEE91E0CC
:1009B0009183808385EC90E09587848784EC90E038
:1009C0009787868780EC90E0918B808B81EC90E01C
:1009D000938B828B82EC90E0958B848B86EC90E0FD
:1009E000978B868B118E128E138E148E0895089518
:1009F0000E946B020E94F7040E94A600C4E6D6E0A3
:100A00000E946B012097E1F30E946406F9CF8F9258
:100A10009F92AF92BF92CF92DF92EF92FF920F938D
:100A20001F93CF93DF937C018B016C0182E0C80E92
:100A3000D11C4701E5E08E0E911CC0E0D0E0F6012C
:100A400061916F014AE050E0C8010E9461045C01BD
:100A50006EE2C8010E9481038A0D9B1DC80FD91F39
:100A6000C814D90461F74AE050E0F7016581C80174
:100A70000E9461048C0F9D1FDF91CF911F910F91F8
:100A8000FF90EF90DF90CF90BF90AF909F908F90AE
:100A9000089524EE31E0FC01318320831282138219
:100AA0001482158208950F93FC0184EE91E09183E6
:100AB000808362834383248305830F91089524EE0A
:100AC00031E0FC0131832083FB014081518162814F
:100AD0007381FC0142835383648375830895FB0112
:100AE0004081518162817381FC014283538364831D
:100AF00075830895E1E1F3E084EE91E091838083D2
:100B000012821382148215820895FC0180819181E2
:100B10000C943819CF93DF93EC0188819981009769
:100B200011F00E943819198218821D821C821B82C2
:100B30001A82DF91CF9108950F931F93CF93DF9384
:100B4000EC018B016F5F7F4F888199810E942C1A85
:100B5000009731F0998388831B830A8381E001C069
:100B600080E0DF91CF911F910F910895CF93DF9394
:100B7000EC0188819981892B29F08A819B818617D4
:100B8000970760F4CE010E949C05882341F08C8178
:100B90009D81892B19F4E881F981108281E0DF9130
:100BA000CF910895EF92FF920F931F93CF93DF930E
:100BB000EC017B018A01BA010E94B605811104C0D3
:100BC000CE010E948A0507C01D830C83B70188816E
:100BD00099810E94181BCE01DF91CF911F910F9137
:100BE000FF90EF900895FC0111821082138212820F
:100BF000158214826115710551F0FB0101900020EE
:100C0000E9F73197AF01461B570B0C94D2050895B5
:100C1000FC0124813581232B31F421E0611571051C
:100C2000A1F0FB0108C0FC01808191816115710573
:100C300031F421E0FC018081882339F005C00E9455
:100C40000F1B21E0892B09F020E0822F0895FC0181
:100C5000918D228D892F90E0805C9F4F821B91099E
:100C60008F7399270895FC01918D828D981731F02B
:100C7000828DE80FF11D858D90E008958FEF9FEF35
:100C80000895FC01918D828D981761F0828DDF01AE
:100C9000A80FB11D5D968C91928D9F5F9F73928F6F
:100CA00090E008958FEF9FEF0895FC01538D448DE0
:100CB000252F30E0842F90E0821B930B541710F007
:100CC000CF9608950197089580EC94E0892B49F020
:100CD00080E090E0892B29F00E94C00481110C94DF
:100CE00000000895FC01848DDF01A80FB11DA35AF7
:100CF000BF4F2C91848D90E001968F739927848F3C
:100D0000A689B7892C93A089B1898C9180648C9332
:100D1000938D848D981306C00288F389E02D80811D
:100D20008F7D80830895CF93DF93EC01888D882396
:100D3000C9F0EA89FB89808185FD05C0A889B98948
:100D40008C9186FD0FC00FB607FCF5CF808185FF23
:100D5000F2CFA889B9898C9185FFEDCFCE010E9491
:100D60007206E7CFDF91CF910895EF92FF920F9334
:100D70001F93CF93DF93EC0181E0888F9B8D8C8D47
:100D8000981305C0E889F989808185FD24C0F62E75
:100D90000B8D10E00F5F1F4F0F731127E02E8C8D0E
:100DA000E8120CC00FB607FCFACFE889F9898081F8
:100DB00085FFF5CFCE010E947206F1CF8B8DFE012B
:100DC000E80FF11DE35AFF4FF0820B8FEA89FB8990
:100DD0008081806207C0EE89FF896083E889F98994
:100DE00080818064808381E090E0DF91CF911F91CA
:100DF0000F91FF90EF900895CF92DF92EF92FF92C4
:100E00001F93CF93DF93EC016A017B01122FE889D6
:100E1000F98982E080834115514E61057105B1F079
:100E200060E079E08DE390E0A70196010E941F1B2E
:100E3000DA01C9010197A109B109B695A79597955E
:100E40008795AC01411580E15807A8F0E889F98938
:100E5000108260E874E88EE190E0A70196010E949C
:100E60001F1BBA01A9014150510961097109769509
:100E7000679557954795EC85FD855083EE85FF85F1
:100E80004083188EEC89FD891083EA89FB89808173
:100E900080618083EA89FB89808188608083EA8918
:100EA000FB89808180688083EA89FB8980818F7DCE
:100EB0008083DF91CF911F91FF90EF90DF90CF90D3
:100EC0000895DC01ED91FC91048CF58DE02D0994E1
:100ED00024EE31E0FC0131832083FB0140895189FC
:100EE00062897389FC014283538364837583089507
:100EF000FC01848995890895FC01818D928D089566
:100F0000CF93DF931F92CDB7DEB76983DC01ED91FC
:100F1000FC910280F381E02D41E050E0BE016F5F63
:100F20007F4F09950F90DF91CF9108950895CF934A
:100F3000DF93EC01888D843061F00E94170DE88DFD
:100F4000F0E0EE0FFF1FEB56FC4F1182108284E0A1
:100F5000888FDF91CF910895FC01178A168A6E5F02
:100F60007F4F808D0C94950EFC01808D0C94DB0ED0
:100F7000CF93DF93EC019A018E899F89AB01BC016D
:100F8000888D0E944E0E2E893F89280F391F3F8B76
:100F90002E8BDF91CF9108950F931F93CF93DF9303
:100FA0001F92CDB7DEB7FC01218D328D232B61F06E
:100FB0008C0141E050E0BE016F5F7F4F808D0E9449
:100FC000940D181619061CF08FEF9FEF08C0F8015A
:100FD000818D928D0197928F818F898190E00F9002
:100FE000DF91CF911F910F910895CF93DF93FC0173
:100FF000218D328D2115310519F48FEF9FEF11C02E
:10100000EC014217530708F0A901888D0E94940D46
:101010001816190694F7298D3A8D281B390B3A8F2B
:10102000298FDF91CF910895CF93DF931F92CDB792
:10103000DEB7FC01218D328D232B49F0BE016F5F9D
:101040007F4F808D0E941F0E898190E002C08FEF3C
:101050009FEF0F90DF91CF910895EF92FF921F9332
:10106000CF93DF93FC01208D243011F080E01CC071
:101070007B01EC0110E0812F0E94EF0C811102C076
:10108000188F05C08831E1F31F5F1430A1F7888DF8
:10109000843061F3FD86EC861A8E198E20E0A7015C
:1010A00062E00E94410D81E0DF91CF911F91FF909E
:1010B000EF9008950F931F93CF93DF93CDB7DEB7D3
:1010C00028970FB6F894DEBF0FBECDBF8C01F80194
:1010D000818D928D892B49F0D801ED91FC9102848C
:1010E000F385E02DC8010995F2CF808D0E94F40DA3
:1010F0001816190654F548E050E0BE016F5F7F4FA7
:10110000D80158968C910E94940D9C0118161906CE
:10111000D4F4BE016F5F7F4FC8010E960E946F0529
:101120008D8190E0982F88272E81820F911DF801E4
:10113000958B848B2F8130E0322F22278885280FD2
:10114000311D328F218FC90102C080E090E02896C6
:101150000FB6F894DEBF0FBECDBFDF91CF911F91C8
:101160000F9108958F929F92AF92BF92CF92DF928C
:10117000EF92FF920F931F93CF93DF9300D000D095
:1011800000D0CDB7DEB7FC01208D243009F068C057
:101190006A017B018C0153E0852E54E0952EA12C31
:1011A000B12CC4010E94950A811103C0F801A08EE0
:1011B0000AC08831D9F3FFEFAF1ABF0A9394E4E075
:1011C000AE16B10471F7F801808D843009F448C07F
:1011D00096E0E6E1F1E0DE01119601900D929A951C
:1011E000E1F7F70193819F779C8394819D8395819B
:1011F0009E83B7016E5F7F4F90E0982F882744E071
:1012000050E0845F9B4F0E94660AF801E08CF12C4D
:10121000F4E0EF0EF11CFE2CEE246D2DC70140967C
:101220000E94D2096C2DC70141960E94D209F80193
:10123000808D90E0982F882746E050E0BE016F5FD8
:101240007F4F8A5F9B4F0E94660AF801128E118EB3
:1012500020E8A60162E0808D0E94410D81E001C07E
:1012600080E026960FB6F894DEBF0FBECDBFDF91AB
:10127000CF911F910F91FF90EF90DF90CF90BF9093
:10128000AF909F908F900895CF93DF93EC011B82D6
:101290001A8288EE93E0A0E0B0E08C839D83AE8359
:1012A000BF838CEF91E099838883CE010E960E94D4
:1012B000490584E0888FDF91CF910895CF92DF9226
:1012C000EF92FF920F931F93CF93DF93CDB7DEB7CB
:1012D000AF970FB6F894DEBF0FBECDBF8C016B0188
:1012E0007A01CE0101960E944905CE0109960E941D
:1012F0004409CE018A960E9449056FE273E0CE014F
:1013000084960E94F70FBE016C5D7F4FCE0101965F
:101310000E941910AE01465D5F4FB601CE010196E5
:101320000E94881281309105C1F4D801ED91FC91A1
:101330000488F589E02D84EE91E09DA38CA38CA513
:101340009DA5AEA5BFA58EA39FA3A8A7B9A7A701DA
:10135000BE016C5D7F4FC8010995AF960FB6F8943A
:10136000DEBF0FBECDBFDF91CF911F910F91FF90D8
:10137000EF90DF90CF9008950F9300E020E040E0E1
:1013800060E087E193E00E9453050F9108958EBDC0
:1013900000000DB407FEFDCF8EB508952A9808957C
:1013A0002A9A08951F93CF93DF9300D0CDB7DEB76D
:1013B000182F6A8399830E94CE0980EF0E94C70983
:1013C0009981892F0E94C709812F0E94C7096A81CC
:1013D000862F0E94C7090E94D00981E00F900F90CC
:1013E000DF91CF911F910895CF93DF93EC016CE2D1
:1013F00071E080E090E00E942F020E941613229A72
:101400008091AB03882399F02FB7F8948091AB03B8
:10141000813059F48DB38093A9039DB38091AA03C1
:10142000809589238DBB2FBF02C02093A90380E53F
:101430008CBD1DBC60E880E090E00E94D20965E5AB
:101440008BE190E00E94D20965E58AE190E00E947C
:10145000D2098091AB03882351F09FB7F894209173
:10146000AB038091A903213029F58DBB9FBF80E09C
:1014700090E49983888380E090E69987888780E06C
:1014800098E49B838A8380E098E69B878A8780E044
:1014900090E59D838C8380E090E79D878C8780E03A
:1014A00098E59F838E8380E098E79F878E87DF9102
:1014B000CF9108958FBFDBCF9B0190E00496982FCA
:1014C0008827642F820F931F0C94D209CF92DF924A
:1014D000EF92FF920F931F93CF93DF93EC017A016A
:1014E0008B016C01C40ED51ECC15DD05A1F00E9448
:1014F000CE0980EF0E94C7098D2F0E94C7098C2F4B
:101500000E94C7092196F80181918F010E94C709A5
:101510000E94D009E9CFC701DF91CF911F910F91B0
:10152000FF90EF90DF90CF9008951F93CF93DF93BC
:101530001F92CDB7DEB7182F99830E94CE098FE096
:101540000E94C7099981892F0E94C709812F0E9493
:10155000C70980E00E94C70989830E94D009898158
:101560000F90DF91CF911F91089590E00496982FEE
:101570008827860F971F0C94950A1F93CF93DF93AC
:10158000182F60E270E00E94B50AC82FD0E061E237
:1015900070E0812F0E94B50ADC2FCC279E01282BFA
:1015A000C901DF91CF911F910895FF920F931F936F
:1015B000CF93DF93F62EC0E0D0E08F2D0E94BD0ABE
:1015C0008C01892B21F08F2D0E94BD0AEC01C017E0
:1015D000D10799F7CE01DF91CF911F910F91FF9025
:1015E00008951F93CF93DF93182F66E270E00E9457
:1015F000B50AC82FD0E067E270E0812F0E94B50ADB
:10160000DC2FCC279E01282BC901DF91CF911F91A0
:101610000895FF920F931F93CF93DF93F62EC0E0B0
:10162000D0E08F2D0E94F10A8C01892B21F08F2DA3
:101630000E94F10AEC01C017D10799F7CE01DF91A2
:10164000CF911F910F91FF9008956F927F928F928B
:101650009F92AF92BF92CF92DF92EF92FF920F9341
:101660001F93CF93DF931F92CDB7DEB7882E962EB0
:101670006A01590164E270E0892D99830E94B50ADC
:10168000E82EF12C65E270E0892D0E94B50AFE2C4F
:10169000EE24E82A37016C0C7D1CA3015770E82C5E
:1016A0009981F92EE90CF11CE90CF11CF7018081FC
:1016B0009181840F951F9A01200F311F21303840EE
:1016C00098F060E078E06B01C41AD50AA601B50174
:1016D0000E94660AA8014C195D09B5016C0D7D1DBB
:1016E000F7018081918102C0A801B5010E94660ABC
:1016F000060D171D412F64E270E0892D0E945C0ADF
:10170000402F65E270E0892D0F90DF91CF911F91FE
:101710000F91FF90EF90DF90CF90BF90AF909F9090
:101720008F907F906F900C945C0ACF92DF92EF9233
:10173000FF920F931F93CF93DF93EC017A018B01FC
:101740006C01C40ED51ECC15DD05A9F00E94CE0992
:101750008FE00E94C7098D2F0E94C7098C2F0E941D
:10176000C709219680E00E94C709F80181938F0183
:101770000E94D009E8CFC701DF91CF911F910F914F
:10178000FF90EF90DF90CF900895AF92BF92CF92ED
:10179000DF92EF92FF920F931F93CF93DF9300D0CE
:1017A000CDB7DEB75A834983590129813A81377011
:1017B0006C01C60ED11CC60ED11CF6018085918528
:1017C000820F931FA801420F531F4130584098F0D9
:1017D000E0E0F8E07F01E21AF30AA701B5010E94F8
:1017E000950BA8014E195F09B5016E0D7F1DF6011D
:1017F0008085918502C0A801B5010F900F90DF91FF
:10180000CF911F910F91FF90EF90DF90CF90BF90FD
:10181000AF900C94950B8F929F92AF92BF92CF9204
:10182000DF92EF92FF920F931F93CF93DF936C01A0
:10183000962E5A017901802E68E270E0892D0E946F
:10184000B50AC82FD0E069E270E0892D0E94B50A80
:10185000DC2FCC27C82B87019501AE01692DC6016D
:101860000E94C50B81101AC0CE0DDF1D4D2F68E2FE
:1018700070E0892D0E945C0A4C2F69E270E0892D8E
:10188000DF91CF911F910F91FF90EF90DF90CF905C
:10189000BF90AF909F908F900C945C0ADF91CF9196
:1018A0001F910F91FF90EF90DF90CF90BF90AF907E
:1018B0009F908F900895CF93C62F61E070E08C2F9A
:1018C0000E945C0A61E070E08C2F0E94B50A8111D1
:1018D000F9CFCF9108950F93FC0130E080E092E1C1
:1018E000AAE7B0E0481759076A077B0740F4B695A6
:1018F000A795979587953F5F3630A1F737E091E040
:101900009327222311F020E501C020E7892F869537
:101910000C70082B022B0083917091830F91089516
:101920002091AB03222399F04FB7F8942091AB0399
:10193000213059F42DB32093A9033DB32091AA037C
:10194000209523232DBB4FBF02C04093A9038CBD1C
:101950009DBD08958091AB03882361F09FB7F894F3
:101960002091AB038091A903213019F48DBB9FBF57
:1019700008958FBF089590E0982F882744E050E0A5
:10198000845F9B4F0C94660A62E070E00C94B50A89
:10199000CF93DF93C82FD62F472F64E070E00E94CB
:1019A0005C0A4D2F65E070E08C2FDF91CF910C9495
:1019B0005C0A462F62E070E00C945C0ACF93DF93E0
:1019C000C82FD62F472F60E170E00E945C0A4D2F90
:1019D00061E170E08C2FDF91CF910C945C0A0F9342
:1019E0001F93CF93DF9300D01F92CDB7DEB7182F90
:1019F00000E021E040E059E06DE370E0CE010196A7
:101A00000E946B0C89819A810E94900C63E070E0C7
:101A1000812F0E94B50A8B830E94AA0C8B810F90A4
:101A20000F900F90DF91CF911F910F9108950F9319
:101A30001F93CF93DF9300D0CDB7DEB7182F00E010
:101A400021E040E059E06DE370E0CE0101960E9494
:101A50006B0C89819A810E94900C40E150E0612FCB
:101A60008DE193E00E945B0C6FEF812F0E94D90CF7
:101A70000E94AA0C0F900F90DF91CF911F910F91B0
:101A80000895CF92DF92EF92FF920F931F93CF931F
:101A9000DF9300D0CDB7DEB79FEF960F9530C0F53E
:101AA000F22E6A01E62E182F0E94170D00E021E0A9
:101AB00040E059E06DE370E0CE0101960E946B0CAE
:101AC00089819A810E94900C4E2D4F2960E070E030
:101AD000812F0E945C0AC114D10411F0B6010AC022
:101AE00060912D0370912E036F5F7F4F70932E03D3
:101AF00060932D03812F0E94C80C41E050E0612FBC
:101B00008DE193E00E945B0C0E94AA0C81E001C071
:101B100080E00F900F90DF91CF911F910F91FF9078
:101B2000EF90DF90CF900895AF92BF92CF92DF9267
:101B3000EF92FF920F931F93CF93DF9300D0CDB717
:101B4000DEB7182F5B016A0100E021E040E059E0B8
:101B50006DE370E0CE0101960E946B0C89819A8141
:101B60000E94900C612F8DE193E00E94090B7C0193
:101B70000097A1F463E070E0812F0E94B50A8431E0
:101B800019F1882309F121E030E08C3111F420E0D3
:101B900030E0EE24FF24E21AF30A16C0C816D90674
:101BA0000CF476011E141F047CF400E09701A501DB
:101BB000612F8DE193E00E940B0C40E450E0612F17
:101BC0008DE193E00E945B0C0E94AA0CC7010F906C
:101BD0000F90DF91CF911F910F91FF90EF90DF90C9
:101BE000CF90BF90AF9008950F931F93CF93DF9343
:101BF00000D000D0CDB7DEB7182F00E021E040E0E4
:101C000059E06DE370E0CE0101960E946B0C898172
:101C10009A810E94900C612F8DE193E00E94090B44
:101C20008B839C830E94AA0C8B819C810F900F90C8
:101C30000F900F90DF91CF911F910F910895EF9228
:101C4000FF920F931F93CF93DF9300D0CDB7DEB7F2
:101C5000182F7B0100E021E040E059E06DE370E0E7
:101C6000CE0101960E946B0C89819A810E94900C92
:101C700001E021E030E0A701612F8DE193E00E94B7
:101C80000B0C0E94AA0C81E090E00F900F90DF9166
:101C9000CF911F910F91FF90EF9008958F929F9297
:101CA000AF92BF92DF92EF92FF920F931F93CF9369
:101CB000DF9300D0CDB7DEB7D82E5B014A017901A2
:101CC00000E021E040E059E06DE370E0CE010196D4
:101CD0000E946B0C89819A810E94900C6D2D8DE180
:101CE00093E00E94D50A8E159F0530F46D2D8DE18D
:101CF00093E00E94D50A7C0187019401A5016D2D16
:101D00008DE193E00E94250B0E94AA0CC7010F9061
:101D10000F90DF91CF911F910F91FF90EF90DF9087
:101D2000BF90AF909F908F900895CF92DF92EF92E7
:101D3000FF920F931F93CF93DF9300D0CDB7DEB701
:101D4000FB019081911109C09181911106C092818E
:101D5000911103C09381992309F141155105F1F0C7
:101D60006A017F01182F00E021E040E059E06DE3B7
:101D700070E0CE0101960E946B0C89819A810E94CD
:101D8000900CB701812F0E94BB0CB601812F0E94DD
:101D9000DE0C0E94AA0C81E090E002C080E090E09E
:101DA0000F900F90DF91CF911F910F91FF90EF90C7
:101DB000DF90CF9008950F931F93CF93DF9300D0C0
:101DC000CDB7DEB7182F00E021E040E059E06DE329
:101DD00070E0CE0101960E946B0C89819A810E946D
:101DE000900C40E250E0612F8DE193E00E945B0C8B
:101DF000812F0E94C40C84FD21C0812F0E94C40C3D
:101E000083FF09C068E1812F0E94D90C0E94AA0CAF
:101E100080E090E01BC00E94AA0C0E94A60200E095
:101E200021E040E059E06DE370E0CE0101960E94B0
:101E30006B0C89819A810E94900CDACF60E1812F2E
:101E40000E94D90C0E94AA0C81E090E00F900F90A4
:101E5000DF91CF911F910F91089544E050E0BC01B4
:101E600081E090E00C94660A44E050E0BC0185E01B
:101E700090E00C94660A44E050E0BC018FE090E0F2
:101E80000C94660A2F923F924F925F926F927F92CC
:101E90008F929F92AF92BF92CF92DF92EF92FF927A
:101EA0000F931F93CF93DF9300D000D000D0CDB716
:101EB000DEB76C011B0129013A014701580187E394
:101EC00093E0F601978386838DE193E00E94F40905
:101ED00080E590E00E94900C46E050E0B10189E07E
:101EE00090E00E94660A00E020E040E060E0CE0161
:101EF00001960E945305CE0103960E943B0F0E945B
:101F0000AA0C85017401A3019201B101F601868139
:101F100097810E9464188C010197B9F580E590E0E3
:101F20000E94900CF60166817781CE0101960E9495
:101F30009E13CE0103960E943B0FF60166817781C6
:101F4000CE0101960E94B413CE0103960E942D0F7C
:101F5000F60166817781CE0101960E94A913CE0118
:101F600003960E94340F0E94AA0CF60166817781C5
:101F7000CE0101960E94BF138B819C81AD81BE81F1
:101F8000F60182839383A483B583C80126960FB696
:101F9000F894DEBF0FBECDBFDF91CF911F910F919F
:101FA000FF90EF90DF90CF90BF90AF909F908F9079
:101FB0007F906F905F904F903F902F900895CF93B8
:101FC000DF93EC010E94490580E590E00E94900CAF
:101FD000BE016E5F7F4F44E050E08FE090E00E94D2
:101FE000950B0E94AA0CCE01DF91CF91089524EEAB
:101FF00031E0FC0131832083FB0142815381648104
:102000007581FC01428353836483758308950F9324
:1020100000E020E040E060E08DE993E00E9453059D
:102020008AE793E00E9444098FE293E00F910C94B9
:102030004905FB014281538164817581FC01428322
:10204000538364837583178216820895CF93DF9339
:10205000FB0120E080E090E0AAE03191332301F120
:1020600060ED630F6A3080F4A89FB001A99F700DE6
:102070001124CB01C097830F911D37FD9A958F3F97
:10208000910559F350F313C03E3289F4233079F0AF
:10209000EA01C20FD11D8A832F5F80E090E0DDCF7F
:1020A000233029F4FA01858381E090E002C080E0CA
:1020B00090E0DF91CF9108950F9300E020E040E0A1
:1020C00060E083EA93E00E9453050F9108958F9298
:1020D0009F92AF92BF92CF92DF92EF92FF920F93B7
:1020E0001F93CF93DF9300D000D01F92CDB7DEB700
:1020F0008C016B010E94FE01F801778366837627CD
:10210000672776277A836983085F1F4F42E050E094
:10211000BE016F5F7F4FC8010E94B80781E090E069
:102120009C838B8342E050E0BE016D5F7F4FC8010E
:102130000E94B80780E091E09C838B8342E050E0EE
:10214000BE016D5F7F4FC8010E94B8071C821B82D1
:1021500042E050E0BE016D5F7F4FC8010E94B807AA
:1021600042E050E0BE016D5F7F4FC8010E94B8079A
:1021700042E050E0BE016D5F7F4FC8010E94B8078A
:102180005601F5018081882329F1C6017C01FC01FB
:1021900020810196211116C0570147018C189D0816
:1021A0001814190494F48D8241E050E0BE016B5F75
:1021B0007F4FC8010E94B807A401B601C8010E9460
:1021C000B80703C02E3211F7E7CF6701FFEFCF1A30
:1021D000DF0AD7CF1D8241E050E0BE016B5F7F4F29
:1021E000C8010E94B807E12CFF24F394FC82EB8223
:1021F00042E050E0BE016D5F7F4FC8010E94B8070A
:10220000FC82EB8242E050E0BE016D5F7F4FC8016F
:102210000E94B80781E090E00F900F900F900F9010
:102220000F90DF91CF911F910F91FF90EF90DF9072
:10223000CF90BF90AF909F908F9008954F925F92F4
:102240006F927F928F929F92AF92BF92CF92DF92C6
:10225000EF92FF920F931F93CF93DF93CDB7DEB72B
:1022600065970FB6F894DEBF0FBECDBF7C015B0152
:102270006A010E94FE012B013C018701085F1F4F8C
:102280004501A12CB12CC8010E945A081816190644
:10229000A4F00E94FE01DC01CB0184199509A60976
:1022A000B70988169906AA06BB06D0F062E370E06B
:1022B00080E090E00E942F02E6CFF7014281538137
:1022C00064817581808D918DA28DB38D48175907DA
:1022D0006A077B0741F4848D958DC59721F406C06C
:1022E0002FEF3FEFFDC02EEF3FEFFAC0C8010E9475
:1022F0007C070C97ECF04CE050E0BE016F5F7F4F25
:10230000C8010E94F5076C818B810E9492139A8B01
:10231000898BF701E680F7806A8189810E94921398
:10232000E816F90641F489899A8997FF04C009C023
:102330002DEF3FEFD5C0C8010E9496072CEF3FEF6D
:10234000CFC08F709270892B31F0C8010E94960720
:102350002BEF3FEFC5C068858F810E9492135C010F
:10236000892B31F4C8010E9496072AEF3FEFB8C0CD
:10237000E12CF12C6E818D810E949213E816F906F2
:1023800040F541E050E0BE01635F7F4FC8010E940D
:10239000F5078D85811113C08D858111F2CFC8019C
:1023A0000E94CC07C8010E94CC07C8010E94CC073C
:1023B000C8010E94CC07FFEFEF1AFF0ADBCF8D8523
:1023C0009FEF980F9D87882339F3C8010E94CC079F
:1023D000F6CFE12CF12C41E050E0BE016D5E7F4F65
:1023E000C8010E94F5078B89982F907C61F488239F
:1023F00071F08B899FEF980F9B8B882341F0C80168
:102400000E94CC07F6CFC8010E94CC071B8A8B899B
:102410008111E1CF42E050E0BE01615F7F4FC80112
:102420000E94F50742E050E0BE01635F7F4FC801A4
:102430000E94F507C8010E94CC07C8010E94CC0782
:10244000C8010E94CC07C8010E94CC0742E050E0BE
:10245000BE016F5E7F4FC8010E94F5078F85988986
:102460008115914001F52D853E853227232732279E
:1024700021303105C1F489899A898115944031F060
:10248000C8010E94960727EF3FEF2AC0B6016E5F92
:102490007F4F44E050E0C8012C8B3D8B0E94F50734
:1024A0002C893D891DC0812C912C89899A89982776
:1024B000892798278816990638F4C8010E94CC0706
:1024C0008FEF881A980AF1CFEFEFEE1AFE0AEA149E
:1024D000FB0409F080CFC8010E94960726EF3FEF6A
:1024E000C90165960FB6F894DEBF0FBECDBFDF9170
:1024F000CF911F910F91FF90EF90DF90CF90BF9001
:10250000AF909F908F907F906F905F904F900895C5
:102510008F929F92AF92BF92CF92DF92EF92FF92F3
:102520000F931F93CF93DF9300D000D000D0CDB78F
:10253000DEB77C014B015A010E9426108C01892BC9
:1025400009F05BC0F70142815381648175818091FC
:10255000A5039091A603A091A703B091A8034817E3
:1025600059076A077B0709F44BC00E94FE01670107
:10257000F8E0CF0ED11C6F7077277C5FC6010E94F8
:102580002D08813009F03EC084EE91E09A83898362
:10259000F70182819381A481B5818B839C83AD8374
:1025A000BE8345E350E0BE016F5F7F4FC6010E94CE
:1025B000AC07892B19F400E010E01BC0B401C7017F
:1025C0000E946710892BB9F3C6010E94B407892BBA
:1025D00091F383E0882E912CA50168E873E1C7018F
:1025E0000E941E118C01F1E08F1A910811F00196E2
:1025F00099F3C6010E94970705C001E010E002C0F0
:102600000EEF1FEFC80126960FB6F894DEBF0FBE7F
:10261000CDBFDF91CF911F910F91FF90EF90DF9091
:10262000CF90BF90AF909F908F900895CF93CFB7EA
:10263000F8948091AC03811127C0EAE9F0E084911D
:10264000E6E8F0E09491E82FF0E0EE0FFF1FE2558E
:10265000FF4FA591B491EC91E92321F461E08AE068
:102660000E940C0361E08AE00E94D0028CB5806178
:102670008CBD8CB580648CBD61E08DE00E94D00281
:1026800061E08BE00E94D0028091AC038F5F809369
:10269000AC03CFBFCF910895CF93DF9300D000D08C
:1026A000CDB7DEB7611571058105910579F09B0104
:1026B000AC0169833A834B835C830E941E1A298193
:1026C0003A814B815C810E94411B03C060E070E055
:1026D000CB010F900F900F900F90DF91CF91089545
:1026E000CF92DF92EF92FF920F931F9362177307BF
:1026F0008407950784F489019A016B017C01C90163
:10270000B8016C197D098E099F090E944C136C0D4C
:102710007D1D8E1D9F1D1F910F91FF90EF90DF90EB
:10272000CF90089570E09B01382BC90108950E9653
:1027300024E1FC0111922A95E9F70895CF93DF93E4
:10274000EC01625F7F4F0E945F05CE01DF91CF9168
:102750000895CF93DF93EC016E5E7F4F0E945F057B
:10276000CE01DF91CF910895CF93DF93EC016A5EA4
:102770007F4F0E945F05CE01DF91CF910895CF93E7
:10278000DF93EC01625E7F4F0E945F05CE01DF9117
:10279000CF91089580E3FB0180833296842F829548
:1027A0008F7090E1899F401911244A3014F4405DE4
:1027B00001C0495C4293482F8111F0CF08950F93D7
:1027C00000E020E040E060E08DEA93E00E945305E5
:1027D0000F9108957F928F929F92AF92BF92CF9266
:1027E000DF92EF92FF920F931F93CF93DF93CDB7BA
:1027F000DEB7AC970FB6F894DEBF0FBECDBF7C013D
:10280000762E942E852E20E2B22ECE0101966C01FA
:10281000FC012B2D11922A95E9F70FEF2FEF4FEFC7
:102820006FEF86960E94530584EE91E09AA389A3E8
:1028300089A59AA5ABA5BCA58BA39CA3ADA3BEA35C
:1028400087010D5B1F4F43E450E0BE016F5D7F4F7A
:10285000C8010E94AC07019609F4BFC081E08983DA
:102860008A8386E0A82EAB821C82F7016481758181
:10287000868197810E94601B6D837E838F839887FA
:1028800089869A8680E890E09C878B874CE150E0AF
:10289000B601C8010E94B807F6012B2D11922A95A6
:1028A000E9F7470188E0880E911CF401D6010190F8
:1028B0000D92AA94E1F740E150E0B601C8010E94F0
:1028C000B807F6011192BA94E9F796E0A92EB12C57
:1028D00040E250E0B601C8010E94B807F1E0AF1A2B
:1028E000B108B1F783E6898392E89A8393E59B83E5
:1028F0008C8385E38D8381E08E837F829DE398873F
:1029000097E099878A8786E0F401DE011B960190A3
:102910000D928A95E1F78CE0898B8A8B60E272E0F8
:10292000CE0143960E94181BF7014385BE01675EE6
:102930007F4FC7010E94CA13F7014485BE01655E3F
:102940007F4FC7010E94CA13F7014585BE01635E30
:102950007F4FC7010E94CA134EE150E0B601C80183
:102960000E94B807F3E07F121EC082E3898384E0EF
:102970008A83F70196859B8397859C8390899D83A5
:1029800091899E8396E39F838887828D8987838D33
:102990008A87848D8B87858D8C874CE050E0B601CB
:1029A000C8010E94B80787E3898386E08A8391E0A3
:1029B0009B8393E09C838D838FE08E838AE38F8358
:1029C0008BE388878FEF898749E050E0B601C80123
:1029D0000E94B807C8010E94B407AC960FB6F894DD
:1029E000DEBF0FBECDBFDF91CF911F910F91FF9042
:1029F000EF90DF90CF90BF90AF909F908F907F909F
:102A000008952F923F924F925F926F927F928F9292
:102A10009F92AF92BF92DF92EF92FF920F931F931C
:102A2000CF93DF93CDB7DEB7E4970FB6F894DEBF50
:102A30000FBECDBF7C011A012B0139010E94FE019E
:102A40004B015C0187010D5B1F4FC8010E945A08B2
:102A500018161906A4F00E94FE01DC01CB018819AA
:102A60009909AA09BB09281639064A065B06F0F03F
:102A700062E370E080E090E00E942F02E6CF42E245
:102A800050E0BE016F5F7F4FC8010E94F50789814A
:102A9000823031F4F801848995898334910541F0BD
:102AA000D12CC8010E9496078D2D5FC18FEF5DC1AB
:102AB0006D817E818F8198850E94601B4B015C0136
:102AC000F301608371838283938346E050E0B70112
:102AD000685F7F4FCE014D960E94F91A892B99F4B9
:102AE000F70180819181A281B38188169906AA0697
:102AF000BB0648F084819581A681B7818815990528
:102B0000AA05BB0528F4C8010E94960780E02DC1E4
:102B100089899A89AB89BC89F70186879787A08BB9
:102B2000B18B8EECA82EB12CC8010E94CC07F1E02D
:102B3000AF1AB108C9F7D12CC70182969AA789A705
:102B4000F701B696FCA7EBA708969EA78DA73C9722
:102B50004F01899698AB8FA73897FAABE9AB17016D
:102B6000F6E12F0E311CC5979CAB8BABC8010E94C0
:102B70007C07181619060CF094CFC8010E94CC07E8
:102B80008333910509F4CBC0FCF481309105C9F180
:102B90001CF4892B59F3DDC083309105D1F10697E0
:102BA00009F0D7C0C8010E94CC075C0144E050E0A6
:102BB0006BA97CA9C8010E94F507412C512CBB24AC
:102BC000F4E0AF1AB10840C08A33910509F47BC024
:102BD0003CF48533910569F0C69709F440C0B9C04B
:102BE0008B33910509F485C08F3F910509F4BECF61
:102BF000B0C0C8010E94CC07C8010E94CC07D82EE3
:102C0000B5CFC8010E94CC0744E050E069A97AA979
:102C10003AC0C8010E94CC075C0144E050E0B10119
:102C2000C8010E94F507412C512CBB2494E0A91A3D
:102C3000B1084A145B040CF099CFC8010E94CC077C
:102C4000EFEF4E1A5E0AF5CF4A145B040CF08ECFFC
:102C5000C8010E94CC078FEF481A580AF5CFC80167
:102C60000E94CC07B82EF701828D811110C0838D90
:102C700081110DC0848D81110AC0858D811107C01D
:102C800044E050E0B401C8010E94F5076FCFEFA502
:102C9000F8A94080518062807380B401CE01839690
:102CA0000E945F058DA19EA1AFA1B8A584159505D1
:102CB000A605B70529F3BB2009F458CFC8010E9427
:102CC000CC07BA94F8CFC8010E94CC0744E050E08A
:102CD0006BA57CA5C8010E94F507F70166A177A145
:102CE00080A591A50E94601B66A377A380A791A7EA
:102CF0003DCFC8010E94CC0744E050E06DA57EA501
:102D0000C8010E94F507F70162A573A584A595A5E2
:102D10000E94601B62A773A784A795A727CFC8014D
:102D20000E94CC0744E050E069A57AA5C8010E9442
:102D3000F507F70162A173A184A195A10E94601B10
:102D400062A373A384A395A366A777A780AB91AB77
:102D50000DCFC8010E94CC07B82EBB2009F406CFC6
:102D6000C8010E94CC07BA94F8CFE4960FB6F89445
:102D7000DEBF0FBECDBFDF91CF911F910F91FF90AE
:102D8000EF90DF90BF90AF909F908F907F906F906B
:102D90005F904F903F902F9008952F923F924F92C7
:102DA0005F926F927F928F929F92AF92BF92CF92DB
:102DB000DF92EF92FF920F931F93CF93DF93CDB7E4
:102DC000DEB727970FB6F894DEBF0FBECDBF8C01DC
:102DD00020ED37E040E050E061E070E080E090E01E
:102DE0000E947013D80114966D937D938D939C93DC
:102DF0001797F80160837183828393835801F3E40A
:102E0000AF0EB11CC5010E94970764E470E0C501D4
:102E10000E942D08882309F43CC10E94FE012B0169
:102E20003C01812C912C1D82C8018E5B9F4F9F839A
:102E30008E8343E0342E58EEC52E53E0D52EE12C80
:102E4000F12C62E0262EAE81BF818C91833009F493
:102E500007C1811120C0F80184819581A681B781C5
:102E60000196A11DB11D84839583A683B7830E941B
:102E7000FE016419750986099709A70196010E9448
:102E80001F1BA90161E0C8010E94EA1381E0AE8125
:102E9000BF818C93C6C08430F9F4F8018481958198
:102EA000A681B7810196A11DB11D84839583A68358
:102EB000B7830E94FE016419750986099709A70165
:102EC00096010E941F1BA90163E0C8010E94EA133A
:102ED000AE81BF812C92A5C0813061F5F80142AD71
:102EE00053AD64AD75AD9E012F5F3F4FC8010E9489
:102EF00001158D83823009F094C089819A81AB815C
:102F0000BC81F80184839583A683B7830E94FE0168
:102F10006419750986099709A70196010E941F1B6C
:102F2000A90163E0C8010E94EA13ED81AE81BF816F
:102F3000EC937EC0823009F074C0D801DA964D91CE
:102F40005D916D917C91DD979E012F5F3F4FC80190
:102F50000E9401158D83853009F05CC0EE81FF81F0
:102F60003082F80182A193A1A4A1B5A1892B8A2B5B
:102F70008B2B41F484E893E0A0E0B0E082A393A31C
:102F8000A4A3B5A3F80186A197A1A0A5B1A5892BFB
:102F90008A2B8B2B61F482A193A1A4A1B5A1B69534
:102FA000A7959795879586A397A3A0A7B1A7F801A2
:102FB00082A593A5A4A5B5A5892B8A2B8B2BA9F453
:102FC00082A193A1A4A1B5A1AC01BD0123E0769596
:102FD0006795579547952A95D1F7841B950BA60BB6
:102FE000B70B82A793A7A4A7B5A7F80186A197A1BD
:102FF000A0A5B1A586A797A7A0ABB1AB82A593A5C5
:10300000A4A5B5A582AB93ABA4ABB5AB8824839440
:10301000912C0EC0FD81F63021F4AE81BF811C924F
:1030200007C0BD81BF3F21F4EE81FF8110821D8268
:10303000F1E08F16910409F406CF0E94FE01DC0135
:10304000CB0184199509A609B709F80126A937A962
:1030500040AD51AD281739074A075B0708F0F3CE9A
:10306000C5010E949707F80184819581A681B781E7
:103070000196A11DB11D84839583A683B7830E9409
:10308000FE01F801FE966083718382839383C401FD
:1030900002C080E090E027960FB6F894DEBF0FBE26
:1030A000CDBFDF91CF911F910F91FF90EF90DF90F7
:1030B000CF90BF90AF909F908F907F906F905F90D8
:1030C0004F903F902F900895CF92DF92EF92FF9212
:1030D0000F931F93CF93DF93EC016B011AA21BA2F6
:1030E0001CA21DA21EA21FA218A619A61AA61BA6E4
:1030F0001CA61DA62EAB3FAB48AF59AFEAAEFBAE48
:103100000CAF1DAF8C01085F1F4F86E0F8011192D4
:103110008A95E9F7CE010E94971386E0F601D8015F
:1031200001900D928A95E1F7FE01EE5BFF4F108250
:10313000CE01DF91CF911F910F91FF90EF90DF9023
:10314000CF900C94CD16CF93DF938230910510F47D
:1031500082E090E0E091B503F091B60320E030E02A
:10316000C0E0D0E0309711F14081518148175907F4
:10317000C0F04817590761F482819381209719F0B4
:103180009B838A832BC09093B6038093B50326C09C
:103190002115310519F04217530718F49A01BE01A1
:1031A000DF01EF010280F381E02DDCCF2115310535
:1031B00009F1281B390B2430310590F412968D91BA
:1031C0009C9113976115710521F0FB019383828314
:1031D00004C09093B6038093B503FD01329644C0BA
:1031E000FD01E20FF31F81939193225031092D933A
:1031F0003C933AC02091B3033091B403232B41F4A4
:1032000020910201309103013093B4032093B30362
:1032100020910001309101012115310541F42DB7B4
:103220003EB74091040150910501241B350BE091FC
:10323000B303F091B403E217F307A0F42E1B3F0B86
:103240002817390778F0AC014E5F5F4F2417350718
:1032500048F04E0F5F1F5093B4034093B303819324
:10326000919302C0E0E0F0E0CF01DF91CF910895AB
:103270000F931F93CF93DF93009709F48CC0FC0149
:103280003297138212820091B5031091B603011593
:10329000110581F420813181820F931F2091B303A6
:1032A0003091B4032817390779F5F093B403E0930C
:1032B000B30371C0D80140E050E0AE17BF0750F42F
:1032C00012962D913C911397AD012115310509F10D
:1032D000D901F3CF9D01DA013383228360817181AB
:1032E000860F971F8217930769F4EC0128813981B3
:1032F000260F371F2E5F3F4F318320838A819B81AA
:1033000093838283452B29F4F093B603E093B503AE
:1033100042C01396FC93EE931297ED014991599197
:103320009E01240F351FE217F30771F4808191810C
:10333000840F951F029611969C938E9382819381A0
:1033400013969C938E931297E0E0F0E0D8011296CA
:103350008D919C911397009719F0F8018C01F6CF8D
:103360008D919C9198012E5F3F4F820F931F20916A
:10337000B3033091B4032817390769F4309729F45F
:103380001092B6031092B50302C0138212821093FA
:10339000B4030093B303DF91CF911F910F91089570
:1033A0008F929F92AF92BF92CF92DF92EF92FF9255
:1033B000CF93DF93EC01688179818A819B816115CC
:1033C00071058105910521F464E279ED8BE597E0C3
:1033D0002DE133EF41E050E00E94411B49015A01C9
:1033E0009B01AC01A7EAB1E40E94671B6B017C0161
:1033F000ACEEB4EFA50194010E94751BDC01CB017A
:103400008C0D9D1DAE1DBF1DB7FF03C00197A10907
:10341000B04888839983AA83BB83BC01CD019F7781
:10342000DF91CF91FF90EF90DF90CF90BF90AF9062
:103430009F908F9008950E94D019089586E091E0A2
:103440000E94D0190895609306017093070180933C
:103450000801909309010895A0E0B0E0E2E3FAE1E9
:103460000C947E1BEC01009721F4CB010E94A31861
:10347000B8C0FC01E60FF71F9C0122503109E2178A
:10348000F30708F4ACC0D9010D911C9111970617F0
:103490001707B0F00530110508F49FC0C801049764
:1034A0008617970708F499C002501109061B170BDD
:1034B000019311936D937C93CF010E9438198DC0B5
:1034C0005B01A01AB10A4C01800E911EA091B503B8
:1034D000B091B60340E050E0E12CF12C109709F4D4
:1034E0004AC0A815B905D1F56D907C90119763017C
:1034F00082E0C80ED11CCA14DB0480F1A3014A1972
:103500005B096A0182E0C80ED11C1296BC9012972A
:103510001396AC91B5E0CB16D10440F0B282A383F0
:1035200051834083D9016D937C930AC00E5F1F4F76
:10353000C301800F911FF90191838083EB2DFA2F36
:10354000E114F10431F0D7011396FC93EE93129736
:1035500044C0F093B603E093B5033FC08D919C91B6
:1035600011974817590708F4AC017D0112960D9088
:10357000BC91A02DB3CF8091B3039091B403881573
:103580009905E1F446175707C8F48091000190911E
:103590000101009741F48DB79EB74091040150910D
:1035A0000501841B950BE817F907C8F4F093B403E1
:1035B000E093B303F901718360830FC0CB010E94D4
:1035C000A3187C01009759F0A801BE010E94061BB8
:1035D000CE010E943819C70104C0CE0102C080E0AC
:1035E00090E0CDB7DEB7EEE00C949A1BF8940C9403
:1035F000DC1BFB01DC0104C08D910190801921F4DA
:1036000041505040C8F7881B990B0895FB01DC011D
:1036100002C001900D9241505040D8F70895FB012F
:10362000DC018D91019080190110D9F3990B089557
:10363000FB01DC0101900D920020E1F70895A1E269
:103640001A2EAA1BBB1BFD010DC0AA1FBB1FEE1F1C
:10365000FF1FA217B307E407F50720F0A21BB30B67
:10366000E40BF50B661F771F881F991F1A9469F7E3
:1036700060957095809590959B01AC01BD01CF013F
:103680000895052E97FB1EF400940E94581B57FDC9
:1036900007D00E941F1B07FC03D04EF40C94581B4C
:1036A00050954095309521953F4F4F4F5F4F08956E
:1036B00090958095709561957F4F8F4F9F4F08959E
:1036C00069279627692778278727782708950E94F2
:1036D000B71BA59F900DB49F900DA49F800D911DC9
:1036E00011240895B7FF0C94671B0E94671B821B6F
:1036F000930B08952F923F924F925F926F927F9219
:103700008F929F92AF92BF92CF92DF92EF92FF92F1
:103710000F931F93CF93DF93CDB7DEB7CA1BDB0B9D
:103720000FB6F894DEBF0FBECDBF09942A88398842
:1037300048885F846E847D848C849B84AA84B98449
:10374000C884DF80EE80FD800C811B81AA81B98155
:10375000CE0FD11D0FB6F894DEBF0FBECDBFED0169
:103760000895EE0FFF1F0590F491E02D0994A29F9C
:10377000B001B39FC001A39F700D811D1124911D45
:10378000B29F700D811D1124911D0895F999FECFEE
:1037900092BD81BDF89A992780B50895262FF99991
:1037A000FECF1FBA92BD81BD20BD0FB6F894FA9A24
:1037B000F99A0FBE0196089510E0C3E6D0E004C068
:1037C000FE010E94B11B2196C436D107C9F7F894B7
:0237D000FFCF29
:1037D2000000B703200001000000B8220008DC004E
:1037E200004F0600020001005E0000005072696E88
:1037F20074696E672074686520636F6E74656E7499
:1038020073206F6620454550524F4D0041646472EB
:103812006573733A20000900446174613A200046DE
:1038220061696C656420746F20636F6E6669677589
:1038320072652045746865726E6574207573696E71
:1038420067204448435000495020616464726573A4
:10385200733A0057616974696E6720746F207265EC
:103862006365697665207468652072657365742086
:10387200636F6D6D616E642E2E00726573657400E8
:10388200526573657474696E6720746865206D692A
:1038920063726F636F6E74726F6C6C65722E2E2E14
:1038A200000D0A006E616E00696E66006F7666003A
:1038B20000000000070500000000B5063F035506A2
:1038C2009306270641063306000000008007B8076A
:1038D2003C0396077C07CC0714082D08B20897070B
:1038E200AC075E09B4075A08F5076107680778074D
:0838F20057495A6E657400008D
:00000001FF
