:100000000C9465000C948D000C948D000C948D0064
:100010000C948D000C948D000C94B3080C948D00FE
:100020000C948D000C948D000C948D000C948D001C
:100030000C948D000C948D000C948D000C948D000C
:100040000C94AF020C948D000C9416050C9448058A
:100050000C948D000C948D000C948D000C948D00EC
:100060000C948D000C948D0000000008000201002B
:100070000003040700000000000000000102040863
:100080001020408001020408102001020408102002
:10009000040404040404040402020202020203032E
:1000A0000303030300000000250028002B000000CC
:1000B0000000240027002A008F0078052806AC08DD
:1000C000AC0B5C12B1123416AF0011241FBECFEF7F
:1000D000D8E0DEBFCDBF12E0A0E0B1E0E6EAFEE38B
:1000E00002C005900D92A836B107D9F724E0A8E622
:1000F000B2E001C01D92AC31B207E1F710E0C4E6F6
:10010000D0E004C02197FE010E941B1FCC35D1070F
:10011000C9F70E94A6050C94E81D0C9400000F93EB
:1001200000E020E040E060E088EC92E00E94010600
:1001300001E021E041E06AE082EC92E00E940106E9
:1001400087EA92E00E94340B8CE892E00E94340B24
:1001500063E172E08CE692E00F910C94A1068CE6CC
:1001600092E00C9433060F931F93CF93DF9300D04C
:1001700000D000D0CDB7DEB78C0140910C0150917A
:100180000D0184E292E09A8389838091C402909168
:10019000C502A091C602B091C7028B839C83AD8338
:1001A000BE83BE016F5F7F4F8CE892E00E949C0986
:1001B000B8018CE892E00E947A048CE892E00E94F8
:1001C000A40988E1E2E7F2E0DF011D928A95E9F7F0
:1001D00026960FB6F894DEBF0FBECDBFDF91CF914C
:1001E0001F910F910895EF92FF920F931F93CF935A
:1001F000DF93CDB7DEB72C970FB6F894DEBF0FBEF6
:10020000CDBF60E47FE18AE793E00E94280926E001
:1002100040E051EE60E070E087ED92E00E94470818
:100220006CE171E087ED92E00E94A70461E084E058
:100230000E94070461E084E00E94CB0361E084E057
:100240000E94070400E111E0F80161918F018091A3
:100250006802909169020E94381F80916802909113
:10026000690201969093690280936802F1E0063179
:100270001F0751F760916A0280910A0190910B016A
:100280000E94381F07E010E060E0C8010E94381F9C
:100290000F5F1F4F011584E01807B1F765E371E0A8
:1002A00087ED92E00E94A70400E010E06EE571E0A7
:1002B00087ED92E00E94A704C8010E94301F4AE027
:1002C000682FCE0101960E94CD06BE016F5F7F4F61
:1002D00087ED92E00E949504CE0101960E943306BC
:1002E0000F5F1F4F0830110509F710EAE12E1FE0DC
:1002F000F12E00E010E020E63AEE40E050E060E150
:1003000071E084E993E00E943211892B31F465E6B3
:1003100071E087ED92E00E94880460910C01709179
:100320000D018CE892E00E941D0A60910E0170910F
:100330000F0187EA92E00E941D0A6CED75E080E0F3
:1003400090E00E942A0300E010E06DE871E0CE0129
:1003500001960E94A106CE0101960E94B300CE0133
:1003600001960E9433066DEA71E0CE0101960E946B
:10037000A106CE0101960E94B300CE0101960E9413
:1003800033064AE0B801CE0101960E94FA06CE017A
:1003900001960E94B300CE0101960E9433066EE5DD
:1003A00071E087ED92E00E948804C8010E94301F2E
:1003B0004AE0682FCE0101960E94CD06BE016F5F14
:1003C0007F4F87ED92E00E947A04CE0101960E9451
:1003D00033060F5F1F4F0830110509F0B6CF67EBEA
:1003E00071E0CE0101960E94A106CE0101960E9405
:1003F000B300CE0101960E94330664E973E0CE019A
:1004000007960E94341249855A856B857C852AE0BF
:10041000CE0101960E942607CE0101960E94B300EC
:10042000CE0101960E9433062C960FB6F894DEBFDB
:100430000FBECDBFDF91CF911F910F91FF90EF9035
:100440000895CF93DF93CDB7DEB762970FB6F894D8
:10045000DEBF0FBECDBF48E150E062E772E087EA41
:1004600092E00E94E50962E772E0CE010D960E94DB
:10047000A10680918A0290918B021816190664F5E4
:1004800048E150E062E772E087EA92E00E94E50905
:1004900062E772E0CE0107960E94A10663EC71E06C
:1004A000CE0107960E945307882391F069EC71E012
:1004B000CE0101960E94A106CE0101960E94B300D2
:1004C000CE0101960E94330660E084E00E9407049A
:1004D000CE0107960E943306CE010D960E94330688
:1004E00062960FB6F894DEBF0FBECDBFDF91CF91FD
:1004F0000895CF93DF9300D000D000D0CDB7DEB702
:100500006AEE71E0CE0101960E94A106CE0101962D
:100510000E94B300CE0101960E94330687EA92E062
:100520000E944A0A90938B0280938A021816190639
:1005300014F40E94210288E1E2E7F2E0DF011D925B
:100540008A95E9F784E993E00E94CF1126960FB6C9
:10055000F894DEBF0FBECDBFDF91CF9108951F92FB
:100560000F920FB60F9211242F933F938F939F9367
:10057000AF93BF938091CF029091D002A091D1020E
:10058000B091D2023091CE0223E0230F2D3720F418
:100590000196A11DB11D05C026E8230F0296A11DDD
:1005A000B11D2093CE028093CF029093D002A093EE
:1005B000D102B093D2028091D3029091D402A09143
:1005C000D502B091D6020196A11DB11D8093D30230
:1005D0009093D402A093D502B093D602BF91AF916D
:1005E0009F918F913F912F910F900FBE0F901F9071
:1005F00018952FB7F8946091CF027091D002809136
:10060000D1029091D2022FBF08953FB7F894809104
:10061000D3029091D402A091D502B091D60226B512
:10062000A89B05C02F3F19F00196A11DB11D3FBF2A
:10063000BA2FA92F982F8827820F911DA11DB11DB8
:10064000BC01CD0142E0660F771F881F991F4A95B4
:10065000D1F708958F929F92AF92BF92CF92DF927F
:10066000EF92FF926B017C010E9405034B015C013C
:10067000C114D104E104F10401F10E94A1030E941C
:100680000503DC01CB0188199909AA09BB09883E39
:100690009340A105B10560F321E0C21AD108E10839
:1006A000F10888EE880E83E0981EA11CB11CC114CD
:1006B000D104E104F10419F7DBCFFF90EF90DF9054
:1006C000CF90BF90AF909F908F900895789484B50D
:1006D000826084BD84B5816084BD85B5826085BD3E
:1006E00085B5816085BDEEE6F0E080818160808324
:1006F000E1E8F0E010828081826080838081816007
:100700008083E0E8F0E0808181608083E1EBF0E0CD
:10071000808184608083E0EBF0E080818160808371
:10072000EAE7F0E08081846080838081826080835A
:100730008081816080838081806880831092C10085
:1007400008950895833081F028F4813099F0823043
:10075000A1F008958730A9F08830B9F08430D1F441
:10076000809180008F7D03C0809180008F7780937F
:100770008000089584B58F7702C084B58F7D84BDD5
:1007800008958091B0008F7703C08091B0008F7D75
:100790008093B0000895CF93DF9390E0FC01E4587C
:1007A000FF4F2491FC01E057FF4F8491882361F1B2
:1007B00090E0880F991FFC01E255FF4FC591D4913D
:1007C000FC01EC55FF4FA591B491611109C09FB791
:1007D000F8948881209582238883EC912E230BC086
:1007E000623061F49FB7F8943881822F809583231B
:1007F0008883EC912E2B2C939FBF06C08FB7F89463
:10080000E8812E2B28838FBFDF91CF9108951F930E
:10081000CF93DF93282F30E0F901E859FF4F8491FF
:10082000F901E458FF4FD491F901E057FF4FC4910B
:10083000CC23C9F0162F81110E94A203EC2FF0E007
:10084000EE0FFF1FEC55FF4FA591B4918FB7F894B1
:10085000111105C09C91ED2FE095E92302C0EC91A8
:10086000ED2BEC938FBFDF91CF911F91089580E026
:1008700090E00895CF92DF92EF92FF920F931F9333
:10088000CF93DF936C017A018B01C0E0D0E0CE15ED
:10089000DF0589F0D8016D918D01D601ED91FC91B4
:1008A0000190F081E02DC6010995892B11F47E019C
:1008B00002C02196ECCFC701DF91CF911F910F911C
:1008C000FF90EF90DF90CF9008956115710579F05A
:1008D000FB0101900020E9F73197AF01461B570B50
:1008E000DC01ED91FC910280F381E02D099480E020
:1008F00090E00895DC01ED91FC91DB0114964D919F
:100900005C9115976D917C910280F381E02D0994A3
:100910000C946504DC01ED91FC910190F081E02DD7
:10092000099461E172E00C9465040F931F93CF93D7
:10093000DF93EC010E947A048C01CE010E949104A5
:10094000800F911FDF91CF911F910F9108950F9309
:100950001F93CF93DF93EC010E9465048C01CE01BD
:100960000E949104800F911FDF91CF911F910F91F1
:1009700008954F925F926F927F92EF92FF920F9342
:100980001F93CF93DF93CDB7DEB7A1970FB6F8943F
:10099000DEBF0FBECDBF7C01FA01CB0119A2223010
:1009A00008F42AE08E010F5D1F4F422E512C612C5E
:1009B000712CBF01A30192010E94891EF901CA0195
:1009C000015011096A3014F4605D01C0695CD801FE
:1009D0006C93232B242B252B61F7B801C7010E94B0
:1009E0006504A1960FB6F894DEBF0FBECDBFDF91B0
:1009F000CF911F910F91FF90EF907F906F905F903C
:100A00004F9008952115310541F4DC01ED91FC91E1
:100A10000190F081E02D642F09940C94B9049A019F
:100A2000462F50E060E070E00C9402051F920F9298
:100A30000FB60F9211242F938F939F93EF93FF93F1
:100A4000E091E702F091E8028081E091ED02F091FF
:100A5000EE0282FD12C090818091F0028F5F8F7351
:100A60002091F102821751F0E091F002F0E0E9529A
:100A7000FD4F958F8093F00201C08081FF91EF912F
:100A80009F918F912F910F900FBE0F901F901895EF
:100A90001F920F920FB60F9211242F933F934F93F3
:100AA0005F936F937F938F939F93AF93BF93EF93D6
:100AB000FF9387ED92E00E94BD07FF91EF91BF91F8
:100AC000AF919F918F917F916F915F914F913F91E6
:100AD0002F910F900FBE0F901F90189587ED92E009
:100AE0000E94720721E0892B09F420E0822F0895EB
:100AF000E7EDF2E01382128288EE93E0A0E0B0E02E
:100B000084839583A683B7838AE292E0918380836E
:100B100085EC90E09587848784EC90E097878687C2
:100B200080EC90E0918B808B81EC90E0938B828BBA
:100B300082EC90E0958B848B86EC90E0978B868B93
:100B4000118E128E138E148E089508950E946603DE
:100B50000E94A5050E94F300CFEAD7E00E94790227
:100B60002097E1F30E94AF07F9CF8F929F92AF9247
:100B7000BF92CF92DF92EF92FF920F931F93CF938A
:100B8000DF937C018B016C0182E0C80ED11C470110
:100B9000E5E08E0E911CC0E0D0E0F60161916F019E
:100BA0004AE050E0C8010E940F055C016EE2C801F6
:100BB0000E948A048A0D9B1DC80FD91FC814D9042E
:100BC00061F74AE050E0F7016581C8010E940F0516
:100BD0008C0F9D1FDF91CF911F910F91FF90EF9090
:100BE000DF90CF90BF90AF909F908F90089524E2B8
:100BF00032E0FC0131832083128213821482158239
:100C000008950F93FC0184E292E0918380836283D4
:100C10004383248305830F91089524E232E0FC018D
:100C200031832083FB014081518162817381FC010A
:100C300042835383648375830895FB01408151810E
:100C400062817381FC0142835383648375830895B9
:100C5000E4E7F3E084E292E09183808312821382DE
:100C6000148215820895FC01808191810C942A1CC4
:100C7000CF93DF93EC0188819981009711F00E9456
:100C80002A1C198218821D821C821B821A82DF9103
:100C9000CF9108950F931F93CF93DF93EC018B01B6
:100CA0006F5F7F4F888199810E941E1D009731F0F0
:100CB000998388831B830A8381E001C080E0DF91F0
:100CC000CF911F910F910895CF93DF93EC0188810D
:100CD0009981892B29F08A819B818617970760F477
:100CE000CE010E944A06882341F08C819D81892B88
:100CF00019F4E881F981108281E0DF91CF910895A4
:100D0000EF92FF920F931F93CF93DF93EC017B0140
:100D10008A01BA010E946406811104C0CE010E94BA
:100D2000380607C01D830C83B701888199810E9412
:100D30000A1ECE01DF91CF911F910F91FF90EF908E
:100D40000895FC011182108213821282158214828E
:100D50006115710551F0FB0101900020E9F7319711
:100D6000AF01461B570B0C9480060895CF93DF9379
:100D7000EC016115710559F0FB0101900020E9F7C4
:100D80003197AF01461B570B0E94800602C00E949C
:100D90003806CE01DF91CF9108950F931F93CF9323
:100DA000DF93CDB7DEB729970FB6F894DEBF0FBE3D
:100DB000CDBF8C01862FF80111821082138212821E
:100DC0001582148250E0BE016F5F7F4F90E00E9459
:100DD000541EBE016F5F7F4FC8010E94B606299660
:100DE0000FB6F894DEBF0FBECDBFDF91CF911F913C
:100DF0000F9108950F931F93CF93DF93CDB7DEB775
:100E000062970FB6F894DEBF0FBECDBF8C01CB0149
:100E1000F80111821082138212821582148250E02E
:100E2000BE016F5F7F4F0E94111EBE016F5F7F4F3B
:100E3000C8010E94B60662960FB6F894DEBF0FBED8
:100E4000CDBFDF91CF911F910F9108950F931F9305
:100E5000CF93DF93CDB7DEB7A1970FB6F894DEBF7F
:100E60000FBECDBF8C01CB01BA01F80111821082F7
:100E7000138212821582148230E0AE014F5F5F4F01
:100E80000E94271EBE016F5F7F4FC8010E94B606F9
:100E9000A1960FB6F894DEBF0FBECDBFDF91CF9104
:100EA0001F910F910895FC0124813581232B31F48A
:100EB00021E061157105A1F0FB0108C0FC018081F2
:100EC00091816115710531F421E0FC018081882355
:100ED00039F005C00E94011E21E0892B09F020E0B5
:100EE000822F0895FC01918D228D892F90E0805CE6
:100EF0009F4F821B91098F7399270895FC01918D53
:100F0000828D981731F0828DE80FF11D858D90E06C
:100F100008958FEF9FEF0895FC01918D828D9817B2
:100F200061F0828DDF01A80FB11D5D968C91928DCD
:100F30009F5F9F73928F90E008958FEF9FEF0895CA
:100F4000FC01538D448D252F30E0842F90E0821BCF
:100F5000930B541710F0CF960895019708958EE6DD
:100F600095E0892B49F080E090E0892B29F00E94E0
:100F70006E0581110C9400000895FC01848DDF0141
:100F8000A80FB11DA35ABF4F2C91848D90E00196FC
:100F90008F739927848FA689B7892C93A089B189EB
:100FA0008C9180648C93938D848D981306C00288F5
:100FB000F389E02D80818F7D80830895CF93DF9327
:100FC000EC01888D8823C9F0EA89FB89808185FD41
:100FD00005C0A889B9898C9186FD0FC00FB607FCA2
:100FE000F5CF808185FFF2CFA889B9898C9185FFE3
:100FF000EDCFCE010E94BD07E7CFDF91CF910895DD
:10100000EF92FF920F931F93CF93DF93EC0181E058
:10101000888F9B8D8C8D981305C0E889F989808114
:1010200085FD24C0F62E0B8D10E00F5F1F4F0F7350
:101030001127E02E8C8DE8120CC00FB607FCFACFFA
:10104000E889F989808185FFF5CFCE010E94BD072F
:10105000F1CF8B8DFE01E80FF11DE35AFF4FF082B7
:101060000B8FEA89FB898081806207C0EE89FF8946
:101070006083E889F98980818064808381E090E0E1
:10108000DF91CF911F910F91FF90EF900895CF9234
:10109000DF92EF92FF921F93CF93DF93EC016A01EF
:1010A0007B01122FE889F98982E080834115514E36
:1010B00061057105B1F060E079E08DE390E0A70192
:1010C00096010E94891EDA01C9010197A109B1099F
:1010D000B695A79597958795AC01411580E158077E
:1010E000A8F0E889F989108260E874E88EE190E060
:1010F000A70196010E94891EBA01A9014150510918
:10110000610971097695679557954795EC85FD8539
:101110005083EE85FF854083188EEC89FD8910830E
:10112000EA89FB89808180618083EA89FB898081EB
:1011300088608083EA89FB89808180688083EA896E
:10114000FB8980818F7D8083DF91CF911F91FF90FC
:10115000EF90DF90CF9008958FEF9FEF90937B03F8
:1011600080937A0308951F920F920FB60F92112465
:101170000F900FBE0F901F901895DA01F90160349F
:101180008FE178071CF46115710539F489E090E06E
:101190008D939C9380E49FE158C0603A8FE078077C
:1011A0003CF088E090E08D939C9380EA9FE04DC0F6
:1011B000603D87E078073CF087E090E08D939C935A
:1011C00080ED97E042C0683E83E078073CF086E01F
:1011D00090E08D939C9388EE93E037C0643F81E06C
:1011E00078073CF085E090E08D939C9384EF91E04C
:1011F0002CC06A3F71053CF084E090E08D939C9395
:101200008AEF90E022C0683771053CF083E090E0FF
:101210008D939C9388E790E018C06C3371053CF087
:1012200082E090E08D939C938CE390E00EC06E3151
:1012300071053CF081E090E08D939C938EE190E00D
:1012400004C01D921C928FE090E0918380830895EA
:101250000F931F93CF93DF9300D0CDB7DEB78C01F0
:101260009E012F5F3F4FAC010E94BD08F8018081B5
:1012700083FD02C098E001C098E28770892B98E155
:101280000FB6F894A895909360000FBE809360000D
:1012900089819A810F900F90DF91CF911F910F91CB
:1012A0000895DC01ED91FC91048CF58DE02D0994FD
:1012B00024E232E0FC0131832083FB014089518923
:1012C00062897389FC014283538364837583089523
:1012D000FC01848995890895FC01818D928D089582
:1012E000CF93DF931F92CDB7DEB76983DC01ED9119
:1012F000FC910280F381E02D41E050E0BE016F5F80
:101300007F4F09950F90DF91CF9108950895CF9366
:10131000DF93EC01888D843061F00E94070FE88D27
:10132000F0E0EE0FFF1FE650FC4F1182108284E0C8
:10133000888FDF91CF910895FC01178A168A6E5F1E
:101340007F4F808D0C948510FC01808D0C94CB1008
:10135000CF93DF93EC019A018E899F89AB01BC0189
:10136000888D0E943E102E893F89280F391F3F8BA0
:101370002E8BDF91CF9108950F931F93CF93DF931F
:101380001F92CDB7DEB7FC01218D328D232B61F08A
:101390008C0141E050E0BE016F5F7F4F808D0E9465
:1013A000840F181619061CF08FEF9FEF08C0F80184
:1013B000818D928D0197928F818F898190E00F901E
:1013C000DF91CF911F910F910895CF93DF93FC018F
:1013D000218D328D2115310519F48FEF9FEF11C04A
:1013E000EC014217530708F0A901888D0E94840F71
:1013F0001816190694F7298D3A8D281B390B3A8F48
:10140000298FDF91CF910895CF93DF931F92CDB7AE
:10141000DEB7FC01218D328D232B49F0BE016F5FB9
:101420007F4F808D0E940F10898190E002C08FEF66
:101430009FEF0F90DF91CF910895EF92FF921F934E
:10144000CF93DF93FC01208D243011F080E01CC08D
:101450007B01EC0110E0812F0E94DF0E811102C0A0
:10146000188F05C08831E1F31F5F1430A1F7888D14
:10147000843061F3FD86EC861A8E198E20E0A70178
:1014800062E00E94310F81E0DF91CF911F91FF90C8
:10149000EF9008950F931F93CF93DF93CDB7DEB7EF
:1014A00028970FB6F894DEBF0FBECDBF8C01F801B0
:1014B000818D928D892B49F0D801ED91FC910284A8
:1014C000F385E02DC8010995F2CF808D0E94E40FCD
:1014D0001816190654F548E050E0BE016F5F7F4FC3
:1014E000D80158968C910E94840F9C0118161906F9
:1014F000D4F4BE016F5F7F4FC8010E960E941D0697
:101500008D8190E0982F88272E81820F911DF80100
:10151000958B848B2F8130E0322F22278885280FEE
:10152000311D328F218FC90102C080E090E02896E2
:101530000FB6F894DEBF0FBECDBFDF91CF911F91E4
:101540000F9108958F929F92AF92BF92CF92DF92A8
:10155000EF92FF920F931F93CF93DF9300D000D0B1
:1015600000D0CDB7DEB7FC01208D243009F068C073
:101570006A017B018C0153E0852E54E0952EA12C4D
:10158000B12CC4010E94850C811103C0F801A08E0A
:101590000AC08831D9F3FFEFAF1ABF0A9394E4E091
:1015A000AE16B10471F7F801808D843009F448C09B
:1015B00096E0E6E1F1E0DE01119601900D929A9538
:1015C000E1F7F70193819F779C8394819D839581B7
:1015D0009E83B7016E5F7F4F90E0982F882744E08D
:1015E00050E0845F9B4F0E94560CF801E08CF12C78
:1015F000F4E0EF0EF11CFE2CEE246D2DC701409699
:101600000E94C20B6C2DC70141960E94C20BF801CB
:10161000808D90E0982F882746E050E0BE016F5FF4
:101620007F4F8A5F9B4F0E94560CF801128E118EDD
:1016300020E8A60162E0808D0E94310F81E001C0A8
:1016400080E026960FB6F894DEBF0FBECDBFDF91C7
:10165000CF911F910F91FF90EF90DF90CF90BF90AF
:10166000AF909F908F900895CF93DF93EC011B82F2
:101670001A8288EE93E0A0E0B0E08C839D83AE8375
:10168000BF838CE392E099838883CE010E960E94FB
:10169000F70584E0888FDF91CF910895CF92DF9294
:1016A000EF92FF920F931F93CF93DF93CDB7DEB7E7
:1016B000AF970FB6F894DEBF0FBECDBF8C016B01A4
:1016C0007A01CE0101960E94F705CE0109960E948B
:1016D000340BCE018A960E94F70564E973E0CE01CF
:1016E00084960E944C12BE016C5D7F4FCE01019624
:1016F0000E946E12AE01465D5F4FB601CE010196AB
:101700000E94DD1481309105C1F4D801ED91FC9166
:101710000488F589E02D84E292E09DA38CA38CA53A
:101720009DA5AEA5BFA58EA39FA3A8A7B9A7A701F6
:10173000BE016C5D7F4FC8010995AF960FB6F89456
:10174000DEBF0FBECDBFDF91CF911F910F91FF90F4
:10175000EF90DF90CF9008950F9300E020E040E0FD
:1017600060E08CE793E00E9401060F9108958EBD22
:1017700000000DB407FEFDCF8EB508952A98089598
:101780002A9A08951F93CF93DF9300D0CDB7DEB789
:10179000182F6A8399830E94BE0B80EF0E94B70BBB
:1017A0009981892F0E94B70B812F0E94B70B6A8104
:1017B000862F0E94B70B0E94C00B81E00F900F9004
:1017C000DF91CF911F910895CF93DF93EC016CE2ED
:1017D00071E080E090E00E942A030E946B15229A3B
:1017E00080911004882399F02FB7F8948091100409
:1017F000813059F48DB380930E049DB380910F0412
:10180000809589238DBB2FBF02C020930E0480E5F5
:101810008CBD1DBC60E880E090E00E94C20B65E5D5
:101820008BE190E00E94C20B65E58AE190E00E94A6
:10183000C20B80911004882351F09FB7F894209137
:10184000100480910E04213029F58DBB9FBF80E0EC
:1018500090E49983888380E090E69987888780E088
:1018600098E49B838A8380E098E69B878A8780E060
:1018700090E59D838C8380E090E79D878C8780E056
:1018800098E59F838E8380E098E79F878E87DF911E
:10189000CF9108958FBFDBCF9B0190E00496982FE6
:1018A0008827642F820F931F0C94C20BCF92DF9274
:1018B000EF92FF920F931F93CF93DF93EC017A0186
:1018C0008B016C01C40ED51ECC15DD05A1F00E9464
:1018D000BE0B80EF0E94B70B8D2F0E94B70B8C2F91
:1018E0000E94B70B2196F80181918F010E94B70BDE
:1018F0000E94C00BE9CFC701DF91CF911F910F91DB
:10190000FF90EF90DF90CF9008951F93CF93DF93D8
:101910001F92CDB7DEB7182F99830E94BE0B8FE0C0
:101920000E94B70B9981892F0E94B70B812F0E94CB
:10193000B70B80E00E94B70B89830E94C00B89819E
:101940000F90DF91CF911F91089590E00496982F0A
:101950008827860F971F0C94850C1F93CF93DF93D6
:10196000182F60E270E00E94A50CC82FD0E061E261
:1019700070E0812F0E94A50CDC2FCC279E01282B24
:10198000C901DF91CF911F910895FF920F931F938B
:10199000CF93DF93F62EC0E0D0E08F2D0E94AD0CE8
:1019A0008C01892B21F08F2D0E94AD0CEC01C0170A
:1019B000D10799F7CE01DF91CF911F910F91FF9041
:1019C00008951F93CF93DF93182F66E270E00E9473
:1019D000A50CC82FD0E067E270E0812F0E94A50C13
:1019E000DC2FCC279E01282BC901DF91CF911F91BD
:1019F0000895FF920F931F93CF93DF93F62EC0E0CD
:101A0000D0E08F2D0E94E10C8C01892B21F08F2DCD
:101A10000E94E10CEC01C017D10799F7CE01DF91CC
:101A2000CF911F910F91FF9008956F927F928F92A7
:101A30009F92AF92BF92CF92DF92EF92FF920F935D
:101A40001F93CF93DF931F92CDB7DEB7882E962ECC
:101A50006A01590164E270E0892D99830E94A50C06
:101A6000E82EF12C65E270E0892D0E94A50CFE2C79
:101A7000EE24E82A37016C0C7D1CA3015770E82C7A
:101A80009981F92EE90CF11CE90CF11CF701808118
:101A90009181840F951F9A01200F311F213038400A
:101AA00098F060E078E06B01C41AD50AA601B50190
:101AB0000E94560CA8014C195D09B5016C0D7D1DE5
:101AC000F7018081918102C0A801B5010E94560CE6
:101AD000060D171D412F64E270E0892D0E944C0C09
:101AE000402F65E270E0892D0F90DF91CF911F911B
:101AF0000F91FF90EF90DF90CF90BF90AF909F90AD
:101B00008F907F906F900C944C0CCF92DF92EF925D
:101B1000FF920F931F93CF93DF93EC017A018B0118
:101B20006C01C40ED51ECC15DD05A9F00E94BE0BBC
:101B30008FE00E94B70B8D2F0E94B70B8C2F0E9455
:101B4000B70B219680E00E94B70BF80181938F01BB
:101B50000E94C00BE8CFC701DF91CF911F910F9179
:101B6000FF90EF90DF90CF900895AF92BF92CF9209
:101B7000DF92EF92FF920F931F93CF93DF9300D0EA
:101B8000CDB7DEB75A834983590129813A8137702D
:101B90006C01C60ED11CC60ED11CF6018085918544
:101BA000820F931FA801420F531F4130584098F0F5
:101BB000E0E0F8E07F01E21AF30AA701B5010E9414
:101BC000850DA8014E195F09B5016E0D7F1DF60147
:101BD0008085918502C0A801B5010F900F90DF911B
:101BE000CF911F910F91FF90EF90DF90CF90BF901A
:101BF000AF900C94850D8F929F92AF92BF92CF922F
:101C0000DF92EF92FF920F931F93CF93DF936C01BC
:101C1000962E5A017901802E68E270E0892D0E948B
:101C2000A50CC82FD0E069E270E0892D0E94A50CB8
:101C3000DC2FCC27C82B87019501AE01692DC60189
:101C40000E94B50D81101AC0CE0DDF1D4D2F68E228
:101C500070E0892D0E944C0C4C2F69E270E0892DB8
:101C6000DF91CF911F910F91FF90EF90DF90CF9078
:101C7000BF90AF909F908F900C944C0CDF91CF91C0
:101C80001F910F91FF90EF90DF90CF90BF90AF909A
:101C90009F908F900895CF93C62F61E070E08C2FB6
:101CA0000E944C0C61E070E08C2F0E94A50C811109
:101CB000F9CFCF9108950F93FC0130E080E092E1DD
:101CC000AAE7B0E0481759076A077B0740F4B695C2
:101CD000A795979587953F5F3630A1F737E091E05C
:101CE0009327222311F020E501C020E7892F869554
:101CF0000C70082B022B0083917091830F91089533
:101D000020911004222399F04FB7F89420911004E9
:101D1000213059F42DB320930E043DB320910F04CC
:101D2000209523232DBB4FBF02C040930E048CBDD2
:101D30009DBD089580911004882361F09FB7F894A9
:101D40002091100480910E04213019F48DBB9FBFA7
:101D500008958FBF089590E0982F882744E050E0C1
:101D6000845F9B4F0C94560C62E070E00C94A50CC1
:101D7000CF93DF93C82FD62F472F64E070E00E94E7
:101D80004C0C4D2F65E070E08C2FDF91CF910C94BF
:101D90004C0C462F62E070E00C944C0CCF93DF9318
:101DA000C82FD62F472F60E170E00E944C0C4D2FBA
:101DB00061E170E08C2FDF91CF910C944C0C0F936C
:101DC0001F93CF93DF9300D01F92CDB7DEB7182FAC
:101DD00000E021E040E059E06DE370E0CE010196C3
:101DE0000E945B0E89819A810E94800E63E070E000
:101DF000812F0E94A50C8B830E949A0E8B810F90DD
:101E00000F900F90DF91CF911F910F9108950F9335
:101E10001F93CF93DF9300D0CDB7DEB7182F00E02C
:101E200021E040E059E06DE370E0CE0101960E94B0
:101E30005B0E89819A810E94800E40E150E0612F03
:101E400082E893E00E944B0E6FEF812F0E94C90E33
:101E50000E949A0E0F900F90DF91CF911F910F91DA
:101E60000895CF92DF92EF92FF920F931F93CF933B
:101E7000DF9300D0CDB7DEB79FEF960F9530C0F55A
:101E8000F22E6A01E62E182F0E94070F00E021E0D3
:101E900040E059E06DE370E0CE0101960E945B0ED8
:101EA00089819A810E94800E4E2D4F2960E070E05A
:101EB000812F0E944C0CC114D10411F0B6010AC04C
:101EC00060919203709193036F5F7F4F70939303C0
:101ED00060939203812F0E94B80E41E050E0612F81
:101EE00082E893E00E944B0E0E949A0E81E001C0AE
:101EF00080E00F900F90DF91CF911F910F91FF9095
:101F0000EF90DF90CF900895AF92BF92CF92DF9283
:101F1000EF92FF920F931F93CF93DF9300D0CDB733
:101F2000DEB7182F5B016A0100E021E040E059E0D4
:101F30006DE370E0CE0101960E945B0E89819A816B
:101F40000E94800E612F82E893E00E94F90C7C01D0
:101F50000097A1F463E070E0812F0E94A50C84310A
:101F600019F1882309F121E030E08C3111F420E0EF
:101F700030E0EE24FF24E21AF30A16C0C816D90690
:101F80000CF476011E141F047CF400E09701A501F7
:101F9000612F82E893E00E94FB0D40E450E0612F46
:101FA00082E893E00E944B0E0E949A0EC7010F90A8
:101FB0000F90DF91CF911F910F91FF90EF90DF90E5
:101FC000CF90BF90AF9008950F931F93CF93DF935F
:101FD00000D000D0CDB7DEB7182F00E021E040E000
:101FE00059E06DE370E0CE0101960E945B0E89819D
:101FF0009A810E94800E612F82E893E00E94F90C82
:102000008B839C830E949A0E8B819C810F900F90F2
:102010000F900F90DF91CF911F910F910895EF9244
:10202000FF920F931F93CF93DF9300D0CDB7DEB70E
:10203000182F7B0100E021E040E059E06DE370E003
:10204000CE0101960E945B0E89819A810E94800ECA
:1020500001E021E030E0A701612F82E893E00E94D7
:10206000FB0D0E949A0E81E090E00F900F90DF919F
:10207000CF911F910F91FF90EF9008958F929F92B3
:10208000AF92BF92DF92EF92FF920F931F93CF9385
:10209000DF9300D0CDB7DEB7D82E5B014A017901BE
:1020A00000E021E040E059E06DE370E0CE010196F0
:1020B0000E945B0E89819A810E94800E6D2D82E8BC
:1020C00093E00E94C50C8E159F0530F46D2D82E8BB
:1020D00093E00E94C50C7C0187019401A5016D2D40
:1020E00082E893E00E94150D0E949A0EC7010F909E
:1020F0000F90DF91CF911F910F91FF90EF90DF90A4
:10210000BF90AF909F908F900895CF92DF92EF9203
:10211000FF920F931F93CF93DF9300D0CDB7DEB71D
:10212000FB019081911109C09181911106C09281AA
:10213000911103C09381992309F141155105F1F0E3
:102140006A017F01182F00E021E040E059E06DE3D3
:1021500070E0CE0101960E945B0E89819A810E94F7
:10216000800EB701812F0E94AB0EB601812F0E9415
:10217000CE0E0E949A0E81E090E002C080E090E0D6
:102180000F900F90DF91CF911F910F91FF90EF90E3
:10219000DF90CF9008950F931F93CF93DF9300D0DC
:1021A000CDB7DEB7182F00E021E040E059E06DE345
:1021B00070E0CE0101960E945B0E89819A810E9497
:1021C000800E40E250E0612F82E893E00E944B0EC7
:1021D000812F0E94B40E84FD21C0812F0E94B40E75
:1021E00083FF09C068E1812F0E94C90E0E949A0EE8
:1021F00080E090E01BC00E949A0E0E94A10300E0C4
:1022000021E040E059E06DE370E0CE0101960E94CC
:102210005B0E89819A810E94800EDACF60E1812F66
:102220000E94C90E0E949A0E81E090E00F900F90DC
:10223000DF91CF911F910F91089544E050E0BC01D0
:1022400081E090E00C94560C44E050E0BC0185E045
:1022500090E00C94560C44E050E0BC018FE090E01C
:102260000C94560C2F923F924F925F926F927F92F6
:102270008F929F92AF92BF92CF92DF92EF92FF9296
:102280000F931F93CF93DF9300D000D000D0CDB732
:10229000DEB76C011B0129013A01470158018CE9A5
:1022A00093E0F6019783868382E893E00E94E40B33
:1022B00080E590E00E94800E46E050E0B10189E0A8
:1022C00090E00E94560C00E020E040E060E0CE018B
:1022D00001960E940106CE0103960E942B110E94D6
:1022E0009A0E85017401A3019201B101F601868164
:1022F00097810E94B91A8C010197B9F580E590E0A9
:102300000E94800EF60166817781CE0101960E94BF
:10231000F315CE0103960E942B11F6016681778199
:10232000CE0101960E940916CE0103960E941D114E
:10233000F60166817781CE0101960E94FE15CE01DD
:1023400003960E9424110E949A0EF60166817781FD
:10235000CE0101960E9414168B819C81AD81BE81B5
:10236000F60182839383A483B583C80126960FB6B2
:10237000F894DEBF0FBECDBFDF91CF911F910F91BB
:10238000FF90EF90DF90CF90BF90AF909F908F9095
:102390007F906F905F904F903F902F900895EF92B5
:1023A000FF920F931F93CF93DF9300D000D000D004
:1023B000CDB7DEB7FC01268137812115310509F43F
:1023C00043C08C01C9010E94F81A7C01029721F0D8
:1023D00084E0E816F104D1F580E590E00E94800EDB
:1023E000F80166817781CE0101960E94F315CE0136
:1023F00003960E942B11F80166817781CE01019628
:102400000E940916CE0103960E941D11F8016681F3
:102410007781CE0101960E94FE15CE0103960E949F
:1024200024110E949A0EF80166817781CE010196EF
:102430000E9414168B819C81AD81BE81F80182833C
:102440009383A483B58302C0E12CF12CC7012696A7
:102450000FB6F894DEBF0FBECDBFDF91CF911F91B5
:102460000F91FF90EF900895CF93DF93EC010E94BE
:10247000F70580E590E00E94800EBE016E5F7F4F01
:1024800044E050E08FE090E00E94850D0E949A0E9B
:10249000CE01DF91CF91089524E232E0FC01318337
:1024A0002083FB014281538164817581FC01428359
:1024B00053836483758308950F9300E020E040E028
:1024C00060E082E094E00E9401068FED93E00E94BC
:1024D000340B84E993E00F910C94F705FB014281E2
:1024E000538164817581FC014283538364837583C6
:1024F000178216820895CF93DF93FB0120E080E0DE
:1025000090E0AAE03191332301F160ED630F6A306E
:1025100080F4A89FB001A99F700D1124CB01C09732
:10252000830F911D37FD9A958F3F910559F350F315
:1025300013C03E3289F4233079F0EA01C20FD11D75
:102540008A832F5F80E090E0DDCF233029F4FA0109
:10255000858381E090E002C080E090E0DF91CF9140
:1025600008950F9300E020E040E060E088E094E010
:102570000E9401060F9108958F929F92AF92BF9291
:10258000CF92DF92EF92FF920F931F93CF93DF933F
:1025900000D000D01F92CDB7DEB78C016B010E9436
:1025A000F902F801778366837627672776277A838F
:1025B0006983085F1F4F42E050E0BE016F5F7F4FAD
:1025C000C8010E94A80981E090E09C838B8342E0CF
:1025D00050E0BE016D5F7F4FC8010E94A80980E0F6
:1025E00091E09C838B8342E050E0BE016D5F7F4FA2
:1025F000C8010E94A8091C821B8242E050E0BE0173
:102600006D5F7F4FC8010E94A80942E050E0BE0103
:102610006D5F7F4FC8010E94A80942E050E0BE01F3
:102620006D5F7F4FC8010E94A8095601F5018081A6
:10263000882329F1C6017C01FC012081019621112A
:1026400016C0570147018C189D081814190494F4FA
:102650008D8241E050E0BE016B5F7F4FC8010E9458
:10266000A809A401B601C8010E94A80903C02E321E
:1026700011F7E7CF6701FFEFCF1ADF0AD7CF1D822F
:1026800041E050E0BE016B5F7F4FC8010E94A80986
:10269000E12CFF24F394FC82EB8242E050E0BE0187
:1026A0006D5F7F4FC8010E94A809FC82EB8242E067
:1026B00050E0BE016D5F7F4FC8010E94A80981E014
:1026C00090E00F900F900F900F900F90DF91CF91AF
:1026D0001F910F91FF90EF90DF90CF90BF90AF9040
:1026E0009F908F9008954F925F926F927F928F92FA
:1026F0009F92AF92BF92CF92DF92EF92FF920F9391
:102700001F93CF93DF93CDB7DEB765970FB6F894DD
:10271000DEBF0FBECDBF7C015B016A010E94F902E2
:102720002B013C018701085F1F4F4501A12CB12CF3
:10273000C8010E944A0A18161906A4F00E94F9025C
:10274000DC01CB0184199509A609B70988169906F9
:10275000AA06BB06D0F062E370E080E090E00E9441
:102760002A03E6CFF7014281538164817581808D10
:10277000918DA28DB38D481759076A077B0741F4E5
:10278000848D958DC59721F406C02FEF3FEFFDC0D6
:102790002EEF3FEFFAC0C8010E946C090C97ECF0D5
:1027A0004CE050E0BE016F5F7F4FC8010E94E50919
:1027B0006C818B810E94E7159A8B898BF701E680EB
:1027C000F7806A8189810E94E715E816F90641F4CD
:1027D00089899A8997FF04C009C02DEF3FEFD5C0C2
:1027E000C8010E9486092CEF3FEFCFC08F70927016
:1027F000892B31F0C8010E9486092BEF3FEFC5C03D
:1028000068858F810E94E7155C01892B31F4C8012E
:102810000E9486092AEF3FEFB8C0E12CF12C6E81AF
:102820008D810E94E715E816F90640F541E050E079
:10283000BE01635F7F4FC8010E94E5098D8581114C
:1028400013C08D858111F2CFC8010E94BC09C80157
:102850000E94BC09C8010E94BC09C8010E94BC09B1
:10286000FFEFEF1AFF0ADBCF8D859FEF980F9D8753
:10287000882339F3C8010E94BC09F6CFE12CF12C62
:1028800041E050E0BE016D5E7F4FC8010E94E50946
:102890008B89982F907C61F4882371F08B899FEF4E
:1028A000980F9B8B882341F0C8010E94BC09F6CF8A
:1028B000C8010E94BC091B8A8B898111E1CF42E0CB
:1028C00050E0BE01615F7F4FC8010E94E50942E010
:1028D00050E0BE01635F7F4FC8010E94E509C80157
:1028E0000E94BC09C8010E94BC09C8010E94BC0921
:1028F000C8010E94BC0942E050E0BE016F5E7F4FFC
:10290000C8010E94E5098F8598898115914001F5DC
:102910002D853E8532272327322721303105C1F40A
:1029200089899A898115944031F0C8010E948609ED
:1029300027EF3FEF2AC0B6016E5F7F4F44E050E0C3
:10294000C8012C8B3D8B0E94E5092C893D891DC057
:10295000812C912C89899A8998278927982788160C
:10296000990638F4C8010E94BC098FEF881A980AAA
:10297000F1CFEFEFEE1AFE0AEA14FB0409F080CF64
:10298000C8010E94860926EF3FEFC90165960FB680
:10299000F894DEBF0FBECDBFDF91CF911F910F9195
:1029A000FF90EF90DF90CF90BF90AF909F908F906F
:1029B0007F906F905F904F9008958F929F92AF920B
:1029C000BF92CF92DF92EF92FF920F931F93CF931C
:1029D000DF9300D000D000D0CDB7DEB77C014B0133
:1029E0005A010E947B128C01892B09F05BC0F70110
:1029F000428153816481758180910A0490910B0416
:102A0000A0910C04B0910D04481759076A077B0781
:102A100009F44BC00E94F9026701F8E0CF0ED11C07
:102A20006F7077277C5FC6010E941D0A813009F014
:102A30003EC084E292E09A838983F7018281938188
:102A4000A481B5818B839C83AD83BE8345E350E035
:102A5000BE016F5F7F4FC6010E949C09892B19F44C
:102A600000E010E01BC0B401C7010E94BC12892B1A
:102A7000B9F3C6010E94A409892B91F383E0882E43
:102A8000912CA50168E873E1C7010E9473138C01C2
:102A9000F1E08F1A910811F0019699F3C6010E9496
:102AA000870905C001E010E002C00EEF1FEFC8016A
:102AB00026960FB6F894DEBF0FBECDBFDF91CF9143
:102AC0001F910F91FF90EF90DF90CF90BF90AF904C
:102AD0009F908F900895CF93CFB7F8948091110471
:102AE000811127C0EAE9F0E08491E6E8F0E09491F2
:102AF000E82FF0E0EE0FFF1FE255FF4FA591B491D4
:102B0000EC91E92321F461E08AE00E94070461E08E
:102B10008AE00E94CB038CB580618CBD8CB580644B
:102B20008CBD61E08DE00E94CB0361E08BE00E94F0
:102B3000CB03809111048F5F80931104CFBFCF919D
:102B40000895CF93DF9300D000D0CDB7DEB76115E5
:102B500071058105910579F09B01AC0169833A8388
:102B60004B835C830E94101D29813A814B815C81DB
:102B70000E94AB1E03C060E070E0CB010F900F908D
:102B80000F900F90DF91CF910895CF92DF92EF9247
:102B9000FF920F931F93621773078407950784F4BE
:102BA00089019A016B017C01C901B8016C197D0989
:102BB0008E099F090E94A1156C0D7D1D8E1D9F1D04
:102BC0001F910F91FF90EF90DF90CF90089570E0EC
:102BD0009B01382BC90108950E9624E1FC01119246
:102BE0002A95E9F70895CF93DF93EC01625F7F4F59
:102BF0000E940D06CE01DF91CF910895CF93DF9310
:102C0000EC016E5E7F4F0E940D06CE01DF91CF91E9
:102C10000895CF93DF93EC016A5E7F4F0E940D060B
:102C2000CE01DF91CF910895CF93DF93EC01625EE7
:102C30007F4F0E940D06CE01DF91CF91089580E372
:102C4000FB0180833296842F82958F7090E1899F5B
:102C5000401911244A3014F4405D01C0495C42938C
:102C6000482F8111F0CF08950F9300E020E040E05D
:102C700060E082E194E00E9401060F9108957F9246
:102C80008F929F92AF92BF92CF92DF92EF92FF927C
:102C90000F931F93CF93DF93CDB7DEB7AC970FB6EB
:102CA000F894DEBF0FBECDBF7C01762E942E852E0C
:102CB00020E2B22ECE0101966C01FC012B2D119267
:102CC0002A95E9F70FEF2FEF4FEF6FEF86960E94EF
:102CD000010684E292E09AA389A389A59AA5ABA5EF
:102CE000BCA58BA39CA3ADA3BEA387010D5B1F4F07
:102CF00043E450E0BE016F5D7F4FC8010E949C0914
:102D0000019609F4BFC081E089838A8386E0A82EFA
:102D1000AB821C82F70164817581868197810E9454
:102D2000CA1E6D837E838F83988789869A8680E802
:102D300090E09C878B874CE150E0B601C8010E946F
:102D4000A809F6012B2D11922A95E9F7470188E091
:102D5000880E911CF401D60101900D92AA94E1F71E
:102D600040E150E0B601C8010E94A809F6011192A5
:102D7000BA94E9F796E0A92EB12C40E250E0B601F2
:102D8000C8010E94A809F1E0AF1AB108B1F783E6C3
:102D9000898392E89A8393E59B838C8385E38D8373
:102DA00081E08E837F829DE3988797E099878A8769
:102DB00086E0F401DE011B9601900D928A95E1F701
:102DC0008CE0898B8A8B60E672E0CE0143960E948C
:102DD0000A1EF7014385BE01675E7F4FC7010E944F
:102DE0001F16F7014485BE01655E7F4FC7010E9433
:102DF0001F16F7014585BE01635E7F4FC7010E9424
:102E00001F164EE150E0B601C8010E94A809F3E088
:102E10007F121EC082E3898384E08A83F70196854E
:102E20009B8397859C8390899D8391899E8396E35C
:102E30009F838887828D8987838D8A87848D8B87FE
:102E4000858D8C874CE050E0B601C8010E94A8092E
:102E500087E3898386E08A8391E09B8393E09C8368
:102E60008D838FE08E838AE38F838BE388878FEF58
:102E7000898749E050E0B601C8010E94A809C8014D
:102E80000E94A409AC960FB6F894DEBF0FBECDBF6A
:102E9000DF91CF911F910F91FF90EF90DF90CF9036
:102EA000BF90AF909F908F907F9008952F923F9208
:102EB0004F925F926F927F928F929F92AF92BF924A
:102EC000DF92EF92FF920F931F93CF93DF93CDB7D3
:102ED000DEB7E4970FB6F894DEBF0FBECDBF7C011E
:102EE0001A012B0139010E94F9024B015C01870193
:102EF0000D5B1F4FC8010E944A0A18161906A4F05C
:102F00000E94F902DC01CB0188199909AA09BB09C1
:102F1000281639064A065B06F0F062E370E080E0AE
:102F200090E00E942A03E6CF42E250E0BE016F5FCC
:102F30007F4FC8010E94E5098981823031F4F80190
:102F4000848995898334910541F0D12CC8010E9470
:102F500086098D2D5FC18FEF5DC16D817E818F816F
:102F600098850E94CA1E4B015C01F3016083718346
:102F70008283938346E050E0B701685F7F4FCE01C4
:102F80004D960E94EB1D892B99F4F7018081918168
:102F9000A281B38188169906AA06BB0648F08481EF
:102FA0009581A681B78188159905AA05BB0528F4E6
:102FB000C8010E94860980E02DC189899A89AB8960
:102FC000BC89F70186879787A08BB18B8EECA82EE2
:102FD000B12CC8010E94BC09F1E0AF1AB108C9F7D1
:102FE000D12CC70182969AA789A7F701B696FCA7AC
:102FF000EBA708969EA78DA73C974F01899698ABA3
:103000008FA73897FAABE9AB1701F6E12F0E311C09
:10301000C5979CAB8BABC8010E946C0918161906AA
:103020000CF094CFC8010E94BC098333910509F4C8
:10303000CBC0FCF481309105C9F11CF4892B59F304
:10304000DDC083309105D1F1069709F0D7C0C801E2
:103050000E94BC095C0144E050E06BA97CA9C80156
:103060000E94E509412C512CBB24F4E0AF1AB108B1
:1030700040C08A33910509F47BC03CF48533910547
:1030800069F0C69709F440C0B9C08B33910509F4C3
:1030900085C08F3F910509F4BECFB0C0C8010E9422
:1030A000BC09C8010E94BC09D82EB5CFC8010E9436
:1030B000BC0944E050E069A97AA93AC0C8010E945D
:1030C000BC095C0144E050E0B101C8010E94E5097F
:1030D000412C512CBB2494E0A91AB1084A145B047A
:1030E0000CF099CFC8010E94BC09EFEF4E1A5E0A9E
:1030F000F5CF4A145B040CF08ECFC8010E94BC09C6
:103100008FEF481A580AF5CFC8010E94BC09B82EA3
:10311000F701828D811110C0838D81110DC0848DC6
:1031200081110AC0858D811107C044E050E0B401CF
:10313000C8010E94E5096FCFEFA5F8A94080518032
:1031400062807380B401CE0183960E940D068DA12A
:103150009EA1AFA1B8A584159505A605B70529F3CD
:10316000BB2009F458CFC8010E94BC09BA94F8CF1B
:10317000C8010E94BC0944E050E06BA57CA5C801D1
:103180000E94E509F70166A177A180A591A50E949B
:10319000CA1E66A377A380A791A73DCFC8010E944E
:1031A000BC0944E050E06DA57EA5C8010E94E50978
:1031B000F70162A573A584A595A50E94CA1E62A702
:1031C00073A784A795A727CFC8010E94BC0944E034
:1031D00050E069A57AA5C8010E94E509F70162A13E
:1031E00073A184A195A10E94CA1E62A373A384A3A4
:1031F00095A366A777A780AB91AB0DCFC8010E94BE
:10320000BC09B82EBB2009F406CFC8010E94BC0936
:10321000BA94F8CFE4960FB6F894DEBF0FBECDBFD8
:10322000DF91CF911F910F91FF90EF90DF90BF90B2
:10323000AF909F908F907F906F905F904F903F9056
:103240002F9008952F923F924F925F926F927F92AC
:103250008F929F92AF92BF92CF92DF92EF92FF92A6
:103260000F931F93CF93DF93CDB7DEB727970FB69A
:10327000F894DEBF0FBECDBF8C0120ED37E040E0FB
:1032800050E061E070E080E090E00E94C515D80158
:1032900014966D937D938D939C931797F80160839B
:1032A0007183828393835801F3E4AF0EB11CC5018F
:1032B0000E94870964E470E0C5010E941D0A88230A
:1032C00009F43CC10E94F9022B013C01812C912C94
:1032D0001D82C8018E5B9F4F9F838E8343E0342EF7
:1032E00058EEC52E53E0D52EE12CF12C62E0262EAF
:1032F000AE81BF818C91833009F407C1811120C058
:10330000F80184819581A681B7810196A11DB11D27
:1033100084839583A683B7830E94F9026419750993
:1033200086099709A70196010E94891EA90161E0FB
:10333000C8010E943F1681E0AE81BF818C93C6C058
:103340008430F9F4F80184819581A681B7810196D2
:10335000A11DB11D84839583A683B7830E94F902C2
:103360006419750986099709A70196010E94891EAB
:10337000A90163E0C8010E943F16AE81BF812C9273
:10338000A5C0813061F5F80142AD53AD64AD75ADB6
:103390009E012F5F3F4FC8010E9456178D838230D8
:1033A00009F094C089819A81AB81BC81F801848342
:1033B0009583A683B7830E94F9026419750986096B
:1033C0009709A70196010E94891EA90163E0C8011F
:1033D0000E943F16ED81AE81BF81EC937EC08230AA
:1033E00009F074C0D801DA964D915D916D917C9190
:1033F000DD979E012F5F3F4FC8010E9456178D83B6
:10340000853009F05CC0EE81FF813082F80182A135
:1034100093A1A4A1B5A1892B8A2B8B2B41F484E81D
:1034200093E0A0E0B0E082A393A3A4A3B5A3F80126
:1034300086A197A1A0A5B1A5892B8A2B8B2B61F41E
:1034400082A193A1A4A1B5A1B695A79597958795BB
:1034500086A397A3A0A7B1A7F80182A593A5A4A5C9
:10346000B5A5892B8A2B8B2BA9F482A193A1A4A1AA
:10347000B5A1AC01BD0123E07695679557954795B9
:103480002A95D1F7841B950BA60BB70B82A793A7A0
:10349000A4A7B5A7F80186A197A1A0A5B1A586A765
:1034A00097A7A0ABB1AB82A593A5A4A5B5A582AB08
:1034B00093ABA4ABB5AB88248394912C0EC0FD8153
:1034C000F63021F4AE81BF811C9207C0BD81BF3FA1
:1034D00021F4EE81FF8110821D82F1E08F169104AC
:1034E00009F406CF0E94F902DC01CB018419950989
:1034F000A609B709F80126A937A940AD51AD28178B
:1035000039074A075B0708F0F3CEC5010E94870917
:10351000F80184819581A681B7810196A11DB11D15
:1035200084839583A683B7830E94F902F801FE96EF
:103530006083718382839383C40102C080E090E042
:1035400027960FB6F894DEBF0FBECDBFDF91CF91A7
:103550001F910F91FF90EF90DF90CF90BF90AF90B1
:103560009F908F907F906F905F904F903F902F90A3
:103570000895CF92DF92EF92FF920F931F93CF9314
:10358000DF93EC016B011AA21BA21CA21DA21EA2BA
:103590001FA218A619A61AA61BA61CA61DA62EAB0E
:1035A0003FAB48AF59AFEAAEFBAE0CAF1DAF8C01DD
:1035B000085F1F4F86E0F80111928A95E9F7CE0166
:1035C0000E94EC1586E0F601D80101900D928A95D3
:1035D000E1F7FE01EE5BFF4F1082CE01DF91CF914C
:1035E0001F910F91FF90EF90DF90CF900C942219D4
:1035F000CF92DF92EF92FF920F931F93CF93DF93BF
:10360000EC010E94F9026B017C018E01025C1F4FEC
:10361000F80180819181A281B381A7019601281BC5
:10362000390B4A0B5B0BCA01B901683E33E07307E3
:103630008105910508F441C028EE33E040E050E0F8
:103640000E94891EC61AD70AE80AF90AF801C08240
:10365000D182E282F3828EA59FA5A8A9B9A96901AA
:103660007A01CC0CDD1CEE1CFF1C8C159D05AE05F3
:10367000BF0528F41EA61FA618AA19AA08C0821BF7
:10368000930BA40BB50B8EA79FA7A8ABB9AB8AA9C8
:103690009BA9ACA9BDA98C159D05AE05BF0528F455
:1036A0001AAA1BAA1CAA1DAA08C0821B930BA40B52
:1036B000B50B8AAB9BABACABBDAB8EA59FA5A8A948
:1036C000B9A9892B8A2B8B2B69F4FE01EE5BFF4F86
:1036D0008081833039F484E08083CE010E942219F6
:1036E000019602C080E090E04AA95BA96CA97DA97F
:1036F000452B462B472B81F4FE01EE5BFF4F2081CB
:10370000233011F0211108C01082CE010E94EC1567
:10371000CE010E9422190396DF91CF911F910F9144
:10372000FF90EF90DF90CF900895CF93DF9382309A
:10373000910510F482E090E0E0911A04F0911B04EE
:1037400020E030E0C0E0D0E0309711F140815181BD
:1037500048175907C0F04817590761F482819381CF
:10376000209719F09B838A832BC090931B0480932E
:103770001A0426C02115310519F04217530718F411
:103780009A01BE01DF01EF010280F381E02DDCCF61
:103790002115310509F1281B390B2430310590F42E
:1037A00012968D919C9113976115710521F0FB0183
:1037B0009383828304C090931B0480931A04FD01B9
:1037C000329644C0FD01E20FF31F81939193225082
:1037D00031092D933C933AC020911804309119047B
:1037E000232B41F4209102013091030130931904FD
:1037F0002093180420910001309101012115310519
:1038000041F42DB73EB74091040150910501241BAE
:10381000350BE0911804F0911904E217F307A0F4B6
:103820002E1B3F0B2817390778F0AC014E5F5F4F16
:103830002417350748F04E0F5F1F5093190440932B
:1038400018048193919302C0E0E0F0E0CF01DF9192
:10385000CF9108950F931F93CF93DF93009709F4AF
:103860008CC0FC0132971382128200911A041091CD
:103870001B040115110581F420813181820F931FF2
:1038800020911804309119042817390779F5F0931D
:103890001904E093180471C0D80140E050E0AE175D
:1038A000BF0750F412962D913C911397AD0121154D
:1038B000310509F1D901F3CF9D01DA013383228368
:1038C00060817181860F971F8217930769F4EC015D
:1038D00028813981260F371F2E5F3F4F3183208388
:1038E0008A819B8193838283452B29F4F0931B0467
:1038F000E0931A0442C01396FC93EE931297ED01E5
:10390000499159919E01240F351FE217F30771F475
:1039100080819181840F951F029611969C938E93BE
:103920008281938113969C938E931297E0E0F0E04E
:10393000D80112968D919C911397009719F0F80178
:103940008C01F6CF8D919C9198012E5F3F4F820F95
:10395000931F20911804309119042817390769F42E
:10396000309729F410921B0410921A0402C013829B
:1039700012821093190400931804DF91CF911F91C4
:103980000F9108958F929F92AF92BF92CF92DF9244
:10399000EF92FF92CF93DF93EC01688179818A8166
:1039A0009B81611571058105910521F464E279ED32
:1039B0008BE597E02DE133EF41E050E00E94AB1E34
:1039C00049015A019B01AC01A7EAB1E40E94D11E52
:1039D0006B017C01ACEEB4EFA50194010E94DF1EE7
:1039E000DC01CB018C0D9D1DAE1DBF1DB7FF03C0BB
:1039F0000197A109B04888839983AA83BB83BC013E
:103A0000CD019F77DF91CF91FF90EF90DF90CF9026
:103A1000BF90AF909F908F9008950E94C21C089510
:103A200086E091E00E94C21C0895609306017093A5
:103A3000070180930801909309010895A0E0B0E088
:103A4000E4E2FDE10C94E81EEC01009721F4CB01C7
:103A50000E94951BB8C0FC01E60FF71F9C01225085
:103A60003109E217F30708F4ACC0D9010D911C919C
:103A7000119706171707B0F00530110508F49FC01D
:103A8000C80104978617970708F499C002501109D6
:103A9000061B170B019311936D937C93CF010E942A
:103AA0002A1C8DC05B01A01AB10A4C01800E911E28
:103AB000A0911A04B0911B0440E050E0E12CF12CDD
:103AC000109709F44AC0A815B905D1F56D907C90FE
:103AD0001197630182E0C80ED11CCA14DB0480F187
:103AE000A3014A195B096A0182E0C80ED11C129633
:103AF000BC9012971396AC91B5E0CB16D10440F070
:103B0000B282A38351834083D9016D937C930AC011
:103B10000E5F1F4FC301800F911FF90191838083B6
:103B2000EB2DFA2FE114F10431F0D7011396FC9339
:103B3000EE93129744C0F0931B04E0931A043FC025
:103B40008D919C9111974817590708F4AC017D019C
:103B500012960D90BC91A02DB3CF80911804909136
:103B6000190488159905E1F446175707C8F48091A0
:103B7000000190910101009741F48DB79EB74091EB
:103B8000040150910501841B950BE817F907C8F44F
:103B9000F0931904E0931804F901718360830FC056
:103BA000CB010E94951B7C01009759F0A801BE0132
:103BB0000E94F81DCE010E942A1CC70104C0CE013C
:103BC00002C080E090E0CDB7DEB7EEE00C94041FB9
:103BD000F8940C94461FFB01DC0104C08D91019008
:103BE000801921F441505040C8F7881B990B089563
:103BF000FB01DC0102C001900D9241505040D8F70A
:103C00000895FB01DC018D91019080190110D9F319
:103C1000990B0895FB01DC0101900D920020E1F762
:103C200008954532510520F4423010F00C941C1ECA
:103C3000FB011082CB010895BB274A3031F4992350
:103C400022F4BDE2909581959F4F0C94601E253221
:103C5000310520F4223010F00C94321EFA0110824B
:103C6000CA010895BB27FA01A62F621771058105C5
:103C70009105330B30FB66F0AA27660F771F881F6C
:103C8000991FAA1FA21710F0A21B63953850A9F71D
:103C9000A05DAA3308F0A95DA19336F7B111B193E5
:103CA0001082CA010C94791E4532510520F442302D
:103CB00010F00C945F1EFB011082CB010895BB270E
:103CC000FB015527AA27880F991FAA1FA41710F0D8
:103CD000A41B83955051B9F7A05DAA3308F0A95DE4
:103CE000A193009779F7B111B1931192CB010C9484
:103CF000791EDC01FC01672F71917723E1F7329780
:103D000004C07C916D9370836291AE17BF07C8F3B6
:103D10000895A1E21A2EAA1BBB1BFD010DC0AA1F0C
:103D2000BB1FEE1FFF1FA217B307E407F50720F024
:103D3000A21BB30BE40BF50B661F771F881F991F9F
:103D40001A9469F760957095809590959B01AC01E8
:103D5000BD01CF010895052E97FB1EF400940E942B
:103D6000C21E57FD07D00E94891E07FC03D04EF4E7
:103D70000C94C21E50954095309521953F4F4F4F62
:103D80005F4F089590958095709561957F4F8F4F07
:103D90009F4F0895692796276927782787277827CF
:103DA00008950E94211FA59F900DB49F900DA49F80
:103DB000800D911D11240895B7FF0C94D11E0E940F
:103DC000D11E821B930B08952F923F924F925F92C8
:103DD0006F927F928F929F92AF92BF92CF92DF921B
:103DE000EF92FF920F931F93CF93DF93CDB7DEB780
:103DF000CA1BDB0B0FB6F894DEBF0FBECDBF099414
:103E00002A88398848885F846E847D848C849B846A
:103E1000AA84B984C884DF80EE80FD800C811B8178
:103E2000AA81B981CE0FD11D0FB6F894DEBF0FBEA7
:103E3000CDBFED010895EE0FFF1F0590F491E02D29
:103E40000994A29FB001B39FC001A39F700D811D73
:103E50001124911DB29F700D811D1124911D089593
:103E6000F999FECF92BD81BDF89A992780B5089542
:103E7000262FF999FECF1FBA92BD81BD20BD0FB686
:103E8000F894FA9AF99A0FBE0196089510E0C4E6E4
:103E9000D0E004C0FE010E941B1F2196C536D10749
:063EA000C9F7F894FFCF02
:103EA60000001C042000010000000600BA22B8220F
:103EB6000008DC00006A01005E00000052756E6EAC
:103EC600696E67206D61634275726E657220736BF1
:103ED6006574636800454550524F4D2072656164B4
:103EE600207072696F7220746F2045746865726EF7
:103EF60065742E626567696E286D61632900446189
:103F060074613A20004661696C656420746F2063B1
:103F16006F6E6669677572652045746865726E6551
:103F260074207573696E6720444843500050726967
:103F36006E74696E672074686520636F6E74656E53
:103F46007473206F6620454550524F4D004164649E
:103F5600726573733A200049502061646472657318
:103F6600733A00726573657400526573657474699B
:103F76006E6720746865206D6963726F636F6E7417
:103F8600726F6C6C65722E2E2E0057616974696EA5
:103F96006720746F2072656365697665207468654D
:103FA60020726573657420636F6D6D616E642E2E6D
:103FB600000D0A006E616E00696E66006F7666001F
:103FC60000000000B5050000000000083A04A00744
:103FD600DE0772078C077E07000000007009A8093B
:103FE600370486096C09BC09040A1D0AA20A870956
:103FF6009C094E0BA4094A0AE509510958096809A2
:0840060057495A6E6574000071
:00000001FF
