:100000000C9464000C948C000C948C000C948C0068
:100010000C948C000C948C000C948C000C948C0030
:100020000C948C000C948C000C948C000C948C0020
:100030000C948C000C948C000C948C000C948C0010
:100040000C9446020C948C000C9485040C94B70418
:100050000C948C000C948C000C948C000C948C00F0
:100060000C948C000C948C0000000008000201002D
:100070000003040700000000000000000102040863
:100080001020408001020408102001020408102002
:10009000040404040404040402020202020203032E
:1000A0000303030300000000250028002B000000CC
:1000B0000000240027002A008E00E7049705760A36
:1000C000C11016119914AE0011241FBECFEFD8E055
:1000D000DEBFCDBF12E0A0E0B1E0E6E3FAE302C08C
:1000E00005900D92A631B107D9F723E0A6E1B2E061
:1000F00001C01D92A83CB207E1F710E0C3E6D0E0D2
:1001000004C02197FE010E94E31CCC35D107C9F73A
:100110000E9415050C94B01B0C9400000F9300E096
:1001200020E040E060E086E792E00E94700585E50F
:1001300092E00E94FE0901E021E041E06AE08FE4E4
:1001400092E00E94700584E392E00E94FE096CE454
:1001500071E086E192E00F910C94100686E192E046
:100160000C94A2050F931F93CF93DF9300D000D080
:1001700000D0CDB7DEB78C0140910A0150910B0140
:1001800083ED91E09A83898380915102909152028C
:10019000A0915302B09154028B839C83AD83BE83A4
:1001A000BE016F5F7F4F84E392E00E946608B80152
:1001B00084E392E00E94110484E392E00E946E08BE
:1001C00088E1ECE1F2E0DF011D928A95E9F72696DD
:1001D0000FB6F894DEBF0FBECDBFDF91CF911F9158
:1001E0000F910895EF92FF920F931F93CF93DF9398
:1001F000CDB7DEB72C970FB6F894DEBF0FBECDBFDC
:1002000026E040E855E260E070E085E892E00E9478
:10021000B6070EE011E0F80161918F018091720242
:10022000909173020E94001D80917202909173025E
:1002300001969093730280937202F1E004311F07DC
:1002400051F76091740280911401909115010E9400
:10025000001D07E010E060E0C8010E94001D0F5F74
:100260001F4F011584E01807B1F700E010E06CE1C2
:1002700071E0CE0101960E941006CE0101960E9407
:10028000B200CE0101960E94A2056CE371E0CE019E
:1002900001960E941006CE0101960E94B200CE0186
:1002A00001960E94A2054AE0B801CE0101960E9483
:1002B0006906CE0101960E94B200CE0101960E940D
:1002C000A20566E471E085E892E00E941F04C8017F
:1002D0000E94F81C4AE0682FCE0101960E943C065D
:1002E000BE016F5F7F4F85E892E00E941104CE014E
:1002F00001960E94A2050F5F1F4F0830110509F0FB
:10030000B6CF10EAE12E1FE0F12E00E010E020E66B
:100310003AEE40E050E06EE071E080E493E00E944D
:10032000FC0F892B79F46DE471E0CE0101960E94F7
:100330001006CE0101960E94B200CE0101960E94E5
:10034000A205FFCF65E771E0CE0101960E9410067D
:10035000CE0101960E94B200CE0101960E94A20534
:1003600060E473E0CE0107960E94991049855A8592
:100370006B857C852AE0CE0101960E949506CE0110
:1003800001960E94B200CE0101960E94A2056091E2
:100390000C0170910D0185E592E00E94E7086CED7B
:1003A00075E080E090E00E94C10261E084E00E947C
:1003B000620361E084E00E949E032C960FB6F894DD
:1003C000DEBF0FBECDBFDF91CF911F910F91FF9088
:1003D000EF900895CF93DF93CDB7DEB72C970FB68C
:1003E000F894DEBF0FBECDBF85E592E00E941409F0
:1003F000909371028093700261E871E0CE010196E2
:100400000E941006CE0101960E94B200CE01019614
:100410000E94A2058091700290917102181619062F
:1004200064F548E150E06CE172E085E592E00E94FD
:10043000AF086CE172E0CE0107960E94100668EAF0
:1004400071E0CE0107960E94C206882391F06EEA01
:1004500071E0CE0101960E941006CE0101960E9425
:10046000B200CE0101960E94A20560E084E00E94E5
:100470009E03CE0107960E94A2052C960FB6F89413
:10048000DEBF0FBECDBFDF91CF9108951F920F92B7
:100490000FB60F9211242F933F938F939F93AF9397
:1004A000BF9380917D0290917E02A0917F02B091D6
:1004B000800230917C0223E0230F2D3720F4019637
:1004C000A11DB11D05C026E8230F0296A11DB11D77
:1004D00020937C0280937D0290937E02A0937F0202
:1004E000B09380028091810290918202A091830258
:1004F000B09184020196A11DB11D80938102909359
:100500008202A0938302B0938402BF91AF919F9126
:100510008F913F912F910F900FBE0F901F901895C4
:100520002FB7F89460917D0270917E0280917F02D6
:10053000909180022FBF08953FB7F8948091810277
:1005400090918202A0918302B091840226B5A89B6B
:1005500005C02F3F19F00196A11DB11D3FBFBA2F55
:10056000A92F982F8827820F911DA11DB11DBC01B5
:10057000CD0142E0660F771F881F991F4A95D1F77A
:1005800008958F929F92AF92BF92CF92DF92EF9297
:10059000FF926B017C010E949C024B015C01C11423
:1005A000D104E104F10401F10E9438030E949C028D
:1005B000DC01CB0188199909AA09BB09883E93403F
:1005C000A105B10560F321E0C21AD108E108F108E4
:1005D00088EE880E83E0981EA11CB11CC114D104C2
:1005E000E104F10419F7DBCFFF90EF90DF90CF909B
:1005F000BF90AF909F908F900895789484B582605B
:1006000084BD84B5816084BD85B5826085BD85B5B6
:10061000816085BDEEE6F0E0808181608083E1E865
:10062000F0E010828081826080838081816080839D
:10063000E0E8F0E0808181608083E1EBF0E08081A0
:1006400084608083E0EBF0E0808181608083EAE772
:10065000F0E08081846080838081826080838081FB
:10066000816080838081806880831092C1000895BA
:100670000895833081F028F4813099F08230A1F020
:1006800008958730A9F08830B9F08430D1F4809192
:1006900080008F7D03C0809180008F7780938000E1
:1006A000089584B58F7702C084B58F7D84BD089589
:1006B0008091B0008F7703C08091B0008F7D8093D0
:1006C000B0000895CF93DF9390E0FC01E458FF4F12
:1006D0002491FC01E057FF4F8491882361F190E061
:1006E000880F991FFC01E255FF4FC591D491FC0181
:1006F000EC55FF4FA591B491611109C09FB7F894D3
:100700008881209582238883EC912E230BC0623050
:1007100061F49FB7F8943881822F80958323888372
:10072000EC912E2B2C939FBF06C08FB7F894E881D5
:100730002E2B28838FBFDF91CF9108951F93CF93E6
:10074000DF93282F30E0F901E859FF4F8491F90138
:10075000E458FF4FD491F901E057FF4FC491CC23E7
:10076000C9F0162F81110E943903EC2FF0E0EE0F33
:10077000FF1FEC55FF4FA591B4918FB7F89411115D
:1007800005C09C91ED2FE095E92302C0EC91ED2B83
:10079000EC938FBFDF91CF911F91089580E090E09F
:1007A0000895CF92DF92EF92FF920F931F93CF9312
:1007B000DF936C017A018B01C0E0D0E0CE15DF053C
:1007C00089F0D8016D918D01D601ED91FC910190D8
:1007D000F081E02DC6010995892B11F47E0102C03C
:1007E0002196ECCFC701DF91CF911F910F91FF9020
:1007F000EF90DF90CF9008956115710579F0FB01BE
:1008000001900020E9F73197AF01461B570BDC013F
:10081000ED91FC910280F381E02D099480E090E05D
:100820000895DC01ED91FC91DB0114964D915C91F2
:1008300015976D917C910280F381E02D09940C94C1
:10084000FC03DC01ED91FC910190F081E02D099415
:100850004F925F926F927F92EF92FF920F931F934E
:10086000CF93DF93CDB7DEB7A1970FB6F894DEBF75
:100870000FBECDBF7C01FA01CB0119A2223008F4D2
:100880002AE08E010F5D1F4F422E512C612C712CDE
:10089000BF01A30192010E94511CF901CA0101503C
:1008A00011096A3014F4605D01C0695CD8016C9371
:1008B000232B242B252B61F7B801C7010E94FC03D1
:1008C000A1960FB6F894DEBF0FBECDBFDF91CF91DA
:1008D0001F910F91FF90EF907F906F905F904F90DE
:1008E00008952115310541F4DC01ED91FC91019051
:1008F000F081E02D642F09940C9428049A01462F6E
:1009000050E060E070E00C9471041F920F920FB6FB
:100910000F9211242F938F939F93EF93FF93E09166
:100920009502F09196028081E0919B02F0919C02E9
:1009300082FD12C0908180919E028F5F8F73209103
:100940009F02821751F0E0919E02F0E0EB57FD4FBD
:10095000958F80939E0201C08081FF91EF919F91BE
:100960008F912F910F900FBE0F901F9018951F928F
:100970000F920FB60F9211242F933F934F935F93D3
:100980006F937F938F939F93AF93BF93EF93FF9357
:1009900085E892E00E942C07FF91EF91BF91AF9103
:1009A0009F918F917F916F915F914F913F912F9187
:1009B0000F900FBE0F901F90189585E892E00E944F
:1009C000E10621E0892B09F420E0822F0895E5E873
:1009D000F2E01382128288EE93E0A0E0B0E084831C
:1009E0009583A683B78389ED91E09183808385EC1D
:1009F00090E09587848784EC90E09787868780ECE9
:100A000090E0918B808B81EC90E0938B828B82ECD9
:100A100090E0958B848B86EC90E0978B868B118E83
:100A2000128E138E148E089508950E94FD020E9466
:100A300014050E94F200CEE1D7E00E94EA0120975F
:100A4000E1F30E941E07F9CF8F929F92AF92BF925F
:100A5000CF92DF92EF92FF920F931F93CF93DF938A
:100A60007C018B016C0182E0C80ED11C4701E5E0DE
:100A70008E0E911CC0E0D0E0F60161916F014AE05A
:100A800050E0C8010E947E045C016EE2C8010E9431
:100A900021048A0D9B1DC80FD91FC814D90461F702
:100AA0004AE050E0F7016581C8010E947E048C0F86
:100AB0009D1FDF91CF911F910F91FF90EF90DF90DD
:100AC000CF90BF90AF909F908F90089523ED31E02D
:100AD000FC013183208312821382148215820895CF
:100AE0000F93FC0183ED91E09183808362834383C4
:100AF000248305830F91089523ED31E0FC013183B8
:100B00002083FB014081518162817381FC0142831A
:100B10005383648375830895FB0140815181628111
:100B20007381FC0142835383648375830895E2E2F9
:100B3000F3E083ED91E0918380831282138214822B
:100B400015820895FC01808191810C94F219CF9354
:100B5000DF93EC0188819981009711F00E94F219CE
:100B6000198218821D821C821B821A82DF91CF910A
:100B700008950F931F93CF93DF93EC018B016F5F69
:100B80007F4F888199810E94E61A009731F09983FE
:100B900088831B830A8381E001C080E0DF91CF91CD
:100BA0001F910F910895CF93DF93EC018881998174
:100BB000892B29F08A819B818617970760F4CE01E3
:100BC0000E94B905882341F08C819D81892B19F4FD
:100BD000E881F981108281E0DF91CF910895EF9251
:100BE000FF920F931F93CF93DF93EC017B018A0158
:100BF000BA010E94D305811104C0CE010E94A7054D
:100C000007C01D830C83B701888199810E94D21B84
:100C1000CE01DF91CF911F910F91FF90EF9008953A
:100C2000FC011182108213821282158214826115D6
:100C3000710551F0FB0101900020E9F73197AF01F8
:100C4000461B570B0C94EF050895CF93DF93EC01EF
:100C50006115710559F0FB0101900020E9F731970A
:100C6000AF01461B570B0E94EF0502C00E94A7056B
:100C7000CE01DF91CF9108950F931F93CF93DF9310
:100C8000CDB7DEB729970FB6F894DEBF0FBECDBF44
:100C90008C01862FF8011182108213821282158234
:100CA000148250E0BE016F5F7F4F90E00E941C1CD9
:100CB000BE016F5F7F4FC8010E94250629960FB6BF
:100CC000F894DEBF0FBECDBFDF91CF911F910F9182
:100CD00008950F931F93CF93DF93CDB7DEB762973D
:100CE0000FB6F894DEBF0FBECDBF8C01CB01F8016B
:100CF00011821082138212821582148250E0BE018A
:100D00006F5F7F4F0E94D91BBE016F5F7F4FC8018D
:100D10000E94250662960FB6F894DEBF0FBECDBFC7
:100D2000DF91CF911F910F9108950F931F93CF9350
:100D3000DF93CDB7DEB7A1970FB6F894DEBF0FBE35
:100D4000CDBF8C01CB01BA01F80111821082138250
:100D500012821582148230E0AE014F5F5F4F0E9415
:100D6000EF1BBE016F5F7F4FC8010E942506A19651
:100D70000FB6F894DEBF0FBECDBFDF91CF911F91AC
:100D80000F910895FC0124813581232B31F421E05A
:100D900061157105A1F0FB0108C0FC018081918102
:100DA0006115710531F421E0FC018081882339F05F
:100DB00005C00E94C91B21E0892B09F020E0822F89
:100DC0000895FC01918D228D892F90E0805C9F4FCA
:100DD000821B91098F7399270895FC01918D828D53
:100DE000981731F0828DE80FF11D858D90E0089500
:100DF0008FEF9FEF0895FC01918D828D981761F020
:100E0000828DDF01A80FB11D5D968C91928D9F5F41
:100E10009F73928F90E008958FEF9FEF0895FC01EC
:100E2000538D448D252F30E0842F90E0821B930B4F
:100E3000541710F0CF960895019708958DED94E022
:100E4000892B49F080E090E0892B29F00E94DD0495
:100E500081110C9400000895FC01848DDF01A80F1E
:100E6000B11DA35ABF4F2C91848D90E001968F73D2
:100E70009927848FA689B7892C93A089B1898C91F1
:100E800080648C93938D848D981306C00288F389B7
:100E9000E02D80818F7D80830895CF93DF93EC01D7
:100EA000888D8823C9F0EA89FB89808185FD05C08A
:100EB000A889B9898C9186FD0FC00FB607FCF5CFC4
:100EC000808185FFF2CFA889B9898C9185FFEDCF0C
:100ED000CE010E942C07E7CFDF91CF910895EF92CA
:100EE000FF920F931F93CF93DF93EC0181E0888FE4
:100EF0009B8D8C8D981305C0E889F989808185FDCB
:100F000024C0F62E0B8D10E00F5F1F4F0F731127BB
:100F1000E02E8C8DE8120CC00FB607FCFACFE889E2
:100F2000F989808185FFF5CFCE010E942C07F1CF92
:100F30008B8DFE01E80FF11DE35AFF4FF0820B8FFE
:100F4000EA89FB898081806207C0EE89FF8960831E
:100F5000E889F98980818064808381E090E0DF9175
:100F6000CF911F910F91FF90EF900895CF92DF9254
:100F7000EF92FF921F93CF93DF93EC016A017B0105
:100F8000122FE889F98982E080834115514E61056D
:100F90007105B1F060E079E08DE390E0A701960182
:100FA0000E94511CDA01C9010197A109B109B69546
:100FB000A79597958795AC01411580E15807A8F052
:100FC000E889F989108260E874E88EE190E0A70171
:100FD00096010E94511CBA01A901415051096109B1
:100FE00071097695679557954795EC85FD855083F2
:100FF000EE85FF854083188EEC89FD891083EA8990
:10100000FB89808180618083EA89FB898081886097
:101010008083EA89FB89808180688083EA89FB89F3
:1010200080818F7D8083DF91CF911F91FF90EF9022
:10103000DF90CF900895DC01ED91FC91048CF58D4B
:10104000E02D099423ED31E0FC0131832083FB0185
:101050004089518962897389FC0142835383648387
:1010600075830895FC01848995890895FC01818D1B
:10107000928D0895CF93DF931F92CDB7DEB769832A
:10108000DC01ED91FC910280F381E02D41E050E024
:10109000BE016F5F7F4F09950F90DF91CF9108954B
:1010A0000895CF93DF93EC01888D843061F00E9426
:1010B000D10DE88DF0E0EE0FFF1FEA55FC4F1182D5
:1010C000108284E0888FDF91CF910895FC01178A08
:1010D000168A6E5F7F4F808D0C944F0FFC01808DC0
:1010E0000C94950FCF93DF93EC019A018E899F8921
:1010F000AB01BC01888D0E94080F2E893F89280F03
:10110000391F3F8B2E8BDF91CF9108950F931F9343
:10111000CF93DF931F92CDB7DEB7FC01218D328DC7
:10112000232B61F08C0141E050E0BE016F5F7F4FE7
:10113000808D0E944E0E181619061CF08FEF9FEF3F
:1011400008C0F801818D928D0197928F818F8981DE
:1011500090E00F90DF91CF911F910F910895CF9361
:10116000DF93FC01218D328D2115310519F48FEFAC
:101170009FEF11C0EC014217530708F0A901888DB9
:101180000E944E0E1816190694F7298D3A8D281BC9
:10119000390B3A8F298FDF91CF910895CF93DF9349
:1011A0001F92CDB7DEB7FC01218D328D232B49F084
:1011B000BE016F5F7F4F808D0E94D90E898190E0C4
:1011C00002C08FEF9FEF0F90DF91CF910895EF92C4
:1011D000FF921F93CF93DF93FC01208D243011F0F9
:1011E00080E01CC07B01EC0110E0812F0E94A90D62
:1011F000811102C0188F05C08831E1F31F5F1430E0
:10120000A1F7888D843061F3FD86EC861A8E198EE5
:1012100020E0A70162E00E94FB0D81E0DF91CF9109
:101220001F91FF90EF9008950F931F93CF93DF933B
:10123000CDB7DEB728970FB6F894DEBF0FBECDBF8F
:101240008C01F801818D928D892B49F0D801ED91A7
:10125000FC910284F385E02DC8010995F2CF808DC1
:101260000E94AE0E1816190654F548E050E0BE0173
:101270006F5F7F4FD80158968C910E944E0E9C0153
:1012800018161906D4F4BE016F5F7F4FC8010E9681
:101290000E948C058D8190E0982F88272E81820FE7
:1012A000911DF801958B848B2F8130E0322F2227FE
:1012B0008885280F311D328F218FC90102C080E03F
:1012C00090E028960FB6F894DEBF0FBECDBFDF9139
:1012D000CF911F910F9108958F929F92AF92BF92DD
:1012E000CF92DF92EF92FF920F931F93CF93DF93F2
:1012F00000D000D000D0CDB7DEB7FC01208D243067
:1013000009F068C06A017B018C0153E0852E54E02E
:10131000952EA12CB12CC4010E944F0B811103C04A
:10132000F801A08E0AC08831D9F3FFEFAF1ABF0AC7
:101330009394E4E0AE16B10471F7F801808D843027
:1013400009F448C096E0E6E1F1E0DE011196019073
:101350000D929A95E1F7F70193819F779C83948191
:101360009D8395819E83B7016E5F7F4F90E0982F9C
:10137000882744E050E0845F9B4F0E94200BF801D7
:10138000E08CF12CF4E0EF0EF11CFE2CEE246D2D20
:10139000C70140960E948C0A6C2DC70141960E949D
:1013A0008C0AF801808D90E0982F882746E050E065
:1013B000BE016F5F7F4F8A5F9B4F0E94200BF80139
:1013C000128E118E20E8A60162E0808D0E94FB0D36
:1013D00081E001C080E026960FB6F894DEBF0FBE14
:1013E000CDBFDF91CF911F910F91FF90EF90DF90D4
:1013F000CF90BF90AF909F908F900895CF93DF9341
:10140000EC011B821A8288EE93E0A0E0B0E08C83AE
:101410009D83AE83BF838BEE91E099838883CE0159
:101420000E960E94660584E0888FDF91CF91089523
:10143000CF92DF92EF92FF920F931F93CF93DF93A0
:10144000CDB7DEB7AF970FB6F894DEBF0FBECDBFF6
:101450008C016B017A01CE0101960E946605CE01D6
:1014600009960E94FE09CE018A960E94660560E4F4
:1014700073E0CE0184960E94B110BE016C5D7F4F77
:10148000CE0101960E94D310AE01465D5F4FB601BA
:10149000CE0101960E94421381309105C1F4D8011A
:1014A000ED91FC910488F589E02D83ED91E09DA3F9
:1014B0008CA38CA59DA5AEA5BFA58EA39FA3A8A711
:1014C000B9A7A701BE016C5D7F4FC8010995AF9612
:1014D0000FB6F894DEBF0FBECDBFDF91CF911F9145
:1014E0000F91FF90EF90DF90CF9008950F9300E061
:1014F00020E040E060E088E293E00E9470050F91F8
:1015000008958EBD00000DB407FEFDCF8EB5089581
:101510002A9808952A9A08951F93CF93DF9300D0B5
:10152000CDB7DEB7182F6A8399830E94880A80EFAF
:101530000E94810A9981892F0E94810A812F0E942D
:10154000810A6A81862F0E94810A0E948A0A81E0AC
:101550000F900F90DF91CF911F910895CF93DF935C
:10156000EC016CE271E080E090E00E94C1020E9418
:10157000D013229A8091BC03882399F02FB7F89456
:101580008091BC03813059F48DB38093BA039DB32D
:101590008091BB03809589238DBB2FBF02C0209310
:1015A000BA0380E58CBD1DBC60E880E090E00E943D
:1015B0008C0A65E58BE190E00E948C0A65E58AE182
:1015C00090E00E948C0A8091BC03882351F09FB761
:1015D000F8942091BC038091BA03213029F58DBB8A
:1015E0009FBF80E090E49983888380E090E69987AC
:1015F000888780E098E49B838A8380E098E69B87D5
:101600008A8780E090E59D838C8380E090E79D87CA
:101610008C8780E098E59F838E8380E098E79F87A2
:101620008E87DF91CF9108958FBFDBCF9B0190E034
:101630000496982F8827642F820F931F0C948C0A8E
:10164000CF92DF92EF92FF920F931F93CF93DF938E
:10165000EC017A018B016C01C40ED51ECC15DD05A1
:10166000A1F00E94880A80EF0E94810A8D2F0E94BB
:10167000810A8C2F0E94810A2196F80181918F01A5
:101680000E94810A0E948A0AE9CFC701DF91CF91A7
:101690001F910F91FF90EF90DF90CF9008951F93CF
:1016A000CF93DF931F92CDB7DEB7182F99830E9497
:1016B000880A8FE00E94810A9981892F0E94810AFD
:1016C000812F0E94810A80E00E94810A89830E9402
:1016D0008A0A89810F90DF91CF911F91089590E040
:1016E0000496982F8827860F971F0C944F0B1F93F3
:1016F000CF93DF93182F60E270E00E946F0BC82F2A
:10170000D0E061E270E0812F0E946F0BDC2FCC27CC
:101710009E01282BC901DF91CF911F910895FF925F
:101720000F931F93CF93DF93F62EC0E0D0E08F2D61
:101730000E94770B8C01892B21F08F2D0E94770B53
:10174000EC01C017D10799F7CE01DF91CF911F911E
:101750000F91FF9008951F93CF93DF93182F66E2A8
:1017600070E00E946F0BC82FD0E067E270E0812F1D
:101770000E946F0BDC2FCC279E01282BC901DF9123
:10178000CF911F910895FF920F931F93CF93DF93F3
:10179000F62EC0E0D0E08F2D0E94AB0B8C01892B80
:1017A00021F08F2D0E94AB0BEC01C017D10799F7E8
:1017B000CE01DF91CF911F910F91FF9008956F920D
:1017C0007F928F929F92AF92BF92CF92DF92EF92D1
:1017D000FF920F931F93CF93DF931F92CDB7DEB786
:1017E000882E962E6A01590164E270E0892D998352
:1017F0000E946F0BE82EF12C65E270E0892D0E94AB
:101800006F0BFE2CEE24E82A37016C0C7D1CA30123
:101810005770E82C9981F92EE90CF11CE90CF11CA8
:10182000F70180819181840F951F9A01200F311F4C
:101830002130384098F060E078E06B01C41AD50A96
:10184000A601B5010E94200BA8014C195D09B50144
:101850006C0D7D1DF7018081918102C0A801B50149
:101860000E94200B060D171D412F64E270E0892DA8
:101870000E94160B402F65E270E0892D0F90DF91DA
:10188000CF911F910F91FF90EF90DF90CF90BF907D
:10189000AF909F908F907F906F900C94160BCF928B
:1018A000DF92EF92FF920F931F93CF93DF93EC01A0
:1018B0007A018B016C01C40ED51ECC15DD05A9F093
:1018C0000E94880A8FE00E94810A8D2F0E94810A5F
:1018D0008C2F0E94810A219680E00E94810AF801E3
:1018E00081938F010E948A0AE8CFC701DF91CF91CF
:1018F0001F910F91FF90EF90DF90CF900895AF92DE
:10190000BF92CF92DF92EF92FF920F931F93CF93EC
:10191000DF9300D0CDB7DEB75A83498359012981BF
:101920003A8137706C01C60ED11CC60ED11CF6016F
:1019300080859185820F931FA801420F531F41306C
:10194000584098F0E0E0F8E07F01E21AF30AA701BE
:10195000B5010E944F0CA8014E195F09B5016E0D2B
:101960007F1DF6018085918502C0A801B5010F9009
:101970000F90DF91CF911F910F91FF90EF90DF902B
:10198000CF90BF90AF900C944F0C8F929F92AF92DC
:10199000BF92CF92DF92EF92FF920F931F93CF935C
:1019A000DF936C01962E5A017901802E68E270E077
:1019B000892D0E946F0BC82FD0E069E270E0892D5D
:1019C0000E946F0BDC2FCC27C82B87019501AE013D
:1019D000692DC6010E947F0C81101AC0CE0DDF1D3B
:1019E0004D2F68E270E0892D0E94160B4C2F69E2A2
:1019F00070E0892DDF91CF911F910F91FF90EF90B3
:101A0000DF90CF90BF90AF909F908F900C94160B6B
:101A1000DF91CF911F910F91FF90EF90DF90CF90CA
:101A2000BF90AF909F908F900895CF93C62F61E0A5
:101A300070E08C2F0E94160B61E070E08C2F0E94EA
:101A40006F0B8111F9CFCF9108950F93FC0130E016
:101A500080E092E1AAE7B0E0481759076A077B07E0
:101A600040F4B695A795979587953F5F3630A1F7D7
:101A700037E091E09327222311F020E501C020E711
:101A8000892F86950C70082B022B0083917091830F
:101A90000F9108952091BC03222399F04FB7F89439
:101AA0002091BC03213059F42DB32093BA033DB3E8
:101AB0002091BB03209523232DBB4FBF02C0409331
:101AC000BA038CBD9DBD08958091BC03882361F04D
:101AD0009FB7F8942091BC038091BA03213019F488
:101AE0008DBB9FBF08958FBF089590E0982F8827E2
:101AF00044E050E0845F9B4F0C94200B62E070E068
:101B00000C946F0BCF93DF93C82FD62F472F64E031
:101B100070E00E94160B4D2F65E070E08C2FDF9176
:101B2000CF910C94160B462F62E070E00C94160BCC
:101B3000CF93DF93C82FD62F472F60E170E00E942C
:101B4000160B4D2F61E170E08C2FDF91CF910C943B
:101B5000160B0F931F93CF93DF9300D01F92CDB737
:101B6000DEB7182F00E021E040E059E06DE370E0BF
:101B7000CE0101960E94250D89819A810E944A0D0D
:101B800063E070E0812F0E946F0B8B830E94640DD5
:101B90008B810F900F900F90DF91CF911F910F913C
:101BA00008950F931F93CF93DF9300D0CDB7DEB787
:101BB000182F00E021E040E059E06DE370E0CE0135
:101BC00001960E94250D89819A810E944A0D40E16B
:101BD00050E0612F8EE293E00E94150D6FEF812F90
:101BE0000E94930D0E94640D0F900F90DF91CF9192
:101BF0001F910F910895CF92DF92EF92FF920F9372
:101C00001F93CF93DF9300D0CDB7DEB79FEF960F32
:101C10009530C0F5F22E6A01E62E182F0E94D10DE4
:101C200000E021E040E059E06DE370E0CE01019674
:101C30000E94250D89819A810E944A0D4E2D4F29BF
:101C400060E070E0812F0E94160BC114D10411F0E6
:101C5000B6010AC060913E0370913F036F5F7F4FF2
:101C600070933F0360933E03812F0E94820D41E0F9
:101C700050E0612F8EE293E00E94150D0E94640DEA
:101C800081E001C080E00F900F90DF91CF911F9114
:101C90000F91FF90EF90DF90CF900895AF92BF9299
:101CA000CF92DF92EF92FF920F931F93CF93DF9328
:101CB00000D0CDB7DEB7182F5B016A0100E021E04C
:101CC00040E059E06DE370E0CE0101960E94250DE1
:101CD00089819A810E944A0D612F8EE293E00E94D1
:101CE000C30B7C010097A1F463E070E0812F0E9498
:101CF0006F0B843119F1882309F121E030E08C3138
:101D000011F420E030E0EE24FF24E21AF30A16C0BA
:101D1000C816D9060CF476011E141F047CF400E0EA
:101D20009701A501612F8EE293E00E94C50C40E46B
:101D300050E0612F8EE293E00E94150D0E94640D29
:101D4000C7010F900F90DF91CF911F910F91FF90DE
:101D5000EF90DF90CF90BF90AF9008950F931F93B7
:101D6000CF93DF9300D000D0CDB7DEB7182F00E0BF
:101D700021E040E059E06DE370E0CE0101960E9461
:101D8000250D89819A810E944A0D612F8EE293E090
:101D90000E94C30B8B839C830E94640D8B819C816A
:101DA0000F900F900F900F90DF91CF911F910F9197
:101DB0000895EF92FF920F931F93CF93DF9300D07C
:101DC000CDB7DEB7182F7B0100E021E040E059E0FD
:101DD0006DE370E0CE0101960E94250D89819A8104
:101DE0000E944A0D01E021E030E0A701612F8EE260
:101DF00093E00E94C50C0E94640D81E090E00F907A
:101E00000F90DF91CF911F910F91FF90EF90089568
:101E10008F929F92AF92BF92DF92EF92FF920F93B9
:101E20001F93CF93DF9300D0CDB7DEB7D82E5B01E1
:101E30004A01790100E021E040E059E06DE370E003
:101E4000CE0101960E94250D89819A810E944A0D3A
:101E50006D2D8EE293E00E948F0B8E159F0530F45E
:101E60006D2D8EE293E00E948F0B7C01870194011F
:101E7000A5016D2D8EE293E00E94DF0B0E94640DA0
:101E8000C7010F900F90DF91CF911F910F91FF909D
:101E9000EF90DF90BF90AF909F908F900895CF927A
:101EA000DF92EF92FF920F931F93CF93DF9300D0B7
:101EB000CDB7DEB7FB019081911109C091819111DD
:101EC00006C09281911103C09381992309F14115B4
:101ED0005105F1F06A017F01182F00E021E040E098
:101EE00059E06DE370E0CE0101960E94250D8981D5
:101EF0009A810E944A0DB701812F0E94750DB6018B
:101F0000812F0E94980D0E94640D81E090E002C034
:101F100080E090E00F900F90DF91CF911F910F9193
:101F2000FF90EF90DF90CF9008950F931F93CF9382
:101F3000DF9300D0CDB7DEB7182F00E021E040E0FE
:101F400059E06DE370E0CE0101960E94250D898174
:101F50009A810E944A0D40E250E0612F8EE293E0A8
:101F60000E94150D812F0E947E0D84FD21C0812FBE
:101F70000E947E0D83FF09C068E1812F0E94930DAE
:101F80000E94640D80E090E01BC00E94640D0E94DE
:101F9000380300E021E040E059E06DE370E0CE015D
:101FA00001960E94250D89819A810E944A0DDACFFF
:101FB00060E1812F0E94930D0E94640D81E090E00A
:101FC0000F900F90DF91CF911F910F91089544E0F2
:101FD00050E0BC0181E090E00C94200B44E050E024
:101FE000BC0185E090E00C94200B44E050E0BC0183
:101FF0008FE090E00C94200B2F923F924F925F92D3
:102000006F927F928F929F92AF92BF92CF92DF9208
:10201000EF92FF920F931F93CF93DF9300D000D0E6
:1020200000D0CDB7DEB76C011B0129013A01470191
:10203000580188E493E0F601978386838EE293E06B
:102040000E94AE0A80E590E00E944A0D46E050E012
:10205000B10189E090E00E94200B00E020E040E028
:1020600060E0CE0101960E947005CE0103960E94A9
:10207000F50F0E94640D85017401A3019201B10165
:10208000F601868197810E941E198C010197B9F58E
:1020900080E590E00E944A0DF60166817781CE01CD
:1020A00001960E945814CE0103960E94F50FF60186
:1020B00066817781CE0101960E946E14CE0103964F
:1020C0000E94E70FF60166817781CE0101960E949A
:1020D0006314CE0103960E94EE0F0E94640DF60178
:1020E00066817781CE0101960E9479148B819C8153
:1020F000AD81BE81F60182839383A483B583C80139
:1021000026960FB6F894DEBF0FBECDBFDF91CF91FC
:102110001F910F91FF90EF90DF90CF90BF90AF9005
:102120009F908F907F906F905F904F903F902F90F7
:102130000895CF93DF93EC010E94660580E590E05F
:102140000E944A0DBE016E5F7F4F44E050E08FE079
:1021500090E00E944F0C0E94640DCE01DF91CF9160
:10216000089523ED31E0FC0131832083FB0142819E
:10217000538164817581FC01428353836483758339
:1021800008950F9300E020E040E060E08EEA93E0E5
:102190000E9470058BE893E00E94FE0980E493E0C2
:1021A0000F910C946605FB01428153816481758116
:1021B000FC014283538364837583178216820895DA
:1021C000CF93DF93FB0120E080E090E0AAE0319123
:1021D000332301F160ED630F6A3080F4A89FB001F2
:1021E000A99F700D1124CB01C097830F911D37FD5E
:1021F0009A958F3F910559F350F313C03E3289F4FD
:10220000233079F0EA01C20FD11D8A832F5F80E06D
:1022100090E0DDCF233029F4FA01858381E090E05E
:1022200002C080E090E0DF91CF9108950F9300E02D
:1022300020E040E060E084EB93E00E9470050F91A5
:1022400008958F929F92AF92BF92CF92DF92EF92BA
:10225000FF920F931F93CF93DF9300D000D01F9274
:10226000CDB7DEB78C016B010E949002F801778335
:1022700066837627672776277A836983085F1F4FEF
:1022800042E050E0BE016F5F7F4FC8010E947208BC
:1022900081E090E09C838B8342E050E0BE016D5F63
:1022A0007F4FC8010E94720880E091E09C838B837D
:1022B00042E050E0BE016D5F7F4FC8010E9472088E
:1022C0001C821B8242E050E0BE016D5F7F4FC8015F
:1022D0000E94720842E050E0BE016D5F7F4FC8016E
:1022E0000E94720842E050E0BE016D5F7F4FC8015E
:1022F0000E9472085601F5018081882329F1C601E8
:102300007C01FC0120810196211116C05701470173
:102310008C189D081814190494F48D8241E050E043
:10232000BE016B5F7F4FC8010E947208A401B60115
:10233000C8010E94720803C02E3211F7E7CF67016F
:10234000FFEFCF1ADF0AD7CF1D8241E050E0BE0178
:102350006B5F7F4FC8010E947208E12CFF24F39449
:10236000FC82EB8242E050E0BE016D5F7F4FC8010E
:102370000E947208FC82EB8242E050E0BE016D5F79
:102380007F4FC8010E94720881E090E00F900F908B
:102390000F900F900F90DF91CF911F910F91FF90B1
:1023A000EF90DF90CF90BF90AF909F908F90089567
:1023B0004F925F926F927F928F929F92AF92BF9255
:1023C000CF92DF92EF92FF920F931F93CF93DF9301
:1023D000CDB7DEB765970FB6F894DEBF0FBECDBFA1
:1023E0007C015B016A010E9490022B013C01870184
:1023F000085F1F4F4501A12CB12CC8010E94140990
:1024000018161906A4F00E949002DC01CB01841971
:102410009509A609B70988169906AA06BB06D0F041
:1024200062E370E080E090E00E94C102E6CFF70135
:102430004281538164817581808D918DA28DB38D90
:10244000481759076A077B0741F4848D958DC59716
:1024500021F406C02FEF3FEFFDC02EEF3FEFFAC093
:10246000C8010E9436080C97ECF04CE050E0BE0129
:102470006F5F7F4FC8010E94AF086C818B810E9403
:102480004C149A8B898BF701E680F7806A818981E9
:102490000E944C14E816F90641F489899A8997FF3D
:1024A00004C009C02DEF3FEFD5C0C8010E945008FD
:1024B0002CEF3FEFCFC08F709270892B31F0C801A5
:1024C0000E9450082BEF3FEFC5C068858F810E94A6
:1024D0004C145C01892B31F4C8010E9450082AEF8A
:1024E0003FEFB8C0E12CF12C6E818D810E944C141D
:1024F000E816F90640F541E050E0BE01635F7F4F0A
:10250000C8010E94AF088D85811113C08D8581118E
:10251000F2CFC8010E948608C8010E948608C8013F
:102520000E948608C8010E948608FFEFEF1AFF0A82
:10253000DBCF8D859FEF980F9D87882339F3C801E6
:102540000E948608F6CFE12CF12C41E050E0BE015C
:102550006D5E7F4FC8010E94AF088B89982F907CD9
:1025600061F4882371F08B899FEF980F9B8B8823F0
:1025700041F0C8010E948608F6CFC8010E94860873
:102580001B8A8B898111E1CF42E050E0BE01615F7F
:102590007F4FC8010E94AF0842E050E0BE01635F78
:1025A0007F4FC8010E94AF08C8010E948608C80179
:1025B0000E948608C8010E948608C8010E948608F9
:1025C00042E050E0BE016F5E7F4FC8010E94AF083D
:1025D0008F8598898115914001F52D853E8532279B
:1025E0002327322721303105C1F489899A89811541
:1025F000944031F0C8010E94500827EF3FEF2AC0F5
:10260000B6016E5F7F4F44E050E0C8012C8B3D8BDC
:102610000E94AF082C893D891DC0812C912C89898D
:102620009A899827892798278816990638F4C80127
:102630000E9486088FEF881A980AF1CFEFEFEE1A02
:10264000FE0AEA14FB0409F080CFC8010E9450087A
:1026500026EF3FEFC90165960FB6F894DEBF0FBEB7
:10266000CDBFDF91CF911F910F91FF90EF90DF9041
:10267000CF90BF90AF909F908F907F906F905F9022
:102680004F9008958F929F92AF92BF92CF92DF9218
:10269000EF92FF920F931F93CF93DF9300D000D060
:1026A00000D0CDB7DEB77C014B015A010E94E0108B
:1026B0008C01892B09F05BC0F70142815381648151
:1026C00075818091B6039091B703A091B803B09142
:1026D000B903481759076A077B0709F44BC00E94E2
:1026E00090026701F8E0CF0ED11C6F7077277C5FF6
:1026F000C6010E94E708813009F03EC083ED91E0F9
:102700009A838983F70182819381A481B5818B8328
:102710009C83AD83BE8345E350E0BE016F5F7F4F76
:10272000C6010E946608892B19F400E010E01BC066
:10273000B401C7010E942111892BB9F3C6010E947F
:102740006E08892B91F383E0882E912CA50168E80F
:1027500073E1C7010E94D8118C01F1E08F1A910832
:1027600011F0019699F3C6010E94510805C001E0DD
:1027700010E002C00EEF1FEFC80126960FB6F894C6
:10278000DEBF0FBECDBFDF91CF911F910F91FF90A4
:10279000EF90DF90CF90BF90AF909F908F90089573
:1027A000CF93CFB7F8948091BD03811127C0EAE998
:1027B000F0E08491E6E8F0E09491E82FF0E0EE0F8D
:1027C000FF1FE255FF4FA591B491EC91E92321F44D
:1027D00061E08AE00E949E0361E08AE00E94620359
:1027E0008CB580618CBD8CB580648CBD61E08DE062
:1027F0000E94620361E08BE00E9462038091BD034E
:102800008F5F8093BD03CFBFCF910895CF93DF93A8
:1028100000D000D0CDB7DEB76115710581059105F7
:1028200079F09B01AC0169833A834B835C830E94FE
:10283000D81A29813A814B815C810E94731C03C0A4
:1028400060E070E0CB010F900F900F900F90DF9140
:10285000CF910895CF92DF92EF92FF920F931F9343
:10286000621773078407950784F489019A016B0145
:102870007C01C901B8016C197D098E099F090E946C
:1028800006146C0D7D1D8E1D9F1D1F910F91FF90D5
:10289000EF90DF90CF90089570E09B01382BC90135
:1028A00008950E9624E1FC0111922A95E9F7089506
:1028B000CF93DF93EC01625F7F4F0E947C05CE01D6
:1028C000DF91CF910895CF93DF93EC016E5E7F4F40
:1028D0000E947C05CE01DF91CF910895CF93DF93C5
:1028E000EC016A5E7F4F0E947C05CE01DF91CF91A3
:1028F0000895CF93DF93EC01625E7F4F0E947C05C9
:10290000CE01DF91CF91089580E3FB018083329661
:10291000842F82958F7090E1899F401911244A304D
:1029200014F4405D01C0495C4293482F8111F0CFFF
:1029300008950F9300E020E040E060E08EEB93E02C
:102940000E9470050F9108957F928F929F92AF928F
:10295000BF92CF92DF92EF92FF920F931F93CF938C
:10296000DF93CDB7DEB7AC970FB6F894DEBF0FBEDE
:10297000CDBF7C01762E942E852E20E2B22ECE0184
:1029800001966C01FC012B2D11922A95E9F70FEFAE
:102990002FEF4FEF6FEF86960E94700583ED91E069
:1029A0009AA389A389A59AA5ABA5BCA58BA39CA333
:1029B000ADA3BEA387010D5B1F4F43E450E0BE01F2
:1029C0006F5D7F4FC8010E946608019609F4BFC081
:1029D00081E089838A8386E0A82EAB821C82F7017E
:1029E00064817581868197810E94921C6D837E83AC
:1029F0008F83988789869A8680E890E09C878B876A
:102A00004CE150E0B601C8010E947208F6012B2D7E
:102A100011922A95E9F7470188E0880E911CF4018C
:102A2000D60101900D92AA94E1F740E150E0B60181
:102A3000C8010E947208F6011192BA94E9F796E073
:102A4000A92EB12C40E250E0B601C8010E947208E4
:102A5000F1E0AF1AB108B1F783E6898392E89A836F
:102A600093E59B838C8385E38D8381E08E837F82D6
:102A70009DE3988797E099878A8786E0F401DE01D5
:102A80001B9601900D928A95E1F78CE0898B8A8BD9
:102A90006FE072E0CE0143960E94D21BF70143859E
:102AA000BE01675E7F4FC7010E948414F701448511
:102AB000BE01655E7F4FC7010E948414F701458502
:102AC000BE01635E7F4FC7010E9484144EE150E057
:102AD000B601C8010E947208F3E07F121EC082E3B3
:102AE000898384E08A83F70196859B8397859C83FD
:102AF00090899D8391899E8396E39F838887828DA9
:102B00008987838D8A87848D8B87858D8C874CE020
:102B100050E0B601C8010E94720887E3898386E00D
:102B20008A8391E09B8393E09C838D838FE08E83E7
:102B30008AE38F838BE388878FEF898749E050E0B2
:102B4000B601C8010E947208C8010E946E08AC96C6
:102B50000FB6F894DEBF0FBECDBFDF91CF911F91AE
:102B60000F91FF90EF90DF90CF90BF90AF909F902C
:102B70008F907F9008952F923F924F925F926F9225
:102B80007F928F929F92AF92BF92DF92EF92FF92CD
:102B90000F931F93CF93DF93CDB7DEB7E4970FB6B4
:102BA000F894DEBF0FBECDBF7C011A012B013901A5
:102BB0000E9490024B015C0187010D5B1F4FC80111
:102BC0000E94140918161906A4F00E949002DC0154
:102BD000CB0188199909AA09BB09281639064A06A2
:102BE0005B06F0F062E370E080E090E00E94C102DA
:102BF000E6CF42E250E0BE016F5F7F4FC8010E9406
:102C0000AF088981823031F4F80184899589833451
:102C1000910541F0D12CC8010E9450088D2D5FC153
:102C20008FEF5DC16D817E818F8198850E94921C9E
:102C30004B015C01F301608371838283938346E0DF
:102C400050E0B701685F7F4FCE014D960E94B31BE5
:102C5000892B99F4F70180819181A281B381881633
:102C60009906AA06BB0648F084819581A681B781A2
:102C700088159905AA05BB0528F4C8010E945008CB
:102C800080E02DC189899A89AB89BC89F701868743
:102C90009787A08BB18B8EECA82EB12CC8010E9417
:102CA0008608F1E0AF1AB108C9F7D12CC7018296A6
:102CB0009AA789A7F701B696FCA7EBA708969EA747
:102CC0008DA73C974F01899698AB8FA73897FAABA1
:102CD000E9AB1701F6E12F0E311CC5979CAB8BAB0E
:102CE000C8010E943608181619060CF094CFC801C6
:102CF0000E9486088333910509F4CBC0FCF481302F
:102D00009105C9F11CF4892B59F3DDC0833091057D
:102D1000D1F1069709F0D7C0C8010E9486085C016E
:102D200044E050E06BA97CA9C8010E94AF08412C87
:102D3000512CBB24F4E0AF1AB10840C08A3391058E
:102D400009F47BC03CF48533910569F0C69709F41A
:102D500040C0B9C08B33910509F485C08F3F910500
:102D600009F4BECFB0C0C8010E948608C8010E9405
:102D70008608D82EB5CFC8010E94860844E050E0EE
:102D800069A97AA93AC0C8010E9486085C0144E09A
:102D900050E0B101C8010E94AF08412C512CBB2466
:102DA00094E0A91AB1084A145B040CF099CFC80149
:102DB0000E948608EFEF4E1A5E0AF5CF4A145B04B4
:102DC0000CF08ECFC8010E9486088FEF481A580A6F
:102DD000F5CFC8010E948608B82EF701828D8111B7
:102DE00010C0838D81110DC0848D81110AC0858D25
:102DF000811107C044E050E0B401C8010E94AF084F
:102E00006FCFEFA5F8A94080518062807380B40134
:102E1000CE0183960E947C058DA19EA1AFA1B8A58D
:102E200084159505A605B70529F3BB2009F458CFED
:102E3000C8010E948608BA94F8CFC8010E9486088B
:102E400044E050E06BA57CA5C8010E94AF08F701E3
:102E500066A177A180A591A50E94921C66A377A385
:102E600080A791A73DCFC8010E94860844E050E0AA
:102E70006DA57EA5C8010E94AF08F70162A573A5E4
:102E800084A595A50E94921C62A773A784A795A705
:102E900027CFC8010E94860844E050E069A57AA5C2
:102EA000C8010E94AF08F70162A173A184A195A196
:102EB0000E94921C62A373A384A395A366A777A71D
:102EC00080AB91AB0DCFC8010E948608B82EBB2005
:102ED00009F406CFC8010E948608BA94F8CFE49698
:102EE0000FB6F894DEBF0FBECDBFDF91CF911F911B
:102EF0000F91FF90EF90DF90BF90AF909F908F90D9
:102F00007F906F905F904F903F902F9008952F92F9
:102F10003F924F925F926F927F928F929F92AF9269
:102F2000BF92CF92DF92EF92FF920F931F93CF93B6
:102F3000DF93CDB7DEB727970FB6F894DEBF0FBE8D
:102F4000CDBF8C0120ED37E040E050E061E070E063
:102F500080E090E00E942A14D80114966D937D932E
:102F60008D939C931797F801608371838283938379
:102F70005801F3E4AF0EB11CC5010E94510864E48E
:102F800070E0C5010E94E708882309F43CC10E9453
:102F900090022B013C01812C912C1D82C8018E5B7B
:102FA0009F4F9F838E8343E0342E58EEC52E53E00F
:102FB000D52EE12CF12C62E0262EAE81BF818C91C2
:102FC000833009F407C1811120C0F8018481958103
:102FD000A681B7810196A11DB11D84839583A68327
:102FE000B7830E9490026419750986099709A701A1
:102FF00096010E94511CA90161E0C8010E94A4141D
:1030000081E0AE81BF818C93C6C08430F9F4F801B1
:1030100084819581A681B7810196A11DB11D84830C
:103020009583A683B7830E94900264197509860967
:103030009709A70196010E94511CA90163E0C801EC
:103040000E94A414AE81BF812C92A5C0813061F58D
:10305000F80142AD53AD64AD75AD9E012F5F3F4F9A
:10306000C8010E94BB158D83823009F094C089810C
:103070009A81AB81BC81F80184839583A683B78351
:103080000E9490026419750986099709A7019601A3
:103090000E94511CA90163E0C8010E94A414ED81A3
:1030A000AE81BF81EC937EC0823009F074C0D8013C
:1030B000DA964D915D916D917C91DD979E012F5F28
:1030C0003F4FC8010E94BB158D83853009F05CC05D
:1030D000EE81FF813082F80182A193A1A4A1B5A164
:1030E000892B8A2B8B2B41F484E893E0A0E0B0E09D
:1030F00082A393A3A4A3B5A3F80186A197A1A0A539
:10310000B1A5892B8A2B8B2B61F482A193A1A4A159
:10311000B5A1B695A7959795879586A397A3A0A7E0
:10312000B1A7F80182A593A5A4A5B5A5892B8A2BE3
:103130008B2BA9F482A193A1A4A1B5A1AC01BD01DF
:1031400023E076956795579547952A95D1F7841B87
:10315000950BA60BB70B82A793A7A4A7B5A7F80159
:1031600086A197A1A0A5B1A586A797A7A0ABB1AB53
:1031700082A593A5A4A5B5A582AB93ABA4ABB5AB33
:1031800088248394912C0EC0FD81F63021F4AE8109
:10319000BF811C9207C0BD81BF3F21F4EE81FF813A
:1031A00010821D82F1E08F16910409F406CF0E946F
:1031B0009002DC01CB0184199509A609B709F80131
:1031C00026A937A940AD51AD281739074A075B0733
:1031D00008F0F3CEC5010E945108F8018481958161
:1031E000A681B7810196A11DB11D84839583A68315
:1031F000B7830E949002F801FE96608371838283F8
:103200009383C40102C080E090E027960FB6F89443
:10321000DEBF0FBECDBFDF91CF911F910F91FF9009
:10322000EF90DF90CF90BF90AF909F908F907F9066
:103230006F905F904F903F902F900895CF92DF92C4
:10324000EF92FF920F931F93CF93DF93EC016B01EB
:103250001AA21BA21CA21DA21EA21FA218A619A67A
:103260001AA61BA61CA61DA62EAB3FAB48AF59AF96
:10327000EAAEFBAE0CAF1DAF8C01085F1F4F86E0BE
:10328000F80111928A95E9F7CE010E94511486E067
:10329000F601D80101900D928A95E1F7FE01EE5BEF
:1032A000FF4F1082CE01DF91CF911F910F91FF90C0
:1032B000EF90DF90CF900C948717CF93DF938230FD
:1032C000910510F482E090E0E091C603F091C7030D
:1032D00020E030E0C0E0D0E0309711F14081518132
:1032E00048175907C0F04817590761F48281938144
:1032F000209719F09B838A832BC09093C7038093F8
:10330000C60326C02115310519F04217530718F4DA
:103310009A01BE01DF01EF010280F381E02DDCCFD5
:103320002115310509F1281B390B2430310590F4A2
:1033300012968D919C9113976115710521F0FB01F7
:103340009383828304C09093C7038093C603FD01D7
:10335000329644C0FD01E20FF31F819391932250F6
:1033600031092D933C933AC02091C4033091C50399
:10337000232B41F420910201309103013093C503C6
:103380002093C403209100013091010121153105E2
:1033900041F42DB73EB74091040150910501241B23
:1033A000350BE091C403F091C503E217F307A0F4D5
:1033B0002E1B3F0B2817390778F0AC014E5F5F4F8B
:1033C0002417350748F04E0F5F1F5093C5034093F5
:1033D000C4038193919302C0E0E0F0E0CF01DF915C
:1033E000CF9108950F931F93CF93DF93009709F424
:1033F0008CC0FC013297138212820091C603109197
:10340000C7030115110581F420813181820F931FBB
:103410002091C4033091C5032817390779F5F0933B
:10342000C503E093C40371C0D80140E050E0AE177B
:10343000BF0750F412962D913C911397AD012115C1
:10344000310509F1D901F3CF9D01DA0133832283DC
:1034500060817181860F971F8217930769F4EC01D1
:1034600028813981260F371F2E5F3F4F31832083FC
:103470008A819B8193838283452B29F4F093C70330
:10348000E093C60342C01396FC93EE931297ED01AE
:10349000499159919E01240F351FE217F30771F4EA
:1034A00080819181840F951F029611969C938E9333
:1034B0008281938113969C938E931297E0E0F0E0C3
:1034C000D80112968D919C911397009719F0F801ED
:1034D0008C01F6CF8D919C9198012E5F3F4F820F0A
:1034E000931F2091C4033091C5032817390769F44D
:1034F000309729F41092C7031092C60302C01382BA
:1035000012821093C5030093C403DF91CF911F91E2
:103510000F9108958F929F92AF92BF92CF92DF92B8
:10352000EF92FF92CF93DF93EC01688179818A81DA
:103530009B81611571058105910521F464E279EDA6
:103540008BE597E02DE133EF41E050E00E94731CE2
:1035500049015A019B01AC01A7EAB1E40E94991C00
:103560006B017C01ACEEB4EFA50194010E94A71C95
:10357000DC01CB018C0D9D1DAE1DBF1DB7FF03C02F
:103580000197A109B04888839983AA83BB83BC01B2
:10359000CD019F77DF91CF91FF90EF90DF90CF909B
:1035A000BF90AF909F908F9008950E948A1A0895BF
:1035B00086E091E00E948A1A089560930601709354
:1035C000070180930801909309010895A0E0B0E0FD
:1035D000ECEEFAE10C94B01CEC01009721F4CB0165
:1035E0000E945D19B8C0FC01E60FF71F9C01225034
:1035F0003109E217F30708F4ACC0D9010D911C9111
:10360000119706171707B0F00530110508F49FC091
:10361000C80104978617970708F499C0025011094A
:10362000061B170B019311936D937C93CF010E949E
:10363000F2198DC05B01A01AB10A4C01800E911ED7
:10364000A091C603B091C70340E050E0E12CF12CFB
:10365000109709F44AC0A815B905D1F56D907C9072
:103660001197630182E0C80ED11CCA14DB0480F1FB
:10367000A3014A195B096A0182E0C80ED11C1296A7
:10368000BC9012971396AC91B5E0CB16D10440F0E4
:10369000B282A38351834083D9016D937C930AC086
:1036A0000E5F1F4FC301800F911FF901918380832B
:1036B000EB2DFA2FE114F10431F0D7011396FC93AE
:1036C000EE93129744C0F093C703E093C6033FC044
:1036D0008D919C9111974817590708F4AC017D0111
:1036E00012960D90BC91A02DB3CF8091C403909100
:1036F000C50388159905E1F446175707C8F480916A
:10370000000190910101009741F48DB79EB740915F
:10371000040150910501841B950BE817F907C8F4C3
:10372000F093C503E093C403F901718360830FC074
:10373000CB010E945D197C01009759F0A801BE01E0
:103740000E94C01BCE010E94F219C70104C0CE0125
:1037500002C080E090E0CDB7DEB7EEE00C94CC1C68
:10376000F8940C940E1DFB01DC0104C08D910190B6
:10377000801921F441505040C8F7881B990B0895D7
:10378000FB01DC0102C001900D9241505040D8F77E
:103790000895FB01DC018D91019080190110D9F38E
:1037A000990B0895FB01DC0101900D920020E1F7D7
:1037B00008954532510520F4423010F00C94E41B7A
:1037C000FB011082CB010895BB274A3031F49923C5
:1037D00022F4BDE2909581959F4F0C94281C2532D0
:1037E000310520F4223010F00C94FA1BFA011082FB
:1037F000CA010895BB27FA01A62F6217710581053A
:103800009105330B30FB66F0AA27660F771F881FE0
:10381000991FAA1FA21710F0A21B63953850A9F791
:10382000A05DAA3308F0A95DA19336F7B111B19359
:103830001082CA010C94411C4532510520F44230DB
:1038400010F00C94271CFB011082CB010895BB27BC
:10385000FB015527AA27880F991FAA1FA41710F04C
:10386000A41B83955051B9F7A05DAA3308F0A95D58
:10387000A193009779F7B111B1931192CB010C94F8
:10388000411CDC01FC01672F71917723E1F732972E
:1038900004C07C916D9370836291AE17BF07C8F32B
:1038A0000895A1E21A2EAA1BBB1BFD010DC0AA1F81
:1038B000BB1FEE1FFF1FA217B307E407F50720F099
:1038C000A21BB30BE40BF50B661F771F881F991F14
:1038D0001A9469F760957095809590959B01AC015D
:1038E000BD01CF010895052E97FB1EF400940E94A0
:1038F0008A1C57FD07D00E94511C07FC03D04EF4D0
:103900000C948A1C50954095309521953F4F4F4F10
:103910005F4F089590958095709561957F4F8F4F7B
:103920009F4F089569279627692778278727782743
:1039300008950E94E91CA59F900DB49F900DA49F2F
:10394000800D911D11240895B7FF0C94991C0E94BD
:10395000991C821B930B08952F923F924F925F9276
:103960006F927F928F929F92AF92BF92CF92DF928F
:10397000EF92FF920F931F93CF93DF93CDB7DEB7F4
:10398000CA1BDB0B0FB6F894DEBF0FBECDBF099488
:103990002A88398848885F846E847D848C849B84DF
:1039A000AA84B984C884DF80EE80FD800C811B81ED
:1039B000AA81B981CE0FD11D0FB6F894DEBF0FBE1C
:1039C000CDBFED010895EE0FFF1F0590F491E02D9E
:1039D0000994A29FB001B39FC001A39F700D811DE8
:1039E0001124911DB29F700D811D1124911D089508
:1039F000F999FECF92BD81BDF89A992780B50895B7
:103A0000262FF999FECF1FBA92BD81BD20BD0FB6FA
:103A1000F894FA9AF99A0FBE0196089510E0C3E659
:103A2000D0E004C0FE010E94E31C2196C436D107F9
:063A3000C9F7F894FFCF76
:103A36000000C803200001000000BA22B8220008D6
:103A4600DC00006A060001005E0000005072696E2C
:103A560074696E672074686520636F6E74656E7432
:103A660073206F6620454550524F4D004164647285
:103A76006573733A2000446174613A2000466169B7
:103A86006C656420746F20636F6E66696775726516
:103A96002045746865726E6574207573696E67205B
:103AA6004448435000495020616464726573733A18
:103AB6000057616974696E6720746F20726563656B
:103AC6006976652074686520726573657420636F16
:103AD6006D6D616E642E2E0072657365740052659D
:103AE60073657474696E6720746865206D696372A6
:103AF6006F636F6E74726F6C6C65722E2E2E000083
:103B06000000002405000000006F07D1030F074DD9
:103B160007E106FB06ED06000000003A087208CE33
:103B260003500836088608CE08E7086C095108666F
:103B360008180A6E081409AF081B0822083208572D
:063B4600495A6E6574008F
:00000001FF
