:100000000C9466000C948E000C948E000C948E0060
:100010000C948E000C948E000C94B10E0C948E00F7
:100020000C948E000C948E000C948E000C948E0018
:100030000C948E000C948E000C948E000C948E0008
:100040000C94D2060C948E000C9494090C94C6095E
:100050000C948E000C948E000C948E000C948E00E8
:100060000C9487200C948E00000000080002010010
:100070000003040700000000000000000102040863
:100080001020408001020408102001020408102002
:10009000040404040404040402020202020203032E
:1000A0000303030300000000250028002B000000CC
:1000B0000000240027002A009000F609A60AAA0ED4
:1000C000AC115C18B1188F1F4722EC0011241FBE21
:1000D000CFEFD8E0DEBFCDBF13E0A0E0B1E0E4E8B1
:1000E000FAE502C005900D92AE3EB107D9F726E0C1
:1000F000AEEEB3E001C01D92A13CB207E1F710E003
:10010000C5E6D0E004C02197FE010E940A2DCC353F
:10011000D107C9F70E94240A0C94FB290C94000013
:100120000F9300E020E040E060E08DEA94E00E9460
:100130007F0A01E021E041E06AE087EA94E00E9462
:100140007F0A8CE894E00E94341181E794E00E94D9
:10015000341186E594E00E94341168ED71E080E38B
:1001600094E00E941F0B86E294E00E94A11B85E2AE
:1001700094E00E94170E84E294E00E94170E83E23E
:1001800094E00E94170E8BE194E00E94300DEEEE99
:10019000F3E080E090E0A6ECB2EC84839583A68344
:1001A000B78380879187A287B38784879587A6873F
:1001B000B787808B918BA28BB38B848B958BA68B0F
:1001C000B78B118E128E138E148E158E168E178E7F
:1001D00010A211A20F91089580E394E00C94B10A4B
:1001E0000F931F93CF93DF9300D000D000D0CDB7F3
:1001F000DEB78C0140910E0150910F0188E993E028
:100200009A8389838091A9049091AA04A091AB0458
:10021000B091AC048B839C83AD83BE83BE016F5FC2
:100220007F4F86E594E00E949C0FB80186E594E03C
:100230000E949D0886E594E00E94A40F88E1E6E311
:10024000F4E0DF011D928A95E9F726960FB6F8943F
:10025000DEBF0FBECDBFDF91CF911F910F910895EB
:100260008F929F92AF92BF92CF92DF92EF92FF92C6
:100270000F931F93CF93DF9300D000D000D0CDB762
:10028000DEB760E47FE18FE595E00E94280F0E94D1
:100290001C074B015C010E941C070E946D2B6093A0
:1002A0001704709318048093190490931A0426E09D
:1002B00040E051EE60E070E08CEB94E00E94C40CF2
:1002C0006AE171E08CEB94E00E94C20860E082E099
:1002D0000E942A0861E082E00E94EE0760E082E06E
:1002E0000E942A0860E085E00E942A0861E085E01B
:1002F0000E94EE0760E085E00E942A0860E086E048
:100300000E942A0861E086E00E94EE0760E086E035
:100310000E942A0861E083E00E942A0861E083E0ED
:100320000E94EE0761E083E00E942A0861E087E016
:100330000E942A0861E087E00E94EE0761E087E002
:100340000E942A0861E084E00E942A0861E084E0BB
:100350000E94EE0761E084E00E942A0890E5E92E01
:1003600094E0F92E670100912E0410912F04C8012A
:100370000E941F2DD6018D936D010F5F1F4F1093AB
:100380002F0400932E04B6E5CB16B4E0DB0659F734
:10039000E0E1F4E0D7018D917D018193B6E5EB16A4
:1003A000B4E0FB06B9F710EAE12E1FE0F12E00E001
:1003B00010E020E63AEE40E050E060E574E089E7C6
:1003C00095E00E943217892B61F46AE271E08CEBB0
:1003D00094E00E94C20860E177E280E090E00E9431
:1003E0004D0768E671E08CEB94E00E94C20869E773
:1003F00075E0CE0101960E943418BE016F5F7F4FF9
:100400008CEB94E00E94D40860911201709113016A
:100410008CE894E00E941D10609110017091110110
:1004200081E794E00E941D1060910E0170910F0110
:1004300086E594E00E941D106CED75E080E090E090
:100440000E944D0767E771E0CE0101960E941F0BE5
:10045000CE0101960E94F000CE0101960E94B10AE1
:1004600068E871E0CE0101960E941F0BCE01019653
:100470000E94F000CE0101960E94B10A4AE060910C
:100480005604CE0101960E944B0BCE0101960E94AC
:10049000F000CE0101960E94B10A69EA71E0CE0136
:1004A00001960E941F0BCE0101960E94F000CE0122
:1004B00001960E94B10A4AE060915004CE01019673
:1004C0000E944B0BCE0101960E94F000CE010196D6
:1004D0000E94B10A4AE060915104CE0101960E9447
:1004E0004B0BCE0101960E94F000CE0101960E94B6
:1004F000B10A4AE060915204CE0101960E944B0B72
:10050000CE0101960E94F000CE0101960E94B10A30
:100510004AE060915304CE0101960E944B0BCE013C
:1005200001960E94F000CE0101960E94B10A4AE0B5
:1005300060915404CE0101960E944B0BCE010196AE
:100540000E94F000CE0101960E94B10A4AE060913B
:100550005504CE0101960E944B0BCE0101960E94DC
:10056000F000CE0101960E94B10A80910C01909199
:100570000D010E941F2D682F70E080E090E00E9426
:100580006D2B6093EE037093EF038093F0039093D1
:10059000F1036CEB71E08CEB94E00E94AB086CEB28
:1005A00071E0CE0101960E941F0BCE0101960E94C0
:1005B000F000CE0101960E94B10A00E010E06DEC5F
:1005C00071E08CEB94E00E94AB084AE050E0B80187
:1005D0008CEB94E00E94790967ED71E08CEB94E07C
:1005E0000E94AB0869ED71E08CEB94E00E94AB08CF
:1005F000C8010E941F2D4AE050E0682F8CEB94E068
:100600000E948D0967ED71E08CEB94E00E94AB08CD
:100610006DEC71E0CE0101960E941F0BCE01019698
:100620000E94F000CE0101960E94B10A4AE0B80192
:10063000CE0101960E94780BCE0101960E94F00037
:10064000CE0101960E94B10A69ED71E0CE010196DA
:100650000E941F0BCE0101960E94F000CE01019670
:100660000E94B10AC8010E941F2D4AE0682FCE01E6
:1006700001960E944B0BCE0101960E94F000CE0124
:1006800001960E94B10A0F5F1F4F0830110509F053
:1006900096CF4FEF6EE386E294E00E94591E8823C6
:1006A00009F494C060EE71E08CEB94E00E94C20803
:1006B00060EE71E0CE0101960E941F0BCE01019603
:1006C0000E94F000CE0101960E94B10A40E060E075
:1006D00086E294E00E94F61D40E061E086E294E04C
:1006E0000E94F61D40E062E086E294E00E94F61D62
:1006F00040E063E086E294E00E94F61D40E064E0A2
:1007000086E294E00E94F61D40E065E086E294E017
:100710000E94F61D40E066E086E294E00E94F61D2D
:1007200040E067E086E294E00E94F61D40E068E069
:1007300086E294E00E94F61D40E069E086E294E0E3
:100740000E94F61D40E06AE086E294E00E94F61DF9
:1007500040E06BE086E294E00E94F61D41E06CE030
:1007600086E294E00E94F61D41E06DE086E294E0AE
:100770000E94F61D41E06EE086E294E00E94F61DC4
:1007800041E06FE086E294E00E94F61D00E010E098
:10079000602F86E294E00E94281D90E0002E02C0A7
:1007A000880F991F0A94E2F720910604BC01622B7E
:1007B000609306040F5F1F4F0630110549F78091C3
:1007C0000A0190910B010E94272D14C067EF71E080
:1007D0008CEB94E00E94C20867EF71E0CE010196B5
:1007E0000E941F0BCE0101960E94F000CE010196DF
:1007F0000E94B10A0E941C076B017C0161E172E05A
:10080000CE0101960E941F0BCE0101960E94F000BE
:10081000CE0101960E94B10AB601681979094AE031
:10082000CE0101960E94A40BCE0101960E94F00019
:10083000CE0101960E94B10A26960FB6F894DEBF4B
:100840000FBECDBFDF91CF911F910F91FF90EF9021
:10085000DF90CF90BF90AF909F908F900895CF93EF
:10086000DF9300D000D000D0CDB7DEB767E272E0F2
:100870008CEB94E00E94C20867E272E0CE01019620
:100880000E941F0BCE0101960E94F000CE0101963E
:100890000E94B10A64EF71E080E090E00E944D0791
:1008A00060E084E00E942A0826960FB6F894DEBF26
:1008B0000FBECDBFDF91CF910895CF93DF93CDB71A
:1008C000DEB72C970FB6F894DEBF0FBECDBF48E160
:1008D00050E066E374E08CE894E00E94E50F66E384
:1008E00074E0CE0107960E941F0B6EE372E0CE010A
:1008F00007960E94D00B8823C9F063E472E08CEB6A
:1009000094E00E94C20863E472E0CE0101960E9466
:100910001F0BCE0101960E94F000CE0101960E94AD
:10092000B10A8FE595E00E94BB0EC2C064E572E09B
:10093000CE0107960E94D00B882341F061E082E04F
:100940000E942A0881E080930704B2C061E672E049
:10095000CE0107960E94D00B882339F060E082E038
:100960000E942A0810920704A3C06FE672E0CE012D
:1009700007960E94D00B882371F06DE772E08CEB34
:1009800094E00E94C20860E083E00E942A0881E0AF
:1009900080930A048DC06BE872E0CE0107960E9436
:1009A000D00B882369F06AE972E08CEB94E00E9436
:1009B000C20861E083E00E942A0810920A0478C00D
:1009C00069EA72E0CE0107960E94D00B882371F08D
:1009D00067EB72E08CEB94E00E94C20860E087E075
:1009E0000E942A0881E080930B0462C065EC72E0EB
:1009F000CE0107960E94D00B882369F064ED72E067
:100A00008CEB94E00E94C20861E087E00E942A0813
:100A100010920B044DC063EE72E0CE0107960E9467
:100A2000D00B882341F061E085E00E942A0881E034
:100A3000809308043DC06AEE72E0CE0107960E94E2
:100A4000D00B882339F060E085E00E942A081092DC
:100A500008042EC062EF72E0CE0107960E94D00B10
:100A6000882371F069EF72E08CEB94E00E94C20879
:100A700061E086E00E942A0881E08093090418C0A2
:100A800060E073E0CE0107960E94D00B882339F016
:100A900060E086E00E942A081092090409C068E01C
:100AA00073E0CE0107960E94D00B81110E942F04A3
:100AB000CE0107960E94B10A2C960FB6F894DEBFBD
:100AC0000FBECDBFDF91CF9108958F929F92AF92CD
:100AD000BF92CF92DF92EF92FF92CF93DF9300D03D
:100AE00000D000D0CDB7DEB70E941C074B015C01DF
:100AF0006AE185E294E00E946B0E882369F085E24A
:100B000094E00E948D0E6093F2037093F303809340
:100B1000F4039093F50314C06EE073E08CEB94E063
:100B20000E94C2086EE073E0CE0101960E941F0B86
:100B3000CE0101960E94F000CE0101960E94B10AFA
:100B40006BE184E294E00E946B0E882369F084E2FA
:100B500094E00E948D0E6093F6037093F7038093E8
:100B6000F8039093F90314C064E273E08CEB94E013
:100B70000E94C20864E273E0CE0101960E941F0B3E
:100B8000CE0101960E94F000CE0101960E94B10AAA
:100B900068E185E294E00E946B0E882369F083E2AD
:100BA00094E00E948D0E6093FA037093FB03809390
:100BB000FC039093FD0314C06AE373E08CEB94E0B4
:100BC0000E94C2086AE373E0CE0101960E941F0BE7
:100BD000CE0101960E94F000CE0101960E94B10A5A
:100BE0008BE194E00E94470D8823C9F08BE194E0EB
:100BF0000E94750D6093FE037093FF0380930004C1
:100C0000909301048BE194E00E94C60D609302046E
:100C100070930304809304049093050414C060E56A
:100C200073E08CEB94E00E94C20860E573E0CE01B3
:100C300001960E941F0BCE0101960E94F000CE018A
:100C400001960E94B10A0E941C070E946D2B209100
:100C50001704309118044091190450911A040E940D
:100C60005F2A20E030E04AE754E40E94CC2A6093F7
:100C70000C0470930D0480930E0490930F04409124
:100C800010015091110188E993E09A838983809142
:100C9000A9049091AA04A091AB04B091AC048B83F9
:100CA0009C83AD83BE83BE016F5F7F4F81E794E07D
:100CB0000E949C0F49E250E06EEE73E081E794E001
:100CC0000E94A80F81E794E00E94A40F63E673E0FE
:100CD0008CEB94E00E94C20863E673E0CE010196BB
:100CE0000E941F0BCE0101960E94F000CE010196DA
:100CF0000E94B10A88E1E6E3F4E0DF011D928A95E3
:100D0000E9F78CE894E00E944A1090934F04809396
:100D10004E041816190614F40E945D0488E1E6E3F7
:100D2000F4E0DF011D928A95E9F789E795E00E94DA
:100D3000CF170E941C076B017C0166E773E0CE01B0
:100D400001960E941F0BCE0101960E94F000CE0179
:100D500001960E94B10AB601681979094AE0CE01EC
:100D600001960E94A40BCE0101960E94F000CE01D4
:100D700001960E94B10A60ED77E080E090E00E9469
:100D80004D0726960FB6F894DEBF0FBECDBFDF919C
:100D9000CF91FF90EF90DF90CF90BF90AF909F905A
:100DA0008F9008951F920F920FB60F9211242F93D8
:100DB0003F938F939F93AF93BF938091B40490918F
:100DC000B504A091B604B091B7043091B30423E008
:100DD000230F2D3720F40196A11DB11D05C026E873
:100DE000230F0296A11DB11D2093B3048093B40478
:100DF0009093B504A093B604B093B7048091B8045F
:100E00009091B904A091BA04B091BB040196A11DC0
:100E1000B11D8093B8049093B904A093BA04B09321
:100E2000BB04BF91AF919F918F913F912F910F90F4
:100E30000FBE0F901F9018952FB7F8946091B404CF
:100E40007091B5048091B6049091B7042FBF0895B6
:100E50003FB7F8948091B8049091B904A091BA0476
:100E6000B091BB0426B5A89B05C02F3F19F0019691
:100E7000A11DB11D3FBFBA2FA92F982F8827820F20
:100E8000911DA11DB11DBC01CD0142E0660F771F70
:100E9000881F991F4A95D1F708958F929F92AF921C
:100EA000BF92CF92DF92EF92FF926B017C010E9482
:100EB00028074B015C01C114D104E104F10401F1E4
:100EC0000E94C4070E942807DC01CB0188199909F8
:100ED000AA09BB09883E9340A105B10560F321E052
:100EE000C21AD108E108F10888EE880E83E0981E46
:100EF000A11CB11CC114D104E104F10419F7DBCF2A
:100F0000FF90EF90DF90CF90BF90AF909F908F9029
:100F10000895789484B5826084BD84B5816084BD71
:100F200085B5826085BD85B5816085BDEEE6F0E062
:100F3000808181608083E1E8F0E0108280818260BE
:100F40008083808181608083E0E8F0E0808181603F
:100F50008083E1EBF0E0808184608083E0EBF0E06F
:100F6000808181608083EAE7F0E080818460808313
:100F700080818260808380818160808380818068BD
:100F800080831092C10008950895833081F028F481
:100F9000813099F08230A1F008958730A9F088302F
:100FA000B9F08430D1F4809180008F7D03C08091AE
:100FB00080008F7780938000089584B58F7702C07A
:100FC00084B58F7D84BD08958091B0008F7703C074
:100FD0008091B0008F7D8093B0000895CF93DF9310
:100FE00090E0FC01E458FF4F2491FC01E057FF4FD3
:100FF0008491882361F190E0880F991FFC01E255EC
:10100000FF4FC591D491FC01EC55FF4FA591B491D0
:10101000611109C09FB7F894888120958223888345
:10102000EC912E230BC0623061F49FB7F8943881A5
:10103000822F809583238883EC912E2B2C939FBF46
:1010400006C08FB7F894E8812E2B28838FBFDF91DD
:10105000CF9108951F93CF93DF93282F30E0F901AC
:10106000E859FF4F8491F901E458FF4FD491F901F9
:10107000E057FF4FC491CC23C9F0162F81110E9475
:10108000C507EC2FF0E0EE0FFF1FEC55FF4FA591C9
:10109000B4918FB7F894111105C09C91ED2FE09594
:1010A000E92302C0EC91ED2BEC938FBFDF91CF9140
:1010B0001F91089580E090E00895CF92DF92EF9223
:1010C000FF920F931F93CF93DF936C017A018B01F3
:1010D000C0E0D0E0CE15DF0589F0D8016D918D011B
:1010E000D601ED91FC910190F081E02DC6010995AA
:1010F000892B11F47E0102C02196ECCFC701DF914C
:10110000CF911F910F91FF90EF90DF90CF900895B6
:101110006115710579F0FB0101900020E9F7319725
:10112000AF01461B570BDC01ED91FC910280F3816E
:10113000E02D099480E090E00895DC01ED91FC91B0
:10114000DB0114964D915C9115976D917C91028015
:10115000F381E02D09940C948808DC01ED91FC9159
:101160000190F081E02D0994DB01ED91FC91119744
:101170000190F081E02DBC01CD01099465E873E098
:101180000C9488080F931F93CF93DF93EC010E9478
:1011900088088C01CE010E94BE08800F911FDF914C
:1011A000CF911F910F9108950F931F93CF93DF93CA
:1011B000EC010E94B4088C01CE010E94BE08800F91
:1011C000911FDF91CF911F910F9108954F925F92E0
:1011D0006F927F92EF92FF920F931F93CF93DF93C3
:1011E000CDB7DEB7A1970FB6F894DEBF0FBECDBF67
:1011F0007C01FA01CB0119A2223008F42AE08E0109
:101200000F5D1F4F422E512C612C712CBF01A30189
:1012100092010E94782CF901CA01015011096A302B
:1012200014F4605D01C0695CD8016C93232B242BFE
:10123000252B61F7B801C7010E948808A1960FB657
:10124000F894DEBF0FBECDBFDF91CF911F910F91FC
:10125000FF90EF907F906F905F904F900895CF92A6
:10126000DF92EF92FF920F931F93CF93DF93EC01E6
:101270006A017B012115310579F4E881F98101903A
:10128000F081E02D642FDF91CF911F910F91FF909E
:10129000EF90DF90CF9009942A303105E9F477FF81
:1012A0001AC06DE20E94AD088C0144275527BA018F
:1012B0004C195D096E097F092AE0CE010E94E608FB
:1012C000800F911FDF91CF911F910F91FF90EF90B1
:1012D000DF90CF9008952AE0B701A601CE01DF91FB
:1012E000CF911F910F91FF90EF90DF90CF900C94D2
:1012F000E6089A01AB01770F660B770B0C942F0968
:101300002115310541F4DC01ED91FC910190F08152
:10131000E02D642F09940C94E6089A01462F50E0C2
:1013200060E070E00C9480091F920F920FB60F924C
:1013300011242F938F939F93EF93FF93E091CC040D
:10134000F091CD048081E091D204F091D30482FD2C
:1013500012C090818091D5048F5F8F732091D60445
:10136000821751F0E091D504F0E0E454FB4F958FE3
:101370008093D50401C08081FF91EF919F918F915F
:101380002F910F900FBE0F901F9018951F920F92E4
:101390000FB60F9211242F933F934F935F936F9348
:1013A0007F938F939F93AF93BF93EF93FF938CEBB8
:1013B00094E00E943A0CFF91EF91BF91AF919F9101
:1013C0008F917F916F915F914F913F912F910F90EE
:1013D0000FBE0F901F9018958CEB94E00E94EF0BBE
:1013E00021E0892B09F420E0822F0895ECEBF4E052
:1013F0001382128288EE93E0A0E0B0E084839583AC
:10140000A683B7838EE993E09183808385EC90E097
:101410009587848784EC90E09787868780EC90E0BE
:10142000918B808B81EC90E0938B828B82EC90E0AF
:10143000958B848B86EC90E0978B868B118E128E29
:10144000138E148E089508950E9489070E94230A1E
:101450000E943001CCE2DCE00E9465052097E1F3B8
:101460000E942C0CF9CF8F929F92AF92BF92CF9295
:10147000DF92EF92FF920F931F93CF93DF937C0144
:101480008B016C0182E0C80ED11C4701E5E08E0E95
:10149000911CC0E0D0E0F60161916F014AE050E09C
:1014A000C8010E948D095C016EE2C8010E94AD086E
:1014B0008A0D9B1DC80FD91FC814D90461F74AE0D3
:1014C00050E0F7016581C8010E948D098C0F9D1FB6
:1014D000DF91CF911F910F91FF90EF90DF90CF9010
:1014E000BF90AF909F908F90089528E933E0FC0162
:1014F00031832083128213821482158208950F9300
:10150000FC0188E993E09183808362834383248391
:1015100005830F91089528E933E0FC01318320838E
:10152000FB014081518162817381FC0142835383BD
:10153000648375830895FB014081518162817381C9
:10154000FC0142835383648375830895E9E5F5E0E4
:1015500088E993E09183808312821382148215823A
:101560000895FC01808191810C943D28CF93DF93F5
:10157000EC0188819981009711F00E943D28198221
:1015800018821D821C821B821A82DF91CF910895DE
:101590000F931F93CF93DF93EC018B016F5F7F4F0E
:1015A000888199810E943129009731F0998388833D
:1015B0001B830A8381E001C080E0DF91CF911F91FE
:1015C0000F910895CF93DF93EC0188819981892B46
:1015D00029F08A819B818617970760F4CE010E94CB
:1015E000C80A882341F08C819D81892B19F4E881F8
:1015F000F981108281E0DF91CF910895EF92FF92FF
:101600000F931F93CF93DF93EC017B018A01BA0103
:101610000E94E20A811104C0CE010E94B60A07C0EE
:101620001D830C83B701888199810E941D2ACE01F8
:10163000DF91CF911F910F91FF90EF900895FC01E2
:101640001182108213821282158214826115710533
:1016500051F0FB0101900020E9F73197AF01461BE3
:10166000570B0C94FE0A0895CF93DF93EC0161159C
:10167000710559F0FB0101900020E9F73197AF01A6
:10168000461B570B0E94FE0A02C00E94B60ACE01FA
:10169000DF91CF9108950F931F93CF93DF93CDB731
:1016A000DEB729970FB6F894DEBF0FBECDBF8C0111
:1016B000862FF80111821082138212821582148201
:1016C00050E0BE016F5F7F4F90E00E943A2ABE015A
:1016D0006F5F7F4FC8010E94340B29960FB6F894B4
:1016E000DEBF0FBECDBFDF91CF911F910F91089547
:1016F0000F931F93CF93DF93CDB7DEB762970FB6EB
:10170000F894DEBF0FBECDBF8C01CB01F801118272
:101710001082138212821582148250E0BE016F5F24
:101720007F4F0E94242ABE016F5F7F4FC8010E9435
:10173000340B62960FB6F894DEBF0FBECDBFDF91BB
:10174000CF911F910F9108950F931F93CF93DF9324
:10175000CDB7DEB761970FB6F894DEBF0FBECDBF31
:101760008C01CB01F8011182108213821282158242
:10177000148250E0BE016F5F7F4F0E943A2ABE0183
:101780006F5F7F4FC8010E94340B61960FB6F894CB
:10179000DEBF0FBECDBFDF91CF911F910F91089596
:1017A000FC0124813581232B31F421E06115710581
:1017B000A1F0FB0108C0FC018081918161157105D8
:1017C00031F421E0FC018081882339F005C00E94BA
:1017D000142A21E0892B09F020E0822F0895FC01D2
:1017E000918D228D892F90E0805C9F4F821B910903
:1017F0008F7399270895FC01918D828D981731F090
:10180000828DE80FF11D858D90E008958FEF9FEF99
:101810000895FC01918D828D981761F0828DDF0112
:10182000A80FB11D5D968C91928D9F5F9F73928FD3
:1018300090E008958FEF9FEF0895FC01538D448D44
:10184000252F30E0842F90E0821B930B541710F06B
:10185000CF960895019708958CEE99E0892B49F071
:1018600080E090E0892B29F00E94EC0981110C9412
:1018700000000895FC01848DDF01A80FB11DA35A5B
:10188000BF4F2C91848D90E001968F739927848FA0
:10189000A689B7892C93A089B1898C9180648C9397
:1018A000938D848D981306C00288F389E02D808182
:1018B0008F7D80830895CF93DF93EC01888D8823FB
:1018C000C9F0EA89FB89808185FD05C0A889B989AD
:1018D0008C9186FD0FC00FB607FCF5CF808185FF88
:1018E000F2CFA889B9898C9185FFEDCFCE010E94F6
:1018F0003A0CE7CFDF91CF910895EF92FF920F93CB
:101900001F93CF93DF93EC0181E0888F9B8D8C8DAB
:10191000981305C0E889F989808185FD24C0F62ED9
:101920000B8D10E00F5F1F4F0F731127E02E8C8D72
:10193000E8120CC00FB607FCFACFE889F98980815C
:1019400085FFF5CFCE010E943A0CF1CF8B8DFE01C1
:10195000E80FF11DE35AFF4FF0820B8FEA89FB89F4
:101960008081806207C0EE89FF896083E889F989F8
:1019700080818064808381E090E0DF91CF911F912E
:101980000F91FF90EF900895CF92DF92EF92FF9228
:101990001F93CF93DF93EC016A017B01122FE8893B
:1019A000F98982E080834115514E61057105B1F0DE
:1019B00060E079E08DE390E0A70196010E94782C29
:1019C000DA01C9010197A109B109B695A7959795C3
:1019D0008795AC01411580E15807A8F0E889F9899D
:1019E000108260E874E88EE190E0A70196010E9401
:1019F000782CBA01A9014150510961097109769504
:101A0000679557954795EC85FD855083EE85FF8555
:101A10004083188EEC89FD891083EA89FB898081D7
:101A200080618083EA89FB89808188608083EA897C
:101A3000FB89808180688083EA89FB8980818F7D32
:101A40008083DF91CF911F91FF90EF90DF90CF9037
:101A50000895DC01ED91FC910190F081E02D099455
:101A6000089560E470E087EF95E00E940D1F6EEF2F
:101A700070E087EF95E00E94290D87EF95E00E94C6
:101A80008C1F6FE070E080E090E00C944D07CF93E6
:101A9000DF93EC0187EF95E00E94F91ECE010E94D2
:101AA000310D60E470E087EF95E00E940D1F67EE56
:101AB00070E087EF95E00E94290D87EF95E00E9486
:101AC0008C1F41E050E060E470E087EF95E00E94F9
:101AD000891F87EF95E00E94661E21E0029709F0BA
:101AE00020E0822FDF91CF910895CF93DF9360E4C0
:101AF00070E087EF95E00E940D1F63EE70E087EFC6
:101B000095E00E94290D87EF95E00E948C1F62E30B
:101B100070E080E090E00E944D0743E050E060E418
:101B200070E087EF95E00E94891F87EF95E00E94A3
:101B30005E1E892BD1F387EF95E00E94661ED82F99
:101B400080E0C82F87EF95E00E94661EC82BD92B36
:101B500087EF95E00E94661EBE0180E090E00E9443
:101B60006D2B22E538EB4FE253E40E94FB2B20E083
:101B700030E040E857E30E94FB2B26E636E64BE3D5
:101B800052E40E945F2ADF91CF910895CF93DF93B3
:101B900060E470E087EF95E00E940D1F65EE70E055
:101BA00087EF95E00E94290D87EF95E00E948C1F3A
:101BB00062E370E080E090E00E944D0743E050E077
:101BC00060E470E087EF95E00E94891F87EF95E061
:101BD0000E945E1E892BD1F387EF95E00E94661E5E
:101BE000D82F80E0C82F87EF95E00E94661EC82B93
:101BF000D92B87EF95E00E94661EBE0180E090E041
:101C00000E946D2B20E030E04AEF52E40E94FB2B53
:101C100020E030E040E857E30E94FB2B20E030E07A
:101C200040EC50E40E945F2ADF91CF91089508951F
:101C30001F93CF93DF9300D0CDB7DEB7162FFC01F3
:101C4000608187EF95E04A8359830E94031F612FCB
:101C500087EF95E00E94BA1E5981652F87EF95E0C6
:101C60000E94BA1E4A81642F87EF95E00E94BA1E37
:101C700087EF95E00F900F90DF91CF911F910C941B
:101C80008C1F1F93CF93DF93EC01162F688187EF92
:101C900095E00E94031F612F87EF95E00E94BA1E16
:101CA00087EF95E00E948C1F42E0688187EF95E006
:101CB0000E94861F87EF95E00E94661ED82F80E065
:101CC000C82F87EF95E00E94661E8C2B9D2BDF911D
:101CD000CF911F910895CF93DF93EC01688387EF35
:101CE00095E00E94F91E66E0CE010E94410E843507
:101CF000910511F080E00EC067E0CE010E94410E18
:101D000081159440B9F740E050E061E0CE010E94B7
:101D1000180E81E0DF91CF910895CF93DF9365E0B6
:101D20000E94410EEC01BC017F7080E090E00E94B7
:101D30006D2B20E030E040E85DE30E94FB2BD4FFF8
:101D400006C020E030E040E853E40E945F2ADF91C3
:101D5000CF9108958FEF9FEF9093600580935F057B
:101D600008951F920F920FB60F9211240F900FBE7D
:101D70000F901F901895A8950895DA01F901603425
:101D80008FE178071CF46115710539F489E090E062
:101D90008D939C9380E49FE158C0603A8FE0780770
:101DA0003CF088E090E08D939C9380EA9FE04DC0EA
:101DB000603D87E078073CF087E090E08D939C934E
:101DC00080ED97E042C0683E83E078073CF086E013
:101DD00090E08D939C9388EE93E037C0643F81E060
:101DE00078073CF085E090E08D939C9384EF91E040
:101DF0002CC06A3F71053CF084E090E08D939C9389
:101E00008AEF90E022C0683771053CF083E090E0F3
:101E10008D939C9388E790E018C06C3371053CF07B
:101E200082E090E08D939C938CE390E00EC06E3145
:101E300071053CF081E090E08D939C938EE190E001
:101E400004C01D921C928FE090E0918380830895DE
:101E50000F931F93CF93DF9300D0CDB7DEB78C01E4
:101E60009E012F5F3F4FAC010E94BD0EF8018081A3
:101E700083FD02C098E001C098E28770892B98E149
:101E80000FB6F894A895909360000FBE8093600001
:101E900089819A810F900F90DF91CF911F910F91BF
:101EA0000895DC01ED91FC91048CF58DE02D0994F1
:101EB00028E933E0FC0131832083FB01408951890B
:101EC00062897389FC014283538364837583089517
:101ED000FC01848995890895FC01818D928D089576
:101EE000CF93DF931F92CDB7DEB76983DC01ED910D
:101EF000FC910280F381E02D41E050E0BE016F5F74
:101F00007F4F09950F90DF91CF9108950895CF935A
:101F1000DF93EC01888D843061F00E940715E88D15
:101F2000F0E0EE0FFF1FE152FA4F1182108284E0C1
:101F3000888FDF91CF910895FC01178A168A6E5F12
:101F40007F4F808D0C948516FC01808D0C94CB16F0
:101F5000CF93DF93EC019A018E899F89AB01BC017D
:101F6000888D0E943E162E893F89280F391F3F8B8E
:101F70002E8BDF91CF9108950F931F93CF93DF9313
:101F80001F92CDB7DEB7FC01218D328D232B61F07E
:101F90008C0141E050E0BE016F5F7F4F808D0E9459
:101FA0008415181619061CF08FEF9FEF08C0F80172
:101FB000818D928D0197928F818F898190E00F9012
:101FC000DF91CF911F910F910895CF93DF93FC0183
:101FD000218D328D2115310519F48FEF9FEF11C03E
:101FE000EC014217530708F0A901888D0E9484155F
:101FF0001816190694F7298D3A8D281B390B3A8F3C
:10200000298FDF91CF910895CF93DF931F92CDB7A2
:10201000DEB7FC01218D328D232B49F0BE016F5FAD
:102020007F4F808D0E940F16898190E002C08FEF54
:102030009FEF0F90DF91CF910895EF92FF921F9342
:10204000CF93DF93FC01208D243011F080E01CC081
:102050007B01EC0110E0812F0E94DF14811102C08E
:10206000188F05C08831E1F31F5F1430A1F7888D08
:10207000843061F3FD86EC861A8E198E20E0A7016C
:1020800062E00E94311581E0DF91CF911F91FF90B6
:10209000EF9008950F931F93CF93DF93CDB7DEB7E3
:1020A00028970FB6F894DEBF0FBECDBF8C01F801A4
:1020B000818D928D892B49F0D801ED91FC9102849C
:1020C000F385E02DC8010995F2CF808D0E94E415BB
:1020D0001816190654F548E050E0BE016F5F7F4FB7
:1020E000D80158968C910E9484159C0118161906E7
:1020F000D4F4BE016F5F7F4FC8010E960E949B0A09
:102100008D8190E0982F88272E81820F911DF801F4
:10211000958B848B2F8130E0322F22278885280FE2
:10212000311D328F218FC90102C080E090E02896D6
:102130000FB6F894DEBF0FBECDBFDF91CF911F91D8
:102140000F9108958F929F92AF92BF92CF92DF929C
:10215000EF92FF920F931F93CF93DF9300D000D0A5
:1021600000D0CDB7DEB7FC01208D243009F068C067
:102170006A017B018C0153E0852E54E0952EA12C41
:10218000B12CC4010E948512811103C0F801A08EF8
:102190000AC08831D9F3FFEFAF1ABF0A9394E4E085
:1021A000AE16B10471F7F801808D843009F448C08F
:1021B00096E0E4E1F1E0DE01119601900D929A952E
:1021C000E1F7F70193819F779C8394819D839581AB
:1021D0009E83B7016E5F7F4F90E0982F882744E081
:1021E00050E0845F9B4F0E945612F801E08CF12C66
:1021F000F4E0EF0EF11CFE2CEE246D2DC70140968D
:102200000E94C2116C2DC70141960E94C211F801B3
:10221000808D90E0982F882746E050E0BE016F5FE8
:102220007F4F8A5F9B4F0E945612F801128E118ECB
:1022300020E8A60162E0808D0E94311581E001C096
:1022400080E026960FB6F894DEBF0FBECDBFDF91BB
:10225000CF911F910F91FF90EF90DF90CF90BF90A3
:10226000AF909F908F900895CF93DF93EC011B82E6
:102270001A8288EE93E0A0E0B0E08C839D83AE8369
:10228000BF8380EB93E099838883CE010E960E94F2
:10229000750A84E0888FDF91CF910895CF92DF9205
:1022A000EF92FF920F931F93CF93DF93CDB7DEB7DB
:1022B000AF970FB6F894DEBF0FBECDBF8C016B0198
:1022C0007A01CE0101960E94750ACE0109960E94FC
:1022D0003411CE018A960E94750A69E775E0CE0135
:1022E00084960E944C18BE016C5D7F4FCE01019612
:1022F0000E946E18AE01465D5F4FB601CE01019699
:102300000E94DD1A81309105C1F4D801ED91FC9154
:102310000488F589E02D88E993E09DA38CA38CA522
:102320009DA5AEA5BFA58EA39FA3A8A7B9A7A701EA
:10233000BE016C5D7F4FC8010995AF960FB6F8944A
:10234000DEBF0FBECDBFDF91CF911F910F91FF90E8
:10235000EF90DF90CF9008950F9300E020E040E0F1
:1023600060E081E695E00E947F0A0F9108958EBD9E
:1023700000000DB407FEFDCF8EB508952A9808958C
:102380002A9A08951F93CF93DF9300D0CDB7DEB77D
:10239000182F6A8399830E94BE1180EF0E94B711A3
:1023A0009981892F0E94B711812F0E94B7116A81EC
:1023B000862F0E94B7110E94C01181E00F900F90EC
:1023C000DF91CF911F910895CF93DF93EC016CE2E1
:1023D00071E080E090E00E944D070E946B1B229A02
:1023E0008091F505882399F02FB7F8948091F50531
:1023F000813059F48DB38093F3059DB38091F4053A
:10240000809589238DBB2FBF02C02093F30580E503
:102410008CBD1DBC60E880E090E00E94C21165E5C3
:102420008BE190E00E94C21165E58AE190E00E9494
:10243000C2118091F505882351F09FB7F89420913F
:10244000F5058091F305213029F58DBB9FBF80E014
:1024500090E49983888380E090E69987888780E07C
:1024600098E49B838A8380E098E69B878A8780E054
:1024700090E59D838C8380E090E79D878C8780E04A
:1024800098E59F838E8380E098E79F878E87DF9112
:10249000CF9108958FBFDBCF9B0190E00496982FDA
:1024A0008827642F820F931F0C94C211CF92DF9262
:1024B000EF92FF920F931F93CF93DF93EC017A017A
:1024C0008B016C01C40ED51ECC15DD05A1F00E9458
:1024D000BE1180EF0E94B7118D2F0E94B7118C2F73
:1024E0000E94B7112196F80181918F010E94B711C6
:1024F0000E94C011E9CFC701DF91CF911F910F91C9
:10250000FF90EF90DF90CF9008951F93CF93DF93CC
:102510001F92CDB7DEB7182F99830E94BE118FE0AE
:102520000E94B7119981892F0E94B711812F0E94B3
:10253000B71180E00E94B71189830E94C011898180
:102540000F90DF91CF911F91089590E00496982FFE
:102550008827860F971F0C9485121F93CF93DF93C4
:10256000182F60E270E00E94A512C82FD0E061E24F
:1025700070E0812F0E94A512DC2FCC279E01282B12
:10258000C901DF91CF911F910895FF920F931F937F
:10259000CF93DF93F62EC0E0D0E08F2D0E94AD12D6
:1025A0008C01892B21F08F2D0E94AD12EC01C017F8
:1025B000D10799F7CE01DF91CF911F910F91FF9035
:1025C00008951F93CF93DF93182F66E270E00E9467
:1025D000A512C82FD0E067E270E0812F0E94A512FB
:1025E000DC2FCC279E01282BC901DF91CF911F91B1
:1025F0000895FF920F931F93CF93DF93F62EC0E0C1
:10260000D0E08F2D0E94E1128C01892B21F08F2DBB
:102610000E94E112EC01C017D10799F7CE01DF91BA
:10262000CF911F910F91FF9008956F927F928F929B
:102630009F92AF92BF92CF92DF92EF92FF920F9351
:102640001F93CF93DF931F92CDB7DEB7882E962EC0
:102650006A01590164E270E0892D99830E94A512F4
:10266000E82EF12C65E270E0892D0E94A512FE2C67
:10267000EE24E82A37016C0C7D1CA3015770E82C6E
:102680009981F92EE90CF11CE90CF11CF70180810C
:102690009181840F951F9A01200F311F21303840FE
:1026A00098F060E078E06B01C41AD50AA601B50184
:1026B0000E945612A8014C195D09B5016C0D7D1DD3
:1026C000F7018081918102C0A801B5010E945612D4
:1026D000060D171D412F64E270E0892D0E944C12F7
:1026E000402F65E270E0892D0F90DF91CF911F910F
:1026F0000F91FF90EF90DF90CF90BF90AF909F90A1
:102700008F907F906F900C944C12CF92DF92EF924B
:10271000FF920F931F93CF93DF93EC017A018B010C
:102720006C01C40ED51ECC15DD05A9F00E94BE11AA
:102730008FE00E94B7118D2F0E94B7118C2F0E943D
:10274000B711219680E00E94B711F80181938F01A3
:102750000E94C011E8CFC701DF91CF911F910F9167
:10276000FF90EF90DF90CF900895AF92BF92CF92FD
:10277000DF92EF92FF920F931F93CF93DF9300D0DE
:10278000CDB7DEB75A834983590129813A81377021
:102790006C01C60ED11CC60ED11CF6018085918538
:1027A000820F931FA801420F531F4130584098F0E9
:1027B000E0E0F8E07F01E21AF30AA701B5010E9408
:1027C0008513A8014E195F09B5016E0D7F1DF60135
:1027D0008085918502C0A801B5010F900F90DF910F
:1027E000CF911F910F91FF90EF90DF90CF90BF900E
:1027F000AF900C9485138F929F92AF92BF92CF921D
:10280000DF92EF92FF920F931F93CF93DF936C01B0
:10281000962E5A017901802E68E270E0892D0E947F
:10282000A512C82FD0E069E270E0892D0E94A512A0
:10283000DC2FCC27C82B87019501AE01692DC6017D
:102840000E94B51381101AC0CE0DDF1D4D2F68E216
:1028500070E0892D0E944C124C2F69E270E0892DA6
:10286000DF91CF911F910F91FF90EF90DF90CF906C
:10287000BF90AF909F908F900C944C12DF91CF91AE
:102880001F910F91FF90EF90DF90CF90BF90AF908E
:102890009F908F900895CF93C62F61E070E08C2FAA
:1028A0000E944C1261E070E08C2F0E94A5128111F1
:1028B000F9CFCF9108950F93FC0130E080E092E1D1
:1028C000AAE7B0E0481759076A077B0740F4B695B6
:1028D000A795979587953F5F3630A1F737E091E050
:1028E0009327222311F020E501C020E7892F869548
:1028F0000C70082B022B0083917091830F91089527
:102900002091F505222399F04FB7F8942091F50511
:10291000213059F42DB32093F3053DB32091F405F4
:10292000209523232DBB4FBF02C04093F3058CBDE0
:102930009DBD08958091F505882361F09FB7F894B7
:102940002091F5058091F305213019F48DBB9FBFCF
:1029500008958FBF089590E0982F882744E050E0B5
:10296000845F9B4F0C94561262E070E00C94A512A9
:10297000CF93DF93C82FD62F472F64E070E00E94DB
:102980004C124D2F65E070E08C2FDF91CF910C94AD
:102990004C12462F62E070E00C944C12CF93DF9300
:1029A000C82FD62F472F60E170E00E944C124D2FA8
:1029B00061E170E08C2FDF91CF910C944C120F935A
:1029C0001F93CF93DF9300D01F92CDB7DEB7182FA0
:1029D00000E021E040E059E06DE370E0CE010196B7
:1029E0000E945B1489819A810E94801463E070E0E8
:1029F000812F0E94A5128B830E949A148B810F90C5
:102A00000F900F90DF91CF911F910F9108950F9329
:102A10001F93CF93DF9300D0CDB7DEB7182F00E020
:102A200021E040E059E06DE370E0CE0101960E94A4
:102A30005B1489819A810E94801440E150E0612FEB
:102A400087E695E00E944B146FEF812F0E94C91416
:102A50000E949A140F900F90DF91CF911F910F91C8
:102A60000895CF92DF92EF92FF920F931F93CF932F
:102A7000DF9300D0CDB7DEB79FEF960F9530C0F54E
:102A8000F22E6A01E62E182F0E94071500E021E0C1
:102A900040E059E06DE370E0CE0101960E945B14C6
:102AA00089819A810E9480144E2D4F2960E070E048
:102AB000812F0E944C12C114D10411F0B6010AC03A
:102AC00060917705709178056F5F7F4F70937805FF
:102AD00060937705812F0E94B81441E050E0612F88
:102AE00087E695E00E944B140E949A1481E001C091
:102AF00080E00F900F90DF91CF911F910F91FF9089
:102B0000EF90DF90CF900895AF92BF92CF92DF9277
:102B1000EF92FF920F931F93CF93DF9300D0CDB727
:102B2000DEB7182F5B016A0100E021E040E059E0C8
:102B30006DE370E0CE0101960E945B1489819A8159
:102B40000E948014612F87E695E00E94F9127C01B3
:102B50000097A1F463E070E0812F0E94A5128431F8
:102B600019F1882309F121E030E08C3111F420E0E3
:102B700030E0EE24FF24E21AF30A16C0C816D90684
:102B80000CF476011E141F047CF400E09701A501EB
:102B9000612F87E695E00E94FB1340E450E0612F2F
:102BA00087E695E00E944B140E949A14C7010F908B
:102BB0000F90DF91CF911F910F91FF90EF90DF90D9
:102BC000CF90BF90AF9008950F931F93CF93DF9353
:102BD00000D000D0CDB7DEB7182F00E021E040E0F4
:102BE00059E06DE370E0CE0101960E945B1489818B
:102BF0009A810E948014612F87E695E00E94F91265
:102C00008B839C830E949A148B819C810F900F90E0
:102C10000F900F90DF91CF911F910F910895EF9238
:102C2000FF920F931F93CF93DF9300D0CDB7DEB702
:102C3000182F7B0100E021E040E059E06DE370E0F7
:102C4000CE0101960E945B1489819A810E948014B2
:102C500001E021E030E0A701612F87E695E00E94C6
:102C6000FB130E949A1481E090E00F900F90DF9187
:102C7000CF911F910F91FF90EF9008958F929F92A7
:102C8000AF92BF92DF92EF92FF920F931F93CF9379
:102C9000DF9300D0CDB7DEB7D82E5B014A017901B2
:102CA00000E021E040E059E06DE370E0CE010196E4
:102CB0000E945B1489819A810E9480146D2D87E6A1
:102CC00095E00E94C5128E159F0530F46D2D87E6A4
:102CD00095E00E94C5127C0187019401A5016D2D2C
:102CE00087E695E00E9415130E949A14C7010F9081
:102CF0000F90DF91CF911F910F91FF90EF90DF9098
:102D0000BF90AF909F908F900895CF92DF92EF92F7
:102D1000FF920F931F93CF93DF9300D0CDB7DEB711
:102D2000FB019081911109C09181911106C092819E
:102D3000911103C09381992309F141155105F1F0D7
:102D40006A017F01182F00E021E040E059E06DE3C7
:102D500070E0CE0101960E945B1489819A810E94E5
:102D60008014B701812F0E94AB14B601812F0E94FD
:102D7000CE140E949A1481E090E002C080E090E0BE
:102D80000F900F90DF91CF911F910F91FF90EF90D7
:102D9000DF90CF9008950F931F93CF93DF9300D0D0
:102DA000CDB7DEB7182F00E021E040E059E06DE339
:102DB00070E0CE0101960E945B1489819A810E9485
:102DC000801440E250E0612F87E695E00E944B14AA
:102DD000812F0E94B41484FD21C0812F0E94B4145D
:102DE00083FF09C068E1812F0E94C9140E949A14D0
:102DF00080E090E01BC00E949A140E94C40700E08B
:102E000021E040E059E06DE370E0CE0101960E94C0
:102E10005B1489819A810E948014DACF60E1812F4E
:102E20000E94C9140E949A1481E090E00F900F90C4
:102E3000DF91CF911F910F91089544E050E0BC01C4
:102E400081E090E00C94561244E050E0BC0185E033
:102E500090E00C94561244E050E0BC018FE090E00A
:102E60000C9456122F923F924F925F926F927F92E4
:102E70008F929F92AF92BF92CF92DF92EF92FF928A
:102E80000F931F93CF93DF9300D000D000D0CDB726
:102E9000DEB76C011B0129013A014701580181E8A5
:102EA00095E0F6019783868387E695E00E94E4111A
:102EB00080E590E00E94801446E050E0B10189E096
:102EC00090E00E94561200E020E040E060E0CE0179
:102ED00001960E947F0ACE0103960E942B170E9442
:102EE0009A1485017401A3019201B101F601868152
:102EF00097810E94CC268C010197B9F580E590E07E
:102F00000E948014F60166817781CE0101960E94AD
:102F10000622CE0103960E942B17F6016681778167
:102F2000CE0101960E941C22CE0103960E941D171D
:102F3000F60166817781CE0101960E941122CE01B1
:102F400003960E9424170E949A14F60166817781E5
:102F5000CE0101960E9427228B819C81AD81BE818A
:102F6000F60182839383A483B583C80126960FB6A6
:102F7000F894DEBF0FBECDBFDF91CF911F910F91AF
:102F8000FF90EF90DF90CF90BF90AF909F908F9089
:102F90007F906F905F904F903F902F900895EF92A9
:102FA000FF920F931F93CF93DF9300D000D000D0F8
:102FB000CDB7DEB7FC01268137812115310509F433
:102FC00043C08C01C9010E940B277C01029721F0AC
:102FD00084E0E816F104D1F580E590E00E948014C9
:102FE000F80166817781CE0101960E940622CE010A
:102FF00003960E942B17F80166817781CE01019616
:103000000E941C22CE0103960E941D17F8016681C2
:103010007781CE0101960E941122CE0103960E9473
:1030200024170E949A14F80166817781CE010196D7
:103030000E9427228B819C81AD81BE81F801828311
:103040009383A483B58302C0E12CF12CC70126969B
:103050000FB6F894DEBF0FBECDBFDF91CF911F91A9
:103060000F91FF90EF900895CF93DF93EC010E94B2
:10307000750A80E590E00E948014BE016E5F7F4F6C
:1030800044E050E08FE090E00E9485130E949A1483
:10309000CE01DF91CF91089528E933E0FC0131831F
:1030A0002083FB014281538164817581FC0142834D
:1030B00053836483758308950F9300E020E040E01C
:1030C00060E087EE95E00E947F0A84EC95E00E9424
:1030D000341189E795E00F910C94750AFB01428148
:1030E000538164817581FC014283538364837583BA
:1030F000178216820895CF93DF93FB0120E080E0D2
:1031000090E0AAE03191332301F160ED630F6A3062
:1031100080F4A89FB001A99F700D1124CB01C09726
:10312000830F911D37FD9A958F3F910559F350F309
:1031300013C03E3289F4233079F0EA01C20FD11D69
:103140008A832F5F80E090E0DDCF233029F4FA01FD
:10315000858381E090E002C080E090E0DF91CF9134
:1031600008950F9300E020E040E060E08DEE95E0F0
:103170000E947F0A0F9108958F929F92AF92BF9203
:10318000CF92DF92EF92FF920F931F93CF93DF9333
:1031900000D000D01F92CDB7DEB78C016B010E942A
:1031A0001C07F801778366837627672776277A835B
:1031B0006983085F1F4F42E050E0BE016F5F7F4FA1
:1031C000C8010E94A80F81E090E09C838B8342E0BD
:1031D00050E0BE016D5F7F4FC8010E94A80F80E0E4
:1031E00091E09C838B8342E050E0BE016D5F7F4F96
:1031F000C8010E94A80F1C821B8242E050E0BE0161
:103200006D5F7F4FC8010E94A80F42E050E0BE01F1
:103210006D5F7F4FC8010E94A80F42E050E0BE01E1
:103220006D5F7F4FC8010E94A80F5601F501808194
:10323000882329F1C6017C01FC012081019621111E
:1032400016C0570147018C189D081814190494F4EE
:103250008D8241E050E0BE016B5F7F4FC8010E944C
:10326000A80FA401B601C8010E94A80F03C02E3206
:1032700011F7E7CF6701FFEFCF1ADF0AD7CF1D8223
:1032800041E050E0BE016B5F7F4FC8010E94A80F74
:10329000E12CFF24F394FC82EB8242E050E0BE017B
:1032A0006D5F7F4FC8010E94A80FFC82EB8242E055
:1032B00050E0BE016D5F7F4FC8010E94A80F81E002
:1032C00090E00F900F900F900F900F90DF91CF91A3
:1032D0001F910F91FF90EF90DF90CF90BF90AF9034
:1032E0009F908F9008954F925F926F927F928F92EE
:1032F0009F92AF92BF92CF92DF92EF92FF920F9385
:103300001F93CF93DF93CDB7DEB765970FB6F894D1
:10331000DEBF0FBECDBF7C015B016A010E941C07AE
:103320002B013C018701085F1F4F4501A12CB12CE7
:10333000C8010E944A1018161906A4F00E941C0722
:10334000DC01CB0184199509A609B70988169906ED
:10335000AA06BB06D0F062E370E080E090E00E9435
:103360004D07E6CFF7014281538164817581808DDD
:10337000918DA28DB38D481759076A077B0741F4D9
:10338000848D958DC59721F406C02FEF3FEFFDC0CA
:103390002EEF3FEFFAC0C8010E946C0F0C97ECF0C3
:1033A0004CE050E0BE016F5F7F4FC8010E94E50F07
:1033B0006C818B810E94FA219A8B898BF701E680C0
:1033C000F7806A8189810E94FA21E816F90641F4A2
:1033D00089899A8997FF04C009C02DEF3FEFD5C0B6
:1033E000C8010E94860F2CEF3FEFCFC08F70927004
:1033F000892B31F0C8010E94860F2BEF3FEFC5C02B
:1034000068858F810E94FA215C01892B31F4C80103
:103410000E94860F2AEF3FEFB8C0E12CF12C6E819D
:103420008D810E94FA21E816F90640F541E050E04E
:10343000BE01635F7F4FC8010E94E50F8D8581113A
:1034400013C08D858111F2CFC8010E94BC0FC80145
:103450000E94BC0FC8010E94BC0FC8010E94BC0F93
:10346000FFEFEF1AFF0ADBCF8D859FEF980F9D8747
:10347000882339F3C8010E94BC0FF6CFE12CF12C50
:1034800041E050E0BE016D5E7F4FC8010E94E50F34
:103490008B89982F907C61F4882371F08B899FEF42
:1034A000980F9B8B882341F0C8010E94BC0FF6CF78
:1034B000C8010E94BC0F1B8A8B898111E1CF42E0B9
:1034C00050E0BE01615F7F4FC8010E94E50F42E0FE
:1034D00050E0BE01635F7F4FC8010E94E50FC80145
:1034E0000E94BC0FC8010E94BC0FC8010E94BC0F03
:1034F000C8010E94BC0F42E050E0BE016F5E7F4FEA
:10350000C8010E94E50F8F8598898115914001F5CA
:103510002D853E8532272327322721303105C1F4FE
:1035200089899A898115944031F0C8010E94860FDB
:1035300027EF3FEF2AC0B6016E5F7F4F44E050E0B7
:10354000C8012C8B3D8B0E94E50F2C893D891DC045
:10355000812C912C89899A89982789279827881600
:10356000990638F4C8010E94BC0F8FEF881A980A98
:10357000F1CFEFEFEE1AFE0AEA14FB0409F080CF58
:10358000C8010E94860F26EF3FEFC90165960FB66E
:10359000F894DEBF0FBECDBFDF91CF911F910F9189
:1035A000FF90EF90DF90CF90BF90AF909F908F9063
:1035B0007F906F905F904F9008958F929F92AF92FF
:1035C000BF92CF92DF92EF92FF920F931F93CF9310
:1035D000DF9300D000D000D0CDB7DEB77C014B0127
:1035E0005A010E947B188C01892B09F05BC0F701FE
:1035F00042815381648175818091EF059091F0053E
:10360000A091F105B091F205481759076A077B07A9
:1036100009F44BC00E941C076701F8E0CF0ED11CD3
:103620006F7077277C5FC6010E941D10813009F002
:103630003EC088E993E09A838983F7018281938170
:10364000A481B5818B839C83AD83BE8345E350E029
:10365000BE016F5F7F4FC6010E949C0F892B19F43A
:1036600000E010E01BC0B401C7010E94BC18892B08
:10367000B9F3C6010E94A40F892B91F383E0882E31
:10368000912CA50168E873E1C7010E9473198C01B0
:10369000F1E08F1A910811F0019699F3C6010E948A
:1036A000870F05C001E010E002C00EEF1FEFC80158
:1036B00026960FB6F894DEBF0FBECDBFDF91CF9137
:1036C0001F910F91FF90EF90DF90CF90BF90AF9040
:1036D0009F908F900895CF93CFB7F8948091F6057F
:1036E000811127C0EAE9F0E08491E6E8F0E09491E6
:1036F000E82FF0E0EE0FFF1FE255FF4FA591B491C8
:10370000EC91E92321F461E08AE00E942A0861E05B
:103710008AE00E94EE078CB580618CBD8CB5806418
:103720008CBD61E08DE00E94EE0761E08BE00E94BD
:10373000EE078091F6058F5F8093F605CFBFCF919E
:103740000895FC01148215821682178208951F9332
:10375000CF93DF931F92CDB7DEB7162FFC016081A8
:1037600087EF95E049830E94031F612F87EF95E063
:103770000E94BA1E4981642F87EF95E00E94BA1E0D
:1037800087EF95E00F90DF91CF911F910C948C1FE4
:103790001F93CF93DF9300D0CDB7DEB7162FFC0178
:1037A000608187EF95E04A8359830E94031F612F50
:1037B00087EF95E00E94BA1E5981652F87EF95E04B
:1037C0000E94BA1E4A81642F87EF95E00E94BA1EBC
:1037D00087EF95E00F900F90DF91CF911F910C94A0
:1037E0008C1F1F93CF93DF93EC01162F688187EF17
:1037F00095E00E94031F612F87EF95E00E94BA1E9B
:1038000087EF95E00E948C1F41E0688187EF95E08B
:103810000E94861FC8EED3E087EF95E00E945E1EEF
:103820001816190634F0209711F02197F5CF80E093
:1038300006C0CD2BE1F387EF95E00E94661EDF9175
:10384000CF911F9108950F93CF93DF93EC01637095
:1038500041704295407F2F70422B6295660F607ECB
:10386000462B6EE10E94A71B002321F0083018F0C0
:1038700007E001C001E08FEF800F61E070E002C05F
:10388000660F771F8A95E2F7072E000C880B990BBD
:103890000E946F2B9B01AC0160E074E284EF99E41D
:1038A0000E94CC2A0E943E2B6C837D838E839F8353
:1038B0006FE1CE010E94F11B8F780295007F482FA7
:1038C000402B6FE1CE01DF91CF910F910C94A71B9C
:1038D0001F93CF93DF93EC01162F688187EF95E05C
:1038E0000E94031F612F87EF95E00E94BA1E87EFA9
:1038F00095E00E948C1F42E0688187EF95E00E946E
:10390000861FC0EDD7E087EF95E00E945E1E02970C
:103910003CF4209711F02197F6CF80E090E011C0A1
:10392000CD2BD9F387EF95E00E94661EC82F87EF55
:1039300095E00E94661E20E030E03C2FA901482B54
:10394000CA01DF91CF911F910895CF92DF92EF923C
:10395000FF920F931F93CF93DF938C01D62FF42EFA
:103960006EE00E94681C41E050E09A0102C0220F04
:10397000331FDA95E2F7E90180959095822393232E
:10398000892B89F060E1C8010E94681CFF2021F0AA
:10399000AC014C2B5D2B05C0C095D095AC014C23E0
:1039A0005D2360E125C066E0C8010E94681C6C01CF
:1039B00068E0C8010E94681C9E0120953095FF2098
:1039C00061F07C01E222F322A6014C2B5D2B66E024
:1039D000C8010E94C81BA7010AC0C82BD92BA60189
:1039E0004223532366E0C8010E94C81BAE0168E071
:1039F000C801DF91CF911F910F91FF90EF90DF9061
:103A0000CF900C94C81BFF920F931F93CF93DF931B
:103A10008C01F62E6EE00E94681CC1E0D0E002C06E
:103A2000CC0FDD1FFA94E2F78C239D23892B49F0FC
:103A300060E1C8010E94681CC823D92381E0CD2B16
:103A400009F480E0DF91CF911F910F91FF900895CD
:103A50000C94031DCF92DF92EF92FF920F931F936E
:103A6000CF93DF931F92CDB7DEB76C01162F60E0C6
:103A700029830E94681C41E050E0BA0102C0660F31
:103A8000771F1A95E2F78B01AC01462B572B60E0AC
:103A9000C6010E94C81B66E0C6010E94681C78012E
:103AA000E094F094AC014E215F2166E0C6010E94D3
:103AB000C81B6EE0C6010E94681CAC014E215F214C
:103AC0006EE0C6010E94C81B6EE1C6010E94F11B98
:103AD0008F7D482F40646EE1C6010E94A71B6FE1F5
:103AE000C6010E94F11B2981482F222311F048684A
:103AF00001C04777F60184819581A681B781892B22
:103B00008A2B8B2B49F480E894E8AEE1B0E0848303
:103B10009583A683B78340616FE1C6010E94A71B0E
:103B200060E2C6010E94681CAC01402B512B60E290
:103B3000C6010E94C81B60E1C6010E94681CAC015E
:103B40004E215F2160E1C6010F90DF91CF911F915F
:103B50000F91FF90EF90DF90CF900C94C81B0F93C4
:103B60001F93CF93DF93EC01162F042F6EE00E947A
:103B7000681C9C01802F8D7F813059F041E050E01E
:103B8000012E02C0440F551F0A94E2F7422B532B1B
:103B90000DC0E1E0F0E0012E02C0EE0FFF1F0A941D
:103BA000E2F7E095F095A9014E235F236EE0CE0188
:103BB0000E94C81B023049F441E0612FCE01DF9121
:103BC000CF911F910F910C94A51C033051F420E06C
:103BD00041E0612FCE01DF91CF911F910F910C94A5
:103BE0002A1DDF91CF911F910F9108950C94AF1D65
:103BF000CF93DF93EC016FE10E94F11B82FF06C0BF
:103C0000482F4B7F6FE1CE010E94A71B41E06B81E3
:103C1000CE010E94AF1D40E06B81CE010E94A51C29
:103C200061E070E080E090E00E944D0741E06B8130
:103C3000CE01DF91CF910C94A51CCF93DF93662327
:103C400021F0DF91CF910C94F81DEC0142E16DE77A
:103C50000E94A71B44E36DE7CE01DF91CF910C9446
:103C6000A71B0F93CF93DF93EC0187EF95E00E94A2
:103C7000F91E8B818F3F21F0CE010E94F81D04C0F8
:103C800060E0CE010E941D1E63E1CE010E94681C0F
:103C900081159F4F49F401E020E040E062E0CE0151
:103CA0000E94231C81E001C080E0DF91CF910F9141
:103CB0000895FC01608343830C94311E8091270694
:103CC00090E020912806821B910908959091280682
:103CD00080912706981750F4E92FF0E0E75DF94F3F
:103CE000208130E09F5F9093280602C02FEF3FEFC6
:103CF000C9010895E091280680912706E81730F45D
:103D0000F0E0E75DF94F808190E008958FEF9FEF3D
:103D100008950895CF92DF92EF92FF920F931F9331
:103D2000CF93DF937C01262F972F8A018091030682
:103D3000882391F0C62FD72F6E01C40ED51ECC1547
:103D4000DD0571F06991D701ED91FC910190F08151
:103D5000E02DC7010995F3CF642F822F0E944F20D9
:103D6000C801DF91CF911F910F91FF90EF90DF90ED
:103D7000CF900895CF93DF931F92CDB7DEB76983BD
:103D8000209103062223D1F020910406203240F036
:103D900021E030E0FC013383228380E090E015C015
:103DA00080910506E82FF0E0EA5FF94F9981908352
:103DB0008F5F809305068093040605C061E0CE0105
:103DC00001960E944F2081E090E00F90DF91CF910B
:103DD0000895FC011382128288EE93E0A0E0B0E027
:103DE00084839583A683B78388ED93E09183808352
:103DF0000895109228061092270610920506109238
:103E000004060C94931F81E08093030660932606BA
:103E1000109205061092040608950C94031F0F9348
:103E2000062F21E04091040666E076E080912606A8
:103E30000E94F91F109205061092040610920306C4
:103E40000F9108954F925F926F927F92AF92BF92BF
:103E5000CF92EF92FF920F931F93CF93DF935C016A
:103E6000F62ED42F28013901EE2021F10E94031FE4
:103E7000CE2DC43008F0C3E0C150C0F0D501ED91A3
:103E8000FC91B8E0CB9FC0011124A301920104C0B2
:103E900056954795379527958A95D2F7CA01B90166
:103EA0000190F081E02DC5010995E6CF60E0C501E4
:103EB0000E940F1F4D2FD13208F040E22C2D69E2F5
:103EC00076E08F2D0E94B11F10922806809327065E
:103ED000DF91CF911F910F91FF90EF90CF90BF9006
:103EE000AF907F906F905F904F900895CF92EF9238
:103EF0000F931F93C22EE12C00E010E098010E9466
:103F0000221F1F910F91EF90CF90089521E00C9404
:103F1000761F21E00C94761F61E00C940F1F87EF51
:103F200095E00C94E91E1092B60681E08093B406E9
:103F30001092B30661E082E10E942A0861E083E109
:103F40000E942A08E9EBF0E080818E7F80838081E7
:103F50008D7F808388E48093B80085E48093BC00E3
:103F60000895413208F043C09091B6069111FCCFFC
:103F700091E09093B6062093B4062FEF2093490664
:103F800010928E06240F20938D069093B506909183
:103F9000B506880F892B8093B5068091B3068130D2
:103FA00061F41092B3068091B5068093BB008091B6
:103FB000BC0083FDF8CF85EC01C085EE8093BC008A
:103FC0008091B6068130E1F380918E06841710F45B
:103FD00040918E062FE836E0FB01D9018A2F821B23
:103FE000841718F48D918193F9CF842F089580E080
:103FF00008950F93413208F04AC09091B60691118E
:10400000FCCF32E03093B6060093B4063FEF309316
:10401000490610928E0640938D06FB016FE876E00C
:10402000DB013A2F361B341718F431913D93F9CF49
:104030001092B5063091B506880F832B8093B50694
:104040008091B306813061F41092B3068091B50679
:104050008093BB008091BC0083FDF8CF85EC01C04C
:1040600085EE8093BC00222321F08091B606823039
:10407000D1F3809149068F3F79F0809149068032D3
:1040800041F080914906803331F094E005C091E021
:1040900003C092E001C093E0892F0F9108954091F1
:1040A0006B06262F30E0240F311D21323105DCF460
:1040B0002091B6062430C9F4FC0180E090E0861718
:1040C00058F430916B062191DC01A359B94FA30F2D
:1040D000B11D2C930196F3CF80916B06680F60930E
:1040E0006B0680E0089581E0089582E0089585EDF3
:1040F0008093BC008091BC0084FDFCCF1092B6067A
:10410000089585EC8093BC001092B60608951F9226
:104110000F920FB60F9211242F933F934F935F93FB
:104120006F937F938F939F93AF93BF93EF93FF937F
:104130008091B900887F803609F49EC078F5883276
:1041400009F45DC090F4803109F456C038F4882336
:1041500009F4F5C0883009F44FC0F5C0883109F47E
:104160004EC0803209F45FC0EEC0803409F46AC0EA
:1041700058F4803309F457C0883309F0E4C08093C1
:1041800049060E948120DFC0803509F44FC0883580
:1041900009F45DC0883409F0D6C0D3C0883909F469
:1041A000C4C0A8F4883709F467C038F4883609F425
:1041B00063C0803709F460C0C6C0883809F4B5C050
:1041C000803909F45FC0803809F0BDC05BC0803B16
:1041D00009F483C038F4803A09F466C0883A09F4D7
:1041E0007CC0B1C0803C09F4A4C0883C09F4A1C0E3
:1041F000883B09F487C0A7C08091B50610C0909194
:104200008E0680918D06981770F5E0918E0681E0FC
:104210008E0F80938E06F0E0E157F94F80818093F6
:10422000BB0085EC83C0809349068BC0E0918E066D
:1042300081E08E0F80938E068091BB00F0E0E15705
:10424000F94F808390918E0680918D066BC0E0912E
:104250008E0681E08E0F80938E068091BB00F0E089
:10426000E157F94F80838091B40681116AC081E0E3
:104270008093B30684EA5EC083E08093B606109212
:104280004A06CFCF80914A06803208F04EC0E091B6
:104290004A0681E08E0F80934A068091BB00F0E0D1
:1042A000E55BF94F8083BDCF0E94812080914A0653
:1042B000803230F4E0914A06F0E0E55BF94F10827D
:1042C00060914A0670E0E091AF06F091B0068BE491
:1042D00096E0099510924A0636C084E08093B606AF
:1042E00010926C0610926B06E091B106F091B20646
:1042F000099580916B06811105C081E080936B0662
:1043000010926D06E0916C0681E08E0F80936C0632
:10431000F0E0E359F94F80818093BB0090916C06E7
:1043200080916B06981708F47CCF85E88093BC00D9
:104330000AC085EC8093BC001092B60604C01092AF
:1043400049060E947720FF91EF91BF91AF919F9115
:104350008F917F916F915F914F913F912F910F902E
:104360000FBE0F901F901895CF93DF9300D000D011
:10437000CDB7DEB7611571058105910579F09B0117
:10438000AC0169833A834B835C830E942329298192
:104390003A814B815C810E949A2C03C060E070E0FE
:1043A000CB010F900F900F900F90DF91CF91089558
:1043B000CF92DF92EF92FF920F931F9362177307D2
:1043C0008407950784F489019A016B017C01C90176
:1043D000B8016C197D098E099F090E94B4216C0DEA
:1043E0007D1D8E1D9F1D1F910F91FF90EF90DF90FF
:1043F000CF90089570E09B01382BC90108950E9667
:1044000024E1FC0111922A95E9F70895CF93DF93F7
:10441000EC01625F7F4F0E948B0ACE01DF91CF914A
:104420000895CF93DF93EC016E5E7F4F0E948B0A5D
:10443000CE01DF91CF910895CF93DF93EC016A5EB7
:104440007F4F0E948B0ACE01DF91CF910895CF93C9
:10445000DF93EC01625E7F4F0E948B0ACE01DF91F9
:10446000CF91089580E3FB0180833296842F82955B
:104470008F7090E1899F401911244A3014F4405DF7
:1044800001C0495C4293482F8111F0CF08950F93EA
:1044900000E020E040E060E087EB96E00E947F0AC9
:1044A0000F9108957F928F929F92AF92BF92CF9279
:1044B000DF92EF92FF920F931F93CF93DF93CDB7CD
:1044C000DEB7AC970FB6F894DEBF0FBECDBF7C0150
:1044D000762E942E852E20E2B22ECE0101966C010E
:1044E000FC012B2D11922A95E9F70FEF2FEF4FEFDB
:1044F0006FEF86960E947F0A88E993E09AA389A3CA
:1045000089A59AA5ABA5BCA58BA39CA3ADA3BEA36F
:1045100087010D5B1F4F43E450E0BE016F5D7F4F8D
:10452000C8010E949C0F019609F4BFC081E08983F5
:104530008A8386E0A82EAB821C82F7016481758194
:10454000868197810E94B92C6D837E838F839887A3
:1045500089869A8680E890E09C878B874CE150E0C2
:10456000B601C8010E94A80FF6012B2D11922A95C1
:10457000E9F7470188E0880E911CF401D60101900B
:104580000D92AA94E1F740E150E0B601C8010E9403
:10459000A80FF6011192BA94E9F796E0A92EB12C72
:1045A00040E250E0B601C8010E94A80FF1E0AF1A46
:1045B000B108B1F783E6898392E89A8393E59B83F8
:1045C0008C8385E38D8381E08E837F829DE3988752
:1045D00097E099878A8786E0F401DE011B960190B7
:1045E0000D928A95E1F78CE0898B8A8B66EE73E0F9
:1045F000CE0143960E941D2AF7014385BE01675EE6
:104600007F4FC7010E943222F7014485BE01655EDB
:104610007F4FC7010E943222F7014585BE01635ECC
:104620007F4FC7010E9432224EE150E0B601C8011F
:104630000E94A80FF3E07F121EC082E3898384E00A
:104640008A83F70196859B8397859C8390899D83B8
:1046500091899E8396E39F838887828D8987838D46
:104660008A87848D8B87858D8C874CE050E0B601DE
:10467000C8010E94A80F87E3898386E08A8391E0BE
:104680009B8393E09C838D838FE08E838AE38F836B
:104690008BE388878FEF898749E050E0B601C80136
:1046A0000E94A80FC8010E94A40FAC960FB6F89400
:1046B000DEBF0FBECDBFDF91CF911F910F91FF9055
:1046C000EF90DF90CF90BF90AF909F908F907F90B2
:1046D00008952F923F924F925F926F927F928F92A6
:1046E0009F92AF92BF92DF92EF92FF920F931F9330
:1046F000CF93DF93CDB7DEB7E4970FB6F894DEBF64
:104700000FBECDBF7C011A012B0139010E941C078D
:104710004B015C0187010D5B1F4FC8010E944A10CD
:1047200018161906A4F00E941C07DC01CB01881999
:104730009909AA09BB09281639064A065B06F0F052
:1047400062E370E080E090E00E944D07E6CF42E235
:1047500050E0BE016F5F7F4FC8010E94E50F898165
:10476000823031F4F801848995898334910541F0D0
:10477000D12CC8010E94860F8D2D5FC18FEF5DC1C6
:104780006D817E818F8198850E94B92C4B015C01DF
:10479000F301608371838283938346E050E0B70125
:1047A000685F7F4FCE014D960E94FE29892B99F4B8
:1047B000F70180819181A281B38188169906AA06AA
:1047C000BB0648F084819581A681B781881599053B
:1047D000AA05BB0528F4C8010E94860F80E02DC100
:1047E00089899A89AB89BC89F70186879787A08BCD
:1047F000B18B8EECA82EB12CC8010E94BC0FF1E049
:10480000AF1AB108C9F7D12CC70182969AA789A718
:10481000F701B696FCA7EBA708969EA78DA73C9735
:104820004F01899698AB8FA73897FAABE9AB170180
:10483000F6E12F0E311CC5979CAB8BABC8010E94D3
:104840006C0F181619060CF094CFC8010E94BC0F0B
:104850008333910509F4CBC0FCF481309105C9F193
:104860001CF4892B59F3DDC083309105D1F10697F3
:1048700009F0D7C0C8010E94BC0F5C0144E050E0C1
:104880006BA97CA9C8010E94E50F412C512CBB24C7
:10489000F4E0AF1AB10840C08A33910509F47BC037
:1048A0003CF48533910569F0C69709F440C0B9C05E
:1048B0008B33910509F485C08F3F910509F4BECF74
:1048C000B0C0C8010E94BC0FC8010E94BC0FD82E06
:1048D000B5CFC8010E94BC0F44E050E069A97AA995
:1048E0003AC0C8010E94BC0F5C0144E050E0B10135
:1048F000C8010E94E50F412C512CBB2494E0A91A59
:10490000B1084A145B040CF099CFC8010E94BC0F97
:10491000EFEF4E1A5E0AF5CF4A145B040CF08ECF0F
:10492000C8010E94BC0F8FEF481A580AF5CFC80182
:104930000E94BC0FB82EF701828D811110C0838DAB
:1049400081110DC0848D81110AC0858D811107C030
:1049500044E050E0B401C8010E94E50F6FCFEFA51D
:10496000F8A94080518062807380B401CE018396A3
:104970000E948B0A8DA19EA1AFA1B8A584159505B3
:10498000A605B70529F3BB2009F458CFC8010E943A
:10499000BC0FBA94F8CFC8010E94BC0F44E050E0AD
:1049A0006BA57CA5C8010E94E50FF70166A177A160
:1049B00080A591A50E94B92C66A377A380A791A793
:1049C0003DCFC8010E94BC0F44E050E06DA57EA51C
:1049D000C8010E94E50FF70162A573A584A595A5FE
:1049E0000E94B92C62A773A784A795A727CFC801F7
:1049F0000E94BC0F44E050E069A57AA5C8010E945E
:104A0000E50FF70162A173A184A195A10E94B92CC1
:104A100062A373A384A395A366A777A780AB91AB8A
:104A20000DCFC8010E94BC0FB82EBB2009F406CFE1
:104A3000C8010E94BC0FBA94F8CFE4960FB6F89460
:104A4000DEBF0FBECDBFDF91CF911F910F91FF90C1
:104A5000EF90DF90BF90AF909F908F907F906F907E
:104A60005F904F903F902F9008952F923F924F92DA
:104A70005F926F927F928F929F92AF92BF92CF92EE
:104A8000DF92EF92FF920F931F93CF93DF93CDB7F7
:104A9000DEB727970FB6F894DEBF0FBECDBF8C01EF
:104AA00020ED37E040E050E061E070E080E090E031
:104AB0000E94D821D80114966D937D938D939C9379
:104AC0001797F80160837183828393835801F3E41D
:104AD000AF0EB11CC5010E94870F64E470E0C501F0
:104AE0000E941D10882309F43CC10E941C072B0161
:104AF0003C01812C912C1D82C8018E5B9F4F9F83AE
:104B00008E8343E0342E58EEC52E53E0D52EE12C93
:104B1000F12C62E0262EAE81BF818C91833009F4A6
:104B200007C1811120C0F80184819581A681B781D8
:104B30000196A11DB11D84839583A683B7830E942E
:104B40001C076419750986099709A70196010E9437
:104B5000782CA90161E0C8010E94522281E0AE8157
:104B6000BF818C93C6C08430F9F4F80184819581AB
:104B7000A681B7810196A11DB11D84839583A6836B
:104B8000B7830E941C076419750986099709A70154
:104B900096010E94782CA90163E0C8010E9452226C
:104BA000AE81BF812C92A5C0813061F5F80142AD84
:104BB00053AD64AD75AD9E012F5F3F4FC8010E949C
:104BC00069238D83823009F094C089819A81AB81F9
:104BD000BC81F80184839583A683B7830E941C0758
:104BE0006419750986099709A70196010E94782C16
:104BF000A90163E0C8010E945222ED81AE81BF810C
:104C0000EC937EC0823009F074C0D801DA964D91E1
:104C10005D916D917C91DD979E012F5F3F4FC801A3
:104C20000E9469238D83853009F05CC0EE81FF818D
:104C30003082F80182A193A1A4A1B5A1892B8A2B6E
:104C40008B2B41F484E893E0A0E0B0E082A393A32F
:104C5000A4A3B5A3F80186A197A1A0A5B1A5892B0E
:104C60008A2B8B2B61F482A193A1A4A1B5A1B69547
:104C7000A7959795879586A397A3A0A7B1A7F801B5
:104C800082A593A5A4A5B5A5892B8A2B8B2BA9F466
:104C900082A193A1A4A1B5A1AC01BD0123E07695A9
:104CA0006795579547952A95D1F7841B950BA60BC9
:104CB000B70B82A793A7A4A7B5A7F80186A197A1D0
:104CC000A0A5B1A586A797A7A0ABB1AB82A593A5D8
:104CD000A4A5B5A582AB93ABA4ABB5AB8824839454
:104CE000912C0EC0FD81F63021F4AE81BF811C9263
:104CF00007C0BD81BF3F21F4EE81FF8110821D827C
:104D0000F1E08F16910409F406CF0E941C07DC0124
:104D1000CB0184199509A609B709F80126A937A975
:104D200040AD51AD281739074A075B0708F0F3CEAD
:104D3000C5010E94870FF80184819581A681B78102
:104D40000196A11DB11D84839583A683B7830E941C
:104D50001C07F801FE966083718382839383C401EC
:104D600002C080E090E027960FB6F894DEBF0FBE39
:104D7000CDBFDF91CF911F910F91FF90EF90DF900A
:104D8000CF90BF90AF909F908F907F906F905F90EB
:104D90004F903F902F900895CF92DF92EF92FF9225
:104DA0000F931F93CF93DF93EC016B011AA21BA209
:104DB0001CA21DA21EA21FA218A619A61AA61BA6F7
:104DC0001CA61DA62EAB3FAB48AF59AFEAAEFBAE5B
:104DD0000CAF1DAF8C01085F1F4F86E0F8011192E8
:104DE0008A95E9F7CE010E94FF2186E0F601D801FD
:104DF00001900D928A95E1F7FE01EE5BFF4F108264
:104E0000CE01DF91CF911F910F91FF90EF90DF9036
:104E1000CF900C943525CF92DF92EF92FF920F93B3
:104E20001F93CF93DF93EC010E941C076B017C0161
:104E30008E01025C1F4FF80180819181A281B381B4
:104E4000A7019601281B390B4A0B5B0BCA01B9015C
:104E5000683E33E073078105910508F441C028EEF0
:104E600033E040E050E00E94782CC61AD70AE80AE6
:104E7000F90AF801C082D182E282F3828EA59FA551
:104E8000A8A9B9A969017A01CC0CDD1CEE1CFF1C94
:104E90008C159D05AE05BF0528F41EA61FA618AAF1
:104EA00019AA08C0821B930BA40BB50B8EA79FA752
:104EB000A8ABB9AB8AA99BA9ACA9BDA98C159D05C6
:104EC000AE05BF0528F41AAA1BAA1CAA1DAA08C071
:104ED000821B930BA40BB50B8AAB9BABACABBDABEE
:104EE0008EA59FA5A8A9B9A9892B8A2B8B2B69F41C
:104EF000FE01EE5BFF4F8081833039F484E08083D4
:104F0000CE010E943525019602C080E090E04AA9BA
:104F10005BA96CA97DA9452B462B472B81F4FE018B
:104F2000EE5BFF4F2081233011F0211108C0108269
:104F3000CE010E94FF21CE010E9435250396DF910C
:104F4000CF911F910F91FF90EF90DF90CF90089538
:104F5000CF93DF938230910510F482E090E0E091EE
:104F6000BF06F091C00620E030E0C0E0D0E030970E
:104F700011F14081518148175907C0F0481759076E
:104F800061F482819381209719F09B838A832BC0DF
:104F90009093C0068093BF0626C02115310519F0F5
:104FA0004217530718F49A01BE01DF01EF01028096
:104FB000F381E02DDCCF2115310509F1281B390BD8
:104FC0002430310590F412968D919C9113976115C0
:104FD000710521F0FB019383828304C09093C00686
:104FE0008093BF06FD01329644C0FD01E20FF31F1E
:104FF00081939193225031092D933C933AC0209193
:10500000BD063091BE06232B41F420910201309160
:1050100003013093BE062093BD062091000130911C
:1050200001012115310541F42DB73EB7409104012E
:1050300050910501241B350BE091BD06F091BE0691
:10504000E217F307A0F42E1B3F0B2817390778F05F
:10505000AC014E5F5F4F2417350748F04E0F5F1FBE
:105060005093BE064093BD068193919302C0E0E049
:10507000F0E0CF01DF91CF9108950F931F93CF936D
:10508000DF93009709F48CC0FC01329713821282DF
:105090000091BF061091C0060115110581F4208111
:1050A0003181820F931F2091BD063091BE062817D3
:1050B000390779F5F093BE06E093BD0671C0D801BB
:1050C00040E050E0AE17BF0750F412962D913C918E
:1050D0001397AD012115310509F1D901F3CF9D01D8
:1050E000DA013383228360817181860F971F8217D3
:1050F000930769F4EC0128813981260F371F2E5F51
:105100003F4F318320838A819B8193838283452B08
:1051100029F4F093C006E093BF0642C01396FC93B7
:10512000EE931297ED01499159919E01240F351F7D
:10513000E217F30771F480819181840F951F029625
:1051400011969C938E938281938113969C938E9358
:105150001297E0E0F0E0D80112968D919C911397A0
:10516000009719F0F8018C01F6CF8D919C91980170
:105170002E5F3F4F820F931F2091BD063091BE06D8
:105180002817390769F4309729F41092C006109255
:10519000BF0602C0138212821093BE060093BD06A2
:1051A000DF91CF911F910F9108958F929F92AF92AF
:1051B000BF92CF92DF92EF92FF92CF93DF93EC01F9
:1051C000688179818A819B816115710581059105CD
:1051D00021F464E279ED8BE597E02DE133EF41E0D6
:1051E00050E00E949A2C49015A019B01AC01A7EAA8
:1051F000B1E40E94C02C6B017C01ACEEB4EFA501C0
:1052000094010E94CE2CDC01CB018C0D9D1DAE1DA6
:10521000BF1DB7FF03C00197A109B04888839983D8
:10522000AA83BB83BC01CD019F77DF91CF91FF9013
:10523000EF90DF90CF90BF90AF909F908F900895A8
:105240000E94D528089586E091E00E94D52808950F
:105250006093060170930701809308019093090100
:105260000895A0E0B0E0E7E3F9E20C94D72CEC015C
:10527000009721F4CB010E94A827B8C0FC01E60FDB
:10528000F71F9C0122503109E217F30708F4ACC064
:10529000D9010D911C91119706171707B0F0053031
:1052A000110508F49FC0C80104978617970708F4F2
:1052B00099C002501109061B170B019311936D93AE
:1052C0007C93CF010E943D288DC05B01A01AB10ADA
:1052D0004C01800E911EA091BF06B091C00640E027
:1052E00050E0E12CF12C109709F44AC0A815B9053B
:1052F000D1F56D907C901197630182E0C80ED11CAE
:10530000CA14DB0480F1A3014A195B096A0182E037
:10531000C80ED11C1296BC9012971396AC91B5E0B2
:10532000CB16D10440F0B282A38351834083D901CC
:105330006D937C930AC00E5F1F4FC301800F911FB6
:10534000F90191838083EB2DFA2FE114F10431F000
:10535000D7011396FC93EE93129744C0F093C006C6
:10536000E093BF063FC08D919C9111974817590754
:1053700008F4AC017D0112960D90BC91A02DB3CF25
:105380008091BD069091BE0688159905E1F44617F7
:105390005707C8F48091000190910101009741F4F2
:1053A0008DB79EB74091040150910501841B950B68
:1053B000E817F907C8F4F093BE06E093BD06F901BB
:1053C000718360830FC0CB010E94A8277C010097E6
:1053D00059F0A801BE010E940B2ACE010E943D286F
:1053E000C70104C0CE0102C080E090E0CDB7DEB7B7
:1053F000EEE00C94F32CF8940C94352DFB01DC01B9
:1054000004C08D910190801921F441505040C8F79B
:10541000881B990B0895FB01DC0102C001900D92DD
:1054200041505040D8F70895FB01DC018D91019067
:1054300080190110D9F3990B0895FB01DC0101904B
:105440000D920020E1F708954532510520F44230D5
:1054500010F00C942F2AFB011082CB010895BB277A
:105460004A3031F4992322F4BDE2909581959F4F03
:105470000C94462A4532510520F4423010F00C9429
:10548000452AFB011082CB010895BB27FB0155275C
:10549000AA27880F991FAA1FA41710F0A41B839591
:1054A0005051B9F7A05DAA3308F0A95DA193009708
:1054B00079F7B111B1931192CB010C94682C50582B
:1054C000BB27AA270E94772A0C94C12B0E94B32BDA
:1054D00038F00E94BA2B20F039F49F3F19F426F4DB
:1054E0000C94B02B0EF4E095E7FB0C94AA2BE92F5B
:1054F0000E94D22B58F3BA176207730784079507E7
:1055000020F079F4A6F50C94F42B0EF4E0950B2E14
:10551000BA2FA02D0B01B90190010C01CA01A00105
:105520001124FF27591B99F0593F50F4503E68F160
:105530001A16F040A22F232F342F4427585FF3CFA1
:10554000469537952795A795F0405395C9F77EF472
:105550001F16BA0B620B730B840BBAF09150A1F0BB
:10556000FF0FBB1F661F771F881FC2F70EC0BA0F41
:10557000621F731F841F48F4879577956795B795C9
:10558000F7959E3F08F0B0CF9395880F08F09927C4
:10559000EE0F9795879508950E94E02A0C94C12BF1
:1055A0000E94BA2B58F00E94B32B40F029F45F3FC1
:1055B00029F00C94AA2B51110C94F52B0C94B02BC0
:1055C0000E94D22B68F39923B1F3552391F3951BD5
:1055D000550BBB27AA2762177307840738F09F5F14
:1055E0005F4F220F331F441FAA1FA9F335D00E2E81
:1055F0003AF0E0E832D091505040E695001CCAF7EE
:105600002BD0FE2F29D0660F771F881FBB1F2617B0
:1056100037074807AB07B0E809F0BB0B802DBF0187
:10562000FF2793585F4F3AF09E3F510578F00C9456
:10563000AA2B0C94F52B5F3FE4F3983ED4F38695A8
:1056400077956795B795F7959F5FC9F7880F911D77
:105650009695879597F90895E1E0660F771F881F63
:10566000BB1F621773078407BA0720F0621B730B16
:10567000840BBA0BEE1F88F7E09508950E94DA2B91
:1056800088F09F5798F0B92F9927B751B0F0E1F003
:10569000660F771F881F991F1AF0BA95C9F714C0B3
:1056A000B13091F00E94F42BB1E008950C94F42BEA
:1056B000672F782F8827B85F39F0B93FCCF38695EC
:1056C00077956795B395D9F73EF490958095709549
:1056D00061957F4F8F4F9F4F0895E89409C097FBC6
:1056E0003EF490958095709561957F4F8F4F9F4FB9
:1056F0009923A9F0F92F96E9BB279395F6958795FD
:1057000077956795B795F111F8CFFAF4BB0F11F4BF
:1057100060FF1BC06F5F7F4F8F4F9F4F16C0882366
:1057200011F096E911C0772321F09EE8872F762F9C
:1057300005C0662371F096E8862F70E060E02AF0DD
:105740009A95660F771F881FDAF7880F96958795C9
:1057500097F9089597F99F6780E870E060E00895F1
:105760009FEF80EC089500240A9416161706180679
:105770000906089500240A94121613061406050655
:105780000895092E0394000C11F4882352F0BB0FE6
:1057900040F4BF2B11F460FF04C06F5F7F4F8F4F49
:1057A0009F4F089557FD9058440F551F59F05F3F84
:1057B00071F04795880F97FB991F61F09F3F79F033
:1057C00087950895121613061406551FF2CF4695B5
:1057D000F1DF08C0161617061806991FF1CF869537
:1057E0007105610508940895E894BB27662777271B
:1057F000CB0197F908950E940E2C0C94C12B0E94A6
:10580000B32B38F00E94BA2B20F0952311F00C94A2
:10581000AA2B0C94B02B11240C94F52B0E94D22BA4
:1058200070F3959FC1F3950F50E0551F629FF001F3
:10583000729FBB27F00DB11D639FAA27F00DB11D0C
:10584000AA1F649F6627B00DA11D661F829F222795
:10585000B00DA11D621F739FB00DA11D621F839F1C
:10586000A00D611D221F749F3327A00D611D231FF2
:10587000849F600D211D822F762F6A2F11249F5740
:1058800050409AF0F1F088234AF0EE0FFF1FBB1F43
:10589000661F771F881F91505040A9F79E3F510502
:1058A00080F00C94AA2B0C94F52B5F3FE4F3983E08
:1058B000D4F3869577956795B795F795E7959F5FAC
:1058C000C1F7FE2B880F911D9695879597F908953E
:1058D000DC01FC01672F71917723E1F7329704C057
:1058E0007C916D9370836291AE17BF07C8F30895E2
:1058F000A1E21A2EAA1BBB1BFD010DC0AA1FBB1FD4
:10590000EE1FFF1FA217B307E407F50720F0A21B45
:10591000B30BE40BF50B661F771F881F991F1A94B2
:1059200069F760957095809590959B01AC01BD01DC
:10593000CF010895052E97FB1EF400940E94B12C10
:1059400057FD07D00E94782C07FC03D04EF40C942E
:10595000B12C50954095309521953F4F4F4F5F4F5B
:10596000089590958095709561957F4F8F4F9F4FCB
:105970000895692796276927782787277827089524
:105980000E94102DA59F900DB49F900DA49F800D97
:10599000911D11240895B7FF0C94C02C0E94C02CB7
:1059A000821B930B08952F923F924F925F926F92BA
:1059B0007F928F929F92AF92BF92CF92DF92EF929F
:1059C000FF920F931F93CF93DF93CDB7DEB7CA1B20
:1059D000DB0B0FB6F894DEBF0FBECDBF09942A884B
:1059E000398848885F846E847D848C849B84AA84F3
:1059F000B984C884DF80EE80FD800C811B81AA8180
:105A0000B981CE0FD11D0FB6F894DEBF0FBECDBF4A
:105A1000ED010895EE0FFF1F0590F491E02D09941C
:105A2000A29FB001B39FC001A39F700D811D1124DF
:105A3000911DB29F700D811D1124911D0895F9993A
:105A4000FECF92BD81BDF89A992780B50895262F83
:105A5000F999FECF1FBA92BD81BD20BD0FB6F89453
:105A6000FA9AF99A0FBE0196089510E0C5E6D0E0C3
:105A700004C0FE010E940A2D2196C636D107C9F73F
:045A8000F894FFCFC8
:105A84000000C10620000100000007000600BA2241
:105A9400B922B82201005E00000052756E6E696E74
:105AA400672053657475702E2E004661696C6564B9
:105AB40020746F20636F6E66696775726520457424
:105AC4006865726E6574207573696E672044484317
:105AD400502C2072657374617274696E6720736BE5
