:100000000C9466000C948E000C948E000C948E0060
:100010000C948E000C948E000C94810E0C948E0027
:100020000C948E000C948E000C948E000C948E0018
:100030000C948E000C948E000C948E000C948E0008
:100040000C94A2060C948E000C9464090C949609EE
:100050000C948E000C948E000C948E000C948E00E8
:100060000C9457200C948E00000000080002010040
:100070000003040700000000000000000102040863
:100080001020408001020408102001020408102002
:10009000040404040404040402020202020203032E
:1000A0000303030300000000250028002B000000CC
:1000B0000000240027002A009000C609760A7A0E64
:1000C0007C112C1881185F1F1722E40011241FBE19
:1000D000CFEFD8E0DEBFCDBF13E0A0E0B1E0E4E2B7
:1000E000FAE502C005900D92A83DB107D9F726E0C8
:1000F000A8EDB3E001C01D92A63AB207E1F710E007
:10010000C5E6D0E004C02197FE010E94DA2CCC3570
:10011000D107C9F70E94F4090C94CB290C94000074
:100120000F9300E020E040E060E082E994E00E946C
:100130004F0A01E021E041E06AE08CE894E00E948F
:100140004F0A81E794E00E94041186E594E00E9442
:1001500004118BE394E00E94041168ED71E085E1E5
:1001600094E00E94EF0A8BE094E00E94711B8AE009
:1001700094E00E94E70D89E094E00E94E70D81E0A1
:1001800094E00E94000DE8EDF3E080E090E0A6EC42
:10019000B2EC84839583A683B78380879187A287F7
:1001A000B38784879587A687B787808B918BA28B2F
:1001B000B38B158A168A178A108E118E128E138EA3
:1001C000148E158E0F91089585E194E00C94810AA8
:1001D0000F931F93CF93DF9300D000D000D0CDB703
:1001E000DEB78C0140910E0150910F0182E893E03F
:1001F0009A83898380918E0490918F04A0919004BA
:10020000B09191048B839C83AD83BE83BE016F5FED
:100210007F4F8BE394E00E946C0FB8018BE394E076
:100220000E946D088BE394E00E94740F88E1EBE17B
:10023000F4E0DF011D928A95E9F726960FB6F8944F
:10024000DEBF0FBECDBFDF91CF911F910F910895FB
:100250008F929F92AF92BF92CF92DF92EF92FF92D6
:100260000F931F93CF93DF9300D000D000D0CDB772
:10027000DEB760E47FE184E495E00E94F80E0E941E
:10028000EC064B015C010E94EC060E943D2B609342
:10029000FD037093FE038093FF039093000426E018
:1002A00040E051EE60E070E081EA94E00E94940C3E
:1002B0006AE171E081EA94E00E94920860E082E0E5
:1002C0000E94FA0761E082E00E94BE0760E082E0DF
:1002D0000E94FA0760E085E00E94FA0761E085E08D
:1002E0000E94BE0760E085E00E94FA0760E086E0B9
:1002F0000E94FA0761E086E00E94BE0760E086E0A7
:100300000E94FA0761E083E00E94FA0761E083E05F
:100310000E94BE0761E083E00E94FA0761E087E087
:100320000E94FA0761E087E00E94BE0761E087E073
:100330000E94FA0761E084E00E94FA0761E084E02D
:100340000E94BE0761E084E00E94FA0795E3E92E6F
:1003500094E0F92E67010091130410911404C80170
:100360000E94EF2CD6018D936D010F5F1F4F1093EC
:10037000140400931304BBE3CB16B4E0DB0659F777
:10038000E6EFF3E0D7018D917D018193BBE3EB169E
:10039000B4E0FB06B9F710EAE12E1FE0F12E00E011
:1003A00010E020E63AEE40E050E065E374E08EE5D0
:1003B00095E00E940217892B61F46AE271E081EAFC
:1003C00094E00E94920860E177E280E090E00E9471
:1003D0001D0768E671E081EA94E00E9492086EE5EC
:1003E00075E0CE0101960E940418BE016F5F7F4F39
:1003F00081EA94E00E94A4086091120170911301B7
:1004000081E794E00E94ED0F60911001709111015D
:1004100086E594E00E94ED0F60910E0170910F014E
:100420008BE394E00E94ED0F6CED75E080E090E0CE
:100430000E941D0767E771E0CE0101960E94EF0A56
:10044000CE0101960E94E800CE0101960E94810A29
:1004500068E871E0CE0101960E94EF0ACE01019694
:100460000E94E800CE0101960E94810A4AE0609154
:100470003B04CE0101960E941B0BCE0101960E9407
:10048000E800CE0101960E94810A69EA71E0CE017E
:1004900001960E94EF0ACE0101960E94E800CE016B
:1004A00001960E94810A4AE060913504CE010196CE
:1004B0000E941B0BCE0101960E94E800CE0101961E
:1004C0000E94810A4AE060913604CE0101960E94A2
:1004D0001B0BCE0101960E94E800CE0101960E94FE
:1004E000810A4AE060913704CE0101960E941B0BFD
:1004F000CE0101960E94E800CE0101960E94810A79
:100500004AE060913804CE0101960E941B0BCE0197
:1005100001960E94E800CE0101960E94810A4AE0FD
:1005200060913904CE0101960E941B0BCE01019609
:100530000E94E800CE0101960E94810A4AE0609183
:100540003A04CE0101960E941B0BCE0101960E9437
:10055000E800CE0101960E94810A80910C019091E1
:100560000D010E94EF2C682F70E080E090E00E9467
:100570003D2B6093D8037093D9038093DA03909353
:10058000DB036CEB71E081EA94E00E947B086CEB8A
:1005900071E0CE0101960E94EF0ACE0101960E9401
:1005A000E800CE0101960E94810A00E010E06DECA7
:1005B00071E081EA94E00E947B084AE050E0B801D3
:1005C00081EA94E00E94490967ED71E081EA94E0D4
:1005D0000E947B0869ED71E081EA94E00E947B084B
:1005E000C8010E94EF2C4AE050E0682F81EA94E0B5
:1005F0000E945D0967ED71E081EA94E00E947B084A
:100600006DEC71E0CE0101960E94EF0ACE010196D9
:100610000E94E800CE0101960E94810A4AE0B801DA
:10062000CE0101960E94480BCE0101960E94E8007F
:10063000CE0101960E94810A69ED71E0CE0101961A
:100640000E94EF0ACE0101960E94E800CE010196B9
:100650000E94810AC8010E94EF2C4AE0682FCE0157
:1006600001960E941B0BCE0101960E94E800CE016C
:1006700001960E94810A0F5F1F4F0830110509F093
:1006800096CF4FEF6EE38BE094E00E94291E882303
:1006900009F494C060EE71E081EA94E00E9492084F
:1006A00060EE71E0CE0101960E94EF0ACE01019644
:1006B0000E94E800CE0101960E94810A40E060E0BD
:1006C0008BE094E00E94C61D40E061E08BE094E086
:1006D0000E94C61D40E062E08BE094E00E94C61DCF
:1006E00040E063E08BE094E00E94C61D40E064E0DF
:1006F0008BE094E00E94C61D40E065E08BE094E052
:100700000E94C61D40E066E08BE094E00E94C61D9A
:1007100040E067E08BE094E00E94C61D40E068E0A6
:100720008BE094E00E94C61D40E069E08BE094E01D
:100730000E94C61D40E06AE08BE094E00E94C61D66
:1007400040E06BE08BE094E00E94C61D41E06CE06D
:100750008BE094E00E94C61D41E06DE08BE094E0E8
:100760000E94C61D41E06EE08BE094E00E94C61D31
:1007700041E06FE08BE094E00E94C61D00E010E0D5
:10078000602F8BE094E00E94F81C90E0002E02C0E5
:10079000880F991F0A94E2F72091EC03BC01622BA9
:1007A0006093EC030F5F1F4F0630110549F78091EE
:1007B0000A0190910B010E94F72C14C067EF71E0C1
:1007C00081EA94E00E94920867EF71E0CE01019601
:1007D0000E94EF0ACE0101960E94E800CE01019628
:1007E0000E94810A0E94EC066B017C0161E172E0CB
:1007F000CE0101960E94EF0ACE0101960E94E80008
:10080000CE0101960E94810AB601681979094AE071
:10081000CE0101960E94740BCE0101960E94E80061
:10082000CE0101960E94810A26960FB6F894DEBF8B
:100830000FBECDBFDF91CF911F910F91FF90EF9031
:10084000DF90CF90BF90AF909F908F900895CF93FF
:10085000DF9300D000D000D0CDB7DEB767E272E002
:1008600081EA94E00E94920867E272E0CE0101966C
:100870000E94EF0ACE0101960E94E800CE01019687
:100880000E94810A64EF71E080E090E00E941D0701
:1008900060E084E00E94FA0726960FB6F894DEBF67
:1008A0000FBECDBFDF91CF910895CF93DF93CDB72A
:1008B000DEB72C970FB6F894DEBF0FBECDBF48E170
:1008C00050E06BE174E081E794E00E94B50F6BE1CA
:1008D00074E0CE0107960E94EF0A6EE372E0CE014B
:1008E00007960E94A00B8823C9F063E472E081EAB6
:1008F00094E00E94920863E472E0CE0101960E94A7
:10090000EF0ACE0101960E94E800CE0101960E94F6
:10091000810A84E495E00E948B0EC2C064E572E017
:10092000CE0107960E94A00B882341F061E082E08F
:100930000E94FA0781E08093ED03B2C061E672E0A5
:10094000CE0107960E94A00B882339F060E082E078
:100950000E94FA071092ED03A3C06FE672E0CE0189
:1009600007960E94A00B882371F06DE772E081EA80
:1009700094E00E94920860E083E00E94FA0781E020
:100980008093F0038DC06BE872E0CE0107960E9461
:10099000A00B882369F06AE972E081EA94E00E9482
:1009A000920861E083E00E94FA071092F00378C099
:1009B00069EA72E0CE0107960E94A00B882371F0CD
:1009C00067EB72E081EA94E00E94920860E087E0C1
:1009D0000E94FA0781E08093F10362C065EC72E047
:1009E000CE0107960E94A00B882369F064ED72E0A7
:1009F00081EA94E00E94920861E087E00E94FA0791
:100A00001092F1034DC063EE72E0CE0107960E9492
:100A1000A00B882341F061E085E00E94FA0781E0A5
:100A20008093EE033DC06AEE72E0CE0107960E940D
:100A3000A00B882339F060E085E00E94FA0710924D
:100A4000EE032EC062EF72E0CE0107960E94A00B6B
:100A5000882371F069EF72E081EA94E00E949208C5
:100A600061E086E00E94FA0781E08093EF0318C0FE
:100A700060E073E0CE0107960E94A00B882339F056
:100A800060E086E00E94FA071092EF0309C068E078
:100A900073E0CE0107960E94A00B81110E942704EB
:100AA000CE0107960E94810A2C960FB6F894DEBFFD
:100AB0000FBECDBFDF91CF9108958F929F92AF92DD
:100AC000BF92CF92DF92EF92FF92CF93DF9300D04D
:100AD00000D000D0CDB7DEB70E94EC064B015C0120
:100AE0006AE18AE094E00E943B0E882369F08AE084
:100AF00094E00E945D0E6093DC037093DD038093AD
:100B0000DE039093DF0314C06EE073E081EA94E0AB
:100B10000E9492086EE073E0CE0101960E94EF0AF7
:100B2000CE0101960E94E800CE0101960E94810A42
:100B30006BE189E094E00E943B0E882369F089E034
:100B400094E00E945D0E6093E0037093E103809354
:100B5000E2039093E30314C064E273E081EA94E05B
:100B60000E94920864E273E0CE0101960E94EF0AAF
:100B7000CE0101960E94E800CE0101960E94810AF2
:100B800081E094E00E94170D8823C9F081E094E091
:100B90000E94450D6093E4037093E5038093E603A0
:100BA0009093E70381E094E00E94960D6093E80340
:100BB0007093E9038093EA039093EB0314C06AE314
:100BC00073E081EA94E00E9492086AE373E0CE0148
:100BD00001960E94EF0ACE0101960E94E800CE0124
:100BE00001960E94810A0E94EC060E943D2B2091F2
:100BF000FD033091FE034091FF03509100040E94D9
:100C00002F2A20E030E04AE754E40E949C2A6093B7
:100C1000F2037093F3038093F4039093F5034091F0
:100C200010015091110182E893E09A8389838091A9
:100C30008E0490918F04A0919004B09191048B83C5
:100C40009C83AD83BE83BE016F5F7F4F86E594E0DA
:100C50000E946C0F45E250E068ED73E086E594E099
:100C60000E94780F86E594E00E94740F6DE473E0B3
:100C700081EA94E00E9492086DE473E0CE0101964F
:100C80000E94EF0ACE0101960E94E800CE01019673
:100C90000E94810A88E1EBE1F4E0DF011D928A9570
:100CA000E9F781E794E00E941A109093340480934E
:100CB00033041816190614F40E94550488E1EBE178
:100CC000F4E0DF011D928A95E9F78EE595E00E9438
:100CD0009F170E94EC066B017C0160E673E0CE0179
:100CE00001960E94EF0ACE0101960E94E800CE0113
:100CF00001960E94810AB601681979094AE0CE017D
:100D000001960E94740BCE0101960E94E800CE016C
:100D100001960E94810A60ED77E080E090E00E94F9
:100D20001D0726960FB6F894DEBF0FBECDBFDF912C
:100D3000CF91FF90EF90DF90CF90BF90AF909F90BA
:100D40008F9008951F920F920FB60F9211242F9338
:100D50003F938F939F93AF93BF938091990490910A
:100D60009A04A0919B04B0919C043091980423E0D4
:100D7000230F2D3720F40196A11DB11D05C026E8D3
:100D8000230F0296A11DB11D20939804809399040E
:100D900090939A04A0939B04B0939C0480919D042B
:100DA00090919E04A0919F04B091A0040196A11D72
:100DB000B11D80939D0490939E04A0939F04B093D3
:100DC000A004BF91AF919F918F913F912F910F9070
:100DD0000FBE0F901F9018952FB7F894609199044B
:100DE00070919A0480919B0490919C042FBF089568
:100DF0003FB7F89480919D0490919E04A0919F0428
:100E0000B091A00426B5A89B05C02F3F19F001960C
:100E1000A11DB11D3FBFBA2FA92F982F8827820F80
:100E2000911DA11DB11DBC01CD0142E0660F771FD0
:100E3000881F991F4A95D1F708958F929F92AF927C
:100E4000BF92CF92DF92EF92FF926B017C010E94E2
:100E5000F8064B015C01C114D104E104F10401F175
:100E60000E9494070E94F806DC01CB0188199909B9
:100E7000AA09BB09883E9340A105B10560F321E0B2
:100E8000C21AD108E108F10888EE880E83E0981EA6
:100E9000A11CB11CC114D104E104F10419F7DBCF8A
:100EA000FF90EF90DF90CF90BF90AF909F908F908A
:100EB0000895789484B5826084BD84B5816084BDD2
:100EC00085B5826085BD85B5816085BDEEE6F0E0C3
:100ED000808181608083E1E8F0E01082808182601F
:100EE0008083808181608083E0E8F0E080818160A0
:100EF0008083E1EBF0E0808184608083E0EBF0E0D0
:100F0000808181608083EAE7F0E080818460808373
:100F1000808182608083808181608083808180681D
:100F200080831092C10008950895833081F028F4E1
:100F3000813099F08230A1F008958730A9F088308F
:100F4000B9F08430D1F4809180008F7D03C080910E
:100F500080008F7780938000089584B58F7702C0DA
:100F600084B58F7D84BD08958091B0008F7703C0D4
:100F70008091B0008F7D8093B0000895CF93DF9370
:100F800090E0FC01E458FF4F2491FC01E057FF4F33
:100F90008491882361F190E0880F991FFC01E2554C
:100FA000FF4FC591D491FC01EC55FF4FA591B49131
:100FB000611109C09FB7F8948881209582238883A6
:100FC000EC912E230BC0623061F49FB7F894388106
:100FD000822F809583238883EC912E2B2C939FBFA7
:100FE00006C08FB7F894E8812E2B28838FBFDF913E
:100FF000CF9108951F93CF93DF93282F30E0F9010D
:10100000E859FF4F8491F901E458FF4FD491F90159
:10101000E057FF4FC491CC23C9F0162F81110E94D5
:101020009507EC2FF0E0EE0FFF1FEC55FF4FA59159
:10103000B4918FB7F894111105C09C91ED2FE095F4
:10104000E92302C0EC91ED2BEC938FBFDF91CF91A0
:101050001F91089580E090E00895CF92DF92EF9283
:10106000FF920F931F93CF93DF936C017A018B0153
:10107000C0E0D0E0CE15DF0589F0D8016D918D017B
:10108000D601ED91FC910190F081E02DC60109950A
:10109000892B11F47E0102C02196ECCFC701DF91AC
:1010A000CF911F910F91FF90EF90DF90CF90089517
:1010B0006115710579F0FB0101900020E9F7319786
:1010C000AF01461B570BDC01ED91FC910280F381CF
:1010D000E02D099480E090E00895DC01ED91FC9111
:1010E000DB0114964D915C9115976D917C91028076
:1010F000F381E02D09940C945808DC01ED91FC91EA
:101100000190F081E02D0994DB01ED91FC911197A4
:101110000190F081E02DBC01CD0109946FE673E0F0
:101120000C9458080F931F93CF93DF93EC010E9408
:1011300058088C01CE010E948E08800F911FDF910C
:10114000CF911F910F9108950F931F93CF93DF932A
:10115000EC010E9484088C01CE010E948E08800F51
:10116000911FDF91CF911F910F9108954F925F9240
:101170006F927F92EF92FF920F931F93CF93DF9323
:10118000CDB7DEB7A1970FB6F894DEBF0FBECDBFC7
:101190007C01FA01CB0119A2223008F42AE08E0169
:1011A0000F5D1F4F422E512C612C712CBF01A301EA
:1011B00092010E94482CF901CA01015011096A30BC
:1011C00014F4605D01C0695CD8016C93232B242B5F
:1011D000252B61F7B801C7010E945808A1960FB6E8
:1011E000F894DEBF0FBECDBFDF91CF911F910F915D
:1011F000FF90EF907F906F905F904F900895CF9207
:10120000DF92EF92FF920F931F93CF93DF93EC0146
:101210006A017B012115310579F4E881F98101909A
:10122000F081E02D642FDF91CF911F910F91FF90FE
:10123000EF90DF90CF9009942A303105E9F477FFE1
:101240001AC06DE20E947D088C0144275527BA011F
:101250004C195D096E097F092AE0CE010E94B6088B
:10126000800F911FDF91CF911F910F91FF90EF9011
:10127000DF90CF9008952AE0B701A601CE01DF915B
:10128000CF911F910F91FF90EF90DF90CF900C9432
:10129000B6089A01AB01770F660B770B0C94FF0829
:1012A0002115310541F4DC01ED91FC910190F081B3
:1012B000E02D642F09940C94B6089A01462F50E053
:1012C00060E070E00C9450091F920F920FB60F92DD
:1012D00011242F938F939F93EF93FF93E091B10489
:1012E000F091B2048081E091B704F091B80482FDDE
:1012F00012C090818091BA048F5F8F732091BB04DC
:10130000821751F0E091BA04F0E0EF55FB4F958F52
:101310008093BA0401C08081FF91EF919F918F91DA
:101320002F910F900FBE0F901F9018951F920F9244
:101330000FB60F9211242F933F934F935F936F93A8
:101340007F938F939F93AF93BF93EF93FF9381EA24
:1013500094E00E940A0CFF91EF91BF91AF919F9191
:101360008F917F916F915F914F913F912F910F904E
:101370000FBE0F901F90189581EA94E00E94BF0B5A
:1013800021E0892B09F420E0822F0895E1EAF4E0BE
:101390001382128288EE93E0A0E0B0E0848395830C
:1013A000A683B78388E893E09183808385EC90E0FF
:1013B0009587848784EC90E09787868780EC90E01F
:1013C000918B808B81EC90E0938B828B82EC90E010
:1013D000958B848B86EC90E0978B868B118E128E8A
:1013E000138E148E089508950E9459070E94F309E0
:1013F0000E942801CCEFDBE00E945D052097E1F31D
:101400000E94FC0BF9CF8F929F92AF92BF92CF9226
:10141000DF92EF92FF920F931F93CF93DF937C01A4
:101420008B016C0182E0C80ED11C4701E5E08E0EF5
:10143000911CC0E0D0E0F60161916F014AE050E0FC
:10144000C8010E945D095C016EE2C8010E947D082E
:101450008A0D9B1DC80FD91FC814D90461F74AE033
:1014600050E0F7016581C8010E945D098C0F9D1F46
:10147000DF91CF911F910F91FF90EF90DF90CF9070
:10148000BF90AF909F908F90089522E833E0FC01C9
:1014900031832083128213821482158208950F9360
:1014A000FC0182E893E091838083628343832483F9
:1014B00005830F91089522E833E0FC0131832083F6
:1014C000FB014081518162817381FC01428353831E
:1014D000648375830895FB0140815181628173812A
:1014E000FC0142835383648375830895EEE3F5E042
:1014F00082E893E0918380831282138214821582A2
:101500000895FC01808191810C940D28CF93DF9385
:10151000EC0188819981009711F00E940D281982B1
:1015200018821D821C821B821A82DF91CF9108953E
:101530000F931F93CF93DF93EC018B016F5F7F4F6E
:10154000888199810E940129009731F099838883CD
:101550001B830A8381E001C080E0DF91CF911F915E
:101560000F910895CF93DF93EC0188819981892BA6
:1015700029F08A819B818617970760F4CE010E942B
:10158000980A882341F08C819D81892B19F4E88188
:10159000F981108281E0DF91CF910895EF92FF925F
:1015A0000F931F93CF93DF93EC017B018A01BA0164
:1015B0000E94B20A811104C0CE010E94860A07C0AF
:1015C0001D830C83B701888199810E94ED29CE018A
:1015D000DF91CF911F910F91FF90EF900895FC0143
:1015E0001182108213821282158214826115710594
:1015F00051F0FB0101900020E9F73197AF01461B44
:10160000570B0C94CE0A0895CF93DF93EC0161152C
:10161000710559F0FB0101900020E9F73197AF0106
:10162000461B570B0E94CE0A02C00E94860ACE01BA
:10163000DF91CF9108950F931F93CF93DF93CDB791
:10164000DEB729970FB6F894DEBF0FBECDBF8C0171
:10165000862FF80111821082138212821582148261
:1016600050E0BE016F5F7F4F90E00E940A2ABE01EA
:101670006F5F7F4FC8010E94040B29960FB6F89444
:10168000DEBF0FBECDBFDF91CF911F910F910895A7
:101690000F931F93CF93DF93CDB7DEB762970FB64B
:1016A000F894DEBF0FBECDBF8C01CB01F8011182D3
:1016B0001082138212821582148250E0BE016F5F85
:1016C0007F4F0E94F429BE016F5F7F4FC8010E94C7
:1016D000040B62960FB6F894DEBF0FBECDBFDF914C
:1016E000CF911F910F9108950F931F93CF93DF9385
:1016F000CDB7DEB761970FB6F894DEBF0FBECDBF92
:101700008C01CB01F80111821082138212821582A2
:10171000148250E0BE016F5F7F4F0E940A2ABE0113
:101720006F5F7F4FC8010E94040B61960FB6F8945B
:10173000DEBF0FBECDBFDF91CF911F910F910895F6
:10174000FC0124813581232B31F421E061157105E1
:10175000A1F0FB0108C0FC01808191816115710538
:1017600031F421E0FC018081882339F005C00E941A
:10177000E42921E0892B09F020E0822F0895FC0163
:10178000918D228D892F90E0805C9F4F821B910963
:101790008F7399270895FC01918D828D981731F0F0
:1017A000828DE80FF11D858D90E008958FEF9FEFFA
:1017B0000895FC01918D828D981761F0828DDF0173
:1017C000A80FB11D5D968C91928D9F5F9F73928F34
:1017D00090E008958FEF9FEF0895FC01538D448DA5
:1017E000252F30E0842F90E0821B930B541710F0CC
:1017F000CF960895019708958CEB99E0892B49F0D5
:1018000080E090E0892B29F00E94BC0981110C94A2
:1018100000000895FC01848DDF01A80FB11DA35ABB
:10182000BF4F2C91848D90E001968F739927848F00
:10183000A689B7892C93A089B1898C9180648C93F7
:10184000938D848D981306C00288F389E02D8081E2
:101850008F7D80830895CF93DF93EC01888D88235B
:10186000C9F0EA89FB89808185FD05C0A889B9890D
:101870008C9186FD0FC00FB607FCF5CF808185FFE8
:10188000F2CFA889B9898C9185FFEDCFCE010E9456
:101890000A0CE7CFDF91CF910895EF92FF920F935B
:1018A0001F93CF93DF93EC0181E0888F9B8D8C8D0C
:1018B000981305C0E889F989808185FD24C0F62E3A
:1018C0000B8D10E00F5F1F4F0F731127E02E8C8DD3
:1018D000E8120CC00FB607FCFACFE889F9898081BD
:1018E00085FFF5CFCE010E940A0CF1CF8B8DFE0152
:1018F000E80FF11DE35AFF4FF0820B8FEA89FB8955
:101900008081806207C0EE89FF896083E889F98958
:1019100080818064808381E090E0DF91CF911F918E
:101920000F91FF90EF900895CF92DF92EF92FF9288
:101930001F93CF93DF93EC016A017B01122FE8899B
:10194000F98982E080834115514E61057105B1F03E
:1019500060E079E08DE390E0A70196010E94482CB9
:10196000DA01C9010197A109B109B695A795979523
:101970008795AC01411580E15807A8F0E889F989FD
:10198000108260E874E88EE190E0A70196010E9461
:10199000482CBA01A9014150510961097109769594
:1019A000679557954795EC85FD855083EE85FF85B6
:1019B0004083188EEC89FD891083EA89FB89808138
:1019C00080618083EA89FB89808188608083EA89DD
:1019D000FB89808180688083EA89FB8980818F7D93
:1019E0008083DF91CF911F91FF90EF90DF90CF9098
:1019F0000895DC01ED91FC910190F081E02D0994B6
:101A0000089560E470E08CED95E00E94DD1E6EEFBD
:101A100070E08CED95E00E94F90C8CED95E00E9451
:101A20005C1F6FE070E080E090E00C941D07CF93A6
:101A3000DF93EC018CED95E00E94C91ECE010E945F
:101A4000010D60E470E08CED95E00E94DD1E67EE14
:101A500070E08CED95E00E94F90C8CED95E00E9411
:101A60005C1F41E050E060E470E08CED95E00E9486
:101A7000591F8CED95E00E94361E21E0029709F077
:101A800020E0822FDF91CF910895CF93DF9360E420
:101A900070E08CED95E00E94DD1E63EE70E08CED51
:101AA00095E00E94F90C8CED95E00E945C1F62E3CA
:101AB00070E080E090E00E941D0743E050E060E4A9
:101AC00070E08CED95E00E94591F8CED95E00E942E
:101AD0002E1E892BD1F38CED95E00E94361ED82F57
:101AE00080E0C82F8CED95E00E94361EC82BD92BC4
:101AF0008CED95E00E94361EBE0180E090E00E94D1
:101B00003D2B22E538EB4FE253E40E94CB2B20E043
:101B100030E040E857E30E94CB2B26E636E64BE365
:101B200052E40E942F2ADF91CF910895CF93DF9343
:101B300060E470E08CED95E00E94DD1E65EE70E0E3
:101B40008CED95E00E94F90C8CED95E00E945C1FF5
:101B500062E370E080E090E00E941D0743E050E007
:101B600060E470E08CED95E00E94591F8CED95E0EB
:101B70000E942E1E892BD1F38CED95E00E94361E1B
:101B8000D82F80E0C82F8CED95E00E94361EC82B20
:101B9000D92B8CED95E00E94361EBE0180E090E0CE
:101BA0000E943D2B20E030E04AEF52E40E94CB2B14
:101BB00020E030E040E857E30E94CB2B20E030E00B
:101BC00040EC50E40E942F2ADF91CF9108950895B0
:101BD0001F93CF93DF9300D0CDB7DEB7162FFC0154
:101BE00060818CED95E04A8359830E94D31E612F5A
:101BF0008CED95E00E948A1E5981652F8CED95E051
:101C00000E948A1E4A81642F8CED95E00E948A1EF4
:101C10008CED95E00F900F90DF91CF911F910C9478
:101C20005C1F1F93CF93DF93EC01162F68818CED1F
:101C300095E00E94D31E612F8CED95E00E948A1ED4
:101C40008CED95E00E945C1F42E068818CED95E090
:101C50000E94561F8CED95E00E94361ED82F80E022
:101C6000C82F8CED95E00E94361E8C2B9D2BDF91AA
:101C7000CF911F910895CF93DF93EC0168838CED92
:101C800095E00E94C91E66E0CE010E94110E8435C7
:101C9000910511F080E00EC067E0CE010E94110EA8
:101CA00081159440B9F740E050E061E0CE010E9418
:101CB000E80D81E0DF91CF910895CF93DF9365E048
:101CC0000E94110EEC01BC017F7080E090E00E9448
:101CD0003D2B20E030E040E85DE30E94CB2BD4FFB9
:101CE00006C020E030E040E853E40E942F2ADF9154
:101CF000CF9108958FEF9FEF909345058093440512
:101D000008951F920F920FB60F9211240F900FBEDD
:101D10000F901F901895A8950895DA01F901603485
:101D20008FE178071CF46115710539F489E090E0C2
:101D30008D939C9380E49FE158C0603A8FE07807D0
:101D40003CF088E090E08D939C9380EA9FE04DC04A
:101D5000603D87E078073CF087E090E08D939C93AE
:101D600080ED97E042C0683E83E078073CF086E073
:101D700090E08D939C9388EE93E037C0643F81E0C0
:101D800078073CF085E090E08D939C9384EF91E0A0
:101D90002CC06A3F71053CF084E090E08D939C93E9
:101DA0008AEF90E022C0683771053CF083E090E054
:101DB0008D939C9388E790E018C06C3371053CF0DC
:101DC00082E090E08D939C938CE390E00EC06E31A6
:101DD00071053CF081E090E08D939C938EE190E062
:101DE00004C01D921C928FE090E09183808308953F
:101DF0000F931F93CF93DF9300D0CDB7DEB78C0145
:101E00009E012F5F3F4FAC010E948D0EF801808133
:101E100083FD02C098E001C098E28770892B98E1A9
:101E20000FB6F894A895909360000FBE8093600061
:101E300089819A810F900F90DF91CF911F910F911F
:101E40000895DC01ED91FC91048CF58DE02D099451
:101E500022E833E0FC0131832083FB014089518972
:101E600062897389FC014283538364837583089577
:101E7000FC01848995890895FC01818D928D0895D6
:101E8000CF93DF931F92CDB7DEB76983DC01ED916D
:101E9000FC910280F381E02D41E050E0BE016F5FD4
:101EA0007F4F09950F90DF91CF9108950895CF93BB
:101EB000DF93EC01888D843061F00E94D714E88DA7
:101EC000F0E0EE0FFF1FEC53FA4F1182108284E016
:101ED000888FDF91CF910895FC01178A168A6E5F73
:101EE0007F4F808D0C945516FC01808D0C949B16B1
:101EF000CF93DF93EC019A018E899F89AB01BC01DE
:101F0000888D0E940E162E893F89280F391F3F8B1E
:101F10002E8BDF91CF9108950F931F93CF93DF9373
:101F20001F92CDB7DEB7FC01218D328D232B61F0DE
:101F30008C0141E050E0BE016F5F7F4F808D0E94B9
:101F40005415181619061CF08FEF9FEF08C0F80102
:101F5000818D928D0197928F818F898190E00F9072
:101F6000DF91CF911F910F910895CF93DF93FC01E3
:101F7000218D328D2115310519F48FEF9FEF11C09E
:101F8000EC014217530708F0A901888D0E945415EF
:101F90001816190694F7298D3A8D281B390B3A8F9C
:101FA000298FDF91CF910895CF93DF931F92CDB703
:101FB000DEB7FC01218D328D232B49F0BE016F5F0E
:101FC0007F4F808D0E94DF15898190E002C08FEFE6
:101FD0009FEF0F90DF91CF910895EF92FF921F93A3
:101FE000CF93DF93FC01208D243011F080E01CC0E2
:101FF0007B01EC0110E0812F0E94AF14811102C01F
:10200000188F05C08831E1F31F5F1430A1F7888D68
:10201000843061F3FD86EC861A8E198E20E0A701CC
:1020200062E00E94011581E0DF91CF911F91FF9046
:10203000EF9008950F931F93CF93DF93CDB7DEB743
:1020400028970FB6F894DEBF0FBECDBF8C01F80104
:10205000818D928D892B49F0D801ED91FC910284FC
:10206000F385E02DC8010995F2CF808D0E94B4154B
:102070001816190654F548E050E0BE016F5F7F4F17
:10208000D80158968C910E9454159C011816190677
:10209000D4F4BE016F5F7F4FC8010E960E946B0A99
:1020A0008D8190E0982F88272E81820F911DF80155
:1020B000958B848B2F8130E0322F22278885280F43
:1020C000311D328F218FC90102C080E090E0289637
:1020D0000FB6F894DEBF0FBECDBFDF91CF911F9139
:1020E0000F9108958F929F92AF92BF92CF92DF92FD
:1020F000EF92FF920F931F93CF93DF9300D000D006
:1021000000D0CDB7DEB7FC01208D243009F068C0C7
:102110006A017B018C0153E0852E54E0952EA12CA1
:10212000B12CC4010E945512811103C0F801A08E88
:102130000AC08831D9F3FFEFAF1ABF0A9394E4E0E5
:10214000AE16B10471F7F801808D843009F448C0EF
:1021500096E0E4E1F1E0DE01119601900D929A958E
:10216000E1F7F70193819F779C8394819D8395810B
:102170009E83B7016E5F7F4F90E0982F882744E0E1
:1021800050E0845F9B4F0E942612F801E08CF12CF6
:10219000F4E0EF0EF11CFE2CEE246D2DC7014096ED
:1021A0000E9492116C2DC70141960E949211F80174
:1021B000808D90E0982F882746E050E0BE016F5F49
:1021C0007F4F8A5F9B4F0E942612F801128E118E5C
:1021D00020E8A60162E0808D0E94011581E001C027
:1021E00080E026960FB6F894DEBF0FBECDBFDF911C
:1021F000CF911F910F91FF90EF90DF90CF90BF9004
:10220000AF909F908F900895CF93DF93EC011B8246
:102210001A8288EE93E0A0E0B0E08C839D83AE83C9
:10222000BF838AE993E099838883CE010E960E944A
:10223000450A84E0888FDF91CF910895CF92DF9295
:10224000EF92FF920F931F93CF93DF93CDB7DEB73B
:10225000AF970FB6F894DEBF0FBECDBF8C016B01F8
:102260007A01CE0101960E94450ACE0109960E948C
:102270000411CE018A960E94450A6EE575E0CE01F2
:1022800084960E941C18BE016C5D7F4FCE010196A2
:102290000E943E18AE01465D5F4FB601CE01019629
:1022A0000E94AD1A81309105C1F4D801ED91FC91E5
:1022B0000488F589E02D82E893E09DA38CA38CA58A
:1022C0009DA5AEA5BFA58EA39FA3A8A7B9A7A7014B
:1022D000BE016C5D7F4FC8010995AF960FB6F894AB
:1022E000DEBF0FBECDBFDF91CF911F910F91FF9049
:1022F000EF90DF90CF9008950F9300E020E040E052
:1023000060E086E495E00E944F0A0F9108958EBD2B
:1023100000000DB407FEFDCF8EB508952A980895EC
:102320002A9A08951F93CF93DF9300D0CDB7DEB7DD
:10233000182F6A8399830E948E1180EF0E94871163
:102340009981892F0E948711812F0E9487116A81AC
:10235000862F0E9487110E94901181E00F900F90AC
:10236000DF91CF911F910895CF93DF93EC016CE241
:1023700071E080E090E00E941D070E943B1B229AC2
:102380008091DA05882399F02FB7F8948091DA05C7
:10239000813059F48DB38093D8059DB38091D905D0
:1023A000809589238DBB2FBF02C02093D80580E57F
:1023B0008CBD1DBC60E880E090E00E94921165E554
:1023C0008BE190E00E94921165E58AE190E00E9425
:1023D00092118091DA05882351F09FB7F8942091EB
:1023E000DA058091D805213029F58DBB9FBF80E0AB
:1023F00090E49983888380E090E69987888780E0DD
:1024000098E49B838A8380E098E69B878A8780E0B4
:1024100090E59D838C8380E090E79D878C8780E0AA
:1024200098E59F838E8380E098E79F878E87DF9172
:10243000CF9108958FBFDBCF9B0190E00496982F3A
:102440008827642F820F931F0C949211CF92DF92F2
:10245000EF92FF920F931F93CF93DF93EC017A01DA
:102460008B016C01C40ED51ECC15DD05A1F00E94B8
:102470008E1180EF0E9487118D2F0E9487118C2F63
:102480000E9487112196F80181918F010E94871186
:102490000E949011E9CFC701DF91CF911F910F9159
:1024A000FF90EF90DF90CF9008951F93CF93DF932D
:1024B0001F92CDB7DEB7182F99830E948E118FE03F
:1024C0000E9487119981892F0E948711812F0E9474
:1024D000871180E00E94871189830E949011898171
:1024E0000F90DF91CF911F91089590E00496982F5F
:1024F0008827860F971F0C9455121F93CF93DF9355
:10250000182F60E270E00E947512C82FD0E061E2DF
:1025100070E0812F0E947512DC2FCC279E01282BA2
:10252000C901DF91CF911F910895FF920F931F93DF
:10253000CF93DF93F62EC0E0D0E08F2D0E947D1266
:102540008C01892B21F08F2D0E947D12EC01C01788
:10255000D10799F7CE01DF91CF911F910F91FF9095
:1025600008951F93CF93DF93182F66E270E00E94C7
:102570007512C82FD0E067E270E0812F0E947512BB
:10258000DC2FCC279E01282BC901DF91CF911F9111
:102590000895FF920F931F93CF93DF93F62EC0E021
:1025A000D0E08F2D0E94B1128C01892B21F08F2D4C
:1025B0000E94B112EC01C017D10799F7CE01DF914B
:1025C000CF911F910F91FF9008956F927F928F92FC
:1025D0009F92AF92BF92CF92DF92EF92FF920F93B2
:1025E0001F93CF93DF931F92CDB7DEB7882E962E21
:1025F0006A01590164E270E0892D99830E94751285
:10260000E82EF12C65E270E0892D0E947512FE2CF7
:10261000EE24E82A37016C0C7D1CA3015770E82CCE
:102620009981F92EE90CF11CE90CF11CF70180816C
:102630009181840F951F9A01200F311F213038405E
:1026400098F060E078E06B01C41AD50AA601B501E4
:102650000E942612A8014C195D09B5016C0D7D1D63
:10266000F7018081918102C0A801B5010E94261264
:10267000060D171D412F64E270E0892D0E941C1287
:10268000402F65E270E0892D0F90DF91CF911F916F
:102690000F91FF90EF90DF90CF90BF90AF909F9001
:1026A0008F907F906F900C941C12CF92DF92EF92DC
:1026B000FF920F931F93CF93DF93EC017A018B016D
:1026C0006C01C40ED51ECC15DD05A9F00E948E113B
:1026D0008FE00E9487118D2F0E9487118C2F0E94FE
:1026E0008711219680E00E948711F80181938F0164
:1026F0000E949011E8CFC701DF91CF911F910F91F8
:10270000FF90EF90DF90CF900895AF92BF92CF925D
:10271000DF92EF92FF920F931F93CF93DF9300D03E
:10272000CDB7DEB75A834983590129813A81377081
:102730006C01C60ED11CC60ED11CF6018085918598
:10274000820F931FA801420F531F4130584098F049
:10275000E0E0F8E07F01E21AF30AA701B5010E9468
:102760005513A8014E195F09B5016E0D7F1DF601C5
:102770008085918502C0A801B5010F900F90DF916F
:10278000CF911F910F91FF90EF90DF90CF90BF906E
:10279000AF900C9455138F929F92AF92BF92CF92AD
:1027A000DF92EF92FF920F931F93CF93DF936C0111
:1027B000962E5A017901802E68E270E0892D0E94E0
:1027C0007512C82FD0E069E270E0892D0E94751261
:1027D000DC2FCC27C82B87019501AE01692DC601DE
:1027E0000E94851381101AC0CE0DDF1D4D2F68E2A7
:1027F00070E0892D0E941C124C2F69E270E0892D37
:10280000DF91CF911F910F91FF90EF90DF90CF90CC
:10281000BF90AF909F908F900C941C12DF91CF913E
:102820001F910F91FF90EF90DF90CF90BF90AF90EE
:102830009F908F900895CF93C62F61E070E08C2F0A
:102840000E941C1261E070E08C2F0E9475128111B1
:10285000F9CFCF9108950F93FC0130E080E092E131
:10286000AAE7B0E0481759076A077B0740F4B69516
:10287000A795979587953F5F3630A1F737E091E0B0
:102880009327222311F020E501C020E7892F8695A8
:102890000C70082B022B0083917091830F91089587
:1028A0002091DA05222399F04FB7F8942091DA05A8
:1028B000213059F42DB32093D8053DB32091D9058B
:1028C000209523232DBB4FBF02C04093D8058CBD5C
:1028D0009DBD08958091DA05882361F09FB7F89433
:1028E0002091DA058091D805213019F48DBB9FBF66
:1028F00008958FBF089590E0982F882744E050E016
:10290000845F9B4F0C94261262E070E00C94751269
:10291000CF93DF93C82FD62F472F64E070E00E943B
:102920001C124D2F65E070E08C2FDF91CF910C943D
:102930001C12462F62E070E00C941C12CF93DF93C0
:10294000C82FD62F472F60E170E00E941C124D2F38
:1029500061E170E08C2FDF91CF910C941C120F93EA
:102960001F93CF93DF9300D01F92CDB7DEB7182F00
:1029700000E021E040E059E06DE370E0CE01019617
:102980000E942B1489819A810E94501463E070E0A8
:10299000812F0E9475128B830E946A148B810F9085
:1029A0000F900F90DF91CF911F910F9108950F938A
:1029B0001F93CF93DF9300D0CDB7DEB7182F00E081
:1029C00021E040E059E06DE370E0CE0101960E9405
:1029D0002B1489819A810E94501440E150E0612FAC
:1029E0008CE495E00E941B146FEF812F0E949914D4
:1029F0000E946A140F900F90DF91CF911F910F9159
:102A00000895CF92DF92EF92FF920F931F93CF938F
:102A1000DF9300D0CDB7DEB79FEF960F9530C0F5AE
:102A2000F22E6A01E62E182F0E94D71400E021E052
:102A300040E059E06DE370E0CE0101960E942B1456
:102A400089819A810E9450144E2D4F2960E070E0D8
:102A5000812F0E941C12C114D10411F0B6010AC0CA
:102A600060915C0570915D056F5F7F4F70935D05B0
:102A700060935C05812F0E94881441E050E0612F33
:102A80008CE495E00E941B140E946A1481E001C04E
:102A900080E00F900F90DF91CF911F910F91FF90E9
:102AA000EF90DF90CF900895AF92BF92CF92DF92D8
:102AB000EF92FF920F931F93CF93DF9300D0CDB788
:102AC000DEB7182F5B016A0100E021E040E059E029
:102AD0006DE370E0CE0101960E942B1489819A81EA
:102AE0000E945014612F8CE495E00E94C9127C0171
:102AF0000097A1F463E070E0812F0E947512843189
:102B000019F1882309F121E030E08C3111F420E043
:102B100030E0EE24FF24E21AF30A16C0C816D906E4
:102B20000CF476011E141F047CF400E09701A5014B
:102B3000612F8CE495E00E94CB1340E450E0612FBC
:102B40008CE495E00E941B140E946A14C7010F9048
:102B50000F90DF91CF911F910F91FF90EF90DF9039
:102B6000CF90BF90AF9008950F931F93CF93DF93B3
:102B700000D000D0CDB7DEB7182F00E021E040E054
:102B800059E06DE370E0CE0101960E942B1489811B
:102B90009A810E945014612F8CE495E00E94C91222
:102BA0008B839C830E946A148B819C810F900F9071
:102BB0000F900F90DF91CF911F910F910895EF9299
:102BC000FF920F931F93CF93DF9300D0CDB7DEB763
:102BD000182F7B0100E021E040E059E06DE370E058
:102BE000CE0101960E942B1489819A810E94501473
:102BF00001E021E030E0A701612F8CE495E00E9424
:102C0000CB130E946A1481E090E00F900F90DF9147
:102C1000CF911F910F91FF90EF9008958F929F9207
:102C2000AF92BF92DF92EF92FF920F931F93CF93D9
:102C3000DF9300D0CDB7DEB7D82E5B014A01790112
:102C400000E021E040E059E06DE370E0CE01019644
:102C50000E942B1489819A810E9450146D2D8CE45E
:102C600095E00E9495128E159F0530F46D2D8CE431
:102C700095E00E9495127C0187019401A5016D2DBC
:102C80008CE495E00E94E5120E946A14C7010F903F
:102C90000F90DF91CF911F910F91FF90EF90DF90F8
:102CA000BF90AF909F908F900895CF92DF92EF9258
:102CB000FF920F931F93CF93DF9300D0CDB7DEB772
:102CC000FB019081911109C09181911106C09281FF
:102CD000911103C09381992309F141155105F1F038
:102CE0006A017F01182F00E021E040E059E06DE328
:102CF00070E0CE0101960E942B1489819A810E9476
:102D00005014B701812F0E947B14B601812F0E94BD
:102D10009E140E946A1481E090E002C080E090E07E
:102D20000F900F90DF91CF911F910F91FF90EF9037
:102D3000DF90CF9008950F931F93CF93DF9300D030
:102D4000CDB7DEB7182F00E021E040E059E06DE399
:102D500070E0CE0101960E942B1489819A810E9415
:102D6000501440E250E0612F8CE495E00E941B1467
:102D7000812F0E94841484FD21C0812F0E9484141D
:102D800083FF09C068E1812F0E9499140E946A1490
:102D900080E090E01BC00E946A140E94940700E04B
:102DA00021E040E059E06DE370E0CE0101960E9421
:102DB0002B1489819A810E945014DACF60E1812F0F
:102DC0000E9499140E946A1481E090E00F900F9085
:102DD000DF91CF911F910F91089544E050E0BC0125
:102DE00081E090E00C94261244E050E0BC0185E0C4
:102DF00090E00C94261244E050E0BC018FE090E09B
:102E00000C9426122F923F924F925F926F927F9274
:102E10008F929F92AF92BF92CF92DF92EF92FF92EA
:102E20000F931F93CF93DF9300D000D000D0CDB786
:102E3000DEB76C011B0129013A014701580186E602
:102E400095E0F601978386838CE495E00E94B411A7
:102E500080E590E00E94501446E050E0B10189E026
:102E600090E00E94261200E020E040E060E0CE0109
:102E700001960E944F0ACE0103960E94FB160E9403
:102E80006A1485017401A3019201B101F6018681E2
:102E900097810E949C268C010197B9F580E590E00E
:102EA0000E945014F60166817781CE0101960E943E
:102EB000D621CE0103960E94FB16F601668177812A
:102EC000CE0101960E94EC21CE0103960E94ED16E0
:102ED000F60166817781CE0101960E94E121CE0143
:102EE00003960E94F4160E946A14F60166817781A7
:102EF000CE0101960E94F7218B819C81AD81BE811C
:102F0000F60182839383A483B583C80126960FB606
:102F1000F894DEBF0FBECDBFDF91CF911F910F910F
:102F2000FF90EF90DF90CF90BF90AF909F908F90E9
:102F30007F906F905F904F903F902F900895EF9209
:102F4000FF920F931F93CF93DF9300D000D000D058
:102F5000CDB7DEB7FC01268137812115310509F493
:102F600043C08C01C9010E94DB267C01029721F03D
:102F700084E0E816F104D1F580E590E00E94501459
:102F8000F80166817781CE0101960E94D621CE019B
:102F900003960E94FB16F80166817781CE010196A7
:102FA0000E94EC21CE0103960E94ED16F801668185
:102FB0007781CE0101960E94E121CE0103960E9405
:102FC000F4160E946A14F80166817781CE01019699
:102FD0000E94F7218B819C81AD81BE81F8018283A3
:102FE0009383A483B58302C0E12CF12CC7012696FC
:102FF0000FB6F894DEBF0FBECDBFDF91CF911F910A
:103000000F91FF90EF900895CF93DF93EC010E9412
:10301000450A80E590E00E945014BE016E5F7F4F2C
:1030200044E050E08FE090E00E9455130E946A1443
:10303000CE01DF91CF91089522E833E0FC01318386
:103040002083FB014281538164817581FC014283AD
:1030500053836483758308950F9300E020E040E07C
:1030600060E08CEC95E00E944F0A89EA95E00E94AE
:1030700004118EE595E00F910C94450AFB01428105
:10308000538164817581FC0142835383648375831A
:10309000178216820895CF93DF93FB0120E080E032
:1030A00090E0AAE03191332301F160ED630F6A30C3
:1030B00080F4A89FB001A99F700D1124CB01C09787
:1030C000830F911D37FD9A958F3F910559F350F36A
:1030D00013C03E3289F4233079F0EA01C20FD11DCA
:1030E0008A832F5F80E090E0DDCF233029F4FA015E
:1030F000858381E090E002C080E090E0DF91CF9195
:1031000008950F9300E020E040E060E082ED95E05C
:103110000E944F0A0F9108958F929F92AF92BF9293
:10312000CF92DF92EF92FF920F931F93CF93DF9393
:1031300000D000D01F92CDB7DEB78C016B010E948A
:10314000EC06F801778366837627672776277A83EC
:103150006983085F1F4F42E050E0BE016F5F7F4F01
:10316000C8010E94780F81E090E09C838B8342E04D
:1031700050E0BE016D5F7F4FC8010E94780F80E074
:1031800091E09C838B8342E050E0BE016D5F7F4FF6
:10319000C8010E94780F1C821B8242E050E0BE01F1
:1031A0006D5F7F4FC8010E94780F42E050E0BE0182
:1031B0006D5F7F4FC8010E94780F42E050E0BE0172
:1031C0006D5F7F4FC8010E94780F5601F501808125
:1031D000882329F1C6017C01FC012081019621117F
:1031E00016C0570147018C189D081814190494F44F
:1031F0008D8241E050E0BE016B5F7F4FC8010E94AD
:10320000780FA401B601C8010E94780F03C02E32C6
:1032100011F7E7CF6701FFEFCF1ADF0AD7CF1D8283
:1032200041E050E0BE016B5F7F4FC8010E94780F04
:10323000E12CFF24F394FC82EB8242E050E0BE01DB
:103240006D5F7F4FC8010E94780FFC82EB8242E0E5
:1032500050E0BE016D5F7F4FC8010E94780F81E092
:1032600090E00F900F900F900F900F90DF91CF9103
:103270001F910F91FF90EF90DF90CF90BF90AF9094
:103280009F908F9008954F925F926F927F928F924E
:103290009F92AF92BF92CF92DF92EF92FF920F93E5
:1032A0001F93CF93DF93CDB7DEB765970FB6F89432
:1032B000DEBF0FBECDBF7C015B016A010E94EC0640
:1032C0002B013C018701085F1F4F4501A12CB12C48
:1032D000C8010E941A1018161906A4F00E94EC06E4
:1032E000DC01CB0184199509A609B709881699064E
:1032F000AA06BB06D0F062E370E080E090E00E9496
:103300001D07E6CFF7014281538164817581808D6D
:10331000918DA28DB38D481759076A077B0741F439
:10332000848D958DC59721F406C02FEF3FEFFDC02A
:103330002EEF3FEFFAC0C8010E943C0F0C97ECF053
:103340004CE050E0BE016F5F7F4FC8010E94B50F97
:103350006C818B810E94CA219A8B898BF701E68050
:10336000F7806A8189810E94CA21E816F90641F432
:1033700089899A8997FF04C009C02DEF3FEFD5C016
:10338000C8010E94560F2CEF3FEFCFC08F70927094
:10339000892B31F0C8010E94560F2BEF3FEFC5C0BB
:1033A00068858F810E94CA215C01892B31F4C80194
:1033B0000E94560F2AEF3FEFB8C0E12CF12C6E812E
:1033C0008D810E94CA21E816F90640F541E050E0DF
:1033D000BE01635F7F4FC8010E94B50F8D858111CB
:1033E00013C08D858111F2CFC8010E948C0FC801D6
:1033F0000E948C0FC8010E948C0FC8010E948C0F84
:10340000FFEFEF1AFF0ADBCF8D859FEF980F9D87A7
:10341000882339F3C8010E948C0FF6CFE12CF12CE0
:1034200041E050E0BE016D5E7F4FC8010E94B50FC4
:103430008B89982F907C61F4882371F08B899FEFA2
:10344000980F9B8B882341F0C8010E948C0FF6CF08
:10345000C8010E948C0F1B8A8B898111E1CF42E049
:1034600050E0BE01615F7F4FC8010E94B50F42E08E
:1034700050E0BE01635F7F4FC8010E94B50FC801D5
:103480000E948C0FC8010E948C0FC8010E948C0FF3
:10349000C8010E948C0F42E050E0BE016F5E7F4F7A
:1034A000C8010E94B50F8F8598898115914001F55B
:1034B0002D853E8532272327322721303105C1F45F
:1034C00089899A898115944031F0C8010E94560F6C
:1034D00027EF3FEF2AC0B6016E5F7F4F44E050E018
:1034E000C8012C8B3D8B0E94B50F2C893D891DC0D6
:1034F000812C912C89899A89982789279827881661
:10350000990638F4C8010E948C0F8FEF881A980A28
:10351000F1CFEFEFEE1AFE0AEA14FB0409F080CFB8
:10352000C8010E94560F26EF3FEFC90165960FB6FE
:10353000F894DEBF0FBECDBFDF91CF911F910F91E9
:10354000FF90EF90DF90CF90BF90AF909F908F90C3
:103550007F906F905F904F9008958F929F92AF925F
:10356000BF92CF92DF92EF92FF920F931F93CF9370
:10357000DF9300D000D000D0CDB7DEB77C014B0187
:103580005A010E944B188C01892B09F05BC0F7018E
:1035900042815381648175818091D4059091D505D4
:1035A000A091D605B091D705481759076A077B0740
:1035B00009F44BC00E94EC066701F8E0CF0ED11C65
:1035C0006F7077277C5FC6010E94ED0F813009F094
:1035D0003EC082E893E09A838983F70182819381D8
:1035E000A481B5818B839C83AD83BE8345E350E08A
:1035F000BE016F5F7F4FC6010E946C0F892B19F4CB
:1036000000E010E01BC0B401C7010E948C18892B98
:10361000B9F3C6010E94740F892B91F383E0882EC1
:10362000912CA50168E873E1C7010E9443198C0140
:10363000F1E08F1A910811F0019699F3C6010E94EA
:10364000570F05C001E010E002C00EEF1FEFC801E8
:1036500026960FB6F894DEBF0FBECDBFDF91CF9197
:103660001F910F91FF90EF90DF90CF90BF90AF90A0
:103670009F908F900895CF93CFB7F8948091DB05FA
:10368000811127C0EAE9F0E08491E6E8F0E0949146
:10369000E82FF0E0EE0FFF1FE255FF4FA591B49128
:1036A000EC91E92321F461E08AE00E94FA0761E0ED
:1036B0008AE00E94BE078CB580618CBD8CB58064A9
:1036C0008CBD61E08DE00E94BE0761E08BE00E944E
:1036D000BE078091DB058F5F8093DB05CFBFCF9165
:1036E0000895FC01148215821682178208951F9393
:1036F000CF93DF931F92CDB7DEB7162FFC01608109
:103700008CED95E049830E94D31E612F8CED95E0EE
:103710000E948A1E4981642F8CED95E00E948A1ECA
:103720008CED95E00F90DF91CF911F910C945C1F71
:103730001F93CF93DF9300D0CDB7DEB7162FFC01D8
:1037400060818CED95E04A8359830E94D31E612FDE
:103750008CED95E00E948A1E5981652F8CED95E0D5
:103760000E948A1E4A81642F8CED95E00E948A1E79
:103770008CED95E00F900F90DF91CF911F910C94FD
:103780005C1F1F93CF93DF93EC01162F68818CEDA4
:1037900095E00E94D31E612F8CED95E00E948A1E59
:1037A0008CED95E00E945C1F41E068818CED95E016
:1037B0000E94561FC8EED3E08CED95E00E942E1EAD
:1037C0001816190634F0209711F02197F5CF80E0F4
:1037D00006C0CD2BE1F38CED95E00E94361EDF9103
:1037E000CF911F9108950F93CF93DF93EC016370F6
:1037F00041704295407F2F70422B6295660F607E2C
:10380000462B6EE10E94771B002321F0083018F050
:1038100007E001C001E08FEF800F61E070E002C0BF
:10382000660F771F8A95E2F7072E000C880B990B1D
:103830000E943F2B9B01AC0160E074E284EF99E4AD
:103840000E949C2A0E940E2B6C837D838E839F8313
:103850006FE1CE010E94C11B8F780295007F482F37
:10386000402B6FE1CE01DF91CF910F910C94771B2C
:103870001F93CF93DF93EC01162F68818CED95E0B9
:103880000E94D31E612F8CED95E00E948A1E8CED64
:1038900095E00E945C1F42E068818CED95E00E94FB
:1038A000561FC0EDD7E08CED95E00E942E1E0297CA
:1038B0003CF4209711F02197F6CF80E090E011C002
:1038C000CD2BD9F38CED95E00E94361EC82F8CEDE0
:1038D00095E00E94361E20E030E03C2FA901482BE5
:1038E000CA01DF91CF911F910895CF92DF92EF929D
:1038F000FF920F931F93CF93DF938C01D62FF42E5B
:103900006EE00E94381C41E050E09A0102C0220F94
:10391000331FDA95E2F7E90180959095822393238E
:10392000892B89F060E1C8010E94381CFF2021F03A
:10393000AC014C2B5D2B05C0C095D095AC014C2340
:103940005D2360E125C066E0C8010E94381C6C015F
:1039500068E0C8010E94381C9E0120953095FF2028
:1039600061F07C01E222F322A6014C2B5D2B66E084
:10397000C8010E94981BA7010AC0C82BD92BA60119
:103980004223532366E0C8010E94981BAE0168E001
:10399000C801DF91CF911F910F91FF90EF90DF90C1
:1039A000CF900C94981BFF920F931F93CF93DF93AC
:1039B0008C01F62E6EE00E94381CC1E0D0E002C0FF
:1039C000CC0FDD1FFA94E2F78C239D23892B49F05D
:1039D00060E1C8010E94381CC823D92381E0CD2BA7
:1039E00009F480E0DF91CF911F910F91FF9008952E
:1039F0000C94D31CCF92DF92EF92FF920F931F9300
:103A0000CF93DF931F92CDB7DEB76C01162F60E026
:103A100029830E94381C41E050E0BA0102C0660FC1
:103A2000771F1A95E2F78B01AC01462B572B60E00C
:103A3000C6010E94981B66E0C6010E94381C7801EE
:103A4000E094F094AC014E215F2166E0C6010E9433
:103A5000981B6EE0C6010E94381CAC014E215F210C
:103A60006EE0C6010E94981B6EE1C6010E94C11B58
:103A70008F7D482F40646EE1C6010E94771B6FE185
:103A8000C6010E94C11B2981482F222311F04868DA
:103A900001C04777F60184819581A681B781892B82
:103AA0008A2B8B2B49F480E894E8AEE1B0E0848364
:103AB0009583A683B78340616FE1C6010E94771B9F
:103AC00060E2C6010E94381CAC01402B512B60E221
:103AD000C6010E94981B60E1C6010E94381CAC011F
:103AE0004E215F2160E1C6010F90DF91CF911F91C0
:103AF0000F91FF90EF90DF90CF900C94981B0F9355
:103B00001F93CF93DF93EC01162F042F6EE00E94DA
:103B1000381C9C01802F8D7F813059F041E050E0AE
:103B2000012E02C0440F551F0A94E2F7422B532B7B
:103B30000DC0E1E0F0E0012E02C0EE0FFF1F0A947D
:103B4000E2F7E095F095A9014E235F236EE0CE01E8
:103B50000E94981B023049F441E0612FCE01DF91B1
:103B6000CF911F910F910C94751C033051F420E0FC
:103B700041E0612FCE01DF91CF911F910F910C9405
:103B8000FA1CDF91CF911F910F9108950C947F1D26
:103B9000CF93DF93EC016FE10E94C11B82FF06C04F
:103BA000482F4B7F6FE1CE010E94771B41E06B8174
:103BB000CE010E947F1D40E06B81CE010E94751CEA
:103BC00061E070E080E090E00E941D0741E06B81C1
:103BD000CE01DF91CF910C94751CCF93DF936623B8
:103BE00021F0DF91CF910C94C81DEC0142E16DE70B
:103BF0000E94771B44E36DE7CE01DF91CF910C94D7
:103C0000771B0F93CF93DF93EC018CED95E00E942F
:103C1000C91E8B818F3F21F0CE010E94C81D04C0B8
:103C200060E0CE010E94ED1D63E1CE010E94381CD0
:103C300081159F4F49F401E020E040E062E0CE01B1
:103C40000E94F31B81E001C080E0DF91CF910F91D2
:103C50000895FC01608343830C94011E80910C063F
:103C600090E020910D06821B9109089590910D0618
:103C700080910C06981750F4E92FF0E0E25FF94FBD
:103C8000208130E09F5F90930D0602C02FEF3FEF41
:103C9000C9010895E0910D0680910C06E81730F4F3
:103CA000F0E0E25FF94F808190E008958FEF9FEFA1
:103CB00008950895CF92DF92EF92FF920F931F9392
:103CC000CF93DF937C01262F972F8A018091E805FF
:103CD000882391F0C62FD72F6E01C40ED51ECC15A8
:103CE000DD0571F06991D701ED91FC910190F081B2
:103CF000E02DC7010995F3CF642F822F0E941F206A
:103D0000C801DF91CF911F910F91FF90EF90DF904D
:103D1000CF900895CF93DF931F92CDB7DEB769831D
:103D20002091E8052223D1F02091E905203240F0CE
:103D300021E030E0FC013383228380E090E015C075
:103D40008091EA05E82FF0E0E551FA4F99819083E0
:103D50008F5F8093EA058093E90505C061E0CE019D
:103D600001960E941F2081E090E00F90DF91CF919B
:103D70000895FC011382128288EE93E0A0E0B0E087
:103D800084839583A683B78382EC93E091838083B9
:103D9000089510920D0610920C061092EA051092EA
:103DA000E9050C94631F81E08093E80560930B069E
:103DB0001092EA051092E90508950C94D31E0F9312
:103DC000062F21E04091E9056BEE75E080910B062E
:103DD0000E94C91F1092EA051092E9051092E805A9
:103DE0000F9108954F925F926F927F92AF92BF9220
:103DF000CF92EF92FF920F931F93CF93DF935C01CB
:103E0000F62ED42F28013901EE2021F10E94D31E75
:103E1000CE2DC43008F0C3E0C150C0F0D501ED9103
:103E2000FC91B8E0CB9FC0011124A301920104C012
:103E300056954795379527958A95D2F7CA01B901C6
:103E40000190F081E02DC5010995E6CF60E0C50144
:103E50000E94DF1E4D2FD13208F040E22C2D6EE083
:103E600076E08F2D0E94811F10920D0680930C0624
:103E7000DF91CF911F910F91FF90EF90CF90BF9066
:103E8000AF907F906F905F904F900895CF92EF9298
:103E90000F931F93C22EE12C00E010E098010E94C6
:103EA000F21E1F910F91EF90CF90089521E00C9496
:103EB000461F21E00C94461F61E00C94DF1E8CED40
:103EC00095E00C94B91E10929B0681E080939906B0
:103ED0001092980661E082E10E94FA0761E083E1B6
:103EE0000E94FA07E9EBF0E080818E7F8083808179
:103EF0008D7F808388E48093B80085E48093BC0044
:103F00000895413208F043C090919B069111FCCF77
:103F100091E090939B06209399062FEF20932E0615
:103F200010927306240F2093720690939A06909134
:103F30009A06880F892B80939A0680919806813083
:103F400061F41092980680919A068093BB0080914C
:103F5000BC0083FDF8CF85EC01C085EE8093BC00EA
:103F600080919B068130E1F380917306841710F4F1
:103F70004091730624E736E0FB01D9018A2F821BAA
:103F8000841718F48D918193F9CF842F089580E0E0
:103F900008950F93413208F04AC090919B06911109
:103FA000FCCF32E030939B06009399063FEF3093AD
:103FB0002E061092730640937206FB0164E776E0CA
:103FC000DB013A2F361B341718F431913D93F9CFAA
:103FD00010929A0630919A06880F832B80939A0646
:103FE00080919806813061F41092980680919A062B
:103FF0008093BB008091BC0083FDF8CF85EC01C0AD
:1040000085EE8093BC00222321F080919B068230B4
:10401000D1F380912E068F3F79F080912E06803269
:1040200041F080912E06803331F094E005C091E09C
:1040300003C092E001C093E0892F0F910895409151
:104040005006262F30E0240F311D21323105DCF4DB
:1040500020919B062430C9F4FC0180E090E0861793
:1040600058F4309150062191DC01AE5AB94FA30F9C
:10407000B11D2C930196F3CF80915006680F609389
:10408000500680E0089581E0089582E0089585ED6E
:104090008093BC008091BC0084FDFCCF10929B06F5
:1040A000089585EC8093BC0010929B0608951F92A2
:1040B0000F920FB60F9211242F933F934F935F935C
:1040C0006F937F938F939F93AF93BF93EF93FF93E0
:1040D0008091B900887F803609F49EC078F58832D7
:1040E00009F45DC090F4803109F456C038F4882397
:1040F00009F4F5C0883009F44FC0F5C0883109F4DF
:104100004EC0803209F45FC0EEC0803409F46AC04A
:1041100058F4803309F457C0883309F0E4C0809321
:104120002E060E945120DFC0803509F44FC088352B
:1041300009F45DC0883409F0D6C0D3C0883909F4C9
:10414000C4C0A8F4883709F467C038F4883609F485
:1041500063C0803709F460C0C6C0883809F4B5C0B0
:10416000803909F45FC0803809F0BDC05BC0803B76
:1041700009F483C038F4803A09F466C0883A09F437
:104180007CC0B1C0803C09F4A4C0883C09F4A1C043
:10419000883B09F487C0A7C080919A0610C090910F
:1041A000730680917206981770F5E091730681E0AE
:1041B0008E0F80937306F0E0EC58F94F8081809366
:1041C000BB0085EC83C080932E068BC0E091730604
:1041D00081E08E0F809373068091BB00F0E0EC5875
:1041E000F94F808390917306809172066BC0E091C5
:1041F000730681E08E0F809373068091BB00F0E020
:10420000EC58F94F80838091990681116AC081E052
:104210008093980684EA5EC083E080939B061092A8
:104220002F06CFCF80912F06803208F04EC0E0914C
:104230002F0681E08E0F80932F068091BB00F0E067
:10424000E05DF94F8083BDCF0E94512080912F0601
:10425000803230F4E0912F06F0E0E05DF94F1082FB
:1042600060912F0670E0E0919406F091950680E34E
:1042700096E0099510922F0636C084E080939B0645
:104280001092510610925006E0919606F091970612
:10429000099580915006811105C081E080935006F8
:1042A00010925206E091510681E08E0F80935106E4
:1042B000F0E0EE5AF94F80818093BB009091510657
:1042C00080915006981708F47CCF85E88093BC0055
:1042D0000AC085EC8093BC0010929B0604C010922B
:1042E0002E060E944720FF91EF91BF91AF919F91C1
:1042F0008F917F916F915F914F913F912F910F908F
:104300000FBE0F901F901895CF93DF9300D000D071
:10431000CDB7DEB7611571058105910579F09B0177
:10432000AC0169833A834B835C830E94F328298123
:104330003A814B815C810E946A2C03C060E070E08E
:10434000CB010F900F900F900F90DF91CF910895B8
:10435000CF92DF92EF92FF920F931F936217730732
:104360008407950784F489019A016B017C01C901D6
:10437000B8016C197D098E099F090E9484216C0D7A
:104380007D1D8E1D9F1D1F910F91FF90EF90DF905F
:10439000CF90089570E09B01382BC90108950E96C7
:1043A00024E1FC0111922A95E9F70895CF93DF9358
:1043B000EC01625F7F4F0E945B0ACE01DF91CF91DB
:1043C0000895CF93DF93EC016E5E7F4F0E945B0AEE
:1043D000CE01DF91CF910895CF93DF93EC016A5E18
:1043E0007F4F0E945B0ACE01DF91CF910895CF935A
:1043F000DF93EC01625E7F4F0E945B0ACE01DF918A
:10440000CF91089580E3FB0180833296842F8295BB
:104410008F7090E1899F401911244A3014F4405D57
:1044200001C0495C4293482F8111F0CF08950F934A
:1044300000E020E040E060E08CE996E00E944F0A56
:104440000F9108957F928F929F92AF92BF92CF92D9
:10445000DF92EF92FF920F931F93CF93DF93CDB72D
:10446000DEB7AC970FB6F894DEBF0FBECDBF7C01B0
:10447000762E942E852E20E2B22ECE0101966C016E
:10448000FC012B2D11922A95E9F70FEF2FEF4FEF3B
:104490006FEF86960E944F0A82E893E09AA389A361
:1044A00089A59AA5ABA5BCA58BA39CA3ADA3BEA3D0
:1044B00087010D5B1F4F43E450E0BE016F5D7F4FEE
:1044C000C8010E946C0F019609F4BFC081E0898386
:1044D0008A8386E0A82EAB821C82F70164817581F5
:1044E000868197810E94892C6D837E838F83988734
:1044F00089869A8680E890E09C878B874CE150E023
:10450000B601C8010E94780FF6012B2D11922A9551
:10451000E9F7470188E0880E911CF401D60101906B
:104520000D92AA94E1F740E150E0B601C8010E9463
:10453000780FF6011192BA94E9F796E0A92EB12C02
:1045400040E250E0B601C8010E94780FF1E0AF1AD6
:10455000B108B1F783E6898392E89A8393E59B8358
:104560008C8385E38D8381E08E837F829DE39887B2
:1045700097E099878A8786E0F401DE011B96019017
:104580000D928A95E1F78CE0898B8A8B60ED73E060
:10459000CE0143960E94ED29F7014385BE01675E77
:1045A0007F4FC7010E940222F7014485BE01655E6C
:1045B0007F4FC7010E940222F7014585BE01635E5D
:1045C0007F4FC7010E9402224EE150E0B601C801B0
:1045D0000E94780FF3E07F121EC082E3898384E09B
:1045E0008A83F70196859B8397859C8390899D8319
:1045F00091899E8396E39F838887828D8987838DA7
:104600008A87848D8B87858D8C874CE050E0B6013E
:10461000C8010E94780F87E3898386E08A8391E04E
:104620009B8393E09C838D838FE08E838AE38F83CB
:104630008BE388878FEF898749E050E0B601C80196
:104640000E94780FC8010E94740FAC960FB6F894C0
:10465000DEBF0FBECDBFDF91CF911F910F91FF90B5
:10466000EF90DF90CF90BF90AF909F908F907F9012
:1046700008952F923F924F925F926F927F928F9206
:104680009F92AF92BF92DF92EF92FF920F931F9390
:10469000CF93DF93CDB7DEB7E4970FB6F894DEBFC4
:1046A0000FBECDBF7C011A012B0139010E94EC061F
:1046B0004B015C0187010D5B1F4FC8010E941A105E
:1046C00018161906A4F00E94EC06DC01CB0188192B
:1046D0009909AA09BB09281639064A065B06F0F0B3
:1046E00062E370E080E090E00E941D07E6CF42E2C6
:1046F00050E0BE016F5F7F4FC8010E94B50F8981F6
:10470000823031F4F801848995898334910541F030
:10471000D12CC8010E94560F8D2D5FC18FEF5DC156
:104720006D817E818F8198850E94892C4B015C016F
:10473000F301608371838283938346E050E0B70185
:10474000685F7F4FCE014D960E94CE29892B99F448
:10475000F70180819181A281B38188169906AA060A
:10476000BB0648F084819581A681B781881599059B
:10477000AA05BB0528F4C8010E94560F80E02DC190
:1047800089899A89AB89BC89F70186879787A08B2D
:10479000B18B8EECA82EB12CC8010E948C0FF1E0D9
:1047A000AF1AB108C9F7D12CC70182969AA789A779
:1047B000F701B696FCA7EBA708969EA78DA73C9796
:1047C0004F01899698AB8FA73897FAABE9AB1701E1
:1047D000F6E12F0E311CC5979CAB8BABC8010E9434
:1047E0003C0F181619060CF094CFC8010E948C0FCC
:1047F0008333910509F4CBC0FCF481309105C9F1F4
:104800001CF4892B59F3DDC083309105D1F1069753
:1048100009F0D7C0C8010E948C0F5C0144E050E051
:104820006BA97CA9C8010E94B50F412C512CBB2457
:10483000F4E0AF1AB10840C08A33910509F47BC097
:104840003CF48533910569F0C69709F440C0B9C0BE
:104850008B33910509F485C08F3F910509F4BECFD4
:10486000B0C0C8010E948C0FC8010E948C0FD82EC6
:10487000B5CFC8010E948C0F44E050E069A97AA925
:104880003AC0C8010E948C0F5C0144E050E0B101C5
:10489000C8010E94B50F412C512CBB2494E0A91AE9
:1048A000B1084A145B040CF099CFC8010E948C0F28
:1048B000EFEF4E1A5E0AF5CF4A145B040CF08ECF70
:1048C000C8010E948C0F8FEF481A580AF5CFC80113
:1048D0000E948C0FB82EF701828D811110C0838D3C
:1048E00081110DC0848D81110AC0858D811107C091
:1048F00044E050E0B401C8010E94B50F6FCFEFA5AE
:10490000F8A94080518062807380B401CE01839603
:104910000E945B0A8DA19EA1AFA1B8A58415950543
:10492000A605B70529F3BB2009F458CFC8010E949A
:104930008C0FBA94F8CFC8010E948C0F44E050E06D
:104940006BA57CA5C8010E94B50FF70166A177A1F0
:1049500080A591A50E94892C66A377A380A791A723
:104960003DCFC8010E948C0F44E050E06DA57EA5AC
:10497000C8010E94B50FF70162A573A584A595A58E
:104980000E94892C62A773A784A795A727CFC80187
:104990000E948C0F44E050E069A57AA5C8010E94EE
:1049A000B50FF70162A173A184A195A10E94892C82
:1049B00062A373A384A395A366A777A780AB91ABEB
:1049C0000DCFC8010E948C0FB82EBB2009F406CF72
:1049D000C8010E948C0FBA94F8CFE4960FB6F894F1
:1049E000DEBF0FBECDBFDF91CF911F910F91FF9022
:1049F000EF90DF90BF90AF909F908F907F906F90DF
:104A00005F904F903F902F9008952F923F924F923A
:104A10005F926F927F928F929F92AF92BF92CF924E
:104A2000DF92EF92FF920F931F93CF93DF93CDB757
:104A3000DEB727970FB6F894DEBF0FBECDBF8C014F
:104A400020ED37E040E050E061E070E080E090E091
:104A50000E94A821D80114966D937D938D939C9309
:104A60001797F80160837183828393835801F3E47D
:104A7000AF0EB11CC5010E94570F64E470E0C50180
:104A80000E94ED0F882309F43CC10E94EC062B0123
:104A90003C01812C912C1D82C8018E5B9F4F9F830E
:104AA0008E8343E0342E58EEC52E53E0D52EE12CF4
:104AB000F12C62E0262EAE81BF818C91833009F407
:104AC00007C1811120C0F80184819581A681B78139
:104AD0000196A11DB11D84839583A683B7830E948F
:104AE000EC066419750986099709A70196010E94C9
:104AF000482CA90161E0C8010E94222281E0AE8118
:104B0000BF818C93C6C08430F9F4F801848195810B
:104B1000A681B7810196A11DB11D84839583A683CB
:104B2000B7830E94EC066419750986099709A701E5
:104B300096010E94482CA90163E0C8010E9422222C
:104B4000AE81BF812C92A5C0813061F5F80142ADE4
:104B500053AD64AD75AD9E012F5F3F4FC8010E94FC
:104B600039238D83823009F094C089819A81AB8189
:104B7000BC81F80184839583A683B7830E94EC06E9
:104B80006419750986099709A70196010E94482CA6
:104B9000A90163E0C8010E942222ED81AE81BF819C
:104BA000EC937EC0823009F074C0D801DA964D9142
:104BB0005D916D917C91DD979E012F5F3F4FC80104
:104BC0000E9439238D83853009F05CC0EE81FF811E
:104BD0003082F80182A193A1A4A1B5A1892B8A2BCF
:104BE0008B2B41F484E893E0A0E0B0E082A393A390
:104BF000A4A3B5A3F80186A197A1A0A5B1A5892B6F
:104C00008A2B8B2B61F482A193A1A4A1B5A1B695A7
:104C1000A7959795879586A397A3A0A7B1A7F80115
:104C200082A593A5A4A5B5A5892B8A2B8B2BA9F4C6
:104C300082A193A1A4A1B5A1AC01BD0123E0769509
:104C40006795579547952A95D1F7841B950BA60B29
:104C5000B70B82A793A7A4A7B5A7F80186A197A130
:104C6000A0A5B1A586A797A7A0ABB1AB82A593A538
:104C7000A4A5B5A582AB93ABA4ABB5AB88248394B4
:104C8000912C0EC0FD81F63021F4AE81BF811C92C3
:104C900007C0BD81BF3F21F4EE81FF8110821D82DC
:104CA000F1E08F16910409F406CF0E94EC06DC01B6
:104CB000CB0184199509A609B709F80126A937A9D6
:104CC00040AD51AD281739074A075B0708F0F3CE0E
:104CD000C5010E94570FF80184819581A681B78193
:104CE0000196A11DB11D84839583A683B7830E947D
:104CF000EC06F801FE966083718382839383C4017E
:104D000002C080E090E027960FB6F894DEBF0FBE99
:104D1000CDBFDF91CF911F910F91FF90EF90DF906A
:104D2000CF90BF90AF909F908F907F906F905F904B
:104D30004F903F902F900895CF92DF92EF92FF9285
:104D40000F931F93CF93DF93EC016B011AA21BA269
:104D50001CA21DA21EA21FA218A619A61AA61BA657
:104D60001CA61DA62EAB3FAB48AF59AFEAAEFBAEBB
:104D70000CAF1DAF8C01085F1F4F86E0F801119248
:104D80008A95E9F7CE010E94CF2186E0F601D8018D
:104D900001900D928A95E1F7FE01EE5BFF4F1082C4
:104DA000CE01DF91CF911F910F91FF90EF90DF9097
:104DB000CF900C940525CF92DF92EF92FF920F9344
:104DC0001F93CF93DF93EC010E94EC066B017C01F3
:104DD0008E01025C1F4FF80180819181A281B38115
:104DE000A7019601281B390B4A0B5B0BCA01B901BD
:104DF000683E33E073078105910508F441C028EE51
:104E000033E040E050E00E94482CC61AD70AE80A76
:104E1000F90AF801C082D182E282F3828EA59FA5B1
:104E2000A8A9B9A969017A01CC0CDD1CEE1CFF1CF4
:104E30008C159D05AE05BF0528F41EA61FA618AA51
:104E400019AA08C0821B930BA40BB50B8EA79FA7B2
:104E5000A8ABB9AB8AA99BA9ACA9BDA98C159D0526
:104E6000AE05BF0528F41AAA1BAA1CAA1DAA08C0D1
:104E7000821B930BA40BB50B8AAB9BABACABBDAB4E
:104E80008EA59FA5A8A9B9A9892B8A2B8B2B69F47C
:104E9000FE01EE5BFF4F8081833039F484E0808334
:104EA000CE010E940525019602C080E090E04AA94B
:104EB0005BA96CA97DA9452B462B472B81F4FE01EC
:104EC000EE5BFF4F2081233011F0211108C01082CA
:104ED000CE010E94CF21CE010E9405250396DF91CD
:104EE000CF911F910F91FF90EF90DF90CF90089599
:104EF000CF93DF938230910510F482E090E0E0914F
:104F0000A406F091A50620E030E0C0E0D0E03097A4
:104F100011F14081518148175907C0F048175907CE
:104F200061F482819381209719F09B838A832BC03F
:104F30009093A5068093A40626C02115310519F08B
:104F40004217530718F49A01BE01DF01EF010280F6
:104F5000F381E02DDCCF2115310509F1281B390B38
:104F60002430310590F412968D919C911397611520
:104F7000710521F0FB019383828304C09093A50601
:104F80008093A406FD01329644C0FD01E20FF31F99
:104F900081939193225031092D933C933AC02091F3
:104FA000A2063091A306232B41F4209102013091F7
:104FB00003013093A3062093A206209100013091B3
:104FC00001012115310541F42DB73EB7409104018F
:104FD00050910501241B350BE091A206F091A30628
:104FE000E217F307A0F42E1B3F0B2817390778F0C0
:104FF000AC014E5F5F4F2417350748F04E0F5F1F1F
:105000005093A3064093A2068193919302C0E0E0DF
:10501000F0E0CF01DF91CF9108950F931F93CF93CD
:10502000DF93009709F48CC0FC013297138212823F
:105030000091A4061091A5060115110581F42081A7
:105040003181820F931F2091A2063091A306281769
:10505000390779F5F093A306E093A20671C0D80151
:1050600040E050E0AE17BF0750F412962D913C91EE
:105070001397AD012115310509F1D901F3CF9D0138
:10508000DA013383228360817181860F971F821733
:10509000930769F4EC0128813981260F371F2E5FB1
:1050A0003F4F318320838A819B8193838283452B69
:1050B00029F4F093A506E093A40642C01396FC934E
:1050C000EE931297ED01499159919E01240F351FDE
:1050D000E217F30771F480819181840F951F029686
:1050E00011969C938E938281938113969C938E93B9
:1050F0001297E0E0F0E0D80112968D919C91139701
:10510000009719F0F8018C01F6CF8D919C919801D0
:105110002E5F3F4F820F931F2091A2063091A3066E
:105120002817390769F4309729F41092A5061092D0
:10513000A40602C0138212821093A3060093A20653
:10514000DF91CF911F910F9108958F929F92AF920F
:10515000BF92CF92DF92EF92FF92CF93DF93EC0159
:10516000688179818A819B8161157105810591052D
:1051700021F464E279ED8BE597E02DE133EF41E036
:1051800050E00E946A2C49015A019B01AC01A7EA38
:10519000B1E40E94902C6B017C01ACEEB4EFA50150
:1051A00094010E949E2CDC01CB018C0D9D1DAE1D37
:1051B000BF1DB7FF03C00197A109B0488883998339
:1051C000AA83BB83BC01CD019F77DF91CF91FF9074
:1051D000EF90DF90CF90BF90AF909F908F90089509
:1051E0000E94A528089586E091E00E94A5280895D0
:1051F0006093060170930701809308019093090161
:105200000895A0E0B0E0E7E0F9E20C94A72CEC01EF
:10521000009721F4CB010E947827B8C0FC01E60F6B
:10522000F71F9C0122503109E217F30708F4ACC0C4
:10523000D9010D911C91119706171707B0F0053091
:10524000110508F49FC0C80104978617970708F452
:1052500099C002501109061B170B019311936D930E
:105260007C93CF010E940D288DC05B01A01AB10A6A
:105270004C01800E911EA091A406B091A50640E0BD
:1052800050E0E12CF12C109709F44AC0A815B9059B
:10529000D1F56D907C901197630182E0C80ED11C0E
:1052A000CA14DB0480F1A3014A195B096A0182E098
:1052B000C80ED11C1296BC9012971396AC91B5E013
:1052C000CB16D10440F0B282A38351834083D9012D
:1052D0006D937C930AC00E5F1F4FC301800F911F17
:1052E000F90191838083EB2DFA2FE114F10431F061
:1052F000D7011396FC93EE93129744C0F093A50642
:10530000E093A4063FC08D919C91119748175907CF
:1053100008F4AC017D0112960D90BC91A02DB3CF85
:105320008091A2069091A30688159905E1F446178D
:105330005707C8F48091000190910101009741F452
:105340008DB79EB74091040150910501841B950BC8
:10535000E817F907C8F4F093A306E093A206F90151
:10536000718360830FC0CB010E9478277C01009776
:1053700059F0A801BE010E94DB29CE010E940D2830
:10538000C70104C0CE0102C080E090E0CDB7DEB717
:10539000EEE00C94C32CF8940C94052DFB01DC0179
:1053A00004C08D910190801921F441505040C8F7FC
:1053B000881B990B0895FB01DC0102C001900D923E
:1053C00041505040D8F70895FB01DC018D910190C8
:1053D00080190110D9F3990B0895FB01DC010190AC
:1053E0000D920020E1F708954532510520F4423036
:1053F00010F00C94FF29FB011082CB010895BB270C
:105400004A3031F4992322F4BDE2909581959F4F63
:105410000C94162A4532510520F4423010F00C94B9
:10542000152AFB011082CB010895BB27FB015527EC
:10543000AA27880F991FAA1FA41710F0A41B8395F1
:105440005051B9F7A05DAA3308F0A95DA193009768
:1054500079F7B111B1931192CB010C94382C5058BB
:10546000BB27AA270E94472A0C94912B0E94832BCA
:1054700038F00E948A2B20F039F49F3F19F426F46B
:105480000C94802B0EF4E095E7FB0C947A2BE92F1B
:105490000E94A22B58F3BA17620773078407950777
:1054A00020F079F4A6F50C94C42B0EF4E0950B2EA5
:1054B000BA2FA02D0B01B90190010C01CA01A00166
:1054C0001124FF27591B99F0593F50F4503E68F1C1
:1054D0001A16F040A22F232F342F4427585FF3CF02
:1054E000469537952795A795F0405395C9F77EF4D3
:1054F0001F16BA0B620B730B840BBAF09150A1F01C
:10550000FF0FBB1F661F771F881FC2F70EC0BA0FA1
:10551000621F731F841F48F4879577956795B79529
:10552000F7959E3F08F0B0CF9395880F08F0992724
:10553000EE0F9795879508950E94B02A0C94912BB1
:105540000E948A2B58F00E94832B40F029F45F3F81
:1055500029F00C947A2B51110C94C52B0C94802BB0
:105560000E94A22B68F39923B1F3552391F3951B65
:10557000550BBB27AA2762177307840738F09F5F74
:105580005F4F220F331F441FAA1FA9F335D00E2EE1
:105590003AF0E0E832D091505040E695001CCAF74E
:1055A0002BD0FE2F29D0660F771F881FBB1F261711
:1055B00037074807AB07B0E809F0BB0B802DBF01E8
:1055C000FF2793585F4F3AF09E3F510578F00C94B7
:1055D0007A2B0C94C52B5F3FE4F3983ED4F3869569
:1055E00077956795B795F7959F5FC9F7880F911DD8
:1055F0009695879597F90895E1E0660F771F881FC4
:10560000BB1F621773078407BA0720F0621B730B76
:10561000840BBA0BEE1F88F7E09508950E94AA2B21
:1056200088F09F5798F0B92F9927B751B0F0E1F063
:10563000660F771F881F991F1AF0BA95C9F714C013
:10564000B13091F00E94C42BB1E008950C94C42BAA
:10565000672F782F8827B85F39F0B93FCCF386954C
:1056600077956795B395D9F73EF4909580957095A9
:1056700061957F4F8F4F9F4F0895E89409C097FB26
:105680003EF490958095709561957F4F8F4F9F4F19
:105690009923A9F0F92F96E9BB279395F69587955D
:1056A00077956795B795F111F8CFFAF4BB0F11F420
:1056B00060FF1BC06F5F7F4F8F4F9F4F16C08823C7
:1056C00011F096E911C0772321F09EE8872F762FFD
:1056D00005C0662371F096E8862F70E060E02AF03E
:1056E0009A95660F771F881FDAF7880F969587952A
:1056F00097F9089597F99F6780E870E060E0089552
:105700009FEF80EC089500240A94161617061806D9
:105710000906089500240A941216130614060506B5
:105720000895092E0394000C11F4882352F0BB0F46
:1057300040F4BF2B11F460FF04C06F5F7F4F8F4FA9
:105740009F4F089557FD9058440F551F59F05F3FE4
:1057500071F04795880F97FB991F61F09F3F79F093
:1057600087950895121613061406551FF2CF469515
:10577000F1DF08C0161617061806991FF1CF869597
:105780007105610508940895E894BB27662777277B
:10579000CB0197F908950E94DE2B0C94912B0E9467
:1057A000832B38F00E948A2B20F0952311F00C9463
:1057B0007A2B0C94802B11240C94C52B0E94A22BC5
:1057C00070F3959FC1F3950F50E0551F629FF00154
:1057D000729FBB27F00DB11D639FAA27F00DB11D6D
:1057E000AA1F649F6627B00DA11D661F829F2227F6
:1057F000B00DA11D621F739FB00DA11D621F839F7D
:10580000A00D611D221F749F3327A00D611D231F52
:10581000849F600D211D822F762F6A2F11249F57A0
:1058200050409AF0F1F088234AF0EE0FFF1FBB1FA3
:10583000661F771F881F91505040A9F79E3F510562
:1058400080F00C947A2B0C94C52B5F3FE4F3983EC8
:10585000D4F3869577956795B795F795E7959F5F0C
:10586000C1F7FE2B880F911D9695879597F908959E
:10587000DC01FC01672F71917723E1F7329704C0B7
:105880007C916D9370836291AE17BF07C8F3089542
:10589000A1E21A2EAA1BBB1BFD010DC0AA1FBB1F34
:1058A000EE1FFF1FA217B307E407F50720F0A21BA6
:1058B000B30BE40BF50B661F771F881F991F1A9413
:1058C00069F760957095809590959B01AC01BD013D
:1058D000CF010895052E97FB1EF400940E94812CA1
:1058E00057FD07D00E94482C07FC03D04EF40C94BF
:1058F000812C50954095309521953F4F4F4F5F4FEC
:10590000089590958095709561957F4F8F4F9F4F2B
:105910000895692796276927782787277827089584
:105920000E94E02CA59F900DB49F900DA49F800D28
:10593000911D11240895B7FF0C94902C0E94902C77
:10594000821B930B08952F923F924F925F926F921A
:105950007F928F929F92AF92BF92CF92DF92EF92FF
:10596000FF920F931F93CF93DF93CDB7DEB7CA1B80
:10597000DB0B0FB6F894DEBF0FBECDBF09942A88AB
:10598000398848885F846E847D848C849B84AA8453
:10599000B984C884DF80EE80FD800C811B81AA81E0
:1059A000B981CE0FD11D0FB6F894DEBF0FBECDBFAB
:1059B000ED010895EE0FFF1F0590F491E02D09947D
:1059C000A29FB001B39FC001A39F700D811D112440
:1059D000911DB29F700D811D1124911D0895F9999B
:1059E000FECF92BD81BDF89A992780B50895262FE4
:1059F000F999FECF1FBA92BD81BD20BD0FB6F894B4
:105A0000FA9AF99A0FBE0196089510E0C5E6D0E023
:105A100004C0FE010E94DA2C2196C636D107C9F7D0
:045A2000F894FFCF28
:105A24000000A60620000100000007000600BA22BC
:105A3400B922B82201005E00000052756E6E696ED4
:105A4400672053657475702E2E004661696C656419
:105A540020746F20636F6E66696775726520457484
:105A64006865726E6574207573696E672044484377
:105A7400502C2072657374617274696E6720736B45
:105A8400657463682E2E2E00436F6E6669677572A7
:105A940065642049503A0052756E6E696E672053F2
:105AA400657475702E2E2E00436F6E74656E74735C
:105AB400206F66207468652073656E736F7241721F
:105AC4007261792E6D61633A00496E646976696426
:105AD40075616C2076616C7565733A00454550526A
