:100000000C9466000C948E000C948E000C948E0060
:100010000C948E000C948E000C94D60D0C948E00D3
:100020000C948E000C948E000C948E000C948E0018
:100030000C948E000C948E000C948E000C948E0008
:100040000C94F7050C948E000C94B9080C94EB08F2
:100050000C948E000C948E000C948E000C948E00E8
:100060000C94AC1F0C948E000000000800020100EC
:100070000003040700000000000000000102040863
:100080001020408001020408102001020408102002
:10009000040404040404040402020202020203032E
:1000A0000303030300000000250028002B000000CC
:1000B0000000240027002A0090001B09CB09CF0D67
:1000C000D1108117D617B41E6C21D00011241FBE89
:1000D000CFEFD8E0DEBFCDBF13E0A0E0B1E0EEECA3
:1000E000F8E502C005900D92A43AB107D9F726E0D1
:1000F000A4EAB3E001C01D92AB36B207E1F710E00D
:10010000C5E6D0E004C02197FE010E942F2CCC351B
:10011000D107C9F70E9449090C9420290C940000CA
:100120000F9300E020E040E060E087E594E00E946B
:10013000A40901E021E041E06AE081E594E00E9449
:10014000A40986E394E00E9459108BE194E00E9498
:10015000591080E094E00E94591064EA71E08AED41
:1001600093E00E94440A80ED93E00E94C61A8FEC4F
:1001700093E00E943C0D8EEC93E00E943C0D86ECD7
:1001800093E00E94550CE4EAF3E0158A168A178A78
:10019000108E118E128E138E148E158E0F9108955F
:1001A0008AED93E00C94D6090F931F93CF93DF93BE
:1001B00000D000D000D0CDB7DEB78C0140910E0149
:1001C00050910F018EE493E09A83898380915304C8
:1001D00090915404A0915504B09156048B839C8354
:1001E000AD83BE83BE016F5F7F4F80E094E00E94CD
:1001F000C10EB80180E094E00E94C20780E094E064
:100200000E94C90E88E1E0EEF3E0DF011D928A95BD
:10021000E9F726960FB6F894DEBF0FBECDBFDF918B
:10022000CF911F910F9108958F929F92AF92BF929D
:10023000CF92DF92EF92FF920F931F93CF93DF93B2
:1002400000D000D000D0CDB7DEB760E47FE189E018
:1002500095E00E944D0E0E9441064B015C010E94F8
:1002600041060E94922A6093C2037093C303809355
:10027000C4039093C50326E040E051EE60E070E0D7
:1002800086E694E00E94E90B6AE171E086E694E07C
:100290000E94E70760E082E00E944F0761E082E091
:1002A0000E94130760E082E00E944F0760E085E053
:1002B0000E944F0761E085E00E94130760E085E03F
:1002C0000E944F0760E086E00E944F0761E086E0F1
:1002D0000E94130760E086E00E944F0761E083E020
:1002E0000E944F0761E083E00E94130761E083E012
:1002F0000E944F0761E087E00E944F0761E087E0BE
:100300000E94130761E087E00E944F0761E084E0EC
:100310000E944F0761E084E00E94130761E084E0DF
:100320000E944F079AEFE92E93E0F92E0091D8032F
:100330001091D903C8010E94442CF70181937F01D9
:100340000F5F1F4F1093D9030093D803F0E0EF160F
:10035000F4E0FF0659F710EAE12E1FE0F12E00E06D
:1003600010E020E63AEE40E050E06AEF73E083E20E
:1003700095E00E945716892B61F46AE271E086E6E7
:1003800094E00E94E70760E177E280E090E00E945D
:10039000720668E671E086E694E00E94E70763E291
:1003A00075E0CE0101960E945917BE016F5F7F4F25
:1003B00086E694E00E94F9076091120170911301A2
:1003C00086E394E00E94420F609110017091110148
:1003D0008BE194E00E94420F60910E0170910F0139
:1003E00080E094E00E94420F6CED75E080E090E0C8
:1003F0000E94720667E771E0CE0101960E94440AEE
:10040000CE0101960E94D400CE0101960E94D60929
:1004100080910C0190910D010E94442C682F70E096
:1004200080E090E00E94922A6093A4037093A50359
:100430008093A6039093A70368E871E086E694E0B2
:100440000E94D00768E871E0CE0101960E94440A3C
:10045000CE0101960E94D400CE0101960E94D609D9
:1004600000E010E069E971E086E694E00E94D007C0
:100470004AE050E0B80186E694E00E949E0863EAF4
:1004800071E086E694E00E94D00765EA71E086E6B6
:1004900094E00E94D007C8010E94442C4AE050E03A
:1004A000682F86E694E00E94B20863EA71E086E66F
:1004B00094E00E94D00769E971E0CE0101960E94A4
:1004C000440ACE0101960E94D400CE0101960E94FA
:1004D000D6094AE0B801CE0101960E949D0ACE01DC
:1004E00001960E94D400CE0101960E94D60965EAC9
:1004F00071E0CE0101960E94440ACE0101960E944D
:10050000D400CE0101960E94D609C8010E94442C55
:100510004AE0682FCE0101960E94700ACE01019632
:100520000E94D400CE0101960E94D6090F5F1F4F92
:100530000830110509F096CF4FEF6EE380ED93E0A0
:100540000E947E1D882309F494C06CEA71E086E65F
:1005500094E00E94E7076CEA71E0CE0101960E94E8
:10056000440ACE0101960E94D400CE0101960E9459
:10057000D60940E060E080ED93E00E941B1D40E062
:1005800061E080ED93E00E941B1D40E062E080EDA1
:1005900093E00E941B1D40E063E080ED93E00E9429
:1005A0001B1D40E064E080ED93E00E941B1D40E0D5
:1005B00065E080ED93E00E941B1D40E066E080ED69
:1005C00093E00E941B1D40E067E080ED93E00E94F5
:1005D0001B1D40E068E080ED93E00E941B1D40E0A1
:1005E00069E080ED93E00E941B1D40E06AE080ED31
:1005F00093E00E941B1D40E06BE080ED93E00E94C1
:100600001B1D41E06CE080ED93E00E941B1D41E06A
:100610006DE080ED93E00E941B1D41E06EE080EDF7
:1006200093E00E941B1D41E06FE080ED93E00E948B
:100630001B1D00E010E0602F80ED93E00E944D1C38
:1006400090E0002E02C0880F991F0A94E2F72091D3
:10065000B803BC01622B6093B8030F5F1F4F0630D5
:10066000110549F780910A0190910B010E944C2CD1
:1006700014C063EC71E086E694E00E94E70763EC47
:1006800071E0CE0101960E94440ACE0101960E94BB
:10069000D400CE0101960E94D6090E9441066B014A
:1006A0007C016DED71E0CE0101960E94440ACE01FD
:1006B00001960E94D400CE0101960E94D609B6018F
:1006C000681979094AE0CE0101960E94C90ACE0153
:1006D00001960E94D400CE0101960E94D60926966A
:1006E0000FB6F894DEBF0FBECDBFDF91CF911F9143
:1006F0000F91FF90EF90DF90CF90BF90AF909F90C1
:100700008F900895CF93DF9300D000D000D0CDB765
:10071000DEB763EF71E086E694E00E94E70763EFDF
:1007200071E0CE0101960E94440ACE0101960E941A
:10073000D400CE0101960E94D60964EF71E080E0FA
:1007400090E00E94720660E084E00E944F072696C7
:100750000FB6F894DEBF0FBECDBFDF91CF910895E5
:10076000CF93DF93CDB7DEB72C970FB6F894DEBFEB
:100770000FBECDBF48E150E060EE73E086E394E049
:100780000E940A0F60EE73E0CE0107960E94440AB1
:100790006AE072E0CE0107960E94F50A8823C9F04C
:1007A0006FE072E086E694E00E94E7076FE072E097
:1007B000CE0101960E94440ACE0101960E94D40007
:1007C000CE0101960E94D60989E095E00E94E00DD5
:1007D000C2C060E272E0CE0107960E94F50A88234B
:1007E00041F061E082E00E944F0781E08093B9030D
:1007F000B2C06DE272E0CE0107960E94F50A88232E
:1008000039F060E082E00E944F071092B903A3C064
:100810006BE372E0CE0107960E94F50A882371F01F
:1008200069E472E086E694E00E94E70760E083E016
:100830000E944F0781E08093BC038DC067E572E0A2
:10084000CE0107960E94F50A882369F066E672E0F9
:1008500086E694E00E94E70761E083E00E944F078C
:100860001092BC0378C065E772E0CE0107960E9443
:10087000F50A882371F063E872E086E694E00E944E
:10088000E70760E087E00E944F0781E08093BD03A7
:1008900062C061E972E0CE0107960E94F50A8823E2
:1008A00069F060EA72E086E694E00E94E70761E0A2
:1008B00087E00E944F071092BD034DC06FEA72E0BF
:1008C000CE0107960E94F50A882341F061E085E099
:1008D0000E944F0781E08093BA033DC066EB72E04F
:1008E000CE0107960E94F50A882339F060E085E082
:1008F0000E944F071092BA032EC06EEB72E0CE0139
:1009000007960E94F50A882371F065EC72E086E68E
:1009100094E00E94E70761E086E00E944F0781E0D3
:100920008093BB0318C06CEC72E0CE0107960E9466
:10093000F50A882339F060E086E00E944F071092A4
:10094000BB0309C064ED72E0CE0107960E94F50A70
:1009500081110E948203CE0107960E94D6092C962F
:100960000FB6F894DEBF0FBECDBFDF91CF910895D3
:100970008F929F92AF92BF92CF92DF92EF92FF92AF
:10098000CF93DF9300D000D000D0CDB7DEB70E9468
:1009900041064B015C016AE18FEC93E00E94900DEF
:1009A000882369F08FEC93E00E94B20D6093A80356
:1009B0007093A9038093AA039093AB0314C06AEDCC
:1009C00072E086E694E00E94E7076AED72E0CE01ED
:1009D00001960E94440ACE0101960E94D400CE01E5
:1009E00001960E94D6096BE18EEC93E00E94900D77
:1009F000882369F08EEC93E00E94B20D6093AC0303
:100A00007093AD038093AE039093AF0314C060EF77
:100A100072E086E694E00E94E70760EF72E0CE01A4
:100A200001960E94440ACE0101960E94D400CE0194
:100A300001960E94D60986EC93E00E946C0C8823F4
:100A4000C9F086EC93E00E949A0C6093B003709317
:100A5000B1038093B2039093B30386EC93E00E94BA
:100A6000EB0C6093B4037093B5038093B60390933B
:100A7000B70314C066E073E086E694E00E94E707DF
:100A800066E073E0CE0101960E94440ACE01019611
:100A90000E94D400CE0101960E94D6090E94410610
:100AA0000E94922A2091C2033091C3034091C40353
:100AB0005091C5030E94842920E030E04AE754E4C5
:100AC0000E94F1296093BE037093BF038093C0031B
:100AD0009093C10340911001509111018EE493E075
:100AE0009A8389838091530490915404A091550472
:100AF000B09156048B839C83AD83BE83BE016F5F30
:100B00007F4F8BE194E00E94C10E4EE150E064EA19
:100B100073E08BE194E00E94CD0E8BE194E00E94A3
:100B2000C90E69E173E086E694E00E94E70769E197
:100B300073E0CE0101960E94440ACE0101960E9404
:100B4000D400CE0101960E94D60988E1E0EEF3E0E0
:100B5000DF011D928A95E9F786E394E00E946F0F0A
:100B60009093F9038093F8031816190614F40E9461
:100B7000B00388E1E0EEF3E0DF011D928A95E9F72A
:100B800083E295E00E94F4160E9441066B017C010D
:100B90006CE273E0CE0101960E94440ACE010196F8
:100BA0000E94D400CE0101960E94D609B6016819B0
:100BB00079094AE0CE0101960E94C90ACE01019648
:100BC0000E94D400CE0101960E94D60926960FB647
:100BD000F894DEBF0FBECDBFDF91CF91FF90EF90B5
:100BE000DF90CF90BF90AF909F908F9008951F920D
:100BF0000F920FB60F9211242F933F938F939F93D1
:100C0000AF93BF9380915E0490915F04A0916004C4
:100C1000B091610430915D0423E0230F2D3720F45F
:100C20000196A11DB11D05C026E8230F0296A11D46
:100C3000B11D20935D0480935E0490935F04A093A4
:100C40006004B09361048091620490916304A09168
:100C50006404B09165040196A11DB11D80936204E6
:100C600090936304A0936404B0936504BF91AF9123
:100C70009F918F913F912F910F900FBE0F901F90DA
:100C800018952FB7F89460915E0470915F0480917D
:100C90006004909161042FBF08953FB7F89480914C
:100CA000620490916304A0916404B091650426B538
:100CB000A89B05C02F3F19F00196A11DB11D3FBF94
:100CC000BA2FA92F982F8827820F911DA11DB11D22
:100CD000BC01CD0142E0660F771F881F991F4A951E
:100CE000D1F708958F929F92AF92BF92CF92DF92E9
:100CF000EF92FF926B017C010E944D064B015C015B
:100D0000C114D104E104F10401F10E94E9060E943A
:100D10004D06DC01CB0188199909AA09BB09883E57
:100D20009340A105B10560F321E0C21AD108E108A2
:100D3000F10888EE880E83E0981EA11CB11CC11436
:100D4000D104E104F10419F7DBCFFF90EF90DF90BD
:100D5000CF90BF90AF909F908F900895789484B576
:100D6000826084BD84B5816084BD85B5826085BDA7
:100D700085B5816085BDEEE6F0E08081816080838D
:100D8000E1E8F0E010828081826080838081816070
:100D90008083E0E8F0E0808181608083E1EBF0E037
:100DA000808184608083E0EBF0E0808181608083DB
:100DB000EAE7F0E0808184608083808182608083C4
:100DC0008081816080838081806880831092C100EF
:100DD00008950895833081F028F4813099F08230AD
:100DE000A1F008958730A9F08830B9F08430D1F4AB
:100DF000809180008F7D03C0809180008F778093E9
:100E00008000089584B58F7702C084B58F7D84BD3E
:100E100008958091B0008F7703C08091B0008F7DDE
:100E20008093B0000895CF93DF9390E0FC01E458E5
:100E3000FF4F2491FC01E057FF4F8491882361F11B
:100E400090E0880F991FFC01E255FF4FC591D491A6
:100E5000FC01EC55FF4FA591B491611109C09FB7FA
:100E6000F8948881209582238883EC912E230BC0EF
:100E7000623061F49FB7F8943881822F8095832384
:100E80008883EC912E2B2C939FBF06C08FB7F894CC
:100E9000E8812E2B28838FBFDF91CF9108951F9378
:100EA000CF93DF93282F30E0F901E859FF4F849169
:100EB000F901E458FF4FD491F901E057FF4FC49175
:100EC000CC23C9F0162F81110E94EA06EC2FF0E026
:100ED000EE0FFF1FEC55FF4FA591B4918FB7F8941B
:100EE000111105C09C91ED2FE095E92302C0EC9112
:100EF000ED2BEC938FBFDF91CF911F91089580E090
:100F000090E00895CF92DF92EF92FF920F931F939C
:100F1000CF93DF936C017A018B01C0E0D0E0CE1556
:100F2000DF0589F0D8016D918D01D601ED91FC911D
:100F30000190F081E02DC6010995892B11F47E0105
:100F400002C02196ECCFC701DF91CF911F910F9185
:100F5000FF90EF90DF90CF9008956115710579F0C3
:100F6000FB0101900020E9F73197AF01461B570BB9
:100F7000DC01ED91FC910280F381E02D099480E089
:100F800090E00895DC01ED91FC91DB0114964D9108
:100F90005C9115976D917C910280F381E02D09940D
:100FA0000C94AD07DC01ED91FC910190F081E02DF6
:100FB0000994DB01ED91FC9111970190F081E02DF6
:100FC000BC01CD0109946BE373E00C94AD070F9362
:100FD0001F93CF93DF93EC010E94AD078C01CE01EC
:100FE0000E94E307800F911FDF91CF911F910F9116
:100FF00008950F931F93CF93DF93EC010E94D907BD
:101000008C01CE010E94E307800F911FDF91CF91E9
:101010001F910F9108954F925F926F927F92EF927E
:10102000FF920F931F93CF93DF93CDB7DEB7A197B6
:101030000FB6F894DEBF0FBECDBF7C01FA01CB0125
:1010400019A2223008F42AE08E010F5D1F4F422EB4
:10105000512C612C712CBF01A30192010E949D2B88
:10106000F901CA01015011096A3014F4605D01C030
:10107000695CD8016C93232B242B252B61F7B801D5
:10108000C7010E94AD07A1960FB6F894DEBF0FBE50
:10109000CDBFDF91CF911F910F91FF90EF907F9087
:1010A0006F905F904F900895CF92DF92EF92FF92F2
:1010B0000F931F93CF93DF93EC016A017B012115FE
:1010C000310579F4E881F9810190F081E02D642FF8
:1010D000DF91CF911F910F91FF90EF90DF90CF9014
:1010E00009942A303105E9F477FF1AC06DE20E94B5
:1010F000D2078C0144275527BA014C195D096E09A6
:101100007F092AE0CE010E940B08800F911FDF911A
:10111000CF911F910F91FF90EF90DF90CF900895A6
:101120002AE0B701A601CE01DF91CF911F910F9167
:10113000FF90EF90DF90CF900C940B089A01AB01D9
:10114000770F660B770B0C9454082115310541F489
:10115000DC01ED91FC910190F081E02D642F099468
:101160000C940B089A01462F50E060E070E00C945C
:10117000A5081F920F920FB60F9211242F938F93F1
:101180009F93EF93FF93E0917604F0917704808131
:10119000E0917C04F0917D0482FD12C090818091E9
:1011A0007F048F5F8F7320918004821751F0E0914C
:1011B0007F04F0E0EA59FB4F958F80937F0401C0D4
:1011C0008081FF91EF919F918F912F910F900FBE92
:1011D0000F901F9018951F920F920FB60F92112427
:1011E0002F933F934F935F936F937F938F939F932F
:1011F000AF93BF93EF93FF9386E694E00E945F0B5B
:10120000FF91EF91BF91AF919F918F917F916F91DE
:101210005F914F913F912F910F900FBE0F901F90B4
:10122000189586E694E00E94140B21E0892B09F4BE
:1012300020E0822F0895E6E6F4E01382128288EE21
:1012400093E0A0E0B0E084839583A683B78384E530
:1012500093E09183808385EC90E09587848784EC8C
:1012600090E09787868780EC90E0918B808B81EC73
:1012700090E0938B828B82EC90E0958B848B86EC54
:1012800090E0978B868B118E128E138E148E08959C
:1012900008950E94AE060E9448090E941401C1E50B
:1012A000DBE00E94B8042097E1F30E94510BF9CFD4
:1012B0008F929F92AF92BF92CF92DF92EF92FF9266
:1012C0000F931F93CF93DF937C018B016C0182E01E
:1012D000C80ED11C4701E5E08E0E911CC0E0D0E0A5
:1012E000F60161916F014AE050E0C8010E94B20826
:1012F0005C016EE2C8010E94D2078A0D9B1DC80FD7
:10130000D91FC814D90461F74AE050E0F70165819C
:10131000C8010E94B2088C0F9D1FDF91CF911F91D1
:101320000F91FF90EF90DF90CF90BF90AF909F9084
:101330008F9008952EE433E0FC01318320831282E4
:1013400013821482158208950F93FC018EE493E0BA
:101350009183808362834383248305830F9108955F
:101360002EE433E0FC0131832083FB014081518175
:1013700062817381FC014283538364837583089582
:10138000FB014081518162817381FC01428353835F
:10139000648375830895E3E0F5E08EE493E0918340
:1013A000808312821382148215820895FC01808149
:1013B00091810C946227CF93DF93EC01888199810E
:1013C000009711F00E946227198218821D821C82E8
:1013D0001B821A82DF91CF9108950F931F93CF93B1
:1013E000DF93EC018B016F5F7F4F888199810E94B1
:1013F0005628009731F0998388831B830A8381E004
:1014000001C080E0DF91CF911F910F910895CF939C
:10141000DF93EC0188819981892B29F08A819B8156
:101420008617970760F4CE010E94ED09882341F0EA
:101430008C819D81892B19F4E881F981108281E0EA
:10144000DF91CF910895EF92FF920F931F93CF9367
:10145000DF93EC017B018A01BA010E94070A811126
:1014600004C0CE010E94DB0907C01D830C83B701B5
:10147000888199810E944229CE01DF91CF911F91ED
:101480000F91FF90EF900895FC011182108213825A
:101490001282158214826115710551F0FB010190D1
:1014A0000020E9F73197AF01461B570B0C94230A34
:1014B0000895CF93DF93EC016115710559F0FB019D
:1014C00001900020E9F73197AF01461B570B0E94AE
:1014D000230A02C00E94DB09CE01DF91CF9108955B
:1014E0000F931F93CF93DF93CDB7DEB729970FB636
:1014F000F894DEBF0FBECDBF8C01862FF80111829C
:101500001082138212821582148250E0BE016F5F36
:101510007F4F90E00E945F29BE016F5F7F4FC8013F
:101520000E94590A29960FB6F894DEBF0FBECDBFB0
:10153000DF91CF911F910F9108950F931F93CF9338
:10154000DF93CDB7DEB762970FB6F894DEBF0FBE5C
:10155000CDBF8C01CB01F80111821082138212825F
:101560001582148250E0BE016F5F7F4F0E944929AF
:10157000BE016F5F7F4FC8010E94590A62960FB685
:10158000F894DEBF0FBECDBFDF91CF911F910F91B9
:1015900008950F931F93CF93DF93CDB7DEB7619775
:1015A0000FB6F894DEBF0FBECDBF8C01CB01F801A2
:1015B00011821082138212821582148250E0BE01C1
:1015C0006F5F7F4F0E945F29BE016F5F7F4FC80131
:1015D0000E94590A61960FB6F894DEBF0FBECDBFC8
:1015E000DF91CF911F910F910895FC0124813581E6
:1015F000232B31F421E061157105A1F0FB0108C036
:10160000FC01808191816115710531F421E0FC01BB
:101610008081882339F005C00E94392921E0892B77
:1016200009F020E0822F0895FC01918D228D892FF1
:1016300090E0805C9F4F821B91098F7399270895DA
:10164000FC01918D828D981731F0828DE80FF11D8C
:10165000858D90E008958FEF9FEF0895FC01918DA7
:10166000828D981761F0828DDF01A80FB11D5D9604
:101670008C91928D9F5F9F73928F90E008958FEF72
:101680009FEF0895FC01538D448D252F30E0842F6A
:1016900090E0821B930B541710F0CF96089501979A
:1016A000089581E199E0892B49F080E090E0892B51
:1016B00029F00E94110981110C9400000895FC0189
:1016C000848DDF01A80FB11DA35ABF4F2C91848DCB
:1016D00090E001968F739927848FA689B7892C9300
:1016E000A089B1898C9180648C93938D848D98139B
:1016F00006C00288F389E02D80818F7D8083089564
:10170000CF93DF93EC01888D8823C9F0EA89FB89A8
:10171000808185FD05C0A889B9898C9186FD0FC09F
:101720000FB607FCF5CF808185FFF2CFA889B98974
:101730008C9185FFEDCFCE010E945F0BE7CFDF914B
:10174000CF910895EF92FF920F931F93CF93DF9362
:10175000EC0181E0888F9B8D8C8D981305C0E88902
:10176000F989808185FD24C0F62E0B8D10E00F5F76
:101770001F4F0F731127E02E8C8DE8120CC00FB68F
:1017800007FCFACFE889F989808185FFF5CFCE0182
:101790000E945F0BF1CF8B8DFE01E80FF11DE35A24
:1017A000FF4FF0820B8FEA89FB898081806207C03E
:1017B000EE89FF896083E889F9898081806480836C
:1017C00081E090E0DF91CF911F910F91FF90EF901A
:1017D0000895CF92DF92EF92FF921F93CF93DF9302
:1017E000EC016A017B01122FE889F98982E080838C
:1017F0004115514E61057105B1F060E079E08DE36E
:1018000090E0A70196010E949D2BDA01C901019782
:10181000A109B109B695A79597958795AC01411592
:1018200080E15807A8F0E889F989108260E874E837
:101830008EE190E0A70196010E949D2BBA01A901BB
:1018400041505109610971097695679557954795FA
:10185000EC85FD855083EE85FF854083188EEC89ED
:10186000FD891083EA89FB89808180618083EA8910
:10187000FB89808188608083EA89FB898081806818
:101880008083EA89FB8980818F7D8083DF91CF917E
:101890001F91FF90EF90DF90CF900895DC01ED91C4
:1018A000FC910190F081E02D0994089560E470E0CE
:1018B00081EA95E00E94321E6EEF70E081EA95E0C9
:1018C0000E944E0C81EA95E00E94B11E6FE070E02C
:1018D00080E090E00C947206CF93DF93EC0181EAF4
:1018E00095E00E941E1ECE010E94560C60E470E03E
:1018F00081EA95E00E94321E67EE70E081EA95E091
:101900000E944E0C81EA95E00E94B11E41E050E039
:1019100060E470E081EA95E00E94AE1E81EA95E005
:101920000E948B1D21E0029709F020E0822FDF91B9
:10193000CF910895CF93DF9360E470E081EA95E062
:101940000E94321E63EE70E081EA95E00E944E0C28
:1019500081EA95E00E94B11E62E370E080E090E0D1
:101960000E94720643E050E060E470E081EA95E096
:101970000E94AE1E81EA95E00E94831D892BD1F35F
:1019800081EA95E00E948B1DD82F80E0C82F81EA64
:1019900095E00E948B1DC82BD92B81EA95E00E940F
:1019A0008B1DBE0180E090E00E94922A22E538EB78
:1019B0004FE253E40E94202B20E030E040E857E360
:1019C0000E94202B26E636E64BE352E40E9484294F
:1019D000DF91CF910895CF93DF9360E470E081EAC7
:1019E00095E00E94321E65EE70E081EA95E00E946B
:1019F0004E0C81EA95E00E94B11E62E370E080E047
:101A000090E00E94720643E050E060E470E081EAFA
:101A100095E00E94AE1E81EA95E00E94831D892B0D
:101A2000D1F381EA95E00E948B1DD82F80E0C82F6A
:101A300081EA95E00E948B1DC82BD92B81EA95E0A5
:101A40000E948B1DBE0180E090E00E94922A20E05F
:101A500030E04AEF52E40E94202B20E030E040E8E2
:101A600057E30E94202B20E030E040EC50E40E943D
:101A70008429DF91CF91089508951F93CF93DF9329
:101A800000D0CDB7DEB7162FFC01608181EA95E06A
:101A90004A8359830E94281E612F81EA95E00E94A3
:101AA000DF1D5981652F81EA95E00E94DF1D4A8183
:101AB000642F81EA95E00E94DF1D81EA95E00F9096
:101AC0000F90DF91CF911F910C94B11E1F93CF9374
:101AD000DF93EC01162F688181EA95E00E94281EB1
:101AE000612F81EA95E00E94DF1D81EA95E00E9466
:101AF000B11E42E0688181EA95E00E94AB1E81EA56
:101B000095E00E948B1DD82F80E0C82F81EA95E0D8
:101B10000E948B1D8C2B9D2BDF91CF911F910895DF
:101B2000CF93DF93EC01688381EA95E00E941E1E4B
:101B300066E0CE010E94660D8435910511F080E0CB
:101B40000EC067E0CE010E94660D81159440B9F782
:101B500040E050E061E0CE010E943D0D81E0DF9168
:101B6000CF910895CF93DF9365E00E94660DEC015D
:101B7000BC017F7080E090E00E94922A20E030E07B
:101B800040E85DE30E94202BD4FF06C020E030E057
:101B900040E853E40E948429DF91CF9108958FEFAC
:101BA0009FEF90930A058093090508951F920F9265
:101BB0000FB60F9211240F900FBE0F901F90189523
:101BC000A8950895DA01F90160348FE178071CF4D3
:101BD0006115710539F489E090E08D939C9380E460
:101BE0009FE158C0603A8FE078073CF088E090E0D1
:101BF0008D939C9380EA9FE04DC0603D87E078071D
:101C00003CF087E090E08D939C9380ED97E042C09C
:101C1000683E83E078073CF086E090E08D939C93EB
:101C200088EE93E037C0643F81E078073CF085E0C0
:101C300090E08D939C9384EF91E02CC06A3F7105F6
:101C40003CF084E090E08D939C938AEF90E022C07A
:101C5000683771053CF083E090E08D939C9388E7B2
:101C600090E018C06C3371053CF082E090E08D93F9
:101C70009C938CE390E00EC06E3171053CF081E0E6
:101C800090E08D939C938EE190E004C01D921C9295
:101C90008FE090E09183808308950F931F93CF93FB
:101CA000DF9300D0CDB7DEB78C019E012F5F3F4F91
:101CB000AC010E94E20DF801808183FD02C098E032
:101CC00001C098E28770892B98E10FB6F894A89527
:101CD000909360000FBE8093600089819A810F907D
:101CE0000F90DF91CF911F910F910895DC01ED913D
:101CF000FC91048CF58DE02D09942EE433E0FC0179
:101D000031832083FB014089518962897389FC01F9
:101D100042835383648375830895FC018489958984
:101D20000895FC01818D928D0895CF93DF931F92CA
:101D3000CDB7DEB76983DC01ED91FC910280F381C0
:101D4000E02D41E050E0BE016F5F7F4F09950F909D
:101D5000DF91CF9108950895CF93DF93EC01888DA3
:101D6000843061F00E942C14E88DF0E0EE0FFF1F2C
:101D7000E757FA4F1182108284E0888FDF91CF916C
:101D80000895FC01178A168A6E5F7F4F808D0C9430
:101D9000AA15FC01808D0C94F015CF93DF93EC0114
:101DA0009A018E899F89AB01BC01888D0E946315C1
:101DB0002E893F89280F391F3F8B2E8BDF91CF91C2
:101DC00008950F931F93CF93DF931F92CDB7DEB784
:101DD000FC01218D328D232B61F08C0141E050E01C
:101DE000BE016F5F7F4F808D0E94A91418161906DF
:101DF0001CF08FEF9FEF08C0F801818D928D019745
:101E0000928F818F898190E00F90DF91CF911F9108
:101E10000F910895CF93DF93FC01218D328D211511
:101E2000310519F48FEF9FEF11C0EC0142175307F2
:101E300008F0A901888D0E94A9141816190694F7B4
:101E4000298D3A8D281B390B3A8F298FDF91CF913D
:101E50000895CF93DF931F92CDB7DEB7FC01218D9C
:101E6000328D232B49F0BE016F5F7F4F808D0E9422
:101E70003415898190E002C08FEF9FEF0F90DF91C2
:101E8000CF910895EF92FF921F93CF93DF93FC01C0
:101E9000208D243011F080E01CC07B01EC0110E0AB
:101EA000812F0E940414811102C0188F05C088314F
:101EB000E1F31F5F1430A1F7888D843061F3FD8654
:101EC000EC861A8E198E20E0A70162E00E9456145B
:101ED00081E0DF91CF911F91FF90EF9008950F93D4
:101EE0001F93CF93DF93CDB7DEB728970FB6F89443
:101EF000DEBF0FBECDBF8C01F801818D928D892B85
:101F000049F0D801ED91FC910284F385E02DC801E0
:101F10000995F2CF808D0E9409151816190654F5FF
:101F200048E050E0BE016F5F7F4FD80158968C911A
:101F30000E94A9149C0118161906D4F4BE016F5F03
:101F40007F4FC8010E960E94C0098D8190E0982FA6
:101F500088272E81820F911DF801958B848B2F810C
:101F600030E0322F22278885280F311D328F218FB4
:101F7000C90102C080E090E028960FB6F894DEBF59
:101F80000FBECDBFDF91CF911F910F9108958F921A
:101F90009F92AF92BF92CF92DF92EF92FF920F93F8
:101FA0001F93CF93DF9300D000D000D0CDB7DEB722
:101FB000FC01208D243009F068C06A017B018C018E
:101FC00053E0852E54E0952EA12CB12CC4010E9423
:101FD000AA11811103C0F801A08E0AC08831D9F37B
:101FE000FFEFAF1ABF0A9394E4E0AE16B10471F7A5
:101FF000F801808D843009F448C096E0E4E1F1E016
:10200000DE01119601900D929A95E1F7F701938107
:102010009F779C8394819D8395819E83B7016E5F9A
:102020007F4F90E0982F882744E050E0845F9B4FDB
:102030000E947B11F801E08CF12CF4E0EF0EF11C12
:10204000FE2CEE246D2DC70140960E94E7106C2DEA
:10205000C70141960E94E710F801808D90E0982F0B
:10206000882746E050E0BE016F5F7F4F8A5F9B4F3D
:102070000E947B11F801128E118E20E8A60162E009
:10208000808D0E94561481E001C080E026960FB634
:10209000F894DEBF0FBECDBFDF91CF911F910F919E
:1020A000FF90EF90DF90CF90BF90AF909F908F9078
:1020B0000895CF93DF93EC011B821A8288EE93E0A0
:1020C000A0E0B0E08C839D83AE83BF8386E693E07F
:1020D00099838883CE010E960E949A0984E0888FA6
:1020E000DF91CF910895CF92DF92EF92FF920F93FD
:1020F0001F93CF93DF93CDB7DEB7AF970FB6F894AA
:10210000DEBF0FBECDBF8C016B017A01CE010196FF
:102110000E949A09CE0109960E945910CE018A9612
:102120000E949A0963E275E0CE0184960E947117BD
:10213000BE016C5D7F4FCE0101960E949317AE01E8
:10214000465D5F4FB601CE0101960E94021A8130B2
:102150009105C1F4D801ED91FC910488F589E02D39
:102160008EE493E09DA38CA38CA59DA5AEA5BFA5F1
:102170008EA39FA3A8A7B9A7A701BE016C5D7F4F3F
:10218000C8010995AF960FB6F894DEBF0FBECDBF5C
:10219000DF91CF911F910F91FF90EF90DF90CF9043
:1021A00008950F9300E020E040E060E08BE095E0D0
:1021B0000E94A4090F9108958EBD00000DB407FE82
:1021C000FDCF8EB508952A9808952A9A08951F93F1
:1021D000CF93DF9300D0CDB7DEB7182F6A839983F2
:1021E0000E94E31080EF0E94DC109981892F0E94E9
:1021F000DC10812F0E94DC106A81862F0E94DC1087
:102200000E94E51081E00F900F90DF91CF911F9118
:102210000895CF93DF93EC016CE271E080E090E0F1
:102220000E9472060E94901A229A80919F0588232C
:1022300099F02FB7F89480919F05813059F48DB3B0
:1022400080939D059DB380919E05809589238DBBCC
:102250002FBF02C020939D0580E58CBD1DBC60E8AA
:1022600080E090E00E94E71065E58BE190E00E943D
:10227000E71065E58AE190E00E94E71080919F05F4
:10228000882351F09FB7F89420919F0580919D0578
:10229000213029F58DBB9FBF80E090E4998388832E
:1022A00080E090E69987888780E098E49B838A8322
:1022B00080E098E69B878A8780E090E59D838C8309
:1022C00080E090E79D878C8780E098E59F838E83F0
:1022D00080E098E79F878E87DF91CF9108958FBF29
:1022E000DBCF9B0190E00496982F8827642F820F04
:1022F000931F0C94E710CF92DF92EF92FF920F930F
:102300001F93CF93DF93EC017A018B016C01C40E14
:10231000D51ECC15DD05A1F00E94E31080EF0E94D0
:10232000DC108D2F0E94DC108C2F0E94DC10219677
:10233000F80181918F010E94DC100E94E510E9CF25
:10234000C701DF91CF911F910F91FF90EF90DF9028
:10235000CF9008951F93CF93DF931F92CDB7DEB731
:10236000182F99830E94E3108FE00E94DC1099815E
:10237000892F0E94DC10812F0E94DC1080E00E94D7
:10238000DC1089830E94E51089810F90DF91CF9145
:102390001F91089590E00496982F8827860F971F25
:1023A0000C94AA111F93CF93DF93182F60E270E073
:1023B0000E94CA11C82FD0E061E270E0812F0E9414
:1023C000CA11DC2FCC279E01282BC901DF91CF91A8
:1023D0001F910895FF920F931F93CF93DF93F62ED3
:1023E000C0E0D0E08F2D0E94D2118C01892B21F00A
:1023F0008F2D0E94D211EC01C017D10799F7CE01A1
:10240000DF91CF911F910F91FF9008951F93CF936C
:10241000DF93182F66E270E00E94CA11C82FD0E047
:1024200067E270E0812F0E94CA11DC2FCC279E0149
:10243000282BC901DF91CF911F910895FF920F932F
:102440001F93CF93DF93F62EC0E0D0E08F2D0E9434
:1024500006128C01892B21F08F2D0E940612EC01AF
:10246000C017D10799F7CE01DF91CF911F910F913E
:10247000FF9008956F927F928F929F92AF92BF923A
:10248000CF92DF92EF92FF920F931F93CF93DF9340
:102490001F92CDB7DEB7882E962E6A01590164E2ED
:1024A00070E0892D99830E94CA11E82EF12C65E213
:1024B00070E0892D0E94CA11FE2CEE24E82A370113
:1024C0006C0C7D1CA3015770E82C9981F92EE90C46
:1024D000F11CE90CF11CF70180819181840F951F9B
:1024E0009A01200F311F2130384098F060E078E0E9
:1024F0006B01C41AD50AA601B5010E947B11A8017F
:102500004C195D09B5016C0D7D1DF701808191812C
:1025100002C0A801B5010E947B11060D171D412FB5
:1025200064E270E0892D0E947111402F65E270E035
:10253000892D0F90DF91CF911F910F91FF90EF9018
:10254000DF90CF90BF90AF909F908F907F906F90D3
:102550000C947111CF92DF92EF92FF920F931F9321
:10256000CF93DF93EC017A018B016C01C40ED51E71
:10257000CC15DD05A9F00E94E3108FE00E94DC106D
:102580008D2F0E94DC108C2F0E94DC10219680E0A1
:102590000E94DC10F80181938F010E94E510E8CFC2
:1025A000C701DF91CF911F910F91FF90EF90DF90C6
:1025B000CF900895AF92BF92CF92DF92EF92FF92A9
:1025C0000F931F93CF93DF9300D0CDB7DEB75A831D
:1025D0004983590129813A8137706C01C60ED11C9B
:1025E000C60ED11CF60180859185820F931FA8012C
:1025F000420F531F4130584098F0E0E0F8E07F016F
:10260000E21AF30AA701B5010E94AA12A8014E1905
:102610005F09B5016E0D7F1DF6018085918502C0B1
:10262000A801B5010F900F90DF91CF911F910F91ED
:10263000FF90EF90DF90CF90BF90AF900C94AA12D4
:102640008F929F92AF92BF92CF92DF92EF92FF92C2
:102650000F931F93CF93DF936C01962E5A0179014C
:10266000802E68E270E0892D0E94CA11C82FD0E048
:1026700069E270E0892D0E94CA11DC2FCC27C82B9B
:1026800087019501AE01692DC6010E94DA12811001
:102690001AC0CE0DDF1D4D2F68E270E0892D0E941B
:1026A00071114C2F69E270E0892DDF91CF911F915C
:1026B0000F91FF90EF90DF90CF90BF90AF909F90E1
:1026C0008F900C947111DF91CF911F910F91FF901A
:1026D000EF90DF90CF90BF90AF909F908F90089534
:1026E000CF93C62F61E070E08C2F0E94711161E0E2
:1026F00070E08C2F0E94CA118111F9CFCF910895FB
:102700000F93FC0130E080E092E1AAE7B0E04817C7
:1027100059076A077B0740F4B695A7959795879563
:102720003F5F3630A1F737E091E09327222311F085
:1027300020E501C020E7892F86950C70082B022B1D
:102740000083917091830F91089520919F0522231A
:1027500099F04FB7F89420919F05213059F42DB38B
:1027600020939D053DB320919E05209523232DBBED
:102770004FBF02C040939D058CBD9DBD08958091C3
:102780009F05882361F09FB7F89420919F05809161
:102790009D05213019F48DBB9FBF08958FBF08950B
:1027A00090E0982F882744E050E0845F9B4F0C9482
:1027B0007B1162E070E00C94CA11CF93DF93C82FB5
:1027C000D62F472F64E070E00E9471114D2F65E015
:1027D00070E08C2FDF91CF910C947111462F62E045
:1027E00070E00C947111CF93DF93C82FD62F472F31
:1027F00060E170E00E9471114D2F61E170E08C2F5B
:10280000DF91CF910C9471110F931F93CF93DF93AE
:1028100000D01F92CDB7DEB7182F00E021E040E0D6
:1028200059E06DE370E0CE0101960E94801389812A
:102830009A810E94A51363E070E0812F0E94CA1163
:102840008B830E94BF138B810F900F900F90DF91AD
:10285000CF911F910F9108950F931F93CF93DF9303
:1028600000D0CDB7DEB7182F00E021E040E059E0FE
:102870006DE370E0CE0101960E94801389819A81F8
:102880000E94A51340E150E0612F81E195E00E9494
:1028900070136FEF812F0E94EE130E94BF130F90F1
:1028A0000F90DF91CF911F910F910895CF92DF92FA
:1028B000EF92FF920F931F93CF93DF9300D0CDB78A
:1028C000DEB79FEF960F9530C0F5F22E6A01E62E27
:1028D000182F0E942C1400E021E040E059E06DE345
:1028E00070E0CE0101960E94801389819A810E9436
:1028F000A5134E2D4F2960E070E0812F0E947111C9
:10290000C114D10411F0B6010AC060912105709183
:1029100022056F5F7F4F7093220560932105812F01
:102920000E94DD1341E050E0612F81E195E00E94BB
:1029300070130E94BF1381E001C080E00F900F90E0
:10294000DF91CF911F910F91FF90EF90DF90CF908B
:102950000895AF92BF92CF92DF92EF92FF920F93C2
:102960001F93CF93DF9300D0CDB7DEB7182F5B0155
:102970006A0100E021E040E059E06DE370E0CE0143
:1029800001960E94801389819A810E94A513612F6C
:1029900081E195E00E941E127C010097A1F463E0A2
:1029A00070E0812F0E94CA11843119F1882309F146
:1029B00021E030E08C3111F420E030E0EE24FF24FF
:1029C000E21AF30A16C0C816D9060CF476011E14D2
:1029D0001F047CF400E09701A501612F81E195E0DF
:1029E0000E94201340E450E0612F81E195E00E94B5
:1029F00070130E94BF13C7010F900F90DF91CF910A
:102A00001F910F91FF90EF90DF90CF90BF90AF900C
:102A100008950F931F93CF93DF9300D000D0CDB7CD
:102A2000DEB7182F00E021E040E059E06DE370E0F0
:102A3000CE0101960E94801389819A810E94A5137C
:102A4000612F81E195E00E941E128B839C830E947E
:102A5000BF138B819C810F900F900F900F90DF918F
:102A6000CF911F910F910895EF92FF920F931F93B3
:102A7000CF93DF9300D0CDB7DEB7182F7B0100E0F6
:102A800021E040E059E06DE370E0CE0101960E9444
:102A9000801389819A810E94A51301E021E030E032
:102AA000A701612F81E195E00E9420130E94BF13CE
:102AB00081E090E00F900F90DF91CF911F910F91E7
:102AC000FF90EF9008958F929F92AF92BF92DF9206
:102AD000EF92FF920F931F93CF93DF9300D0CDB768
:102AE000DEB7D82E5B014A01790100E021E040E029
:102AF00059E06DE370E0CE0101960E948013898158
:102B00009A810E94A5136D2D81E195E00E94EA1142
:102B10008E159F0530F46D2D81E195E00E94EA113C
:102B20007C0187019401A5016D2D81E195E00E9452
:102B30003A120E94BF13C7010F900F90DF91CF91FF
:102B40001F910F91FF90EF90DF90BF90AF909F90FB
:102B50008F900895CF92DF92EF92FF920F931F9381
:102B6000CF93DF9300D0CDB7DEB7FB0190819111F9
:102B700009C09181911106C09281911103C0938186
:102B8000992309F141155105F1F06A017F01182FD0
:102B900000E021E040E059E06DE370E0CE010196F5
:102BA0000E94801389819A810E94A513B701812F09
:102BB0000E94D013B601812F0E94F3130E94BF130D
:102BC00081E090E002C080E090E00F900F90DF91F4
:102BD000CF911F910F91FF90EF90DF90CF900895CC
:102BE0000F931F93CF93DF9300D0CDB7DEB7182F8D
:102BF00000E021E040E059E06DE370E0CE01019695
:102C00000E94801389819A810E94A51340E250E0BE
:102C1000612F81E195E00E947013812F0E94D913EA
:102C200084FD21C0812F0E94D91383FF09C068E170
:102C3000812F0E94EE130E94BF1380E090E01BC022
:102C40000E94BF130E94E90600E021E040E059E045
:102C50006DE370E0CE0101960E94801389819A8114
:102C60000E94A513DACF60E1812F0E94EE130E942B
:102C7000BF1381E090E00F900F90DF91CF911F91F3
:102C80000F91089544E050E0BC0181E090E00C9485
:102C90007B1144E050E0BC0185E090E00C947B1196
:102CA00044E050E0BC018FE090E00C947B112F9247
:102CB0003F924F925F926F927F928F929F92AF92CC
:102CC000BF92CF92DF92EF92FF920F931F93CF9319
:102CD000DF9300D000D000D0CDB7DEB76C011B0170
:102CE00029013A01470158018BE295E0F6019783EB
:102CF000868381E195E00E94091180E590E00E94C1
:102D0000A51346E050E0B10189E090E00E947B11FC
:102D100000E020E040E060E0CE0101960E94A409BE
:102D2000CE0103960E9450160E94BF1385017401C4
:102D3000A3019201B101F601868197810E94F125DC
:102D40008C010197B9F580E590E00E94A513F6018A
:102D500066817781CE0101960E942B21CE010396D8
:102D60000E945016F60166817781CE0101960E947D
:102D70004121CE0103960E944216F60166817781B9
:102D8000CE0101960E943621CE0103960E9449167B
:102D90000E94BF13F60166817781CE0101960E94E1
:102DA0004C218B819C81AD81BE81F601828393830E
:102DB000A483B583C80126960FB6F894DEBF0FBE74
:102DC000CDBFDF91CF911F910F91FF90EF90DF90DA
:102DD000CF90BF90AF909F908F907F906F905F90BB
:102DE0004F903F902F900895EF92FF920F931F9373
:102DF000CF93DF9300D000D000D0CDB7DEB7FC0179
:102E0000268137812115310509F443C08C01C901A0
:102E10000E9430267C01029721F084E0E816F1043C
:102E2000D1F580E590E00E94A513F80166817781D5
:102E3000CE0101960E942B21CE0103960E945016CE
:102E4000F80166817781CE0101960E944121CE0171
:102E500003960E944216F80166817781CE010196A1
:102E60000E943621CE0103960E9449160E94BF138C
:102E7000F80166817781CE0101960E944C218B81F9
:102E80009C81AD81BE81F80182839383A483B58345
:102E900002C0E12CF12CC70126960FB6F894DEBFD4
:102EA0000FBECDBFDF91CF911F910F91FF90EF909B
:102EB0000895CF93DF93EC010E949A0980E590E09A
:102EC0000E94A513BE016E5F7F4F44E050E08FE08B
:102ED00090E00E94AA120E94BF13CE01DF91CF9111
:102EE00008952EE433E0FC0131832083FB0142810D
:102EF000538164817581FC014283538364837583AC
:102F000008950F9300E020E040E060E081E995E063
:102F10000E94A4098EE695E00E94591083E295E094
:102F20000F910C949A09FB01428153816481758150
:102F3000FC0142835383648375831782168208954C
:102F4000CF93DF93FB0120E080E090E0AAE0319195
:102F5000332301F160ED630F6A3080F4A89FB00164
:102F6000A99F700D1124CB01C097830F911D37FDD0
:102F70009A958F3F910559F350F313C03E3289F46F
:102F8000233079F0EA01C20FD11D8A832F5F80E0E0
:102F900090E0DDCF233029F4FA01858381E090E0D1
:102FA00002C080E090E0DF91CF9108950F9300E0A0
:102FB00020E040E060E087E995E00E94A4090F91DD
:102FC00008958F929F92AF92BF92CF92DF92EF922D
:102FD000FF920F931F93CF93DF9300D000D01F92E7
:102FE000CDB7DEB78C016B010E944106F8017783F3
:102FF00066837627672776277A836983085F1F4F62
:1030000042E050E0BE016F5F7F4FC8010E94CD0ECD
:1030100081E090E09C838B8342E050E0BE016D5FD5
:103020007F4FC8010E94CD0E80E091E09C838B838E
:1030300042E050E0BE016D5F7F4FC8010E94CD0E9F
:103040001C821B8242E050E0BE016D5F7F4FC801D1
:103050000E94CD0E42E050E0BE016D5F7F4FC8017F
:103060000E94CD0E42E050E0BE016D5F7F4FC8016F
:103070000E94CD0E5601F5018081882329F1C601F9
:103080007C01FC0120810196211116C057014701E6
:103090008C189D081814190494F48D8241E050E0B6
:1030A000BE016B5F7F4FC8010E94CD0EA401B60127
:1030B000C8010E94CD0E03C02E3211F7E7CF670181
:1030C000FFEFCF1ADF0AD7CF1D8241E050E0BE01EB
:1030D0006B5F7F4FC8010E94CD0EE12CFF24F3945B
:1030E000FC82EB8242E050E0BE016D5F7F4FC80181
:1030F0000E94CD0EFC82EB8242E050E0BE016D5F8B
:103100007F4FC8010E94CD0E81E090E00F900F909C
:103110000F900F900F90DF91CF911F910F91FF9023
:10312000EF90DF90CF90BF90AF909F908F900895D9
:103130004F925F926F927F928F929F92AF92BF92C7
:10314000CF92DF92EF92FF920F931F93CF93DF9373
:10315000CDB7DEB765970FB6F894DEBF0FBECDBF13
:103160007C015B016A010E9441062B013C01870141
:10317000085F1F4F4501A12CB12CC8010E946F0FA1
:1031800018161906A4F00E944106DC01CB0184192F
:103190009509A609B70988169906AA06BB06D0F0B4
:1031A00062E370E080E090E00E947206E6CFF701F3
:1031B0004281538164817581808D918DA28DB38D03
:1031C000481759076A077B0741F4848D958DC59789
:1031D00021F406C02FEF3FEFFDC02EEF3FEFFAC006
:1031E000C8010E94910E0C97ECF04CE050E0BE013B
:1031F0006F5F7F4FC8010E940A0F6C818B810E9414
:103200001F219A8B898BF701E680F7806A8189817B
:103210000E941F21E816F90641F489899A8997FFCF
:1032200004C009C02DEF3FEFD5C0C8010E94AB0E0E
:103230002CEF3FEFCFC08F709270892B31F0C80117
:103240000E94AB0E2BEF3FEFC5C068858F810E94B7
:103250001F215C01892B31F4C8010E94AB0E2AEFBB
:103260003FEFB8C0E12CF12C6E818D810E941F21AF
:10327000E816F90640F541E050E0BE01635F7F4F7C
:10328000C8010E940A0F8D85811113C08D8581119F
:10329000F2CFC8010E94E10EC8010E94E10EC801F0
:1032A0000E94E10EC8010E94E10EFFEFEF1AFF0A33
:1032B000DBCF8D859FEF980F9D87882339F3C80159
:1032C0000E94E10EF6CFE12CF12C41E050E0BE016E
:1032D0006D5E7F4FC8010E940A0F8B89982F907CEA
:1032E00061F4882371F08B899FEF980F9B8B882363
:1032F00041F0C8010E94E10EF6CFC8010E94E10E24
:103300001B8A8B898111E1CF42E050E0BE01615FF1
:103310007F4FC8010E940A0F42E050E0BE01635F88
:103320007F4FC8010E940A0FC8010E94E10EC80128
:103330000E94E10EC8010E94E10EC8010E94E10E48
:1033400042E050E0BE016F5E7F4FC8010E940A0F4D
:103350008F8598898115914001F52D853E8532270D
:103360002327322721303105C1F489899A898115B3
:10337000944031F0C8010E94AB0E27EF3FEF2AC006
:10338000B6016E5F7F4F44E050E0C8012C8B3D8B4F
:103390000E940A0F2C893D891DC0812C912C89899E
:1033A0009A899827892798278816990638F4C8019A
:1033B0000E94E10E8FEF881A980AF1CFEFEFEE1A14
:1033C000FE0AEA14FB0409F080CFC8010E94AB0E8C
:1033D00026EF3FEFC90165960FB6F894DEBF0FBE2A
:1033E000CDBFDF91CF911F910F91FF90EF90DF90B4
:1033F000CF90BF90AF909F908F907F906F905F9095
:103400004F9008958F929F92AF92BF92CF92DF928A
:10341000EF92FF920F931F93CF93DF9300D000D0D2
:1034200000D0CDB7DEB77C014B015A010E94A01736
:103430008C01892B09F05BC0F701428153816481C3
:1034400075818091990590919A05A0919B05B09105
:103450009C05481759076A077B0709F44BC00E946F
:1034600041066701F8E0CF0ED11C6F7077277C5FB3
:10347000C6010E94420F813009F03EC08EE493E005
:103480009A838983F70182819381A481B5818B839B
:103490009C83AD83BE8345E350E0BE016F5F7F4FE9
:1034A000C6010E94C10E892B19F400E010E01BC078
:1034B000B401C7010E94E117892BB9F3C6010E942C
:1034C000C90E892B91F383E0882E912CA50168E821
:1034D00073E1C7010E9498188C01F1E08F1A9108DE
:1034E00011F0019699F3C6010E94AC0E05C001E0EF
:1034F00010E002C00EEF1FEFC80126960FB6F89439
:10350000DEBF0FBECDBFDF91CF911F910F91FF9016
:10351000EF90DF90CF90BF90AF909F908F900895E5
:10352000CF93CFB7F8948091A005811127C0EAE925
:10353000F0E08491E6E8F0E09491E82FF0E0EE0FFF
:10354000FF1FE255FF4FA591B491EC91E92321F4BF
:1035500061E08AE00E944F0761E08AE00E94130761
:103560008CB580618CBD8CB580648CBD61E08DE0D4
:103570000E94130761E08BE00E9413078091A00571
:103580008F5F8093A005CFBFCF910895FC01148277
:1035900015821682178208951F93CF93DF931F928F
:1035A000CDB7DEB7162FFC01608181EA95E0498333
:1035B0000E94281E612F81EA95E00E94DF1D49814B
:1035C000642F81EA95E00E94DF1D81EA95E00F906B
:1035D000DF91CF911F910C94B11E1F93CF93DF9376
:1035E00000D0CDB7DEB7162FFC01608181EA95E0EF
:1035F0004A8359830E94281E612F81EA95E00E9428
:10360000DF1D5981652F81EA95E00E94DF1D4A8107
:10361000642F81EA95E00E94DF1D81EA95E00F901A
:103620000F90DF91CF911F910C94B11E1F93CF93F8
:10363000DF93EC01162F688181EA95E00E94281E35
:10364000612F81EA95E00E94DF1D81EA95E00E94EA
:10365000B11E41E0688181EA95E00E94AB1EC8EE90
:10366000D3E081EA95E00E94831D1816190634F014
:10367000209711F02197F5CF80E006C0CD2BE1F324
:1036800081EA95E00E948B1DDF91CF911F910895F3
:103690000F93CF93DF93EC01637041704295407FAD
:1036A0002F70422B6295660F607E462B6EE10E9462
:1036B000CC1A002321F0083018F007E001C001E027
:1036C0008FEF800F61E070E002C0660F771F8A9570
:1036D000E2F7072E000C880B990B0E94942A9B019D
:1036E000AC0160E074E284EF99E40E94F1290E9449
:1036F000632A6C837D838E839F836FE1CE010E945A
:10370000161B8F780295007F482F402B6FE1CE016A
:10371000DF91CF910F910C94CC1A1F93CF93DF932D
:10372000EC01162F688181EA95E00E94281E612F26
:1037300081EA95E00E94DF1D81EA95E00E94B11EBA
:1037400042E0688181EA95E00E94AB1EC0EDD7E0BF
:1037500081EA95E00E94831D02973CF4209711F0C6
:103760002197F6CF80E090E011C0CD2BD9F381EA0C
:1037700095E00E948B1DC82F81EA95E00E948B1D69
:1037800020E030E03C2FA901482BCA01DF91CF9106
:103790001F910895CF92DF92EF92FF920F931F93A4
:1037A000CF93DF938C01D62FF42E6EE00E948D1BF9
:1037B00041E050E09A0102C0220F331FDA95E2F790
:1037C000E9018095909582239323892B89F060E10C
:1037D000C8010E948D1BFF2021F0AC014C2B5D2BFA
:1037E00005C0C095D095AC014C235D2360E125C098
:1037F00066E0C8010E948D1B6C0168E0C8010E9450
:103800008D1B9E0120953095FF2061F07C01E22206
:10381000F322A6014C2B5D2B66E0C8010E94ED1A35
:10382000A7010AC0C82BD92BA6014223532366E067
:10383000C8010E94ED1AAE0168E0C801DF91CF9186
:103840001F910F91FF90EF90DF90CF900C94ED1AA5
:10385000FF920F931F93CF93DF938C01F62E6EE0B0
:103860000E948D1BC1E0D0E002C0CC0FDD1FFA9496
:10387000E2F78C239D23892B49F060E1C8010E9467
:103880008D1BC823D92381E0CD2B09F480E0DF9183
:10389000CF911F910F91FF9008950C94281CCF9207
:1038A000DF92EF92FF920F931F93CF93DF931F92BC
:1038B000CDB7DEB76C01162F60E029830E948D1B07
:1038C00041E050E0BA0102C0660F771F1A95E2F797
:1038D0008B01AC01462B572B60E0C6010E94ED1A0C
:1038E00066E0C6010E948D1B7801E094F094AC0163
:1038F0004E215F2166E0C6010E94ED1A6EE0C6010E
:103900000E948D1BAC014E215F216EE0C6010E941A
:10391000ED1A6EE1C6010E94161B8F7D482F406490
:103920006EE1C6010E94CC1A6FE1C6010E94161B0F
:103930002981482F222311F0486801C04777F601FA
:1039400084819581A681B781892B8A2B8B2B49F4A1
:1039500080E894E8AEE1B0E084839583A683B783E2
:1039600040616FE1C6010E94CC1A60E2C6010E946C
:103970008D1BAC01402B512B60E2C6010E94ED1A59
:1039800060E1C6010E948D1BAC014E215F2160E108
:10399000C6010F90DF91CF911F910F91FF90EF9093
:1039A000DF90CF900C94ED1A0F931F93CF93DF937A
:1039B000EC01162F042F6EE00E948D1B9C01802FBE
:1039C0008D7F813059F041E050E0012E02C0440F5C
:1039D000551F0A94E2F7422B532B0DC0E1E0F0E0B3
:1039E000012E02C0EE0FFF1F0A94E2F7E095F0955A
:1039F000A9014E235F236EE0CE010E94ED1A023032
:103A000049F441E0612FCE01DF91CF911F910F91D9
:103A10000C94CA1B033051F420E041E0612FCE0129
:103A2000DF91CF911F910F910C944F1CDF91CF919B
:103A30001F910F9108950C94D41CCF93DF93EC0148
:103A40006FE10E94161B82FF06C0482F4B7F6FE17B
:103A5000CE010E94CC1A41E06B81CE010E94D41CA1
:103A600040E06B81CE010E94CA1B61E070E080E003
:103A700090E00E94720641E06B81CE01DF91CF9110
:103A80000C94CA1BCF93DF93662321F0DF91CF9173
:103A90000C941D1DEC0142E16DE70E94CC1A44E339
:103AA0006DE7CE01DF91CF910C94CC1A0F93CF9399
:103AB000DF93EC0181EA95E00E941E1E8B818F3F0F
:103AC00021F0CE010E941D1D04C060E0CE010E94C5
:103AD000421D63E1CE010E948D1B81159F4F49F469
:103AE00001E020E040E062E0CE010E94481B81E05E
:103AF00001C080E0DF91CF910F910895FC016083B8
:103B000043830C94561D8091D10590E02091D205FD
:103B1000821B910908959091D2058091D105981743
:103B200050F4E92FF0E0ED52FA4F208130E09F5F32
:103B30009093D20502C02FEF3FEFC9010895E091A5
:103B4000D2058091D105E81730F4F0E0ED52FA4F3C
:103B5000808190E008958FEF9FEF08950895CF92B0
:103B6000DF92EF92FF920F931F93CF93DF937C012D
:103B7000262F972F8A018091AD05882391F0C62FBB
:103B8000D72F6E01C40ED51ECC15DD0571F06991DD
:103B9000D701ED91FC910190F081E02DC7010995CD
:103BA000F3CF642F822F0E94741FC801DF91CF9141
:103BB0001F910F91FF90EF90DF90CF900895CF93DA
:103BC000DF931F92CDB7DEB769832091AD05222325
:103BD000D1F02091AE05203240F021E030E0FC0130
:103BE0003383228380E090E015C08091AF05E82FF9
:103BF000F0E0E055FA4F998190838F5F8093AF0595
:103C00008093AE0505C061E0CE0101960E94741F4D
:103C100081E090E00F90DF91CF910895FC01138235
:103C2000128288EE93E0A0E0B0E084839583A683BF
:103C3000B7838EE893E09183808308951092D20534
:103C40001092D1051092AF051092AE050C94B81EDB
:103C500081E08093AD056093D0051092AF0510927E
:103C6000AE0508950C94281E0F93062F21E0409175
:103C7000AE0560EB75E08091D0050E941E1F10928A
:103C8000AF051092AE051092AD050F9108954F92B9
:103C90005F926F927F92AF92BF92CF92EF92FF921C
:103CA0000F931F93CF93DF935C01F62ED42F28013F
:103CB0003901EE2021F10E94281ECE2DC43008F0DB
:103CC000C3E0C150C0F0D501ED91FC91B8E0CB9FAD
:103CD000C0011124A301920104C056954795379560
:103CE00027958A95D2F7CA01B9010190F081E02D9C
:103CF000C5010995E6CF60E0C5010E94341E4D2F35
:103D0000D13208F040E22C2D63ED75E08F2D0E943A
:103D1000D61E1092D2058093D105DF91CF911F91CD
:103D20000F91FF90EF90CF90BF90AF907F906F90EA
:103D30005F904F900895CF92EF920F931F93C22EF2
:103D4000E12C00E010E098010E94471E1F910F91A6
:103D5000EF90CF90089521E00C949B1E21E00C94ED
:103D60009B1E61E00C94341E81EA95E00C940E1EBB
:103D70001092600681E080935E0610925D0661E01D
:103D800082E10E944F0761E083E10E944F07E9EB67
:103D9000F0E080818E7F808380818D7F808388E4C6
:103DA0008093B80085E48093BC000895413208F008
:103DB00043C0909160069111FCCF91E09093600612
:103DC00020935E062FEF2093F30510923806240F00
:103DD0002093370690935F0690915F06880F892B9A
:103DE00080935F0680915D06813061F410925D06DC
:103DF00080915F068093BB008091BC0083FDF8CF6B
:103E000085EC01C085EE8093BC0080916006813016
:103E1000E1F380913806841710F44091380629E3C5
:103E200036E0FB01D9018A2F821B841718F48D918B
:103E30008193F9CF842F089580E008950F93413244
:103E400008F04AC0909160069111FCCF32E03093A7
:103E5000600600935E063FEF3093F305109238063C
:103E600040933706FB0169E376E0DB013A2F361B0E
:103E7000341718F431913D93F9CF10925F063091C9
:103E80005F06880F832B80935F0680915D068130EB
:103E900061F410925D0680915F068093BB00809173
:103EA000BC0083FDF8CF85EC01C085EE8093BC009B
:103EB000222321F0809160068230D1F38091F305B6
:103EC0008F3F79F08091F305803241F08091F305C6
:103ED000803331F094E005C091E003C092E001C06E
:103EE00093E0892F0F91089540911506262F30E019
:103EF000240F311D21323105DCF42091600624307D
:103F0000C9F4FC0180E090E0861758F43091150662
:103F10002191DC01A95EB94FA30FB11D2C9301962D
:103F2000F3CF80911506680F6093150680E0089521
:103F300081E0089582E0089585ED8093BC00809132
:103F4000BC0084FDFCCF10926006089585EC809340
:103F5000BC001092600608951F920F920FB60F9248
:103F600011242F933F934F935F936F937F938F937E
:103F70009F93AF93BF93EF93FF938091B900887F96
:103F8000803609F49EC078F5883209F45DC090F45B
:103F9000803109F456C038F4882309F4F5C088301C
:103FA00009F44FC0F5C0883109F44EC0803209F4DD
:103FB0005FC0EEC0803409F46AC058F4803309F45D
:103FC00057C0883309F0E4C08093F3050E94A61F10
:103FD000DFC0803509F44FC0883509F45DC08834EE
:103FE00009F0D6C0D3C0883909F4C4C0A8F4883712
:103FF00009F467C038F4883609F463C0803709F4DF
:1040000060C0C6C0883809F4B5C0803909F45FC003
:10401000803809F0BDC05BC0803B09F483C038F430
:10402000803A09F466C0883A09F47CC0B1C0803C8B
:1040300009F4A4C0883C09F4A1C0883B09F487C0F6
:10404000A7C080915F0610C0909138068091370616
:10405000981770F5E091380681E08E0F809338064E
:10406000F0E0E75CF94F80818093BB0085EC83C072
:104070008093F3058BC0E091380681E08E0F80932A
:1040800038068091BB00F0E0E75CF94F80839091A7
:104090003806809137066BC0E091380681E08E0FBC
:1040A000809338068091BB00F0E0E75CF94F808395
:1040B00080915E0681116AC081E080935D0684EA8A
:1040C0005EC083E0809360061092F405CFCF8091AC
:1040D000F405803208F04EC0E091F40581E08E0FC7
:1040E0008093F4058091BB00F0E0EB50FA4F8083A1
:1040F000BDCF0E94A61F8091F405803230F4E0917C
:10410000F405F0E0EB50FA4F10826091F40570E096
:10411000E0915906F0915A0685EF95E009951092C5
:10412000F40536C084E08093600610921606109263
:104130001506E0915B06F0915C06099580911506E5
:10414000811105C081E08093150610921706E09159
:10415000160681E08E0F80931606F0E0E95EF94FB7
:1041600080818093BB009091160680911506981768
:1041700008F47CCF85E88093BC000AC085EC80936E
:10418000BC001092600604C01092F3050E949C1FB0
:10419000FF91EF91BF91AF919F918F917F916F911F
:1041A0005F914F913F912F910F900FBE0F901F90F5
:1041B0001895CF93DF9300D000D0CDB7DEB761154F
:1041C00071058105910579F09B01AC0169833A8302
:1041D0004B835C830E94482829813A814B815C8112
:1041E0000E94BF2B03C060E070E0CB010F900F90E6
:1041F0000F900F90DF91CF910895CF92DF92EF92C1
:10420000FF920F931F93621773078407950784F437
:1042100089019A016B017C01C901B8016C197D0902
:104220008E099F090E94D9206C0D7D1D8E1D9F1D3A
:104230001F910F91FF90EF90DF90CF90089570E065
:104240009B01382BC90108950E9624E1FC011192BF
:104250002A95E9F70895CF93DF93EC01625F7F4FD2
:104260000E94B009CE01DF91CF910895CF93DF93E3
:10427000EC016E5E7F4F0E94B009CE01DF91CF91BD
:104280000895CF93DF93EC016A5E7F4F0E94B009DF
:10429000CE01DF91CF910895CF93DF93EC01625E61
:1042A0007F4F0E94B009CE01DF91CF91089580E346
:1042B000FB0180833296842F82958F7090E1899FD5
:1042C000401911244A3014F4405D01C0495C429306
:1042D000482F8111F0CF08950F9300E020E040E0D7
:1042E00060E081E696E00E94A4090F9108957F9214
:1042F0008F929F92AF92BF92CF92DF92EF92FF92F6
:104300000F931F93CF93DF93CDB7DEB7AC970FB664
:10431000F894DEBF0FBECDBF7C01762E942E852E85
:1043200020E2B22ECE0101966C01FC012B2D1192E0
:104330002A95E9F70FEF2FEF4FEF6FEF86960E9468
:10434000A4098EE493E09AA389A389A59AA5ABA5B5
:10435000BCA58BA39CA3ADA3BEA387010D5B1F4F80
:1043600043E450E0BE016F5D7F4FC8010E94C10E63
:10437000019609F4BFC081E089838A8386E0A82E74
:10438000AB821C82F70164817581868197810E94CE
:10439000DE2B6D837E838F83988789869A8680E85B
:1043A00090E09C878B874CE150E0B601C8010E94E9
:1043B000CD0EF6012B2D11922A95E9F7470188E0E1
:1043C000880E911CF401D60101900D92AA94E1F798
:1043D00040E150E0B601C8010E94CD0EF6011192F5
:1043E000BA94E9F796E0A92EB12C40E250E0B6016C
:1043F000C8010E94CD0EF1E0AF1AB108B1F783E613
:10440000898392E89A8393E59B838C8385E38D83EC
:1044100081E08E837F829DE3988797E099878A87E2
:1044200086E0F401DE011B9601900D928A95E1F77A
:104430008CE0898B8A8B6CE973E0CE0143960E94F5
:104440004229F7014385BE01675E7F4FC7010E9485
:104450005721F7014485BE01655E7F4FC7010E9469
:104460005721F7014585BE01635E7F4FC7010E945A
:1044700057214EE150E0B601C8010E94CD0EF3E095
:104480007F121EC082E3898384E08A83F7019685C8
:104490009B8397859C8390899D8391899E8396E3D6
:1044A0009F838887828D8987838D8A87848D8B8778
:1044B000858D8C874CE050E0B601C8010E94CD0E7E
:1044C00087E3898386E08A8391E09B8393E09C83E2
:1044D0008D838FE08E838AE38F838BE388878FEFD2
:1044E000898749E050E0B601C8010E94CD0EC8019D
:1044F0000E94C90EAC960FB6F894DEBF0FBECDBFBA
:10450000DF91CF911F910F91FF90EF90DF90CF90AF
:10451000BF90AF909F908F907F9008952F923F9281
:104520004F925F926F927F928F929F92AF92BF92C3
:10453000DF92EF92FF920F931F93CF93DF93CDB74C
:10454000DEB7E4970FB6F894DEBF0FBECDBF7C0197
:104550001A012B0139010E9441064B015C018701C0
:104560000D5B1F4FC8010E946F0F18161906A4F0AB
:104570000E944106DC01CB0188199909AA09BB09EF
:10458000281639064A065B06F0F062E370E080E028
:1045900090E00E947206E6CF42E250E0BE016F5FFB
:1045A0007F4FC8010E940A0F8981823031F4F801DF
:1045B000848995898334910541F0D12CC8010E94EA
:1045C000AB0E8D2D5FC18FEF5DC16D817E818F81BF
:1045D00098850E94DE2B4B015C01F301608371839F
:1045E0008283938346E050E0B701685F7F4FCE013E
:1045F0004D960E942329892B99F4F701808191819E
:10460000A281B38188169906AA06BB0648F0848168
:104610009581A681B78188159905AA05BB0528F45F
:10462000C8010E94AB0E80E02DC189899A89AB89AF
:10463000BC89F70186879787A08BB18B8EECA82E5B
:10464000B12CC8010E94E10EF1E0AF1AB108C9F720
:10465000D12CC70182969AA789A7F701B696FCA725
:10466000EBA708969EA78DA73C974F01899698AB1C
:104670008FA73897FAABE9AB1701F6E12F0E311C83
:10468000C5979CAB8BABC8010E94910E18161906FA
:104690000CF094CFC8010E94E10E8333910509F418
:1046A000CBC0FCF481309105C9F11CF4892B59F37E
:1046B000DDC083309105D1F1069709F0D7C0C8015C
:1046C0000E94E10E5C0144E050E06BA97CA9C801A6
:1046D0000E940A0F412C512CBB24F4E0AF1AB10800
:1046E00040C08A33910509F47BC03CF485339105C1
:1046F00069F0C69709F440C0B9C08B33910509F43D
:1047000085C08F3F910509F4BECFB0C0C8010E949B
:10471000E10EC8010E94E10ED82EB5CFC8010E945B
:10472000E10E44E050E069A97AA93AC0C8010E94AC
:10473000E10E5C0144E050E0B101C8010E940A0FA3
:10474000412C512CBB2494E0A91AB1084A145B04F3
:104750000CF099CFC8010E94E10EEFEF4E1A5E0AED
:10476000F5CF4A145B040CF08ECFC8010E94E10E15
:104770008FEF481A580AF5CFC8010E94E10EB82EF3
:10478000F701828D811110C0838D81110DC0848D40
:1047900081110AC0858D811107C044E050E0B40149
:1047A000C8010E940A0F6FCFEFA5F8A94080518081
:1047B00062807380B401CE0183960E94B0098DA1FE
:1047C0009EA1AFA1B8A584159505A605B70529F347
:1047D000BB2009F458CFC8010E94E10EBA94F8CF6B
:1047E000C8010E94E10E44E050E06BA57CA5C80121
:1047F0000E940A0FF70166A177A180A591A50E94EA
:10480000DE2B66A377A380A791A73DCFC8010E94A6
:10481000E10E44E050E06DA57EA5C8010E940A0F9C
:10482000F70162A573A584A595A50E94DE2B62A75A
:1048300073A784A795A727CFC8010E94E10E44E083
:1048400050E069A57AA5C8010E940A0FF70162A18C
:1048500073A184A195A10E94DE2B62A373A384A3FC
:1048600095A366A777A780AB91AB0DCFC8010E9437
:10487000E10EB82EBB2009F406CFC8010E94E10E5C
:10488000BA94F8CFE4960FB6F894DEBF0FBECDBF52
:10489000DF91CF911F910F91FF90EF90DF90BF902C
:1048A000AF909F908F907F906F905F904F903F90D0
:1048B0002F9008952F923F924F925F926F927F9226
:1048C0008F929F92AF92BF92CF92DF92EF92FF9220
:1048D0000F931F93CF93DF93CDB7DEB727970FB614
:1048E000F894DEBF0FBECDBF8C0120ED37E040E075
:1048F00050E061E070E080E090E00E94FD20D8018F
:1049000014966D937D938D939C931797F801608314
:104910007183828393835801F3E4AF0EB11CC50108
:104920000E94AC0E64E470E0C5010E94420F88232F
:1049300009F43CC10E9441062B013C01812C912CC1
:104940001D82C8018E5B9F4F9F838E8343E0342E70
:1049500058EEC52E53E0D52EE12CF12C62E0262E28
:10496000AE81BF818C91833009F407C1811120C0D1
:10497000F80184819581A681B7810196A11DB11DA1
:1049800084839583A683B7830E94410664197509C1
:1049900086099709A70196010E949D2BA90161E054
:1049A000C8010E94772181E0AE81BF818C93C6C08F
:1049B0008430F9F4F80184819581A681B78101964C
:1049C000A11DB11D84839583A683B7830E944106F0
:1049D0006419750986099709A70196010E949D2B04
:1049E000A90163E0C8010E947721AE81BF812C92AA
:1049F000A5C0813061F5F80142AD53AD64AD75AD30
:104A00009E012F5F3F4FC8010E948E228D8382300E
:104A100009F094C089819A81AB81BC81F8018483BB
:104A20009583A683B7830E94410664197509860998
:104A30009709A70196010E949D2BA90163E0C80177
:104A40000E947721ED81AE81BF81EC937EC08230E0
:104A500009F074C0D801DA964D915D916D917C9109
:104A6000DD979E012F5F3F4FC8010E948E228D83EC
:104A7000853009F05CC0EE81FF813082F80182A1AF
:104A800093A1A4A1B5A1892B8A2B8B2B41F484E897
:104A900093E0A0E0B0E082A393A3A4A3B5A3F801A0
:104AA00086A197A1A0A5B1A5892B8A2B8B2B61F498
:104AB00082A193A1A4A1B5A1B695A7959795879535
:104AC00086A397A3A0A7B1A7F80182A593A5A4A543
:104AD000B5A5892B8A2B8B2BA9F482A193A1A4A124
:104AE000B5A1AC01BD0123E0769567955795479533
:104AF0002A95D1F7841B950BA60BB70B82A793A71A
:104B0000A4A7B5A7F80186A197A1A0A5B1A586A7DE
:104B100097A7A0ABB1AB82A593A5A4A5B5A582AB81
:104B200093ABA4ABB5AB88248394912C0EC0FD81CC
:104B3000F63021F4AE81BF811C9207C0BD81BF3F1A
:104B400021F4EE81FF8110821D82F1E08F16910425
:104B500009F406CF0E944106DC01CB0184199509B6
:104B6000A609B709F80126A937A940AD51AD281704
:104B700039074A075B0708F0F3CEC5010E94AC0E67
:104B8000F80184819581A681B7810196A11DB11D8F
:104B900084839583A683B7830E944106F801FE961D
:104BA0006083718382839383C40102C080E090E0BC
:104BB00027960FB6F894DEBF0FBECDBFDF91CF9121
:104BC0001F910F91FF90EF90DF90CF90BF90AF902B
:104BD0009F908F907F906F905F904F903F902F901D
:104BE0000895CF92DF92EF92FF920F931F93CF938E
:104BF000DF93EC016B011AA21BA21CA21DA21EA234
:104C00001FA218A619A61AA61BA61CA61DA62EAB87
:104C10003FAB48AF59AFEAAEFBAE0CAF1DAF8C0156
:104C2000085F1F4F86E0F80111928A95E9F7CE01DF
:104C30000E94242186E0F601D80101900D928A9508
:104C4000E1F7FE01EE5BFF4F1082CE01DF91CF91C5
:104C50001F910F91FF90EF90DF90CF900C945A240A
:104C6000CF92DF92EF92FF920F931F93CF93DF9338
:104C7000EC010E9441066B017C018E01025C1F4F1A
:104C8000F80180819181A281B381A7019601281B3F
:104C9000390B4A0B5B0BCA01B901683E33E073075D
:104CA0008105910508F441C028EE33E040E050E072
:104CB0000E949D2BC61AD70AE80AF90AF801C08299
:104CC000D182E282F3828EA59FA5A8A9B9A9690124
:104CD0007A01CC0CDD1CEE1CFF1C8C159D05AE056D
:104CE000BF0528F41EA61FA618AA19AA08C0821B71
:104CF000930BA40BB50B8EA79FA7A8ABB9AB8AA942
:104D00009BA9ACA9BDA98C159D05AE05BF0528F4CE
:104D10001AAA1BAA1CAA1DAA08C0821B930BA40BCB
:104D2000B50B8AAB9BABACABBDAB8EA59FA5A8A9C1
:104D3000B9A9892B8A2B8B2B69F4FE01EE5BFF4FFF
:104D40008081833039F484E08083CE010E945A242C
:104D5000019602C080E090E04AA95BA96CA97DA9F8
:104D6000452B462B472B81F4FE01EE5BFF4F208144
:104D7000233011F0211108C01082CE010E9424219D
:104D8000CE010E945A240396DF91CF911F910F917B
:104D9000FF90EF90DF90CF900895CF93DF93823014
:104DA000910510F482E090E0E0916906F0916A06C6
:104DB00020E030E0C0E0D0E0309711F14081518137
:104DC00048175907C0F04817590761F48281938149
:104DD000209719F09B838A832BC090936A06809357
:104DE000690626C02115310519F04217530718F43A
:104DF0009A01BE01DF01EF010280F381E02DDCCFDB
:104E00002115310509F1281B390B2430310590F4A7
:104E100012968D919C9113976115710521F0FB01FC
:104E20009383828304C090936A0680936906FD0190
:104E3000329644C0FD01E20FF31F819391932250FB
:104E400031092D933C933AC0209167063091680652
:104E5000232B41F420910201309103013093680625
:104E60002093670620910001309101012115310541
:104E700041F42DB73EB74091040150910501241B28
:104E8000350BE0916706F0916806E217F307A0F48E
:104E90002E1B3F0B2817390778F0AC014E5F5F4F90
:104EA0002417350748F04E0F5F1F50936806409354
:104EB00067068193919302C0E0E0F0E0CF01DF91BB
:104EC000CF9108950F931F93CF93DF93009709F429
:104ED0008CC0FC01329713821282009169061091F6
:104EE0006A060115110581F420813181820F931F1B
:104EF00020916706309168062817390779F5F093F5
:104F00006806E093670671C0D80140E050E0AE1734
:104F1000BF0750F412962D913C911397AD012115C6
:104F2000310509F1D901F3CF9D01DA0133832283E1
:104F300060817181860F971F8217930769F4EC01D6
:104F400028813981260F371F2E5F3F4F3183208301
:104F50008A819B8193838283452B29F4F0936A068F
:104F6000E093690642C01396FC93EE931297ED010D
:104F7000499159919E01240F351FE217F30771F4EF
:104F800080819181840F951F029611969C938E9338
:104F90008281938113969C938E931297E0E0F0E0C8
:104FA000D80112968D919C911397009719F0F801F2
:104FB0008C01F6CF8D919C9198012E5F3F4F820F0F
:104FC000931F20916706309168062817390769F406
:104FD000309729F410926A061092690602C0138273
:104FE00012821093680600936706DF91CF911F919C
:104FF0000F9108958F929F92AF92BF92CF92DF92BE
:10500000EF92FF92CF93DF93EC01688179818A81DF
:105010009B81611571058105910521F464E279EDAB
:105020008BE597E02DE133EF41E050E00E94BF2B8C
:1050300049015A019B01AC01A7EAB1E40E94E52BAA
:105040006B017C01ACEEB4EFA50194010E94F32B3F
:10505000DC01CB018C0D9D1DAE1DBF1DB7FF03C034
:105060000197A109B04888839983AA83BB83BC01B7
:10507000CD019F77DF91CF91FF90EF90DF90CF90A0
:10508000BF90AF909F908F9008950E94FA27089547
:1050900086E091E00E94FA270895609306017093DC
:1050A000070180930801909309010895A0E0B0E002
:1050B000ECE5F8E20C94FC2BEC01009721F4CB0119
:1050C0000E94CD26B8C0FC01E60FF71F9C012250BC
:1050D0003109E217F30708F4ACC0D9010D911C9116
:1050E000119706171707B0F00530110508F49FC097
:1050F000C80104978617970708F499C00250110950
:10510000061B170B019311936D937C93CF010E94A3
:1051100062278DC05B01A01AB10A4C01800E911E5E
:10512000A0916906B0916A0640E050E0E12CF12CB4
:10513000109709F44AC0A815B905D1F56D907C9077
:105140001197630182E0C80ED11CCA14DB0480F100
:10515000A3014A195B096A0182E0C80ED11C1296AC
:10516000BC9012971396AC91B5E0CB16D10440F0E9
:10517000B282A38351834083D9016D937C930AC08B
:105180000E5F1F4FC301800F911FF9019183808330
:10519000EB2DFA2FE114F10431F0D7011396FC93B3
:1051A000EE93129744C0F0936A06E09369063FC0FD
:1051B0008D919C9111974817590708F4AC017D0116
:1051C00012960D90BC91A02DB3CF8091670690915F
:1051D000680688159905E1F446175707C8F48091C9
:1051E000000190910101009741F48DB79EB7409165
:1051F000040150910501841B950BE817F907C8F4C9
:10520000F0936806E0936706F901718360830FC02D
:10521000CB010E94CD267C01009759F0A801BE0168
:105220000E943029CE010E946227C70104C0CE012E
:1052300002C080E090E0CDB7DEB7EEE00C94182C11
:10524000F8940C945A2CFB01DC0104C08D91019060
:10525000801921F441505040C8F7881B990B0895DC
:10526000FB01DC0102C001900D9241505040D8F783
:105270000895FB01DC018D91019080190110D9F393
:10528000990B0895FB01DC0101900D920020E1F7DC
:1052900008954532510520F4423010F00C94542901
:1052A000FB011082CB010895BB274A3031F49923CA
:1052B00022F4BDE2909581959F4F0C946B29453265
:1052C000510520F4423010F00C946A29FB01108241
:1052D000CB010895BB27FB015527AA27880F991FEB
:1052E000AA1FA41710F0A41B83955051B9F7A05D15
:1052F000AA3308F0A95DA193009779F7B111B19392
:105300001192CB010C948D2B5058BB27AA270E94D9
:105310009C290C94E62A0E94D82A38F00E94DF2AA1
:1053200020F039F49F3F19F426F40C94D52A0EF49A
:10533000E095E7FB0C94CF2AE92F0E94F72A58F357
:10534000BA17620773078407950720F079F4A6F56A
:105350000C94192B0EF4E0950B2EBA2FA02D0B01F7
:10536000B90190010C01CA01A0011124FF27591BAA
:1053700099F0593F50F4503E68F11A16F040A22FB0
:10538000232F342F4427585FF3CF46953795279521
:10539000A795F0405395C9F77EF41F16BA0B620B20
:1053A000730B840BBAF09150A1F0FF0FBB1F661F67
:1053B000771F881FC2F70EC0BA0F621F731F841FAA
:1053C00048F4879577956795B795F7959E3F08F0D0
:1053D000B0CF9395880F08F09927EE0F9795879592
:1053E00008950E94052A0C94E62A0E94DF2A58F0AC
:1053F0000E94D82A40F029F45F3F29F00C94CF2A6C
:1054000051110C941A2B0C94D52A0E94F72A68F398
:105410009923B1F3552391F3951B550BBB27AA276D
:1054200062177307840738F09F5F5F4F220F331FA7
:10543000441FAA1FA9F335D00E2E3AF0E0E832D06F
:1054400091505040E695001CCAF72BD0FE2F29D072
:10545000660F771F881FBB1F261737074807AB0744
:10546000B0E809F0BB0B802DBF01FF2793585F4FB9
:105470003AF09E3F510578F00C94CF2A0C941A2BE9
:105480005F3FE4F3983ED4F3869577956795B7959B
:10549000F7959F5FC9F7880F911D9695879597F9A6
:1054A0000895E1E0660F771F881FBB1F621773071F
:1054B0008407BA0720F0621B730B840BBA0BEE1F34
:1054C00088F7E09508950E94FF2A88F09F5798F08A
:1054D000B92F9927B751B0F0E1F0660F771F881FF9
:1054E000991F1AF0BA95C9F714C0B13091F00E9413
:1054F000192BB1E008950C94192B672F782F88276A
:10550000B85F39F0B93FCCF3869577956795B39539
:10551000D9F73EF490958095709561957F4F8F4FA8
:105520009F4F0895E89409C097FB3EF490958095AD
:10553000709561957F4F8F4F9F4F9923A9F0F92F59
:1055400096E9BB279395F695879577956795B795D7
:10555000F111F8CFFAF4BB0F11F460FF1BC06F5FBD
:105560007F4F8F4F9F4F16C0882311F096E911C0CF
:10557000772321F09EE8872F762F05C0662371F0F0
:1055800096E8862F70E060E02AF09A95660F771F04
:10559000881FDAF7880F9695879597F9089597F9F8
:1055A0009F6780E870E060E008959FEF80EC0895C9
:1055B00000240A94161617061806090608950024F2
:1055C0000A9412161306140605060895092E03946C
:1055D000000C11F4882352F0BB0F40F4BF2B11F4E0
:1055E00060FF04C06F5F7F4F8F4F9F4F089557FD3F
:1055F0009058440F551F59F05F3F71F04795880F41
:1056000097FB991F61F09F3F79F0879508951216D7
:1056100013061406551FF2CF4695F1DF08C0161683
:1056200017061806991FF1CF869571056105089434
:105630000895E894BB2766277727CB0197F908954B
:105640000E94332B0C94E62A0E94D82A38F00E943C
:10565000DF2A20F0952311F00C94CF2A0C94D52A40
:1056600011240C941A2B0E94F72A70F3959FC1F312
:10567000950F50E0551F629FF001729FBB27F00D00
:10568000B11D639FAA27F00DB11DAA1F649F662755
:10569000B00DA11D661F829F2227B00DA11D621FA4
:1056A000739FB00DA11D621F839FA00D611D221F5E
:1056B000749F3327A00D611D231F849F600D211D42
:1056C000822F762F6A2F11249F5750409AF0F1F0C5
:1056D00088234AF0EE0FFF1FBB1F661F771F881F2E
:1056E00091505040A9F79E3F510580F00C94CF2A6D
:1056F0000C941A2B5F3FE4F3983ED4F3869577958C
:105700006795B795F795E7959F5FC1F7FE2B880FD3
:10571000911D9695879597F90895DC01FC01672FF7
:1057200071917723E1F7329704C07C916D93708378
:105730006291AE17BF07C8F30895A1E21A2EAA1B03
:10574000BB1BFD010DC0AA1FBB1FEE1FFF1FA21731
:10575000B307E407F50720F0A21BB30BE40BF50B2E
:10576000661F771F881F991F1A9469F760957095B7
:10577000809590959B01AC01BD01CF010895052E48
:1057800097FB1EF400940E94D62B57FD07D00E9471
:105790009D2B07FC03D04EF40C94D62B50954095CE
:1057A000309521953F4F4F4F5F4F089590958095CD
:1057B000709561957F4F8F4F9F4F0895692796276A
:1057C000692778278727782708950E94352CA59F79
:1057D000900DB49F900DA49F800D911D11240895EC
:1057E000B7FF0C94E52B0E94E52B821B930B0895C9
:1057F0002F923F924F925F926F927F928F929F92E1
:10580000AF92BF92CF92DF92EF92FF920F931F93CE
:10581000CF93DF93CDB7DEB7CA1BDB0B0FB6F8947F
:10582000DEBF0FBECDBF09942A88398848885F84BF
:105830006E847D848C849B84AA84B984C884DF8030
:10584000EE80FD800C811B81AA81B981CE0FD11D14
:105850000FB6F894DEBF0FBECDBFED010895EE0F79
:10586000FF1F0590F491E02D0994A29FB001B39F12
:10587000C001A39F700D811D1124911DB29F700D59
:10588000811D1124911D0895F999FECF92BD81BD0E
:10589000F89A992780B50895262FF999FECF1FBA57
:1058A00092BD81BD20BD0FB6F894FA9AF99A0FBE49
:1058B0000196089510E0C5E6D0E004C0FE010E9404
:0E58C0002F2C2196C636D107C9F7F894FFCFDA
:1058CE0000006B0620000100000007000600BA224F
:1058DE00B922B82201005E00000052756E6E696E2C
:1058EE00672053657475702E2E004661696C656471
:1058FE0020746F20636F6E666967757265204574DC
:10590E006865726E6574207573696E6720444843CE
:10591E00502C2072657374617274696E6720736B9C
:10592E00657463682E2E2E00436F6E6669677572FE
:10593E0065642049503A0052756E6E696E67205349
:10594E00657475702E2E2E00454550524F4D2063B6
:10595E006F6E74656E74733A00416464726573732E
:10596E003A20000900446174613A20004469676975
:10597E0074616C20494F206361726420666F756E8E
:10598E006421004469676974616C20696F206361EA
:10599E007264206E6F7420666F756E640054696D4C
:1059AE006520746F2072756E20746865205365745F
:1059BE00757000526573657474696E6720426F6FFF
:1059CE00746C6F616465722E2E00706F6B6500498A
:1059DE00277665206265656E20706F6B65642100A9
:1059EE00736E617052656C61795F6F6E00736E617C
:1059FE007052656C61795F6F666600736E6170766A
:105A0E00325F305F315F6F6E00736E617076325F42
:105A1E00305F31206F6E00736E617076325F305F73
:105A2E00315F6F666600736E617076325F305F3124
:105A3E00206F666600736E617076325F325F335F21
:105A4E006F6E00736E617076325F325F33206F6EF1
:105A5E0000736E617076325F325F335F6F66660021
:105A6E00736E617076325F325F33206F666600460A
:105A7E00454D5F6F6E0046454D5F6F666600504147
:105A8E004D5F6F6E0050414D206F6E0050414D5F67
:105A9E006F6666007265736574004D435039383019
:105AAE003820544F50206E6F7420666F756E6400F0
:105ABE004D435039383038204D4944206E6F742094
:105ACE00666F756E640048545532314446206E6FD1
