:100000000C9466000C948E000C948E000C948E0060
:100010000C948E000C948E000C948E0D0C948E001B
:100020000C948E000C948E000C948E000C948E0018
:100030000C948E000C948E000C948E000C948E0008
:100040000C94AF050C948E000C9471080C94A308CA
:100050000C948E000C948E000C948E000C948E00E8
:100060000C94641F0C948E00000000080002010034
:100070000003040700000000000000000102040863
:100080001020408001020408102001020408102002
:10009000040404040404040402020202020203032E
:1000A0000303030300000000250028002B000000CC
:1000B0000000240027002A009000D3088309870D40
:1000C000891039178E176C1E2421CC0011241FBEF5
:1000D000CFEFD8E0DEBFCDBF13E0A0E0B1E0EEE3AC
:1000E000F8E502C005900D92A239B107D9F726E0D4
:1000F000A2E9B3E001C01D92A135B207E1F710E01B
:10010000C5E6D0E004C02197FE010E94E72BCC3564
:10011000D107C9F70E9401090C94D8280C9400005B
:100120000F9300E020E040E060E08DE394E00E9467
:100130005C0901E021E041E06AE087E394E00E948D
:100140005C098CE194E00E94111081E094E00E942F
:10015000111086EE93E00E94111063E971E080ECCB
:1001600093E00E94FC0986EB93E00E947E1A85EBE7
:1001700093E00E94F40C84EB93E00E94F40C8CEA70
:1001800093E00E940D0CE2E9F3E0158A168A178AC3
:10019000108E118E0F91089580EC93E00C948E09CF
:1001A0000F931F93CF93DF9300D000D000D0CDB733
:1001B000DEB78C0140910E0150910F018DE393E069
:1001C0009A8389838091390490913A04A0913B04E9
:1001D000B0913C048B839C83AD83BE83BE016F5F73
:1001E0007F4F86EE93E00E94790EB80186EE93E091
:1001F0000E947A0786EE93E00E94810E88E1E6EC89
:10020000F3E0DF011D928A95E9F726960FB6F89480
:10021000DEBF0FBECDBFDF91CF911F910F9108952B
:100220008F929F92AF92BF92CF92DF92EF92FF9206
:100230000F931F93CF93DF9300D000D000D0CDB7A2
:10024000DEB760E47FE18FEE94E00E94050E0E942D
:10025000F9054B015C0126E040E051EE60E070E002
:100260008CE494E00E94A10B6AE171E08CE494E0DC
:100270000E949F0760E082E00E94070761E082E041
:100280000E94CB0660E082E00E94070760E085E004
:100290000E94070761E085E00E94CB0660E085E0F0
:1002A0000E94070760E086E00E94070761E086E0A1
:1002B0000E94CB0660E086E00E94070761E083E0D1
:1002C0000E94070761E083E00E94CB0661E083E0C3
:1002D0000E94070761E087E00E94070761E087E06E
:1002E0000E94CB0661E087E00E94070761E084E09E
:1002F0000E94070761E084E00E94CB0661E084E091
:100300000E94070790EEE92E93E0F92E0091BE03BC
:100310001091BF03C8010E94FC2BF70181937F015C
:100320000F5F1F4F1093BF030093BE03F6EEEF164F
:10033000F3E0FF0659F710EAE12E1FE0F12E00E08E
:1003400010E020E63AEE40E050E060EE73E089E035
:1003500095E00E940F16892B61F46AE271E08CE44B
:1003600094E00E949F0760E177E280E090E00E94C5
:100370002A0668E671E08CE494E00E949F0769E039
:1003800075E0CE0101960E941117BE016F5F7F4F8D
:100390008CE494E00E94B107609112017091130106
:1003A0008CE194E00E94FA0E6091100170911101AD
:1003B00081E094E00E94FA0E60910E0170910F01AD
:1003C00086EE93E00E94FA0E6CED75E080E090E01E
:1003D0000E942A0680910C0190910D010E94FC2B35
:1003E000682F70E080E090E00E944A2A60939203B8
:1003F00070939303809394039093950367E771E060
:100400008CE494E00E94880700E010E068E871E066
:100410008CE494E00E9488074AE050E0B8018CE444
:1004200094E00E94560862E971E08CE494E00E9436
:10043000880764E971E08CE494E00E948807C801B1
:100440000E94FC2B4AE050E0682F8CE494E00E946C
:100450006A0862E971E08CE494E00E94880768E829
:1004600071E0CE0101960E94FC09CE0101960E9426
:10047000D000CE0101960E948E094AE0B801CE015B
:1004800001960E94550ACE0101960E94D000CE012D
:1004900001960E948E0964E971E0CE0101960E94E6
:1004A000FC09CE0101960E94D000CE0101960E9467
:1004B0008E09C8010E94FC2B4AE0682FCE010196EC
:1004C0000E94280ACE0101960E94D000CE0101961A
:1004D0000E948E090F5F1F4F0830110509F096CF5B
:1004E0004FEF6EE386EB93E00E94361D882309F4FC
:1004F00094C06BE971E08CE494E00E949F076BE983
:1005000071E0CE0101960E94FC09CE0101960E9485
:10051000D000CE0101960E948E0940E060E086EB9B
:1005200093E00E94D31C40E061E086EB93E00E94E0
:10053000D31C40E062E086EB93E00E94D31C40E0D5
:1005400063E086EB93E00E94D31C40E064E086EB1E
:1005500093E00E94D31C40E065E086EB93E00E94AC
:10056000D31C40E066E086EB93E00E94D31C40E0A1
:1005700067E086EB93E00E94D31C40E068E086EBE6
:1005800093E00E94D31C40E069E086EB93E00E9478
:10059000D31C40E06AE086EB93E00E94D31C40E06D
:1005A0006BE086EB93E00E94D31C41E06CE086EBAD
:1005B00093E00E94D31C41E06DE086EB93E00E9443
:1005C000D31C41E06EE086EB93E00E94D31C41E037
:1005D0006FE086EB93E00E94D31C00E010E0602FF8
:1005E00086EB93E00E94051C90E0002E02C0880F6D
:1005F000991F0A94E2F72091A603BC01622B609335
:10060000A6030F5F1F4F0630110549F780910A01BD
:1006100090910B010E94042C14C062EB71E08CE4F9
:1006200094E00E949F0762EB71E0CE0101960E9468
:10063000FC09CE0101960E94D000CE0101960E94D5
:100640008E090E94F9056B017C016CEC71E0CE0112
:1006500001960E94FC09CE0101960E94D000CE01B5
:1006600001960E948E09B601681979094AE0CE0107
:1006700001960E94810ACE0101960E94D000CE010F
:1006800001960E948E0926960FB6F894DEBF0FBE23
:10069000CDBFDF91CF911F910F91FF90EF90DF9031
:1006A000CF90BF90AF909F908F900895CF93DF939E
:1006B00000D000D000D0CDB7DEB762EE71E08CE4A0
:1006C00094E00E949F0762EE71E0CE0101960E94C5
:1006D000FC09CE0101960E94D000CE0101960E9435
:1006E0008E0964EF71E080E090E00E942A0660E0ED
:1006F00084E00E94070726960FB6F894DEBF0FBE6F
:10070000CDBFDF91CF910895CF93DF93CDB7DEB703
:100710002C970FB6F894DEBF0FBECDBF48E150E076
:1007200066EC73E08CE194E00E94C20E66EC73E02C
:10073000CE0107960E94FC0969EF71E0CE01079691
:100740000E94AD0A8823C9F06EEF71E08CE494E05A
:100750000E949F076EEF71E0CE0101960E94FC0996
:10076000CE0101960E94D000CE0101960E948E0912
:100770008FEE94E00E94980DC2C06FE072E0CE014F
:1007800007960E94AD0A882341F061E082E00E9452
:10079000070781E08093A703B2C06CE172E0CE014D
:1007A00007960E94AD0A882339F060E082E00E943B
:1007B00007071092A703A3C06AE272E0CE01079672
:1007C0000E94AD0A882341F061E085E00E9407079E
:1007D00081E08093A80393C061E372E0CE010796A5
:1007E0000E94AD0A882339F060E085E00E94070787
:1007F0001092A80384C069E372E0CE0107960E94BC
:10080000AD0A882371F060E472E08CE494E00E9409
:100810009F0761E086E00E94070781E08093A903BB
:100820006EC067E472E0CE0107960E94AD0A88238D
:1008300039F060E086E00E9407071092A9035FC0CC
:100840006FE472E0CE0107960E94AD0A882371F032
:100850006DE572E08CE494E00E949F0760E083E025
:100860000E94070781E08093AA0349C06BE672E00B
:10087000CE0107960E94AD0A882369F06AE772E00C
:100880008CE494E00E949F0761E083E00E940707E8
:100890001092AA0334C069E872E0CE0107960E9464
:1008A000AD0A882371F067E972E08CE494E00E945D
:1008B0009F0760E087E00E94070781E08093AB0319
:1008C0001EC065EA72E0CE0107960E94AD0A882339
:1008D00069F064EB72E08CE494E00E949F0761E0B1
:1008E00087E00E9407071092AB0309C063EC72E037
:1008F000CE0107960E94AD0A81110E945603CE01D7
:1009000007960E948E092C960FB6F894DEBF0FBE94
:10091000CDBFDF91CF9108958F929F92AF92BF92FA
:10092000CF92DF92EF92FF92CF93DF9300D000D06F
:1009300000D0CDB7DEB70E94F9054B015C016AE13A
:1009400085EB93E00E94480D882369F085EB93E0E6
:100950000E946A0D609396037093970380939803A7
:100960009093990314C069EC72E08CE494E00E94C7
:100970009F0769EC72E0CE0101960E94FC09CE014E
:1009800001960E94D000CE0101960E948E096BE173
:1009900084EB93E00E94480D882369F084EB93E098
:1009A0000E946A0D60939A0370939B0380939C034B
:1009B00090939D0314C06FED72E08CE494E00E946C
:1009C0009F076FED72E0CE0101960E94FC09CE01F7
:1009D00001960E94D000CE0101960E948E098CEAF9
:1009E00093E00E94240C8823C9F08CEA93E00E94D3
:1009F000520C60939E0370939F038093A003909387
:100A0000A1038CEA93E00E94A30C6093A20370936D
:100A1000A3038093A4039093A50314C065EF72E031
:100A20008CE494E00E949F0765EF72E0CE0101968E
:100A30000E94FC09CE0101960E94D000CE010196D1
:100A40000E948E0940911001509111018DE393E0B5
:100A50009A8389838091390490913A04A0913B0450
:100A6000B0913C048B839C83AD83BE83BE016F5FDA
:100A70007F4F81E094E00E94790E4AE150E062E904
:100A800073E081E094E00E94850E81E094E00E9492
:100A9000810E68E073E08CE494E00E949F0768E0B8
:100AA00073E0CE0101960E94FC09CE0101960E94DE
:100AB000D000CE0101960E948E0988E1E6ECF3E0B9
:100AC000DF011D928A95E9F78CE194E00E94270FDF
:100AD0009093DF038093DE031816190614F40E9426
:100AE000840388E1E6ECF3E0DF011D928A95E9F7E3
:100AF00089E095E00E94AC160E94F9056B017C012B
:100B00006BE173E0CE0101960E94FC09CE010196D3
:100B10000E94D000CE0101960E948E09B60168198C
:100B200079094AE0CE0101960E94810ACE01019620
:100B30000E94D000CE0101960E948E0926960FB623
:100B4000F894DEBF0FBECDBFDF91CF91FF90EF9045
:100B5000DF90CF90BF90AF909F908F9008951F929D
:100B60000F920FB60F9211242F933F938F939F9361
:100B7000AF93BF938091440490914504A0914604A3
:100B8000B09147043091430423E0230F2D3720F424
:100B90000196A11DB11D05C026E8230F0296A11DD7
:100BA000B11D209343048093440490934504A09383
:100BB0004604B09347048091480490914904A09161
:100BC0004A04B0914B040196A11DB11D80934804C5
:100BD00090934904A0934A04B0934B04BF91AF9102
:100BE0009F918F913F912F910F900FBE0F901F906B
:100BF00018952FB7F8946091440470914504809142
:100C00004604909147042FBF08953FB7F894809110
:100C1000480490914904A0914A04B0914B0426B530
:100C2000A89B05C02F3F19F00196A11DB11D3FBF24
:100C3000BA2FA92F982F8827820F911DA11DB11DB2
:100C4000BC01CD0142E0660F771F881F991F4A95AE
:100C5000D1F708958F929F92AF92BF92CF92DF9279
:100C6000EF92FF926B017C010E9405064B015C0133
:100C7000C114D104E104F10401F10E94A1060E9413
:100C80000506DC01CB0188199909AA09BB09883E30
:100C90009340A105B10560F321E0C21AD108E10833
:100CA000F10888EE880E83E0981EA11CB11CC114C7
:100CB000D104E104F10419F7DBCFFF90EF90DF904E
:100CC000CF90BF90AF909F908F900895789484B507
:100CD000826084BD84B5816084BD85B5826085BD38
:100CE00085B5816085BDEEE6F0E08081816080831E
:100CF000E1E8F0E010828081826080838081816001
:100D00008083E0E8F0E0808181608083E1EBF0E0C7
:100D1000808184608083E0EBF0E08081816080836B
:100D2000EAE7F0E080818460808380818260808354
:100D30008081816080838081806880831092C1007F
:100D400008950895833081F028F4813099F082303D
:100D5000A1F008958730A9F08830B9F08430D1F43B
:100D6000809180008F7D03C0809180008F77809379
:100D70008000089584B58F7702C084B58F7D84BDCF
:100D800008958091B0008F7703C08091B0008F7D6F
:100D90008093B0000895CF93DF9390E0FC01E45876
:100DA000FF4F2491FC01E057FF4F8491882361F1AC
:100DB00090E0880F991FFC01E255FF4FC591D49137
:100DC000FC01EC55FF4FA591B491611109C09FB78B
:100DD000F8948881209582238883EC912E230BC080
:100DE000623061F49FB7F8943881822F8095832315
:100DF0008883EC912E2B2C939FBF06C08FB7F8945D
:100E0000E8812E2B28838FBFDF91CF9108951F9308
:100E1000CF93DF93282F30E0F901E859FF4F8491F9
:100E2000F901E458FF4FD491F901E057FF4FC49105
:100E3000CC23C9F0162F81110E94A206EC2FF0E0FE
:100E4000EE0FFF1FEC55FF4FA591B4918FB7F894AB
:100E5000111105C09C91ED2FE095E92302C0EC91A2
:100E6000ED2BEC938FBFDF91CF911F91089580E020
:100E700090E00895CF92DF92EF92FF920F931F932D
:100E8000CF93DF936C017A018B01C0E0D0E0CE15E7
:100E9000DF0589F0D8016D918D01D601ED91FC91AE
:100EA0000190F081E02DC6010995892B11F47E0196
:100EB00002C02196ECCFC701DF91CF911F910F9116
:100EC000FF90EF90DF90CF9008956115710579F054
:100ED000FB0101900020E9F73197AF01461B570B4A
:100EE000DC01ED91FC910280F381E02D099480E01A
:100EF00090E00895DC01ED91FC91DB0114964D9199
:100F00005C9115976D917C910280F381E02D09949D
:100F10000C946507DC01ED91FC910190F081E02DCE
:100F20000994DB01ED91FC9111970190F081E02D86
:100F3000BC01CD0109946AE273E00C9465070F933C
:100F40001F93CF93DF93EC010E9465078C01CE01C4
:100F50000E949B07800F911FDF91CF911F910F91EE
:100F600008950F931F93CF93DF93EC010E94910795
:100F70008C01CE010E949B07800F911FDF91CF91C2
:100F80001F910F9108954F925F926F927F92EF920F
:100F9000FF920F931F93CF93DF93CDB7DEB7A19747
:100FA0000FB6F894DEBF0FBECDBF7C01FA01CB01B6
:100FB00019A2223008F42AE08E010F5D1F4F422E45
:100FC000512C612C712CBF01A30192010E94552B61
:100FD000F901CA01015011096A3014F4605D01C0C1
:100FE000695CD8016C93232B242B252B61F7B80166
:100FF000C7010E946507A1960FB6F894DEBF0FBE29
:10100000CDBFDF91CF911F910F91FF90EF907F9017
:101010006F905F904F900895CF92DF92EF92FF9282
:101020000F931F93CF93DF93EC016A017B0121158E
:10103000310579F4E881F9810190F081E02D642F88
:10104000DF91CF911F910F91FF90EF90DF90CF90A4
:1010500009942A303105E9F477FF1AC06DE20E9445
:101060008A078C0144275527BA014C195D096E097E
:101070007F092AE0CE010E94C307800F911FDF91F4
:10108000CF911F910F91FF90EF90DF90CF90089537
:101090002AE0B701A601CE01DF91CF911F910F91F8
:1010A000FF90EF90DF90CF900C94C3079A01AB01B3
:1010B000770F660B770B0C940C082115310541F462
:1010C000DC01ED91FC910190F081E02D642F0994F9
:1010D0000C94C3079A01462F50E060E070E00C9436
:1010E0005D081F920F920FB60F9211242F938F93CA
:1010F0009F93EF93FF93E0915C04F0915D048081F6
:10110000E0916204F091630482FD12C090818091AD
:1011100065048F5F8F7320916604821751F0E09110
:101120006504F0E0E45BFB4F958F8093650401C09C
:101130008081FF91EF919F918F912F910F900FBE22
:101140000F901F9018951F920F920FB60F921124B7
:101150002F933F934F935F936F937F938F939F93BF
:10116000AF93BF93EF93FF938CE494E00E94170B2F
:10117000FF91EF91BF91AF919F918F917F916F916F
:101180005F914F913F912F910F900FBE0F901F9045
:1011900018958CE494E00E94CC0A21E0892B09F494
:1011A00020E0822F0895ECE4F4E01382128288EEAE
:1011B00093E0A0E0B0E084839583A683B78383E4C3
:1011C00093E09183808385EC90E09587848784EC1D
:1011D00090E09787868780EC90E0918B808B81EC04
:1011E00090E0938B828B82EC90E0958B848B86ECE5
:1011F00090E0978B868B118E128E138E148E08952D
:1012000008950E9466060E9400090E941001C9E02C
:10121000DBE00E948C042097E1F30E94090BF9CFD8
:101220008F929F92AF92BF92CF92DF92EF92FF92F6
:101230000F931F93CF93DF937C018B016C0182E0AE
:10124000C80ED11C4701E5E08E0E911CC0E0D0E035
:10125000F60161916F014AE050E0C8010E946A08FE
:101260005C016EE2C8010E948A078A0D9B1DC80FAF
:10127000D91FC814D90461F74AE050E0F70165812D
:10128000C8010E946A088C0F9D1FDF91CF911F91AA
:101290000F91FF90EF90DF90CF90BF90AF909F9015
:1012A0008F9008952DE333E0FC0131832083128277
:1012B00013821482158208950F93FC018DE393E04D
:1012C0009183808362834383248305830F910895F0
:1012D0002DE333E0FC0131832083FB014081518108
:1012E00062817381FC014283538364837583089513
:1012F000FB014081518162817381FC0142835383F0
:10130000648375830895E9EEF4E08DE393E09183BF
:10131000808312821382148215820895FC018081D9
:1013200091810C941A27CF93DF93EC0188819981E6
:10133000009711F00E941A27198218821D821C82C0
:101340001B821A82DF91CF9108950F931F93CF9341
:10135000DF93EC018B016F5F7F4F888199810E9441
:101360000E28009731F0998388831B830A8381E0DC
:1013700001C080E0DF91CF911F910F910895CF932D
:10138000DF93EC0188819981892B29F08A819B81E7
:101390008617970760F4CE010E94A509882341F0C3
:1013A0008C819D81892B19F4E881F981108281E07B
:1013B000DF91CF910895EF92FF920F931F93CF93F8
:1013C000DF93EC017B018A01BA010E94BF09811100
:1013D00004C0CE010E94930907C01D830C83B7018E
:1013E000888199810E94FA28CE01DF91CF911F91C7
:1013F0000F91FF90EF900895FC01118210821382EB
:101400001282158214826115710551F0FB01019061
:101410000020E9F73197AF01461B570B0C94DB090D
:101420000895CF93DF93EC016115710559F0FB012D
:1014300001900020E9F73197AF01461B570B0E943E
:10144000DB0902C00E949309CE01DF91CF9108957C
:101450000F931F93CF93DF93CDB7DEB729970FB6C6
:10146000F894DEBF0FBECDBF8C01862FF80111822C
:101470001082138212821582148250E0BE016F5FC7
:101480007F4F90E00E941729BE016F5F7F4FC80118
:101490000E94110A29960FB6F894DEBF0FBECDBF89
:1014A000DF91CF911F910F9108950F931F93CF93C9
:1014B000DF93CDB7DEB762970FB6F894DEBF0FBEED
:1014C000CDBF8C01CB01F8011182108213821282F0
:1014D0001582148250E0BE016F5F7F4F0E94012988
:1014E000BE016F5F7F4FC8010E94110A62960FB65E
:1014F000F894DEBF0FBECDBFDF91CF911F910F914A
:1015000008950F931F93CF93DF93CDB7DEB7619705
:101510000FB6F894DEBF0FBECDBF8C01CB01F80132
:1015200011821082138212821582148250E0BE0151
:101530006F5F7F4F0E941729BE016F5F7F4FC80109
:101540000E94110A61960FB6F894DEBF0FBECDBFA0
:10155000DF91CF911F910F910895FC012481358176
:10156000232B31F421E061157105A1F0FB0108C0C6
:10157000FC01808191816115710531F421E0FC014C
:101580008081882339F005C00E94F12821E0892B51
:1015900009F020E0822F0895FC01918D228D892F82
:1015A00090E0805C9F4F821B91098F73992708956B
:1015B000FC01918D828D981731F0828DE80FF11D1D
:1015C000858D90E008958FEF9FEF0895FC01918D38
:1015D000828D981761F0828DDF01A80FB11D5D9695
:1015E0008C91928D9F5F9F73928F90E008958FEF03
:1015F0009FEF0895FC01538D448D252F30E0842FFB
:1016000090E0821B930B541710F0CF96089501972A
:10161000089589EC98E0892B49F080E090E0892BCF
:1016200029F00E94C90881110C9400000895FC0162
:10163000848DDF01A80FB11DA35ABF4F2C91848D5B
:1016400090E001968F739927848FA689B7892C9390
:10165000A089B1898C9180648C93938D848D98132B
:1016600006C00288F389E02D80818F7D80830895F4
:10167000CF93DF93EC01888D8823C9F0EA89FB8939
:10168000808185FD05C0A889B9898C9186FD0FC030
:101690000FB607FCF5CF808185FFF2CFA889B98905
:1016A0008C9185FFEDCFCE010E94170BE7CFDF9124
:1016B000CF910895EF92FF920F931F93CF93DF93F3
:1016C000EC0181E0888F9B8D8C8D981305C0E88993
:1016D000F989808185FD24C0F62E0B8D10E00F5F07
:1016E0001F4F0F731127E02E8C8DE8120CC00FB620
:1016F00007FCFACFE889F989808185FFF5CFCE0113
:101700000E94170BF1CF8B8DFE01E80FF11DE35AFC
:10171000FF4FF0820B8FEA89FB898081806207C0CE
:10172000EE89FF896083E889F989808180648083FC
:1017300081E090E0DF91CF911F910F91FF90EF90AA
:101740000895CF92DF92EF92FF921F93CF93DF9392
:10175000EC016A017B01122FE889F98982E080831C
:101760004115514E61057105B1F060E079E08DE3FE
:1017700090E0A70196010E94552BDA01C90101975B
:10178000A109B109B695A79597958795AC01411523
:1017900080E15807A8F0E889F989108260E874E8C8
:1017A0008EE190E0A70196010E94552BBA01A90194
:1017B000415051096109710976956795579547958B
:1017C000EC85FD855083EE85FF854083188EEC897E
:1017D000FD891083EA89FB89808180618083EA89A1
:1017E000FB89808188608083EA89FB8980818068A9
:1017F0008083EA89FB8980818F7D8083DF91CF910F
:101800001F91FF90EF90DF90CF900895DC01ED9154
:10181000FC910190F081E02D0994089560E470E05E
:1018200087E895E00E94EA1D6EEF70E087E895E09A
:101830000E94060C87E895E00E94691E6FE070E048
:1018400080E090E00C942A06CF93DF93EC0187E8C8
:1018500095E00E94D61DCE010E940E0C60E470E05F
:1018600087E895E00E94EA1D67EE70E087E895E062
:101870000E94060C87E895E00E94691E41E050E056
:1018800060E470E087E895E00E94661E87E895E0D6
:101890000E94431D21E0029709F020E0822FDF9192
:1018A000CF910895CF93DF9360E470E087E895E0EF
:1018B0000E94EA1D63EE70E087E895E00E94060C46
:1018C00087E895E00E94691E62E370E080E090E0A6
:1018D0000E942A0643E050E060E470E087E895E06B
:1018E0000E94661E87E895E00E943B1D892BD1F37C
:1018F00087E895E00E94431DD82F80E0C82F87E835
:1019000095E00E94431DC82BD92B87E895E00E94E3
:10191000431DBE0180E090E00E944A2A22E538EB98
:101920004FE253E40E94D82A20E030E040E857E339
:101930000E94D82A26E636E64BE352E40E943C2970
:10194000DF91CF910895CF93DF9360E470E087E853
:1019500095E00E94EA1D65EE70E087E895E00E9440
:10196000060C87E895E00E94691E62E370E080E063
:1019700090E00E942A0643E050E060E470E087E8CF
:1019800095E00E94661E87E895E00E943B1D892B2A
:10199000D1F387E895E00E94431DD82F80E0C82F3F
:1019A00087E895E00E94431DC82BD92B87E895E076
:1019B0000E94431DBE0180E090E00E944A2A20E080
:1019C00030E04AEF52E40E94D82A20E030E040E8BC
:1019D00057E30E94D82A20E030E040EC50E40E9417
:1019E0003C29DF91CF91089508951F93CF93DF9302
:1019F00000D0CDB7DEB7162FFC01608187E895E0F7
:101A00004A8359830E94E01D612F87E895E00E9478
:101A1000971D5981652F87E895E00E94971D4A819F
:101A2000642F87E895E00E94971D87E895E00F9066
:101A30000F90DF91CF911F910C94691E1F93CF934C
:101A4000DF93EC01162F688187E895E00E94E01D86
:101A5000612F87E895E00E94971D87E895E00E9436
:101A6000691E42E0688187E895E00E94631E87E86E
:101A700095E00E94431DD82F80E0C82F87E895E0AD
:101A80000E94431D8C2B9D2BDF91CF911F910895B8
:101A9000CF93DF93EC01688387E895E00E94D61D21
:101AA00066E0CE010E941E0D8435910511F080E0A4
:101AB0000EC067E0CE010E941E0D81159440B9F75B
:101AC00040E050E061E0CE010E94F50C81E0DF9142
:101AD000CF910895CF93DF9365E00E941E0DEC0136
:101AE000BC017F7080E090E00E944A2A20E030E054
:101AF00040E85DE30E94D82AD4FF06C020E030E031
:101B000040E853E40E943C29DF91CF9108958FEF84
:101B10009FEF9093F0048093EF0408951F920F922B
:101B20000FB60F9211240F900FBE0F901F901895B3
:101B3000A8950895DA01F90160348FE178071CF463
:101B40006115710539F489E090E08D939C9380E4F0
:101B50009FE158C0603A8FE078073CF088E090E061
:101B60008D939C9380EA9FE04DC0603D87E07807AD
:101B70003CF087E090E08D939C9380ED97E042C02D
:101B8000683E83E078073CF086E090E08D939C937C
:101B900088EE93E037C0643F81E078073CF085E051
:101BA00090E08D939C9384EF91E02CC06A3F710587
:101BB0003CF084E090E08D939C938AEF90E022C00B
:101BC000683771053CF083E090E08D939C9388E743
:101BD00090E018C06C3371053CF082E090E08D938A
:101BE0009C938CE390E00EC06E3171053CF081E077
:101BF00090E08D939C938EE190E004C01D921C9226
:101C00008FE090E09183808308950F931F93CF938B
:101C1000DF9300D0CDB7DEB78C019E012F5F3F4F21
:101C2000AC010E949A0DF801808183FD02C098E00A
:101C300001C098E28770892B98E10FB6F894A895B7
:101C4000909360000FBE8093600089819A810F900D
:101C50000F90DF91CF911F910F910895DC01ED91CD
:101C6000FC91048CF58DE02D09942DE333E0FC010B
:101C700031832083FB014089518962897389FC018A
:101C800042835383648375830895FC018489958915
:101C90000895FC01818D928D0895CF93DF931F925B
:101CA000CDB7DEB76983DC01ED91FC910280F38151
:101CB000E02D41E050E0BE016F5F7F4F09950F902E
:101CC000DF91CF9108950895CF93DF93EC01888D34
:101CD000843061F00E94E413E88DF0E0EE0FFF1F06
:101CE000E159FA4F1182108284E0888FDF91CF9101
:101CF0000895FC01178A168A6E5F7F4F808D0C94C1
:101D00006215FC01808D0C94A815CF93DF93EC0134
:101D10009A018E899F89AB01BC01888D0E941B1599
:101D20002E893F89280F391F3F8B2E8BDF91CF9152
:101D300008950F931F93CF93DF931F92CDB7DEB714
:101D4000FC01218D328D232B61F08C0141E050E0AC
:101D5000BE016F5F7F4F808D0E94611418161906B7
:101D60001CF08FEF9FEF08C0F801818D928D0197D5
:101D7000928F818F898190E00F90DF91CF911F9199
:101D80000F910895CF93DF93FC01218D328D2115A2
:101D9000310519F48FEF9FEF11C0EC014217530783
:101DA00008F0A901888D0E9461141816190694F78D
:101DB000298D3A8D281B390B3A8F298FDF91CF91CE
:101DC0000895CF93DF931F92CDB7DEB7FC01218D2D
:101DD000328D232B49F0BE016F5F7F4F808D0E94B3
:101DE000EC14898190E002C08FEF9FEF0F90DF919C
:101DF000CF910895EF92FF921F93CF93DF93FC0151
:101E0000208D243011F080E01CC07B01EC0110E03B
:101E1000812F0E94BC13811102C0188F05C0883128
:101E2000E1F31F5F1430A1F7888D843061F3FD86E4
:101E3000EC861A8E198E20E0A70162E00E940E1433
:101E400081E0DF91CF911F91FF90EF9008950F9364
:101E50001F93CF93DF93CDB7DEB728970FB6F894D3
:101E6000DEBF0FBECDBF8C01F801818D928D892B15
:101E700049F0D801ED91FC910284F385E02DC80171
:101E80000995F2CF808D0E94C1141816190654F5D9
:101E900048E050E0BE016F5F7F4FD80158968C91AB
:101EA0000E9461149C0118161906D4F4BE016F5FDC
:101EB0007F4FC8010E960E9478098D8190E0982F7F
:101EC00088272E81820F911DF801958B848B2F819D
:101ED00030E0322F22278885280F311D328F218F45
:101EE000C90102C080E090E028960FB6F894DEBFEA
:101EF0000FBECDBFDF91CF911F910F9108958F92AB
:101F00009F92AF92BF92CF92DF92EF92FF920F9388
:101F10001F93CF93DF9300D000D000D0CDB7DEB7B2
:101F2000FC01208D243009F068C06A017B018C011E
:101F300053E0852E54E0952EA12CB12CC4010E94B3
:101F40006211811103C0F801A08E0AC08831D9F353
:101F5000FFEFAF1ABF0A9394E4E0AE16B10471F735
:101F6000F801808D843009F448C096E0E4E1F1E0A6
:101F7000DE01119601900D929A95E1F7F701938198
:101F80009F779C8394819D8395819E83B7016E5F2B
:101F90007F4F90E0982F882744E050E0845F9B4F6C
:101FA0000E943311F801E08CF12CF4E0EF0EF11CEB
:101FB000FE2CEE246D2DC70140960E949F106C2DC3
:101FC000C70141960E949F10F801808D90E0982FE4
:101FD000882746E050E0BE016F5F7F4F8A5F9B4FCE
:101FE0000E943311F801128E118E20E8A60162E0E2
:101FF000808D0E940E1481E001C080E026960FB60D
:10200000F894DEBF0FBECDBFDF91CF911F910F912E
:10201000FF90EF90DF90CF90BF90AF909F908F9008
:102020000895CF93DF93EC011B821A8288EE93E030
:10203000A0E0B0E08C839D83AE83BF8385E593E011
:1020400099838883CE010E960E94520984E0888F7E
:10205000DF91CF910895CF92DF92EF92FF920F938D
:102060001F93CF93DF93CDB7DEB7AF970FB6F8943A
:10207000DEBF0FBECDBF8C016B017A01CE01019690
:102080000E945209CE0109960E941110CE018A9633
:102090000E94520969E075E0CE0184960E942917DA
:1020A000BE016C5D7F4FCE0101960E944B17AE01C1
:1020B000465D5F4FB601CE0101960E94BA1981308C
:1020C0009105C1F4D801ED91FC910488F589E02DCA
:1020D0008DE393E09DA38CA38CA59DA5AEA5BFA584
:1020E0008EA39FA3A8A7B9A7A701BE016C5D7F4FD0
:1020F000C8010995AF960FB6F894DEBF0FBECDBFED
:10210000DF91CF911F910F91FF90EF90DF90CF90D3
:1021100008950F9300E020E040E060E081EF94E05C
:102120000E945C090F9108958EBD00000DB407FE5A
:10213000FDCF8EB508952A9808952A9A08951F9381
:10214000CF93DF9300D0CDB7DEB7182F6A83998382
:102150000E949B1080EF0E9494109981892F0E9409
:102160009410812F0E9494106A81862F0E949410EF
:102170000E949D1081E00F900F90DF91CF911F91F1
:102180000895CF93DF93EC016CE271E080E090E082
:102190000E942A060E94481A229A80918505882367
:1021A00099F02FB7F89480918505813059F48DB35B
:1021B000809383059DB380918405809589238DBB91
:1021C0002FBF02C02093830580E58CBD1DBC60E855
:1021D00080E090E00E949F1065E58BE190E00E9416
:1021E0009F1065E58AE190E00E949F10809185052F
:1021F000882351F09FB7F89420918505809183053D
:10220000213029F58DBB9FBF80E090E499838883BE
:1022100080E090E69987888780E098E49B838A83B2
:1022200080E098E69B878A8780E090E59D838C8399
:1022300080E090E79D878C8780E098E59F838E8380
:1022400080E098E79F878E87DF91CF9108958FBFB9
:10225000DBCF9B0190E00496982F8827642F820F94
:10226000931F0C949F10CF92DF92EF92FF920F93E7
:102270001F93CF93DF93EC017A018B016C01C40EA5
:10228000D51ECC15DD05A1F00E949B1080EF0E94A9
:1022900094108D2F0E9494108C2F0E9494102196E0
:1022A000F80181918F010E9494100E949D10E9CF46
:1022B000C701DF91CF911F910F91FF90EF90DF90B9
:1022C000CF9008951F93CF93DF931F92CDB7DEB7C2
:1022D000182F99830E949B108FE00E94941099817F
:1022E000892F0E949410812F0E94941080E00E94F8
:1022F000941089830E949D1089810F90DF91CF9166
:102300001F91089590E00496982F8827860F971FB5
:102310000C9462111F93CF93DF93182F60E270E04B
:102320000E948211C82FD0E061E270E0812F0E94EC
:102330008211DC2FCC279E01282BC901DF91CF9180
:102340001F910895FF920F931F93CF93DF93F62E63
:10235000C0E0D0E08F2D0E948A118C01892B21F0E2
:102360008F2D0E948A11EC01C017D10799F7CE0179
:10237000DF91CF911F910F91FF9008951F93CF93FD
:10238000DF93182F66E270E00E948211C82FD0E020
:1023900067E270E0812F0E948211DC2FCC279E0122
:1023A000282BC901DF91CF911F910895FF920F93C0
:1023B0001F93CF93DF93F62EC0E0D0E08F2D0E94C5
:1023C000BE118C01892B21F08F2D0E94BE11EC01D2
:1023D000C017D10799F7CE01DF91CF911F910F91CF
:1023E000FF9008956F927F928F929F92AF92BF92CB
:1023F000CF92DF92EF92FF920F931F93CF93DF93D1
:102400001F92CDB7DEB7882E962E6A01590164E27D
:1024100070E0892D99830E948211E82EF12C65E2EB
:1024200070E0892D0E948211FE2CEE24E82A3701EB
:102430006C0C7D1CA3015770E82C9981F92EE90CD6
:10244000F11CE90CF11CF70180819181840F951F2B
:102450009A01200F311F2130384098F060E078E079
:102460006B01C41AD50AA601B5010E943311A80157
:102470004C195D09B5016C0D7D1DF70180819181BD
:1024800002C0A801B5010E943311060D171D412F8E
:1024900064E270E0892D0E942911402F65E270E00E
:1024A000892D0F90DF91CF911F910F91FF90EF90A9
:1024B000DF90CF90BF90AF909F908F907F906F9064
:1024C0000C942911CF92DF92EF92FF920F931F93FA
:1024D000CF93DF93EC017A018B016C01C40ED51E02
:1024E000CC15DD05A9F00E949B108FE00E9494108E
:1024F0008D2F0E9494108C2F0E949410219680E0C2
:102500000E949410F80181938F010E949D10E8CFE2
:10251000C701DF91CF911F910F91FF90EF90DF9056
:10252000CF900895AF92BF92CF92DF92EF92FF9239
:102530000F931F93CF93DF9300D0CDB7DEB75A83AD
:102540004983590129813A8137706C01C60ED11C2B
:10255000C60ED11CF60180859185820F931FA801BC
:10256000420F531F4130584098F0E0E0F8E07F01FF
:10257000E21AF30AA701B5010E946212A8014E19DE
:102580005F09B5016E0D7F1DF6018085918502C042
:10259000A801B5010F900F90DF91CF911F910F917E
:1025A000FF90EF90DF90CF90BF90AF900C946212AD
:1025B0008F929F92AF92BF92CF92DF92EF92FF9253
:1025C0000F931F93CF93DF936C01962E5A017901DD
:1025D000802E68E270E0892D0E948211C82FD0E021
:1025E00069E270E0892D0E948211DC2FCC27C82B74
:1025F00087019501AE01692DC6010E9492128110DA
:102600001AC0CE0DDF1D4D2F68E270E0892D0E94AB
:1026100029114C2F69E270E0892DDF91CF911F9134
:102620000F91FF90EF90DF90CF90BF90AF909F9071
:102630008F900C942911DF91CF911F910F91FF90F2
:10264000EF90DF90CF90BF90AF909F908F900895C4
:10265000CF93C62F61E070E08C2F0E94291161E0BA
:1026600070E08C2F0E9482118111F9CFCF910895D3
:102670000F93FC0130E080E092E1AAE7B0E0481758
:1026800059076A077B0740F4B695A79597958795F4
:102690003F5F3630A1F737E091E09327222311F016
:1026A00020E501C020E7892F86950C70082B022BAE
:1026B0000083917091830F910895209185052223C5
:1026C00099F04FB7F89420918505213059F42DB336
:1026D000209383053DB320918405209523232DBBB2
:1026E0004FBF02C0409383058CBD9DBD089580916E
:1026F0008505882361F09FB7F89420918505809126
:102700008305213019F48DBB9FBF08958FBF0895B5
:1027100090E0982F882744E050E0845F9B4F0C9412
:10272000331162E070E00C948211CF93DF93C82FD5
:10273000D62F472F64E070E00E9429114D2F65E0ED
:1027400070E08C2FDF91CF910C942911462F62E01D
:1027500070E00C942911CF93DF93C82FD62F472F09
:1027600060E170E00E9429114D2F61E170E08C2F33
:10277000DF91CF910C9429110F931F93CF93DF9387
:1027800000D01F92CDB7DEB7182F00E021E040E067
:1027900059E06DE370E0CE0101960E943813898103
:1027A0009A810E945D1363E070E0812F0E94821184
:1027B0008B830E9477138B810F900F900F90DF9186
:1027C000CF911F910F9108950F931F93CF93DF9394
:1027D00000D0CDB7DEB7182F00E021E040E059E08F
:1027E0006DE370E0CE0101960E94381389819A81D1
:1027F0000E945D1340E150E0612F87EF94E00E945A
:1028000028136FEF812F0E94A6130E9477130F9059
:102810000F90DF91CF911F910F910895CF92DF928A
:10282000EF92FF920F931F93CF93DF9300D0CDB71A
:10283000DEB79FEF960F9530C0F5F22E6A01E62EB7
:10284000182F0E94E41300E021E040E059E06DE31E
:1028500070E0CE0101960E94381389819A810E940E
:102860005D134E2D4F2960E070E0812F0E942911E9
:10287000C114D10411F0B6010AC06091070570912E
:1028800008056F5F7F4F7093080560930705812FE0
:102890000E94951341E050E0612F87EF94E00E9481
:1028A00028130E94771381E001C080E00F900F9001
:1028B000DF91CF911F910F91FF90EF90DF90CF901C
:1028C0000895AF92BF92CF92DF92EF92FF920F9353
:1028D0001F93CF93DF9300D0CDB7DEB7182F5B01E6
:1028E0006A0100E021E040E059E06DE370E0CE01D4
:1028F00001960E94381389819A810E945D13612F8D
:1029000087EF94E00E94D6117C010097A1F463E068
:1029100070E0812F0E948211843119F1882309F11E
:1029200021E030E08C3111F420E030E0EE24FF248F
:10293000E21AF30A16C0C816D9060CF476011E1462
:102940001F047CF400E09701A501612F87EF94E05C
:102950000E94D81240E450E0612F87EF94E00E947B
:1029600028130E947713C7010F900F90DF91CF912A
:102970001F910F91FF90EF90DF90CF90BF90AF909D
:1029800008950F931F93CF93DF9300D000D0CDB75E
:10299000DEB7182F00E021E040E059E06DE370E081
:1029A000CE0101960E94381389819A810E945D139D
:1029B000612F87EF94E00E94D6118B839C830E9445
:1029C00077138B819C810F900F900F900F90DF9168
:1029D000CF911F910F910895EF92FF920F931F9344
:1029E000CF93DF9300D0CDB7DEB7182F7B0100E087
:1029F00021E040E059E06DE370E0CE0101960E94D5
:102A0000381389819A810E945D1301E021E030E052
:102A1000A701612F87EF94E00E94D8120E947713DC
:102A200081E090E00F900F90DF91CF911F910F9177
:102A3000FF90EF9008958F929F92AF92BF92DF9296
:102A4000EF92FF920F931F93CF93DF9300D0CDB7F8
:102A5000DEB7D82E5B014A01790100E021E040E0B9
:102A600059E06DE370E0CE0101960E943813898130
:102A70009A810E945D136D2D87EF94E00E94A21150
:102A80008E159F0530F46D2D87EF94E00E94A21102
:102A90007C0187019401A5016D2D87EF94E00E94D0
:102AA000F2110E947713C7010F900F90DF91CF9121
:102AB0001F910F91FF90EF90DF90BF90AF909F908C
:102AC0008F900895CF92DF92EF92FF920F931F9312
:102AD000CF93DF9300D0CDB7DEB7FB01908191118A
:102AE00009C09181911106C09281911103C0938117
:102AF000992309F141155105F1F06A017F01182F61
:102B000000E021E040E059E06DE370E0CE01019685
:102B10000E94381389819A810E945D13B701812F29
:102B20000E948813B601812F0E94AB130E94771375
:102B300081E090E002C080E090E00F900F90DF9184
:102B4000CF911F910F91FF90EF90DF90CF9008955C
:102B50000F931F93CF93DF9300D0CDB7DEB7182F1D
:102B600000E021E040E059E06DE370E0CE01019625
:102B70000E94381389819A810E945D1340E250E0DF
:102B8000612F87EF94E00E942813812F0E949113F8
:102B900084FD21C0812F0E94911383FF09C068E149
:102BA000812F0E94A6130E94771380E090E01BC043
:102BB0000E9477130E94A10600E021E040E059E066
:102BC0006DE370E0CE0101960E94381389819A81ED
:102BD0000E945D13DACF60E1812F0E94A6130E944C
:102BE000771381E090E00F900F90DF91CF911F91CC
:102BF0000F91089544E050E0BC0181E090E00C9416
:102C0000331144E050E0BC0185E090E00C943311B6
:102C100044E050E0BC018FE090E00C9433112F921F
:102C20003F924F925F926F927F928F929F92AF925C
:102C3000BF92CF92DF92EF92FF920F931F93CF93A9
:102C4000DF9300D000D000D0CDB7DEB76C011B0100
:102C500029013A014701580181E195E0F601978386
:102C6000868387EF94E00E94C11080E590E00E9487
:102C70005D1346E050E0B10189E090E00E9433111D
:102C800000E020E040E060E0CE0101960E945C0997
:102C9000CE0103960E9408160E94771385017401E5
:102CA000A3019201B101F601868197810E94A925B5
:102CB0008C010197B9F580E590E00E945D13F60163
:102CC00066817781CE0101960E94E320CE010396B2
:102CD0000E940816F60166817781CE0101960E9456
:102CE000F920CE0103960E94FA15F60166817781DC
:102CF000CE0101960E94EE20CE0103960E9401169D
:102D00000E947713F60166817781CE0101960E94B9
:102D100004218B819C81AD81BE81F60182839383E6
:102D2000A483B583C80126960FB6F894DEBF0FBE04
:102D3000CDBFDF91CF911F910F91FF90EF90DF906A
:102D4000CF90BF90AF909F908F907F906F905F904B
:102D50004F903F902F900895EF92FF920F931F9303
:102D6000CF93DF9300D000D000D0CDB7DEB7FC0109
:102D7000268137812115310509F443C08C01C90131
:102D80000E94E8257C01029721F084E0E816F10416
:102D9000D1F580E590E00E945D13F80166817781AE
:102DA000CE0101960E94E320CE0103960E940816F0
:102DB000F80166817781CE0101960E94F920CE014B
:102DC00003960E94FA15F80166817781CE0101967B
:102DD0000E94EE20CE0103960E9401160E947713F6
:102DE000F80166817781CE0101960E9404218B81D2
:102DF0009C81AD81BE81F80182839383A483B583D6
:102E000002C0E12CF12CC70126960FB6F894DEBF64
:102E10000FBECDBFDF91CF911F910F91FF90EF902B
:102E20000895CF93DF93EC010E94520980E590E072
:102E30000E945D13BE016E5F7F4F44E050E08FE063
:102E400090E00E9462120E947713CE01DF91CF9131
:102E500008952DE333E0FC0131832083FB0142819F
:102E6000538164817581FC0142835383648375833C
:102E700008950F9300E020E040E060E087E795E0F0
:102E80000E945C0984E595E00E94111089E095E0BC
:102E90000F910C945209FB01428153816481758129
:102EA000FC014283538364837583178216820895DD
:102EB000CF93DF93FB0120E080E090E0AAE0319126
:102EC000332301F160ED630F6A3080F4A89FB001F5
:102ED000A99F700D1124CB01C097830F911D37FD61
:102EE0009A958F3F910559F350F313C03E3289F400
:102EF000233079F0EA01C20FD11D8A832F5F80E071
:102F000090E0DDCF233029F4FA01858381E090E061
:102F100002C080E090E0DF91CF9108950F9300E030
:102F200020E040E060E08DE795E00E945C090F91B1
:102F300008958F929F92AF92BF92CF92DF92EF92BD
:102F4000FF920F931F93CF93DF9300D000D01F9277
:102F5000CDB7DEB78C016B010E94F905F8017783CC
:102F600066837627672776277A836983085F1F4FF2
:102F700042E050E0BE016F5F7F4FC8010E94850EA6
:102F800081E090E09C838B8342E050E0BE016D5F66
:102F90007F4FC8010E94850E80E091E09C838B8367
:102FA00042E050E0BE016D5F7F4FC8010E94850E78
:102FB0001C821B8242E050E0BE016D5F7F4FC80162
:102FC0000E94850E42E050E0BE016D5F7F4FC80158
:102FD0000E94850E42E050E0BE016D5F7F4FC80148
:102FE0000E94850E5601F5018081882329F1C601D2
:102FF0007C01FC0120810196211116C05701470177
:103000008C189D081814190494F48D8241E050E046
:10301000BE016B5F7F4FC8010E94850EA401B601FF
:10302000C8010E94850E03C02E3211F7E7CF670159
:10303000FFEFCF1ADF0AD7CF1D8241E050E0BE017B
:103040006B5F7F4FC8010E94850EE12CFF24F39433
:10305000FC82EB8242E050E0BE016D5F7F4FC80111
:103060000E94850EFC82EB8242E050E0BE016D5F63
:103070007F4FC8010E94850E81E090E00F900F9075
:103080000F900F900F90DF91CF911F910F91FF90B4
:10309000EF90DF90CF90BF90AF909F908F9008956A
:1030A0004F925F926F927F928F929F92AF92BF9258
:1030B000CF92DF92EF92FF920F931F93CF93DF9304
:1030C000CDB7DEB765970FB6F894DEBF0FBECDBFA4
:1030D0007C015B016A010E94F9052B013C0187011B
:1030E000085F1F4F4501A12CB12CC8010E94270F7A
:1030F00018161906A4F00E94F905DC01CB01841909
:103100009509A609B70988169906AA06BB06D0F044
:1031100062E370E080E090E00E942A06E6CFF701CB
:103120004281538164817581808D918DA28DB38D93
:10313000481759076A077B0741F4848D958DC59719
:1031400021F406C02FEF3FEFFDC02EEF3FEFFAC096
:10315000C8010E94490E0C97ECF04CE050E0BE0113
:103160006F5F7F4FC8010E94C20E6C818B810E94ED
:10317000D7209A8B898BF701E680F7806A81898155
:103180000E94D720E816F90641F489899A8997FFA9
:1031900004C009C02DEF3FEFD5C0C8010E94630EE7
:1031A0002CEF3FEFCFC08F709270892B31F0C801A8
:1031B0000E94630E2BEF3FEFC5C068858F810E9490
:1031C000D7205C01892B31F4C8010E94630E2AEFDD
:1031D0003FEFB8C0E12CF12C6E818D810E94D72089
:1031E000E816F90640F541E050E0BE01635F7F4F0D
:1031F000C8010E94C20E8D85811113C08D85811179
:10320000F2CFC8010E94990EC8010E94990EC80110
:103210000E94990EC8010E94990EFFEFEF1AFF0A53
:10322000DBCF8D859FEF980F9D87882339F3C801E9
:103230000E94990EF6CFE12CF12C41E050E0BE0146
:103240006D5E7F4FC8010E94C20E8B89982F907CC3
:1032500061F4882371F08B899FEF980F9B8B8823F3
:1032600041F0C8010E94990EF6CFC8010E94990E44
:103270001B8A8B898111E1CF42E050E0BE01615F82
:103280007F4FC8010E94C20E42E050E0BE01635F62
:103290007F4FC8010E94C20EC8010E94990EC8014A
:1032A0000E94990EC8010E94990EC8010E94990EB1
:1032B00042E050E0BE016F5E7F4FC8010E94C20E27
:1032C0008F8598898115914001F52D853E8532279E
:1032D0002327322721303105C1F489899A89811544
:1032E000944031F0C8010E94630E27EF3FEF2AC0DF
:1032F000B6016E5F7F4F44E050E0C8012C8B3D8BE0
:103300000E94C20E2C893D891DC0812C912C898977
:103310009A899827892798278816990638F4C8012A
:103320000E94990E8FEF881A980AF1CFEFEFEE1AEC
:10333000FE0AEA14FB0409F080CFC8010E94630E64
:1033400026EF3FEFC90165960FB6F894DEBF0FBEBA
:10335000CDBFDF91CF911F910F91FF90EF90DF9044
:10336000CF90BF90AF909F908F907F906F905F9025
:103370004F9008958F929F92AF92BF92CF92DF921B
:10338000EF92FF920F931F93CF93DF9300D000D063
:1033900000D0CDB7DEB77C014B015A010E9458170F
:1033A0008C01892B09F05BC0F70142815381648154
:1033B000758180917F0590918005A0918105B091E4
:1033C0008205481759076A077B0709F44BC00E941A
:1033D000F9056701F8E0CF0ED11C6F7077277C5F8D
:1033E000C6010E94FA0E813009F03EC08DE393E0E1
:1033F0009A838983F70182819381A481B5818B832C
:103400009C83AD83BE8345E350E0BE016F5F7F4F79
:10341000C6010E94790E892B19F400E010E01BC050
:10342000B401C7010E949917892BB9F3C6010E9404
:10343000810E892B91F383E0882E912CA50168E8F9
:1034400073E1C7010E9450188C01F1E08F1A9108B6
:1034500011F0019699F3C6010E94640E05C001E0C7
:1034600010E002C00EEF1FEFC80126960FB6F894C9
:10347000DEBF0FBECDBFDF91CF911F910F91FF90A7
:10348000EF90DF90CF90BF90AF909F908F90089576
:10349000CF93CFB7F89480918605811127C0EAE9D0
:1034A000F0E08491E6E8F0E09491E82FF0E0EE0F90
:1034B000FF1FE255FF4FA591B491EC91E92321F450
:1034C00061E08AE00E94070761E08AE00E94CB0683
:1034D0008CB580618CBD8CB580648CBD61E08DE065
:1034E0000E94CB0661E08BE00E94CB0680918605AE
:1034F0008F5F80938605CFBFCF910895FC01148222
:1035000015821682178208951F93CF93DF931F921F
:10351000CDB7DEB7162FFC01608187E895E04983BF
:103520000E94E01D612F87E895E00E94971D498168
:10353000642F87E895E00E94971D87E895E00F903B
:10354000DF91CF911F910C94691E1F93CF93DF934E
:1035500000D0CDB7DEB7162FFC01608187E895E07B
:103560004A8359830E94E01D612F87E895E00E94FD
:10357000971D5981652F87E895E00E94971D4A8124
:10358000642F87E895E00E94971D87E895E00F90EB
:103590000F90DF91CF911F910C94691E1F93CF93D1
:1035A000DF93EC01162F688187E895E00E94E01D0B
:1035B000612F87E895E00E94971D87E895E00E94BB
:1035C000691E41E0688187E895E00E94631EC8EEAD
:1035D000D3E087E895E00E943B1D1816190634F0E9
:1035E000209711F02197F5CF80E006C0CD2BE1F3B5
:1035F00087E895E00E94431DDF91CF911F910895C8
:103600000F93CF93DF93EC01637041704295407F3D
:103610002F70422B6295660F607E462B6EE10E94F2
:10362000841A002321F0083018F007E001C001E0FF
:103630008FEF800F61E070E002C0660F771F8A9500
:10364000E2F7072E000C880B990B0E944C2A9B0175
:10365000AC0160E074E284EF99E40E94A9290E9421
:103660001B2A6C837D838E839F836FE1CE010E9432
:10367000CE1A8F780295007F482F402B6FE1CE0144
:10368000DF91CF910F910C94841A1F93CF93DF9306
:10369000EC01162F688187E895E00E94E01D612FFC
:1036A00087E895E00E94971D87E895E00E94691ED3
:1036B00042E0688187E895E00E94631EC0EDD7E094
:1036C00087E895E00E943B1D02973CF4209711F09B
:1036D0002197F6CF80E090E011C0CD2BD9F387E899
:1036E00095E00E94431DC82F87E895E00E94431D86
:1036F00020E030E03C2FA901482BCA01DF91CF9197
:103700001F910895CF92DF92EF92FF920F931F9334
:10371000CF93DF938C01D62FF42E6EE00E94451BD1
:1037200041E050E09A0102C0220F331FDA95E2F720
:10373000E9018095909582239323892B89F060E19C
:10374000C8010E94451BFF2021F0AC014C2B5D2BD2
:1037500005C0C095D095AC014C235D2360E125C028
:1037600066E0C8010E94451B6C0168E0C8010E9428
:10377000451B9E0120953095FF2061F07C01E222DF
:10378000F322A6014C2B5D2B66E0C8010E94A51A0E
:10379000A7010AC0C82BD92BA6014223532366E0F8
:1037A000C8010E94A51AAE0168E0C801DF91CF915F
:1037B0001F910F91FF90EF90DF90CF900C94A51A7E
:1037C000FF920F931F93CF93DF938C01F62E6EE041
:1037D0000E94451BC1E0D0E002C0CC0FDD1FFA946F
:1037E000E2F78C239D23892B49F060E1C8010E94F8
:1037F000451BC823D92381E0CD2B09F480E0DF915C
:10380000CF911F910F91FF9008950C94E01BCF92E0
:10381000DF92EF92FF920F931F93CF93DF931F924C
:10382000CDB7DEB76C01162F60E029830E94451BDF
:1038300041E050E0BA0102C0660F771F1A95E2F727
:103840008B01AC01462B572B60E0C6010E94A51AE4
:1038500066E0C6010E94451B7801E094F094AC013B
:103860004E215F2166E0C6010E94A51A6EE0C601E6
:103870000E94451BAC014E215F216EE0C6010E94F3
:10388000A51A6EE1C6010E94CE1A8F7D482F4064B2
:103890006EE1C6010E94841A6FE1C6010E94CE1A31
:1038A0002981482F222311F0486801C04777F6018B
:1038B00084819581A681B781892B8A2B8B2B49F432
:1038C00080E894E8AEE1B0E084839583A683B78373
:1038D00040616FE1C6010E94841A60E2C6010E9445
:1038E000451BAC01402B512B60E2C6010E94A51A7A
:1038F00060E1C6010E94451BAC014E215F2160E1E1
:10390000C6010F90DF91CF911F910F91FF90EF9023
:10391000DF90CF900C94A51A0F931F93CF93DF9352
:10392000EC01162F042F6EE00E94451B9C01802F96
:103930008D7F813059F041E050E0012E02C0440FEC
:10394000551F0A94E2F7422B532B0DC0E1E0F0E043
:10395000012E02C0EE0FFF1F0A94E2F7E095F095EA
:10396000A9014E235F236EE0CE010E94A51A02300A
:1039700049F441E0612FCE01DF91CF911F910F916A
:103980000C94821B033051F420E041E0612FCE0102
:10399000DF91CF911F910F910C94071CDF91CF9174
:1039A0001F910F9108950C948C1CCF93DF93EC0121
:1039B0006FE10E94CE1A82FF06C0482F4B7F6FE155
:1039C000CE010E94841A41E06B81CE010E948C1CC2
:1039D00040E06B81CE010E94821B61E070E080E0DC
:1039E00090E00E942A0641E06B81CE01DF91CF91E9
:1039F0000C94821BCF93DF93662321F0DF91CF914C
:103A00000C94D51CEC0142E16DE70E94841A44E35A
:103A10006DE7CE01DF91CF910C94841A0F93CF9371
:103A2000DF93EC0187E895E00E94D61D8B818F3FE4
:103A300021F0CE010E94D51C04C060E0CE010E949E
:103A4000FA1C63E1CE010E94451B81159F4F49F48A
:103A500001E020E040E062E0CE010E94001B81E036
:103A600001C080E0DF91CF910F910895FC01608348
:103A700043830C940E1D8091B70590E02091B8050A
:103A8000821B910908959091B8058091B705981708
:103A900050F4E92FF0E0E754FA4F208130E09F5FC7
:103AA0009093B80502C02FEF3FEFC9010895E09150
:103AB000B8058091B705E81730F4F0E0E754FA4F05
:103AC000808190E008958FEF9FEF08950895CF9241
:103AD000DF92EF92FF920F931F93CF93DF937C01BE
:103AE000262F972F8A0180919305882391F0C62F66
:103AF000D72F6E01C40ED51ECC15DD0571F069916E
:103B0000D701ED91FC910190F081E02DC70109955D
:103B1000F3CF642F822F0E942C1FC801DF91CF9119
:103B20001F910F91FF90EF90DF90CF900895CF936A
:103B3000DF931F92CDB7DEB76983209193052223CF
:103B4000D1F020919405203240F021E030E0FC01DA
:103B50003383228380E090E015C080919505E82FA3
:103B6000F0E0EA56FA4F998190838F5F8093950534
:103B70008093940505C061E0CE0101960E942C1F40
:103B800081E090E00F90DF91CF910895FC011382C6
:103B9000128288EE93E0A0E0B0E084839583A68350
:103BA000B7838DE793E09183808308951092B805E1
:103BB0001092B70510929505109294050C94701E02
:103BC00081E0809393056093B6051092950510925D
:103BD000940508950C94E01D0F93062F21E0409169
:103BE000940566E975E08091B6050E94D61E109294
:103BF000950510929405109293050F9108954F9298
:103C00005F926F927F92AF92BF92CF92EF92FF92AC
:103C10000F931F93CF93DF935C01F62ED42F2801CF
:103C20003901EE2021F10E94E01DCE2DC43008F0B4
:103C3000C3E0C150C0F0D501ED91FC91B8E0CB9F3D
:103C4000C0011124A301920104C0569547953795F0
:103C500027958A95D2F7CA01B9010190F081E02D2C
:103C6000C5010995E6CF60E0C5010E94EC1D4D2F0E
:103C7000D13208F040E22C2D69EB75E08F2D0E94C7
:103C80008E1E1092B8058093B705DF91CF911F91DA
:103C90000F91FF90EF90CF90BF90AF907F906F907B
:103CA0005F904F900895CF92EF920F931F93C22E83
:103CB000E12C00E010E098010E94FF1D1F910F9180
:103CC000EF90CF90089521E00C94531E21E00C94C6
:103CD000531E61E00C94EC1D87E895E00C94C61D22
:103CE0001092460681E0809344061092430661E0FC
:103CF00082E10E94070761E083E10E940707E9EB88
:103D0000F0E080818E7F808380818D7F808388E456
:103D10008093B80085E48093BC000895413208F098
:103D200043C0909146069111FCCF91E090934606D6
:103D3000209344062FEF2093D90510921E06240FDE
:103D400020931D069093450690914506880F892B78
:103D50008093450680914306813061F410924306BA
:103D6000809145068093BB008091BC0083FDF8CF15
:103D700085EC01C085EE8093BC00809146068130C1
:103D8000E1F380911E06841710F440911E062FE186
:103D900036E0FB01D9018A2F821B841718F48D911C
:103DA0008193F9CF842F089580E008950F934132D5
:103DB00008F04AC0909146069111FCCF32E0309352
:103DC0004606009344063FEF3093D90510921E0635
:103DD00040931D06FB016FE176E0DB013A2F361BB5
:103DE000341718F431913D93F9CF10924506309174
:103DF0004506880F832B80934506809143068130CA
:103E000061F410924306809145068093BB00809137
:103E1000BC0083FDF8CF85EC01C085EE8093BC002B
:103E2000222321F0809146068230D1F38091D9057A
:103E30008F3F79F08091D905803241F08091D9058A
:103E4000803331F094E005C091E003C092E001C0FE
:103E500093E0892F0F9108954091FB05262F30E0C4
:103E6000240F311D21323105DCF420914606243027
:103E7000C9F4FC0180E090E0861758F43091FB050E
:103E80002191DC01A350BA4FA30FB11D2C930196D1
:103E9000F3CF8091FB05680F6093FB0580E00895E8
:103EA00081E0089582E0089585ED8093BC008091C3
:103EB000BC0084FDFCCF10924606089585EC8093EB
:103EC000BC001092460608951F920F920FB60F92F3
:103ED00011242F933F934F935F936F937F938F930F
:103EE0009F93AF93BF93EF93FF938091B900887F27
:103EF000803609F49EC078F5883209F45DC090F4EC
:103F0000803109F456C038F4882309F4F5C08830AC
:103F100009F44FC0F5C0883109F44EC0803209F46D
:103F20005FC0EEC0803409F46AC058F4803309F4ED
:103F300057C0883309F0E4C08093D9050E945E1F02
:103F4000DFC0803509F44FC0883509F45DC088347E
:103F500009F0D6C0D3C0883909F4C4C0A8F48837A2
:103F600009F467C038F4883609F463C0803709F46F
:103F700060C0C6C0883809F4B5C0803909F45FC094
:103F8000803809F0BDC05BC0803B09F483C038F4C1
:103F9000803A09F466C0883A09F47CC0B1C0803C1C
:103FA00009F4A4C0883C09F4A1C0883B09F487C087
:103FB000A7C08091450610C090911E0680911D06F5
:103FC000981770F5E0911E0681E08E0F80931E0613
:103FD000F0E0E15EF94F80818093BB0085EC83C007
:103FE0008093D9058BC0E0911E0681E08E0F8093EF
:103FF0001E068091BB00F0E0E15EF94F8083909156
:104000001E0680911D066BC0E0911E0681E08E0F9A
:1040100080931E068091BB00F0E0E15EF94F808343
:104020008091440681116AC081E08093430684EA4E
:104030005EC083E0809346061092DA05CFCF809170
:10404000DA05803208F04EC0E091DA0581E08E0F8B
:104050008093DA058091BB00F0E0E552FA4F80834F
:10406000BDCF0E945E1F8091DA05803230F4E0916E
:10407000DA05F0E0E552FA4F10826091DA0570E05F
:10408000E0913F06F09140068BED95E00995109286
:10409000DA0536C084E0809346061092FC05109243
:1040A000FB05E0914106F091420609958091FB05E0
:1040B000811105C081E08093FB051092FD05E09120
:1040C000FC0581E08E0F8093FC05F0E0E350FA4F91
:1040D00080818093BB009091FC058091FB0598172F
:1040E00008F47CCF85E88093BC000AC085EC8093FF
:1040F000BC001092460604C01092D9050E94541FBD
:10410000FF91EF91BF91AF919F918F917F916F91AF
:104110005F914F913F912F910F900FBE0F901F9085
:104120001895CF93DF9300D000D0CDB7DEB76115DF
:1041300071058105910579F09B01AC0169833A8392
:104140004B835C830E94002829813A814B815C81EA
:104150000E94772B03C060E070E0CB010F900F90BE
:104160000F900F90DF91CF910895CF92DF92EF9251
:10417000FF920F931F93621773078407950784F4C8
:1041800089019A016B017C01C901B8016C197D0993
:104190008E099F090E9491206C0D7D1D8E1D9F1D13
:1041A0001F910F91FF90EF90DF90CF90089570E0F6
:1041B0009B01382BC90108950E9624E1FC01119250
:1041C0002A95E9F70895CF93DF93EC01625F7F4F63
:1041D0000E946809CE01DF91CF910895CF93DF93BC
:1041E000EC016E5E7F4F0E946809CE01DF91CF9196
:1041F0000895CF93DF93EC016A5E7F4F0E946809B8
:10420000CE01DF91CF910895CF93DF93EC01625EF1
:104210007F4F0E946809CE01DF91CF91089580E31E
:10422000FB0180833296842F82958F7090E1899F65
:10423000401911244A3014F4405D01C0495C429396
:10424000482F8111F0CF08950F9300E020E040E067
:1042500060E087E496E00E945C090F9108957F92E8
:104260008F929F92AF92BF92CF92DF92EF92FF9286
:104270000F931F93CF93DF93CDB7DEB7AC970FB6F5
:10428000F894DEBF0FBECDBF7C01762E942E852E16
:1042900020E2B22ECE0101966C01FC012B2D119271
:1042A0002A95E9F70FEF2FEF4FEF6FEF86960E94F9
:1042B0005C098DE393E09AA389A389A59AA5ABA590
:1042C000BCA58BA39CA3ADA3BEA387010D5B1F4F11
:1042D00043E450E0BE016F5D7F4FC8010E94790E3C
:1042E000019609F4BFC081E089838A8386E0A82E05
:1042F000AB821C82F70164817581868197810E945F
:10430000962B6D837E838F83988789869A8680E833
:1043100090E09C878B874CE150E0B601C8010E9479
:10432000850EF6012B2D11922A95E9F7470188E0B9
:10433000880E911CF401D60101900D92AA94E1F728
:1043400040E150E0B601C8010E94850EF6011192CD
:10435000BA94E9F796E0A92EB12C40E250E0B601FC
:10436000C8010E94850EF1E0AF1AB108B1F783E6EB
:10437000898392E89A8393E59B838C8385E38D837D
:1043800081E08E837F829DE3988797E099878A8773
:1043900086E0F401DE011B9601900D928A95E1F70B
:1043A0008CE0898B8A8B6BE873E0CE0143960E9488
:1043B000FA28F7014385BE01675E7F4FC7010E945F
:1043C0000F21F7014485BE01655E7F4FC7010E9442
:1043D0000F21F7014585BE01635E7F4FC7010E9433
:1043E0000F214EE150E0B601C8010E94850EF3E0B6
:1043F0007F121EC082E3898384E08A83F701968559
:104400009B8397859C8390899D8391899E8396E366
:104410009F838887828D8987838D8A87848D8B8708
:10442000858D8C874CE050E0B601C8010E94850E56
:1044300087E3898386E08A8391E09B8393E09C8372
:104440008D838FE08E838AE38F838BE388878FEF62
:10445000898749E050E0B601C8010E94850EC80175
:104460000E94810EAC960FB6F894DEBF0FBECDBF92
:10447000DF91CF911F910F91FF90EF90DF90CF9040
:10448000BF90AF909F908F907F9008952F923F9212
:104490004F925F926F927F928F929F92AF92BF9254
:1044A000DF92EF92FF920F931F93CF93DF93CDB7DD
:1044B000DEB7E4970FB6F894DEBF0FBECDBF7C0128
:1044C0001A012B0139010E94F9054B015C0187019A
:1044D0000D5B1F4FC8010E94270F18161906A4F084
:1044E0000E94F905DC01CB0188199909AA09BB09C9
:1044F000281639064A065B06F0F062E370E080E0B9
:1045000090E00E942A06E6CF42E250E0BE016F5FD3
:104510007F4FC8010E94C20E8981823031F4F801B8
:10452000848995898334910541F0D12CC8010E947A
:10453000630E8D2D5FC18FEF5DC16D817E818F8197
:1045400098850E94962B4B015C01F3016083718377
:104550008283938346E050E0B701685F7F4FCE01CE
:104560004D960E94DB28892B99F4F7018081918177
:10457000A281B38188169906AA06BB0648F08481F9
:104580009581A681B78188159905AA05BB0528F4F0
:10459000C8010E94630E80E02DC189899A89AB8988
:1045A000BC89F70186879787A08BB18B8EECA82EEC
:1045B000B12CC8010E94990EF1E0AF1AB108C9F7F9
:1045C000D12CC70182969AA789A7F701B696FCA7B6
:1045D000EBA708969EA78DA73C974F01899698ABAD
:1045E0008FA73897FAABE9AB1701F6E12F0E311C14
:1045F000C5979CAB8BABC8010E94490E18161906D3
:104600000CF094CFC8010E94990E8333910509F4F0
:10461000CBC0FCF481309105C9F11CF4892B59F30E
:10462000DDC083309105D1F1069709F0D7C0C801EC
:104630000E94990E5C0144E050E06BA97CA9C8017E
:104640000E94C20E412C512CBB24F4E0AF1AB108D9
:1046500040C08A33910509F47BC03CF48533910551
:1046600069F0C69709F440C0B9C08B33910509F4CD
:1046700085C08F3F910509F4BECFB0C0C8010E942C
:10468000990EC8010E94990ED82EB5CFC8010E947C
:10469000990E44E050E069A97AA93AC0C8010E9485
:1046A000990E5C0144E050E0B101C8010E94C20EC5
:1046B000412C512CBB2494E0A91AB1084A145B0484
:1046C0000CF099CFC8010E94990EEFEF4E1A5E0AC6
:1046D000F5CF4A145B040CF08ECFC8010E94990EEE
:1046E0008FEF481A580AF5CFC8010E94990EB82ECC
:1046F000F701828D811110C0838D81110DC0848DD1
:1047000081110AC0858D811107C044E050E0B401D9
:10471000C8010E94C20E6FCFEFA5F8A9408051805A
:1047200062807380B401CE0183960E9468098DA1D6
:104730009EA1AFA1B8A584159505A605B70529F3D7
:10474000BB2009F458CFC8010E94990EBA94F8CF43
:10475000C8010E94990E44E050E06BA57CA5C801F9
:104760000E94C20EF70166A177A180A591A50E94C3
:10477000962B66A377A380A791A73DCFC8010E947F
:10478000990E44E050E06DA57EA5C8010E94C20EBE
:10479000F70162A573A584A595A50E94962B62A733
:1047A00073A784A795A727CFC8010E94990E44E05C
:1047B00050E069A57AA5C8010E94C20EF70162A166
:1047C00073A184A195A10E94962B62A373A384A3D5
:1047D00095A366A777A780AB91AB0DCFC8010E94C8
:1047E000990EB82EBB2009F406CFC8010E94990E7D
:1047F000BA94F8CFE4960FB6F894DEBF0FBECDBFE3
:10480000DF91CF911F910F91FF90EF90DF90BF90BC
:10481000AF909F908F907F906F905F904F903F9060
:104820002F9008952F923F924F925F926F927F92B6
:104830008F929F92AF92BF92CF92DF92EF92FF92B0
:104840000F931F93CF93DF93CDB7DEB727970FB6A4
:10485000F894DEBF0FBECDBF8C0120ED37E040E005
:1048600050E061E070E080E090E00E94B520D80167
:1048700014966D937D938D939C931797F8016083A5
:104880007183828393835801F3E4AF0EB11CC50199
:104890000E94640E64E470E0C5010E94FA0E882351
:1048A00009F43CC10E94F9052B013C01812C912C9B
:1048B0001D82C8018E5B9F4F9F838E8343E0342E01
:1048C00058EEC52E53E0D52EE12CF12C62E0262EB9
:1048D000AE81BF818C91833009F407C1811120C062
:1048E000F80184819581A681B7810196A11DB11D32
:1048F00084839583A683B7830E94F905641975099B
:1049000086099709A70196010E94552BA90161E02C
:10491000C8010E942F2181E0AE81BF818C93C6C067
:104920008430F9F4F80184819581A681B7810196DC
:10493000A11DB11D84839583A683B7830E94F905C9
:104940006419750986099709A70196010E94552BDC
:10495000A90163E0C8010E942F21AE81BF812C9282
:10496000A5C0813061F5F80142AD53AD64AD75ADC0
:104970009E012F5F3F4FC8010E9446228D838230E7
:1049800009F094C089819A81AB81BC81F80184834C
:104990009583A683B7830E94F90564197509860972
:1049A0009709A70196010E94552BA90163E0C80150
:1049B0000E942F21ED81AE81BF81EC937EC08230B9
:1049C00009F074C0D801DA964D915D916D917C919A
:1049D000DD979E012F5F3F4FC8010E9446228D83C5
:1049E000853009F05CC0EE81FF813082F80182A140
:1049F00093A1A4A1B5A1892B8A2B8B2B41F484E828
:104A000093E0A0E0B0E082A393A3A4A3B5A3F80130
:104A100086A197A1A0A5B1A5892B8A2B8B2B61F428
:104A200082A193A1A4A1B5A1B695A79597958795C5
:104A300086A397A3A0A7B1A7F80182A593A5A4A5D3
:104A4000B5A5892B8A2B8B2BA9F482A193A1A4A1B4
:104A5000B5A1AC01BD0123E07695679557954795C3
:104A60002A95D1F7841B950BA60BB70B82A793A7AA
:104A7000A4A7B5A7F80186A197A1A0A5B1A586A76F
:104A800097A7A0ABB1AB82A593A5A4A5B5A582AB12
:104A900093ABA4ABB5AB88248394912C0EC0FD815D
:104AA000F63021F4AE81BF811C9207C0BD81BF3FAB
:104AB00021F4EE81FF8110821D82F1E08F169104B6
:104AC00009F406CF0E94F905DC01CB018419950990
:104AD000A609B709F80126A937A940AD51AD281795
:104AE00039074A075B0708F0F3CEC5010E94640E40
:104AF000F80184819581A681B7810196A11DB11D20
:104B000084839583A683B7830E94F905F801FE96F6
:104B10006083718382839383C40102C080E090E04C
:104B200027960FB6F894DEBF0FBECDBFDF91CF91B1
:104B30001F910F91FF90EF90DF90CF90BF90AF90BB
:104B40009F908F907F906F905F904F903F902F90AD
:104B50000895CF92DF92EF92FF920F931F93CF931E
:104B6000DF93EC016B011AA21BA21CA21DA21EA2C4
:104B70001FA218A619A61AA61BA61CA61DA62EAB18
:104B80003FAB48AF59AFEAAEFBAE0CAF1DAF8C01E7
:104B9000085F1F4F86E0F80111928A95E9F7CE0170
:104BA0000E94DC2086E0F601D80101900D928A95E2
:104BB000E1F7FE01EE5BFF4F1082CE01DF91CF9156
:104BC0001F910F91FF90EF90DF90CF900C941224E3
:104BD000CF92DF92EF92FF920F931F93CF93DF93C9
:104BE000EC010E94F9056B017C018E01025C1F4FF4
:104BF000F80180819181A281B381A7019601281BD0
:104C0000390B4A0B5B0BCA01B901683E33E07307ED
:104C10008105910508F441C028EE33E040E050E002
:104C20000E94552BC61AD70AE80AF90AF801C08271
:104C3000D182E282F3828EA59FA5A8A9B9A96901B4
:104C40007A01CC0CDD1CEE1CFF1C8C159D05AE05FD
:104C5000BF0528F41EA61FA618AA19AA08C0821B01
:104C6000930BA40BB50B8EA79FA7A8ABB9AB8AA9D2
:104C70009BA9ACA9BDA98C159D05AE05BF0528F45F
:104C80001AAA1BAA1CAA1DAA08C0821B930BA40B5C
:104C9000B50B8AAB9BABACABBDAB8EA59FA5A8A952
:104CA000B9A9892B8A2B8B2B69F4FE01EE5BFF4F90
:104CB0008081833039F484E08083CE010E94122405
:104CC000019602C080E090E04AA95BA96CA97DA989
:104CD000452B462B472B81F4FE01EE5BFF4F2081D5
:104CE000233011F0211108C01082CE010E94DC2077
:104CF000CE010E9412240396DF91CF911F910F9154
:104D0000FF90EF90DF90CF900895CF93DF938230A4
:104D1000910510F482E090E0E0914F06F09150068A
:104D200020E030E0C0E0D0E0309711F140815181C7
:104D300048175907C0F04817590761F482819381D9
:104D4000209719F09B838A832BC090935006809301
:104D50004F0626C02115310519F04217530718F4E4
:104D60009A01BE01DF01EF010280F381E02DDCCF6B
:104D70002115310509F1281B390B2430310590F438
:104D800012968D919C9113976115710521F0FB018D
:104D90009383828304C09093500680934F06FD0155
:104DA000329644C0FD01E20FF31F8193919322508C
:104DB00031092D933C933AC020914D0630914E0617
:104DC000232B41F4209102013091030130934E06D0
:104DD00020934D06209100013091010121153105EC
:104DE00041F42DB73EB74091040150910501241BB9
:104DF000350BE0914D06F0914E06E217F307A0F453
:104E00002E1B3F0B2817390778F0AC014E5F5F4F20
:104E10002417350748F04E0F5F1F50934E064093FE
:104E20004D068193919302C0E0E0F0E0CF01DF9165
:104E3000CF9108950F931F93CF93DF93009709F4B9
:104E40008CC0FC0132971382128200914F061091A0
:104E500050060115110581F420813181820F931FC5
:104E600020914D0630914E062817390779F5F093B9
:104E70004E06E0934D0671C0D80140E050E0AE17F9
:104E8000BF0750F412962D913C911397AD01211557
:104E9000310509F1D901F3CF9D01DA013383228372
:104EA00060817181860F971F8217930769F4EC0167
:104EB00028813981260F371F2E5F3F4F3183208392
:104EC0008A819B8193838283452B29F4F09350063A
:104ED000E0934F0642C01396FC93EE931297ED01B8
:104EE000499159919E01240F351FE217F30771F480
:104EF00080819181840F951F029611969C938E93C9
:104F00008281938113969C938E931297E0E0F0E058
:104F1000D80112968D919C911397009719F0F80182
:104F20008C01F6CF8D919C9198012E5F3F4F820F9F
:104F3000931F20914D0630914E062817390769F4CA
:104F4000309729F41092500610924F0602C0138237
:104F5000128210934E0600934D06DF91CF911F9160
:104F60000F9108958F929F92AF92BF92CF92DF924E
:104F7000EF92FF92CF93DF93EC01688179818A8170
:104F80009B81611571058105910521F464E279ED3C
:104F90008BE597E02DE133EF41E050E00E94772B65
:104FA00049015A019B01AC01A7EAB1E40E949D2B83
:104FB0006B017C01ACEEB4EFA50194010E94AB2B18
:104FC000DC01CB018C0D9D1DAE1DBF1DB7FF03C0C5
:104FD0000197A109B04888839983AA83BB83BC0148
:104FE000CD019F77DF91CF91FF90EF90DF90CF9031
:104FF000BF90AF909F908F9008950E94B227089520
:1050000086E091E00E94B2270895609306017093B4
:10501000070180930801909309010895A0E0B0E092
:10502000E4E1F8E20C94B42BEC01009721F4CB01FD
:105030000E948526B8C0FC01E60FF71F9C01225094
:105040003109E217F30708F4ACC0D9010D911C91A6
:10505000119706171707B0F00530110508F49FC027
:10506000C80104978617970708F499C002501109E0
:10507000061B170B019311936D937C93CF010E9434
:105080001A278DC05B01A01AB10A4C01800E911E37
:10509000A0914F06B091500640E050E0E12CF12C79
:1050A000109709F44AC0A815B905D1F56D907C9008
:1050B0001197630182E0C80ED11CCA14DB0480F191
:1050C000A3014A195B096A0182E0C80ED11C12963D
:1050D000BC9012971396AC91B5E0CB16D10440F07A
:1050E000B282A38351834083D9016D937C930AC01C
:1050F0000E5F1F4FC301800F911FF90191838083C1
:10510000EB2DFA2FE114F10431F0D7011396FC9343
:10511000EE93129744C0F0935006E0934F063FC0C1
:105120008D919C9111974817590708F4AC017D01A6
:1051300012960D90BC91A02DB3CF80914D06909109
:105140004E0688159905E1F446175707C8F4809173
:10515000000190910101009741F48DB79EB74091F5
:10516000040150910501841B950BE817F907C8F459
:10517000F0934E06E0934D06F901718360830FC0F2
:10518000CB010E9485267C01009759F0A801BE0141
:105190000E94E828CE010E941A27C70104C0CE0150
:1051A00002C080E090E0CDB7DEB7EEE00C94D02BEB
:1051B000F8940C94122CFB01DC0104C08D91019039
:1051C000801921F441505040C8F7881B990B08956D
:1051D000FB01DC0102C001900D9241505040D8F714
:1051E0000895FB01DC018D91019080190110D9F324
:1051F000990B0895FB01DC0101900D920020E1F76D
:1052000008954532510520F4423010F00C940C29D9
:10521000FB011082CB010895BB274A3031F499235A
:1052200022F4BDE2909581959F4F0C94232945323D
:10523000510520F4423010F00C942229FB01108219
:10524000CB010895BB27FB015527AA27880F991F7B
:10525000AA1FA41710F0A41B83955051B9F7A05DA5
:10526000AA3308F0A95DA193009779F7B111B19322
:105270001192CB010C94452B5058BB27AA270E94B2
:1052800054290C949E2A0E94902A38F00E94972A52
:1052900020F039F49F3F19F426F40C948D2A0EF473
:1052A000E095E7FB0C94872AE92F0E94AF2A58F378
:1052B000BA17620773078407950720F079F4A6F5FB
:1052C0000C94D12A0EF4E0950B2EBA2FA02D0B01D1
:1052D000B90190010C01CA01A0011124FF27591B3B
:1052E00099F0593F50F4503E68F11A16F040A22F41
:1052F000232F342F4427585FF3CF469537952795B2
:10530000A795F0405395C9F77EF41F16BA0B620BB0
:10531000730B840BBAF09150A1F0FF0FBB1F661FF7
:10532000771F881FC2F70EC0BA0F621F731F841F3A
:1053300048F4879577956795B795F7959E3F08F060
:10534000B0CF9395880F08F09927EE0F9795879522
:1053500008950E94BD290C949E2A0E94972A58F015
:105360000E94902A40F029F45F3F29F00C94872A8C
:1053700051110C94D22A0C948D2A0E94AF2A68F302
:105380009923B1F3552391F3951B550BBB27AA27FE
:1053900062177307840738F09F5F5F4F220F331F38
:1053A000441FAA1FA9F335D00E2E3AF0E0E832D000
:1053B00091505040E695001CCAF72BD0FE2F29D003
:1053C000660F771F881FBB1F261737074807AB07D5
:1053D000B0E809F0BB0B802DBF01FF2793585F4F4A
:1053E0003AF09E3F510578F00C94872A0C94D22A0B
:1053F0005F3FE4F3983ED4F3869577956795B7952C
:10540000F7959F5FC9F7880F911D9695879597F936
:105410000895E1E0660F771F881FBB1F62177307AF
:105420008407BA0720F0621B730B840BBA0BEE1FC4
:1054300088F7E09508950E94B72A88F09F5798F062
:10544000B92F9927B751B0F0E1F0660F771F881F89
:10545000991F1AF0BA95C9F714C0B13091F00E94A3
:10546000D12AB1E008950C94D12A672F782F88278C
:10547000B85F39F0B93FCCF3869577956795B395CA
:10548000D9F73EF490958095709561957F4F8F4F39
:105490009F4F0895E89409C097FB3EF4909580953E
:1054A000709561957F4F8F4F9F4F9923A9F0F92FEA
:1054B00096E9BB279395F695879577956795B79568
:1054C000F111F8CFFAF4BB0F11F460FF1BC06F5F4E
:1054D0007F4F8F4F9F4F16C0882311F096E911C060
:1054E000772321F09EE8872F762F05C0662371F081
:1054F00096E8862F70E060E02AF09A95660F771F95
:10550000881FDAF7880F9695879597F9089597F988
:105510009F6780E870E060E008959FEF80EC089559
:1055200000240A9416161706180609060895002482
:105530000A9412161306140605060895092E0394FC
:10554000000C11F4882352F0BB0F40F4BF2B11F470
:1055500060FF04C06F5F7F4F8F4F9F4F089557FDCF
:105560009058440F551F59F05F3F71F04795880FD1
:1055700097FB991F61F09F3F79F087950895121668
:1055800013061406551FF2CF4695F1DF08C0161614
:1055900017061806991FF1CF8695710561050894C5
:1055A0000895E894BB2766277727CB0197F90895DC
:1055B0000E94EB2A0C949E2A0E94902A38F00E94A6
:1055C000972A20F0952311F00C94872A0C948D2AA9
:1055D00011240C94D22A0E94AF2A70F3959FC1F334
:1055E000950F50E0551F629FF001729FBB27F00D91
:1055F000B11D639FAA27F00DB11DAA1F649F6627E6
:10560000B00DA11D661F829F2227B00DA11D621F34
:10561000739FB00DA11D621F839FA00D611D221FEE
:10562000749F3327A00D611D231F849F600D211DD2
:10563000822F762F6A2F11249F5750409AF0F1F055
:1056400088234AF0EE0FFF1FBB1F661F771F881FBE
:1056500091505040A9F79E3F510580F00C94872A45
:105660000C94D22A5F3FE4F3983ED4F38695779565
:105670006795B795F795E7959F5FC1F7FE2B880F64
:10568000911D9695879597F90895DC01FC01672F88
:1056900071917723E1F7329704C07C916D93708309
:1056A0006291AE17BF07C8F30895A1E21A2EAA1B94
:1056B000BB1BFD010DC0AA1FBB1FEE1FFF1FA217C2
:1056C000B307E407F50720F0A21BB30BE40BF50BBF
:1056D000661F771F881F991F1A9469F76095709548
:1056E000809590959B01AC01BD01CF010895052ED9
:1056F00097FB1EF400940E948E2B57FD07D00E944A
:10570000552B07FC03D04EF40C948E2B50954095EE
:10571000309521953F4F4F4F5F4F0895909580955D
:10572000709561957F4F8F4F9F4F089569279627FA
:10573000692778278727782708950E94ED2BA59F52
:10574000900DB49F900DA49F800D911D112408957C
:10575000B7FF0C949D2B0E949D2B821B930B0895E9
:105760002F923F924F925F926F927F928F929F9271
:10577000AF92BF92CF92DF92EF92FF920F931F935F
:10578000CF93DF93CDB7DEB7CA1BDB0B0FB6F89410
:10579000DEBF0FBECDBF09942A88398848885F8450
:1057A0006E847D848C849B84AA84B984C884DF80C1
:1057B000EE80FD800C811B81AA81B981CE0FD11DA5
:1057C0000FB6F894DEBF0FBECDBFED010895EE0F0A
:1057D000FF1F0590F491E02D0994A29FB001B39FA3
:1057E000C001A39F700D811D1124911DB29F700DEA
:1057F000811D1124911D0895F999FECF92BD81BD9F
:10580000F89A992780B50895262FF999FECF1FBAE7
:1058100092BD81BD20BD0FB6F894FA9AF99A0FBED9
:105820000196089510E0C5E6D0E004C0FE010E9494
:0E583000E72B2196C636D107C9F7F894FFCFB3
:10583E000000510620000100000007000600BA22F9
:10584E00B922B82201005E00000052756E6E696EBC
:10585E00672053657475702E2E004661696C656401
:10586E0020746F20636F6E6669677572652045746C
:10587E006865726E6574207573696E67204448435F
:10588E00502C2072657374617274696E6720736B2D
:10589E00657463682E2E2E00436F6E66696775728F
:1058AE0065642049503A00454550524F4D20636F74
:1058BE006E74656E74733A00416464726573733A04
:1058CE0020000900446174613A20004469676974DC
:1058DE00616C20494F206361726420666F756E643F
:1058EE0021004469676974616C20696F206361727D
:1058FE0064206E6F7420666F756E640054696D65FA
:10590E0020746F2072756E207468652053657475EF
:10591E007000526573657474696E6720426F6F74A0
:10592E006C6F616465722E2E00706F6B6500492777
:10593E007665206265656E20706F6B6564210073FD
:10594E006E617052656C61795F6F6E00736E61701F
:10595E0052656C61795F6F66660046454D5F6F6E8E
:10596E000046454D5F6F66660050414D5F6F6E009D
:10597E0050414D206F6E0050414D5F6F6666007353
:10598E006E617076325F305F315F6F6E00736E6185
:10599E007076325F305F31206F6E00736E6170769D
:1059AE00325F305F315F6F666600736E61707632A4
:1059BE005F305F31206F666600736E617076325FA6
:1059CE00325F335F6F6E00736E617076325F325F7F
:1059DE0033206F6E00736E617076325F325F335FAD
:1059EE006F666600736E617076325F325F33206F62
:1059FE006666007265736574004D435039383038F1
:105A0E0020544F50206E6F7420666F756E64004D7B
:105A1E00435039383038204D4944206E6F7420661B
:105A2E006F756E640048545532314446206E6F7463
:105A3E0020666F756E642100554450207061636B53
:105A4E0065742073656E742E2E2E004C6F6F7073FE
:105A5E002072756E7320666F72000D0A006E616E95
:105A6E0000696E66006F7666000000000010090087
:105A7E000000005A0B3A07FA0A380BCC0AE60AD88D
:105A8E000A000000004D0E850E3707630E490E9971
:105A9E000EE10EFA0E7F0F640E790E2B10810E277B
:105AAE000FC20E2E0E350E450E00000000971D671C
:105ABE001D3707661D3B1D431D571D57495A6E6501
:025ACE00740062
:00000001FF
